{
	"contracts/FundMe.sol": {
		"FundMe": {
			"abi": [
				{
					"inputs": [],
					"stateMutability": "nonpayable",
					"type": "constructor"
				},
				{
					"inputs": [
						{
							"internalType": "address",
							"name": "",
							"type": "address"
						}
					],
					"name": "addressToAmountFunded",
					"outputs": [
						{
							"internalType": "uint256",
							"name": "",
							"type": "uint256"
						}
					],
					"stateMutability": "view",
					"type": "function"
				},
				{
					"inputs": [],
					"name": "fund",
					"outputs": [],
					"stateMutability": "payable",
					"type": "function"
				},
				{
					"inputs": [
						{
							"internalType": "uint256",
							"name": "",
							"type": "uint256"
						}
					],
					"name": "funders",
					"outputs": [
						{
							"internalType": "address",
							"name": "",
							"type": "address"
						}
					],
					"stateMutability": "view",
					"type": "function"
				},
				{
					"inputs": [
						{
							"internalType": "uint256",
							"name": "_ethAmount",
							"type": "uint256"
						}
					],
					"name": "getConversionRate",
					"outputs": [
						{
							"internalType": "uint256",
							"name": "",
							"type": "uint256"
						}
					],
					"stateMutability": "view",
					"type": "function"
				},
				{
					"inputs": [],
					"name": "getPrice",
					"outputs": [
						{
							"internalType": "uint256",
							"name": "",
							"type": "uint256"
						}
					],
					"stateMutability": "view",
					"type": "function"
				},
				{
					"inputs": [],
					"name": "getVersion",
					"outputs": [
						{
							"internalType": "uint256",
							"name": "",
							"type": "uint256"
						}
					],
					"stateMutability": "view",
					"type": "function"
				},
				{
					"inputs": [],
					"name": "withDraw",
					"outputs": [],
					"stateMutability": "payable",
					"type": "function"
				}
			],
			"devdoc": {
				"kind": "dev",
				"methods": {},
				"version": 1
			},
			"evm": {
				"assembly": "    /* \"contracts/FundMe.sol\":221:2234  contract FundMe\r... */\n  mstore(0x40, 0x80)\n    /* \"contracts/FundMe.sol\":404:460  constructor()\r... */\n  callvalue\n  dup1\n  iszero\n  tag_1\n  jumpi\n  0x00\n  dup1\n  revert\ntag_1:\n  pop\n    /* \"contracts/FundMe.sol\":442:452  msg.sender */\n  caller\n    /* \"contracts/FundMe.sol\":434:439  owner */\n  0x01\n  0x00\n    /* \"contracts/FundMe.sol\":434:452  owner = msg.sender */\n  0x0100\n  exp\n  dup2\n  sload\n  dup2\n  0xffffffffffffffffffffffffffffffffffffffff\n  mul\n  not\n  and\n  swap1\n  dup4\n  0xffffffffffffffffffffffffffffffffffffffff\n  and\n  mul\n  or\n  swap1\n  sstore\n  pop\n    /* \"contracts/FundMe.sol\":221:2234  contract FundMe\r... */\n  dataSize(sub_0)\n  dup1\n  dataOffset(sub_0)\n  0x00\n  codecopy\n  0x00\n  return\nstop\n\nsub_0: assembly {\n        /* \"contracts/FundMe.sol\":221:2234  contract FundMe\r... */\n      mstore(0x40, 0x80)\n      jumpi(tag_1, lt(calldatasize, 0x04))\n      shr(0xe0, calldataload(0x00))\n      dup1\n      0x6e5b6b28\n      gt\n      tag_9\n      jumpi\n      dup1\n      0x6e5b6b28\n      eq\n      tag_5\n      jumpi\n      dup1\n      0x98d5fdca\n      eq\n      tag_6\n      jumpi\n      dup1\n      0xb60d4288\n      eq\n      tag_7\n      jumpi\n      dup1\n      0xdc0d3dff\n      eq\n      tag_8\n      jumpi\n      jump(tag_1)\n    tag_9:\n      dup1\n      0x0d8e6e2c\n      eq\n      tag_2\n      jumpi\n      dup1\n      0x0fdb1c10\n      eq\n      tag_3\n      jumpi\n      dup1\n      0x3e47d6f3\n      eq\n      tag_4\n      jumpi\n    tag_1:\n      0x00\n      dup1\n      revert\n        /* \"contracts/FundMe.sol\":741:954  function getVersion() public view returns(uint256)\r... */\n    tag_2:\n      callvalue\n      dup1\n      iszero\n      tag_10\n      jumpi\n      0x00\n      dup1\n      revert\n    tag_10:\n      pop\n      tag_11\n      tag_12\n      jump\t// in\n    tag_11:\n      mload(0x40)\n      tag_13\n      swap2\n      swap1\n      tag_14\n      jump\t// in\n    tag_13:\n      mload(0x40)\n      dup1\n      swap2\n      sub\n      swap1\n      return\n        /* \"contracts/FundMe.sol\":1896:2231  function withDraw() payable onlyOwner public\r... */\n    tag_3:\n      tag_15\n      tag_16\n      jump\t// in\n    tag_15:\n      stop\n        /* \"contracts/FundMe.sol\":288:344  mapping(address => uint256) public addressToAmountFunded */\n    tag_4:\n      callvalue\n      dup1\n      iszero\n      tag_17\n      jumpi\n      0x00\n      dup1\n      revert\n    tag_17:\n      pop\n      tag_18\n      0x04\n      dup1\n      calldatasize\n      sub\n      dup2\n      add\n      swap1\n      tag_19\n      swap2\n      swap1\n      tag_20\n      jump\t// in\n    tag_19:\n      tag_21\n      jump\t// in\n    tag_18:\n      mload(0x40)\n      tag_22\n      swap2\n      swap1\n      tag_14\n      jump\t// in\n    tag_22:\n      mload(0x40)\n      dup1\n      swap2\n      sub\n      swap1\n      return\n        /* \"contracts/FundMe.sol\":1408:1646  function getConversionRate(uint256 _ethAmount) public view returns(uint256)\r... */\n    tag_5:\n      callvalue\n      dup1\n      iszero\n      tag_23\n      jumpi\n      0x00\n      dup1\n      revert\n    tag_23:\n      pop\n      tag_24\n      0x04\n      dup1\n      calldatasize\n      sub\n      dup2\n      add\n      swap1\n      tag_25\n      swap2\n      swap1\n      tag_26\n      jump\t// in\n    tag_25:\n      tag_27\n      jump\t// in\n    tag_24:\n      mload(0x40)\n      tag_28\n      swap2\n      swap1\n      tag_14\n      jump\t// in\n    tag_28:\n      mload(0x40)\n      dup1\n      swap2\n      sub\n      swap1\n      return\n        /* \"contracts/FundMe.sol\":962:1400  function getPrice() public view returns(uint256)\r... */\n    tag_6:\n      callvalue\n      dup1\n      iszero\n      tag_29\n      jumpi\n      0x00\n      dup1\n      revert\n    tag_29:\n      pop\n      tag_30\n      tag_31\n      jump\t// in\n    tag_30:\n      mload(0x40)\n      tag_32\n      swap2\n      swap1\n      tag_14\n      jump\t// in\n    tag_32:\n      mload(0x40)\n      dup1\n      swap2\n      sub\n      swap1\n      return\n        /* \"contracts/FundMe.sol\":466:733  function fund() public payable\r... */\n    tag_7:\n      tag_33\n      tag_34\n      jump\t// in\n    tag_33:\n      stop\n        /* \"contracts/FundMe.sol\":371:395  address[] public funders */\n    tag_8:\n      callvalue\n      dup1\n      iszero\n      tag_35\n      jumpi\n      0x00\n      dup1\n      revert\n    tag_35:\n      pop\n      tag_36\n      0x04\n      dup1\n      calldatasize\n      sub\n      dup2\n      add\n      swap1\n      tag_37\n      swap2\n      swap1\n      tag_26\n      jump\t// in\n    tag_37:\n      tag_38\n      jump\t// in\n    tag_36:\n      mload(0x40)\n      tag_39\n      swap2\n      swap1\n      tag_40\n      jump\t// in\n    tag_39:\n      mload(0x40)\n      dup1\n      swap2\n      sub\n      swap1\n      return\n        /* \"contracts/FundMe.sol\":741:954  function getVersion() public view returns(uint256)\r... */\n    tag_12:\n        /* \"contracts/FundMe.sol\":783:790  uint256 */\n      0x00\n        /* \"contracts/FundMe.sol\":808:839  AggregatorV3Interface pricefeed */\n      dup1\n        /* \"contracts/FundMe.sol\":864:906  0xD4a33860578De61DBAbDc8BFdb98FD742fA7028e */\n      0xd4a33860578de61dbabdc8bfdb98fd742fa7028e\n        /* \"contracts/FundMe.sol\":808:907  AggregatorV3Interface pricefeed = AggregatorV3Interface(0xD4a33860578De61DBAbDc8BFdb98FD742fA7028e) */\n      swap1\n      pop\n        /* \"contracts/FundMe.sol\":925:934  pricefeed */\n      dup1\n        /* \"contracts/FundMe.sol\":925:942  pricefeed.version */\n      0xffffffffffffffffffffffffffffffffffffffff\n      and\n      0x54fd4d50\n        /* \"contracts/FundMe.sol\":925:944  pricefeed.version() */\n      mload(0x40)\n      dup2\n      0xffffffff\n      and\n      0xe0\n      shl\n      dup2\n      mstore\n      0x04\n      add\n      0x20\n      mload(0x40)\n      dup1\n      dup4\n      sub\n      dup2\n      dup7\n      dup1\n      extcodesize\n      iszero\n      dup1\n      iszero\n      tag_42\n      jumpi\n      0x00\n      dup1\n      revert\n    tag_42:\n      pop\n      gas\n      staticcall\n      iszero\n      dup1\n      iszero\n      tag_44\n      jumpi\n      returndatasize\n      0x00\n      dup1\n      returndatacopy\n      revert(0x00, returndatasize)\n    tag_44:\n      pop\n      pop\n      pop\n      pop\n      mload(0x40)\n      returndatasize\n      not(0x1f)\n      0x1f\n      dup3\n      add\n      and\n      dup3\n      add\n      dup1\n      0x40\n      mstore\n      pop\n      dup2\n      add\n      swap1\n      tag_45\n      swap2\n      swap1\n      tag_46\n      jump\t// in\n    tag_45:\n        /* \"contracts/FundMe.sol\":918:944  return pricefeed.version() */\n      swap2\n      pop\n      pop\n        /* \"contracts/FundMe.sol\":741:954  function getVersion() public view returns(uint256)\r... */\n      swap1\n      jump\t// out\n        /* \"contracts/FundMe.sol\":1896:2231  function withDraw() payable onlyOwner public\r... */\n    tag_16:\n        /* \"contracts/FundMe.sol\":1838:1843  owner */\n      0x01\n      0x00\n      swap1\n      sload\n      swap1\n      0x0100\n      exp\n      swap1\n      div\n      0xffffffffffffffffffffffffffffffffffffffff\n      and\n        /* \"contracts/FundMe.sol\":1824:1843  msg.sender == owner */\n      0xffffffffffffffffffffffffffffffffffffffff\n      and\n        /* \"contracts/FundMe.sol\":1824:1834  msg.sender */\n      caller\n        /* \"contracts/FundMe.sol\":1824:1843  msg.sender == owner */\n      0xffffffffffffffffffffffffffffffffffffffff\n      and\n      eq\n        /* \"contracts/FundMe.sol\":1816:1870  require(msg.sender == owner,\"Only owner can withdraw\") */\n      tag_48\n      jumpi\n      mload(0x40)\n      0x08c379a000000000000000000000000000000000000000000000000000000000\n      dup2\n      mstore\n      0x04\n      add\n      tag_49\n      swap1\n      tag_50\n      jump\t// in\n    tag_49:\n      mload(0x40)\n      dup1\n      swap2\n      sub\n      swap1\n      revert\n    tag_48:\n        /* \"contracts/FundMe.sol\":2061:2071  msg.sender */\n      caller\n        /* \"contracts/FundMe.sol\":2053:2081  payable(msg.sender).transfer */\n      0xffffffffffffffffffffffffffffffffffffffff\n      and\n        /* \"contracts/FundMe.sol\":2053:2104  payable(msg.sender).transfer(address(this).balance) */\n      0x08fc\n        /* \"contracts/FundMe.sol\":2082:2103  address(this).balance */\n      selfbalance\n        /* \"contracts/FundMe.sol\":2053:2104  payable(msg.sender).transfer(address(this).balance) */\n      swap1\n      dup2\n      iszero\n      mul\n      swap1\n      mload(0x40)\n      0x00\n      mload(0x40)\n      dup1\n      dup4\n      sub\n      dup2\n      dup6\n      dup9\n      dup9\n      call\n      swap4\n      pop\n      pop\n      pop\n      pop\n      iszero\n      dup1\n      iszero\n      tag_53\n      jumpi\n      returndatasize\n      0x00\n      dup1\n      returndatacopy\n      revert(0x00, returndatasize)\n    tag_53:\n      pop\n        /* \"contracts/FundMe.sol\":2119:2128  uint256 i */\n      0x00\n        /* \"contracts/FundMe.sol\":2115:2224  for(uint256 i=0;i<funders.length;i++)\r... */\n    tag_54:\n        /* \"contracts/FundMe.sol\":2133:2140  funders */\n      0x02\n        /* \"contracts/FundMe.sol\":2133:2147  funders.length */\n      dup1\n      sload\n      swap1\n      pop\n        /* \"contracts/FundMe.sol\":2131:2132  i */\n      dup2\n        /* \"contracts/FundMe.sol\":2131:2147  i<funders.length */\n      lt\n        /* \"contracts/FundMe.sol\":2115:2224  for(uint256 i=0;i<funders.length;i++)\r... */\n      iszero\n      tag_55\n      jumpi\n        /* \"contracts/FundMe.sol\":2211:2212  0 */\n      0x00\n        /* \"contracts/FundMe.sol\":2177:2198  addressToAmountFunded */\n      dup1\n        /* \"contracts/FundMe.sol\":2177:2210  addressToAmountFunded[funders[i]] */\n      0x00\n        /* \"contracts/FundMe.sol\":2199:2206  funders */\n      0x02\n        /* \"contracts/FundMe.sol\":2207:2208  i */\n      dup5\n        /* \"contracts/FundMe.sol\":2199:2209  funders[i] */\n      dup2\n      sload\n      dup2\n      lt\n      tag_57\n      jumpi\n      tag_58\n      tag_59\n      jump\t// in\n    tag_58:\n    tag_57:\n      swap1\n      0x00\n      mstore\n      keccak256(0x00, 0x20)\n      add\n      0x00\n      swap1\n      sload\n      swap1\n      0x0100\n      exp\n      swap1\n      div\n      0xffffffffffffffffffffffffffffffffffffffff\n      and\n        /* \"contracts/FundMe.sol\":2177:2210  addressToAmountFunded[funders[i]] */\n      0xffffffffffffffffffffffffffffffffffffffff\n      and\n      0xffffffffffffffffffffffffffffffffffffffff\n      and\n      dup2\n      mstore\n      0x20\n      add\n      swap1\n      dup2\n      mstore\n      0x20\n      add\n      0x00\n      keccak256\n        /* \"contracts/FundMe.sol\":2177:2212  addressToAmountFunded[funders[i]]=0 */\n      dup2\n      swap1\n      sstore\n      pop\n        /* \"contracts/FundMe.sol\":2148:2151  i++ */\n      dup1\n      dup1\n      tag_61\n      swap1\n      tag_62\n      jump\t// in\n    tag_61:\n      swap2\n      pop\n      pop\n        /* \"contracts/FundMe.sol\":2115:2224  for(uint256 i=0;i<funders.length;i++)\r... */\n      jump(tag_54)\n    tag_55:\n      pop\n        /* \"contracts/FundMe.sol\":1896:2231  function withDraw() payable onlyOwner public\r... */\n      jump\t// out\n        /* \"contracts/FundMe.sol\":288:344  mapping(address => uint256) public addressToAmountFunded */\n    tag_21:\n      mstore(0x20, 0x00)\n      dup1\n      0x00\n      mstore\n      keccak256(0x00, 0x40)\n      0x00\n      swap2\n      pop\n      swap1\n      pop\n      sload\n      dup2\n      jump\t// out\n        /* \"contracts/FundMe.sol\":1408:1646  function getConversionRate(uint256 _ethAmount) public view returns(uint256)\r... */\n    tag_27:\n        /* \"contracts/FundMe.sol\":1475:1482  uint256 */\n      0x00\n        /* \"contracts/FundMe.sol\":1500:1516  uint256 ethPrice */\n      dup1\n        /* \"contracts/FundMe.sol\":1519:1529  getPrice() */\n      tag_64\n        /* \"contracts/FundMe.sol\":1519:1527  getPrice */\n      tag_31\n        /* \"contracts/FundMe.sol\":1519:1529  getPrice() */\n      jump\t// in\n    tag_64:\n        /* \"contracts/FundMe.sol\":1500:1529  uint256 ethPrice = getPrice() */\n      swap1\n      pop\n        /* \"contracts/FundMe.sol\":1540:1562  uint256 ethAmountInUsd */\n      0x00\n        /* \"contracts/FundMe.sol\":1587:1606  1000000000000000000 */\n      0x0de0b6b3a7640000\n        /* \"contracts/FundMe.sol\":1575:1585  _ethAmount */\n      dup5\n        /* \"contracts/FundMe.sol\":1566:1574  ethPrice */\n      dup4\n        /* \"contracts/FundMe.sol\":1566:1585  ethPrice*_ethAmount */\n      tag_65\n      swap2\n      swap1\n      tag_66\n      jump\t// in\n    tag_65:\n        /* \"contracts/FundMe.sol\":1565:1606  (ethPrice*_ethAmount)/1000000000000000000 */\n      tag_67\n      swap2\n      swap1\n      tag_68\n      jump\t// in\n    tag_67:\n        /* \"contracts/FundMe.sol\":1540:1606  uint256 ethAmountInUsd = (ethPrice*_ethAmount)/1000000000000000000 */\n      swap1\n      pop\n        /* \"contracts/FundMe.sol\":1624:1638  ethAmountInUsd */\n      dup1\n        /* \"contracts/FundMe.sol\":1617:1638  return ethAmountInUsd */\n      swap3\n      pop\n      pop\n      pop\n        /* \"contracts/FundMe.sol\":1408:1646  function getConversionRate(uint256 _ethAmount) public view returns(uint256)\r... */\n      swap2\n      swap1\n      pop\n      jump\t// out\n        /* \"contracts/FundMe.sol\":962:1400  function getPrice() public view returns(uint256)\r... */\n    tag_31:\n        /* \"contracts/FundMe.sol\":1002:1009  uint256 */\n      0x00\n        /* \"contracts/FundMe.sol\":1027:1058  AggregatorV3Interface pricefeed */\n      dup1\n        /* \"contracts/FundMe.sol\":1083:1125  0xD4a33860578De61DBAbDc8BFdb98FD742fA7028e */\n      0xd4a33860578de61dbabdc8bfdb98fd742fa7028e\n        /* \"contracts/FundMe.sol\":1027:1126  AggregatorV3Interface pricefeed = AggregatorV3Interface(0xD4a33860578De61DBAbDc8BFdb98FD742fA7028e) */\n      swap1\n      pop\n        /* \"contracts/FundMe.sol\":1185:1198  int256 answer */\n      0x00\n        /* \"contracts/FundMe.sol\":1319:1328  pricefeed */\n      dup2\n        /* \"contracts/FundMe.sol\":1319:1344  pricefeed.latestRoundData */\n      0xffffffffffffffffffffffffffffffffffffffff\n      and\n      0xfeaf968c\n        /* \"contracts/FundMe.sol\":1319:1346  pricefeed.latestRoundData() */\n      mload(0x40)\n      dup2\n      0xffffffff\n      and\n      0xe0\n      shl\n      dup2\n      mstore\n      0x04\n      add\n      0xa0\n      mload(0x40)\n      dup1\n      dup4\n      sub\n      dup2\n      dup7\n      dup1\n      extcodesize\n      iszero\n      dup1\n      iszero\n      tag_70\n      jumpi\n      0x00\n      dup1\n      revert\n    tag_70:\n      pop\n      gas\n      staticcall\n      iszero\n      dup1\n      iszero\n      tag_72\n      jumpi\n      returndatasize\n      0x00\n      dup1\n      returndatacopy\n      revert(0x00, returndatasize)\n    tag_72:\n      pop\n      pop\n      pop\n      pop\n      mload(0x40)\n      returndatasize\n      not(0x1f)\n      0x1f\n      dup3\n      add\n      and\n      dup3\n      add\n      dup1\n      0x40\n      mstore\n      pop\n      dup2\n      add\n      swap1\n      tag_73\n      swap2\n      swap1\n      tag_74\n      jump\t// in\n    tag_73:\n        /* \"contracts/FundMe.sol\":1137:1346  (\r... */\n      pop\n      pop\n      pop\n      swap2\n      pop\n      pop\n        /* \"contracts/FundMe.sol\":1379:1390  10000000000 */\n      0x02540be400\n        /* \"contracts/FundMe.sol\":1372:1378  answer */\n      dup2\n        /* \"contracts/FundMe.sol\":1372:1390  answer*10000000000 */\n      tag_75\n      swap2\n      swap1\n      tag_76\n      jump\t// in\n    tag_75:\n        /* \"contracts/FundMe.sol\":1357:1391  return uint256(answer*10000000000) */\n      swap3\n      pop\n      pop\n      pop\n        /* \"contracts/FundMe.sol\":962:1400  function getPrice() public view returns(uint256)\r... */\n      swap1\n      jump\t// out\n        /* \"contracts/FundMe.sol\":466:733  function fund() public payable\r... */\n    tag_34:\n        /* \"contracts/FundMe.sol\":513:531  uint256 minimumUSD */\n      0x00\n        /* \"contracts/FundMe.sol\":534:542  50*10*18 */\n      0x2328\n        /* \"contracts/FundMe.sol\":513:542  uint256 minimumUSD = 50*10*18 */\n      swap1\n      pop\n        /* \"contracts/FundMe.sol\":593:603  minimumUSD */\n      dup1\n        /* \"contracts/FundMe.sol\":561:589  getConversionRate(msg.value) */\n      tag_78\n        /* \"contracts/FundMe.sol\":579:588  msg.value */\n      callvalue\n        /* \"contracts/FundMe.sol\":561:578  getConversionRate */\n      tag_27\n        /* \"contracts/FundMe.sol\":561:589  getConversionRate(msg.value) */\n      jump\t// in\n    tag_78:\n        /* \"contracts/FundMe.sol\":561:603  getConversionRate(msg.value) >= minimumUSD */\n      lt\n      iszero\n        /* \"contracts/FundMe.sol\":553:633  require(getConversionRate(msg.value) >= minimumUSD,\"You need to spend more ETH\") */\n      tag_79\n      jumpi\n      mload(0x40)\n      0x08c379a000000000000000000000000000000000000000000000000000000000\n      dup2\n      mstore\n      0x04\n      add\n      tag_80\n      swap1\n      tag_81\n      jump\t// in\n    tag_80:\n      mload(0x40)\n      dup1\n      swap2\n      sub\n      swap1\n      revert\n    tag_79:\n        /* \"contracts/FundMe.sol\":681:690  msg.value */\n      callvalue\n        /* \"contracts/FundMe.sol\":644:665  addressToAmountFunded */\n      0x00\n        /* \"contracts/FundMe.sol\":644:677  addressToAmountFunded[msg.sender] */\n      dup1\n        /* \"contracts/FundMe.sol\":666:676  msg.sender */\n      caller\n        /* \"contracts/FundMe.sol\":644:677  addressToAmountFunded[msg.sender] */\n      0xffffffffffffffffffffffffffffffffffffffff\n      and\n      0xffffffffffffffffffffffffffffffffffffffff\n      and\n      dup2\n      mstore\n      0x20\n      add\n      swap1\n      dup2\n      mstore\n      0x20\n      add\n      0x00\n      keccak256\n      0x00\n        /* \"contracts/FundMe.sol\":644:690  addressToAmountFunded[msg.sender] += msg.value */\n      dup3\n      dup3\n      sload\n      tag_82\n      swap2\n      swap1\n      tag_83\n      jump\t// in\n    tag_82:\n      swap3\n      pop\n      pop\n      dup2\n      swap1\n      sstore\n      pop\n        /* \"contracts/FundMe.sol\":701:708  funders */\n      0x02\n        /* \"contracts/FundMe.sol\":714:724  msg.sender */\n      caller\n        /* \"contracts/FundMe.sol\":701:725  funders.push(msg.sender) */\n      swap1\n      dup1\n      0x01\n      dup2\n      sload\n      add\n      dup1\n      dup3\n      sstore\n      dup1\n      swap2\n      pop\n      pop\n      0x01\n      swap1\n      sub\n      swap1\n      0x00\n      mstore\n      keccak256(0x00, 0x20)\n      add\n      0x00\n      swap1\n      swap2\n      swap1\n      swap2\n      swap1\n      swap2\n      0x0100\n      exp\n      dup2\n      sload\n      dup2\n      0xffffffffffffffffffffffffffffffffffffffff\n      mul\n      not\n      and\n      swap1\n      dup4\n      0xffffffffffffffffffffffffffffffffffffffff\n      and\n      mul\n      or\n      swap1\n      sstore\n      pop\n        /* \"contracts/FundMe.sol\":502:733  {\r... */\n      pop\n        /* \"contracts/FundMe.sol\":466:733  function fund() public payable\r... */\n      jump\t// out\n        /* \"contracts/FundMe.sol\":371:395  address[] public funders */\n    tag_38:\n      0x02\n      dup2\n      dup2\n      sload\n      dup2\n      lt\n      tag_85\n      jumpi\n      0x00\n      dup1\n      revert\n    tag_85:\n      swap1\n      0x00\n      mstore\n      keccak256(0x00, 0x20)\n      add\n      0x00\n      swap2\n      pop\n      sload\n      swap1\n      0x0100\n      exp\n      swap1\n      div\n      0xffffffffffffffffffffffffffffffffffffffff\n      and\n      dup2\n      jump\t// out\n        /* \"#utility.yul\":7:146   */\n    tag_88:\n        /* \"#utility.yul\":53:58   */\n      0x00\n        /* \"#utility.yul\":91:97   */\n      dup2\n        /* \"#utility.yul\":78:98   */\n      calldataload\n        /* \"#utility.yul\":69:98   */\n      swap1\n      pop\n        /* \"#utility.yul\":107:140   */\n      tag_90\n        /* \"#utility.yul\":134:139   */\n      dup2\n        /* \"#utility.yul\":107:140   */\n      tag_91\n      jump\t// in\n    tag_90:\n        /* \"#utility.yul\":7:146   */\n      swap3\n      swap2\n      pop\n      pop\n      jump\t// out\n        /* \"#utility.yul\":152:293   */\n    tag_92:\n        /* \"#utility.yul\":208:213   */\n      0x00\n        /* \"#utility.yul\":239:245   */\n      dup2\n        /* \"#utility.yul\":233:246   */\n      mload\n        /* \"#utility.yul\":224:246   */\n      swap1\n      pop\n        /* \"#utility.yul\":255:287   */\n      tag_94\n        /* \"#utility.yul\":281:286   */\n      dup2\n        /* \"#utility.yul\":255:287   */\n      tag_95\n      jump\t// in\n    tag_94:\n        /* \"#utility.yul\":152:293   */\n      swap3\n      swap2\n      pop\n      pop\n      jump\t// out\n        /* \"#utility.yul\":299:438   */\n    tag_96:\n        /* \"#utility.yul\":345:350   */\n      0x00\n        /* \"#utility.yul\":383:389   */\n      dup2\n        /* \"#utility.yul\":370:390   */\n      calldataload\n        /* \"#utility.yul\":361:390   */\n      swap1\n      pop\n        /* \"#utility.yul\":399:432   */\n      tag_98\n        /* \"#utility.yul\":426:431   */\n      dup2\n        /* \"#utility.yul\":399:432   */\n      tag_99\n      jump\t// in\n    tag_98:\n        /* \"#utility.yul\":299:438   */\n      swap3\n      swap2\n      pop\n      pop\n      jump\t// out\n        /* \"#utility.yul\":444:587   */\n    tag_100:\n        /* \"#utility.yul\":501:506   */\n      0x00\n        /* \"#utility.yul\":532:538   */\n      dup2\n        /* \"#utility.yul\":526:539   */\n      mload\n        /* \"#utility.yul\":517:539   */\n      swap1\n      pop\n        /* \"#utility.yul\":548:581   */\n      tag_102\n        /* \"#utility.yul\":575:580   */\n      dup2\n        /* \"#utility.yul\":548:581   */\n      tag_99\n      jump\t// in\n    tag_102:\n        /* \"#utility.yul\":444:587   */\n      swap3\n      swap2\n      pop\n      pop\n      jump\t// out\n        /* \"#utility.yul\":593:734   */\n    tag_103:\n        /* \"#utility.yul\":649:654   */\n      0x00\n        /* \"#utility.yul\":680:686   */\n      dup2\n        /* \"#utility.yul\":674:687   */\n      mload\n        /* \"#utility.yul\":665:687   */\n      swap1\n      pop\n        /* \"#utility.yul\":696:728   */\n      tag_105\n        /* \"#utility.yul\":722:727   */\n      dup2\n        /* \"#utility.yul\":696:728   */\n      tag_106\n      jump\t// in\n    tag_105:\n        /* \"#utility.yul\":593:734   */\n      swap3\n      swap2\n      pop\n      pop\n      jump\t// out\n        /* \"#utility.yul\":740:1069   */\n    tag_20:\n        /* \"#utility.yul\":799:805   */\n      0x00\n        /* \"#utility.yul\":848:850   */\n      0x20\n        /* \"#utility.yul\":836:845   */\n      dup3\n        /* \"#utility.yul\":827:834   */\n      dup5\n        /* \"#utility.yul\":823:846   */\n      sub\n        /* \"#utility.yul\":819:851   */\n      slt\n        /* \"#utility.yul\":816:935   */\n      iszero\n      tag_108\n      jumpi\n        /* \"#utility.yul\":854:933   */\n      tag_109\n      tag_110\n      jump\t// in\n    tag_109:\n        /* \"#utility.yul\":816:935   */\n    tag_108:\n        /* \"#utility.yul\":974:975   */\n      0x00\n        /* \"#utility.yul\":999:1052   */\n      tag_111\n        /* \"#utility.yul\":1044:1051   */\n      dup5\n        /* \"#utility.yul\":1035:1041   */\n      dup3\n        /* \"#utility.yul\":1024:1033   */\n      dup6\n        /* \"#utility.yul\":1020:1042   */\n      add\n        /* \"#utility.yul\":999:1052   */\n      tag_88\n      jump\t// in\n    tag_111:\n        /* \"#utility.yul\":989:1052   */\n      swap2\n      pop\n        /* \"#utility.yul\":945:1062   */\n      pop\n        /* \"#utility.yul\":740:1069   */\n      swap3\n      swap2\n      pop\n      pop\n      jump\t// out\n        /* \"#utility.yul\":1075:1404   */\n    tag_26:\n        /* \"#utility.yul\":1134:1140   */\n      0x00\n        /* \"#utility.yul\":1183:1185   */\n      0x20\n        /* \"#utility.yul\":1171:1180   */\n      dup3\n        /* \"#utility.yul\":1162:1169   */\n      dup5\n        /* \"#utility.yul\":1158:1181   */\n      sub\n        /* \"#utility.yul\":1154:1186   */\n      slt\n        /* \"#utility.yul\":1151:1270   */\n      iszero\n      tag_113\n      jumpi\n        /* \"#utility.yul\":1189:1268   */\n      tag_114\n      tag_110\n      jump\t// in\n    tag_114:\n        /* \"#utility.yul\":1151:1270   */\n    tag_113:\n        /* \"#utility.yul\":1309:1310   */\n      0x00\n        /* \"#utility.yul\":1334:1387   */\n      tag_115\n        /* \"#utility.yul\":1379:1386   */\n      dup5\n        /* \"#utility.yul\":1370:1376   */\n      dup3\n        /* \"#utility.yul\":1359:1368   */\n      dup6\n        /* \"#utility.yul\":1355:1377   */\n      add\n        /* \"#utility.yul\":1334:1387   */\n      tag_96\n      jump\t// in\n    tag_115:\n        /* \"#utility.yul\":1324:1387   */\n      swap2\n      pop\n        /* \"#utility.yul\":1280:1397   */\n      pop\n        /* \"#utility.yul\":1075:1404   */\n      swap3\n      swap2\n      pop\n      pop\n      jump\t// out\n        /* \"#utility.yul\":1410:1761   */\n    tag_46:\n        /* \"#utility.yul\":1480:1486   */\n      0x00\n        /* \"#utility.yul\":1529:1531   */\n      0x20\n        /* \"#utility.yul\":1517:1526   */\n      dup3\n        /* \"#utility.yul\":1508:1515   */\n      dup5\n        /* \"#utility.yul\":1504:1527   */\n      sub\n        /* \"#utility.yul\":1500:1532   */\n      slt\n        /* \"#utility.yul\":1497:1616   */\n      iszero\n      tag_117\n      jumpi\n        /* \"#utility.yul\":1535:1614   */\n      tag_118\n      tag_110\n      jump\t// in\n    tag_118:\n        /* \"#utility.yul\":1497:1616   */\n    tag_117:\n        /* \"#utility.yul\":1655:1656   */\n      0x00\n        /* \"#utility.yul\":1680:1744   */\n      tag_119\n        /* \"#utility.yul\":1736:1743   */\n      dup5\n        /* \"#utility.yul\":1727:1733   */\n      dup3\n        /* \"#utility.yul\":1716:1725   */\n      dup6\n        /* \"#utility.yul\":1712:1734   */\n      add\n        /* \"#utility.yul\":1680:1744   */\n      tag_100\n      jump\t// in\n    tag_119:\n        /* \"#utility.yul\":1670:1744   */\n      swap2\n      pop\n        /* \"#utility.yul\":1626:1754   */\n      pop\n        /* \"#utility.yul\":1410:1761   */\n      swap3\n      swap2\n      pop\n      pop\n      jump\t// out\n        /* \"#utility.yul\":1767:2738   */\n    tag_74:\n        /* \"#utility.yul\":1870:1876   */\n      0x00\n        /* \"#utility.yul\":1878:1884   */\n      dup1\n        /* \"#utility.yul\":1886:1892   */\n      0x00\n        /* \"#utility.yul\":1894:1900   */\n      dup1\n        /* \"#utility.yul\":1902:1908   */\n      0x00\n        /* \"#utility.yul\":1951:1954   */\n      0xa0\n        /* \"#utility.yul\":1939:1948   */\n      dup7\n        /* \"#utility.yul\":1930:1937   */\n      dup9\n        /* \"#utility.yul\":1926:1949   */\n      sub\n        /* \"#utility.yul\":1922:1955   */\n      slt\n        /* \"#utility.yul\":1919:2039   */\n      iszero\n      tag_121\n      jumpi\n        /* \"#utility.yul\":1958:2037   */\n      tag_122\n      tag_110\n      jump\t// in\n    tag_122:\n        /* \"#utility.yul\":1919:2039   */\n    tag_121:\n        /* \"#utility.yul\":2078:2079   */\n      0x00\n        /* \"#utility.yul\":2103:2166   */\n      tag_123\n        /* \"#utility.yul\":2158:2165   */\n      dup9\n        /* \"#utility.yul\":2149:2155   */\n      dup3\n        /* \"#utility.yul\":2138:2147   */\n      dup10\n        /* \"#utility.yul\":2134:2156   */\n      add\n        /* \"#utility.yul\":2103:2166   */\n      tag_103\n      jump\t// in\n    tag_123:\n        /* \"#utility.yul\":2093:2166   */\n      swap6\n      pop\n        /* \"#utility.yul\":2049:2176   */\n      pop\n        /* \"#utility.yul\":2215:2217   */\n      0x20\n        /* \"#utility.yul\":2241:2304   */\n      tag_124\n        /* \"#utility.yul\":2296:2303   */\n      dup9\n        /* \"#utility.yul\":2287:2293   */\n      dup3\n        /* \"#utility.yul\":2276:2285   */\n      dup10\n        /* \"#utility.yul\":2272:2294   */\n      add\n        /* \"#utility.yul\":2241:2304   */\n      tag_92\n      jump\t// in\n    tag_124:\n        /* \"#utility.yul\":2231:2304   */\n      swap5\n      pop\n        /* \"#utility.yul\":2186:2314   */\n      pop\n        /* \"#utility.yul\":2353:2355   */\n      0x40\n        /* \"#utility.yul\":2379:2443   */\n      tag_125\n        /* \"#utility.yul\":2435:2442   */\n      dup9\n        /* \"#utility.yul\":2426:2432   */\n      dup3\n        /* \"#utility.yul\":2415:2424   */\n      dup10\n        /* \"#utility.yul\":2411:2433   */\n      add\n        /* \"#utility.yul\":2379:2443   */\n      tag_100\n      jump\t// in\n    tag_125:\n        /* \"#utility.yul\":2369:2443   */\n      swap4\n      pop\n        /* \"#utility.yul\":2324:2453   */\n      pop\n        /* \"#utility.yul\":2492:2494   */\n      0x60\n        /* \"#utility.yul\":2518:2582   */\n      tag_126\n        /* \"#utility.yul\":2574:2581   */\n      dup9\n        /* \"#utility.yul\":2565:2571   */\n      dup3\n        /* \"#utility.yul\":2554:2563   */\n      dup10\n        /* \"#utility.yul\":2550:2572   */\n      add\n        /* \"#utility.yul\":2518:2582   */\n      tag_100\n      jump\t// in\n    tag_126:\n        /* \"#utility.yul\":2508:2582   */\n      swap3\n      pop\n        /* \"#utility.yul\":2463:2592   */\n      pop\n        /* \"#utility.yul\":2631:2634   */\n      0x80\n        /* \"#utility.yul\":2658:2721   */\n      tag_127\n        /* \"#utility.yul\":2713:2720   */\n      dup9\n        /* \"#utility.yul\":2704:2710   */\n      dup3\n        /* \"#utility.yul\":2693:2702   */\n      dup10\n        /* \"#utility.yul\":2689:2711   */\n      add\n        /* \"#utility.yul\":2658:2721   */\n      tag_103\n      jump\t// in\n    tag_127:\n        /* \"#utility.yul\":2648:2721   */\n      swap2\n      pop\n        /* \"#utility.yul\":2602:2731   */\n      pop\n        /* \"#utility.yul\":1767:2738   */\n      swap3\n      swap6\n      pop\n      swap3\n      swap6\n      swap1\n      swap4\n      pop\n      jump\t// out\n        /* \"#utility.yul\":2744:2862   */\n    tag_128:\n        /* \"#utility.yul\":2831:2855   */\n      tag_130\n        /* \"#utility.yul\":2849:2854   */\n      dup2\n        /* \"#utility.yul\":2831:2855   */\n      tag_131\n      jump\t// in\n    tag_130:\n        /* \"#utility.yul\":2826:2829   */\n      dup3\n        /* \"#utility.yul\":2819:2856   */\n      mstore\n        /* \"#utility.yul\":2744:2862   */\n      pop\n      pop\n      jump\t// out\n        /* \"#utility.yul\":2868:3234   */\n    tag_132:\n        /* \"#utility.yul\":3010:3013   */\n      0x00\n        /* \"#utility.yul\":3031:3098   */\n      tag_134\n        /* \"#utility.yul\":3095:3097   */\n      0x17\n        /* \"#utility.yul\":3090:3093   */\n      dup4\n        /* \"#utility.yul\":3031:3098   */\n      tag_135\n      jump\t// in\n    tag_134:\n        /* \"#utility.yul\":3024:3098   */\n      swap2\n      pop\n        /* \"#utility.yul\":3107:3200   */\n      tag_136\n        /* \"#utility.yul\":3196:3199   */\n      dup3\n        /* \"#utility.yul\":3107:3200   */\n      tag_137\n      jump\t// in\n    tag_136:\n        /* \"#utility.yul\":3225:3227   */\n      0x20\n        /* \"#utility.yul\":3220:3223   */\n      dup3\n        /* \"#utility.yul\":3216:3228   */\n      add\n        /* \"#utility.yul\":3209:3228   */\n      swap1\n      pop\n        /* \"#utility.yul\":2868:3234   */\n      swap2\n      swap1\n      pop\n      jump\t// out\n        /* \"#utility.yul\":3240:3606   */\n    tag_138:\n        /* \"#utility.yul\":3382:3385   */\n      0x00\n        /* \"#utility.yul\":3403:3470   */\n      tag_140\n        /* \"#utility.yul\":3467:3469   */\n      0x1a\n        /* \"#utility.yul\":3462:3465   */\n      dup4\n        /* \"#utility.yul\":3403:3470   */\n      tag_135\n      jump\t// in\n    tag_140:\n        /* \"#utility.yul\":3396:3470   */\n      swap2\n      pop\n        /* \"#utility.yul\":3479:3572   */\n      tag_141\n        /* \"#utility.yul\":3568:3571   */\n      dup3\n        /* \"#utility.yul\":3479:3572   */\n      tag_142\n      jump\t// in\n    tag_141:\n        /* \"#utility.yul\":3597:3599   */\n      0x20\n        /* \"#utility.yul\":3592:3595   */\n      dup3\n        /* \"#utility.yul\":3588:3600   */\n      add\n        /* \"#utility.yul\":3581:3600   */\n      swap1\n      pop\n        /* \"#utility.yul\":3240:3606   */\n      swap2\n      swap1\n      pop\n      jump\t// out\n        /* \"#utility.yul\":3612:3730   */\n    tag_143:\n        /* \"#utility.yul\":3699:3723   */\n      tag_145\n        /* \"#utility.yul\":3717:3722   */\n      dup2\n        /* \"#utility.yul\":3699:3723   */\n      tag_146\n      jump\t// in\n    tag_145:\n        /* \"#utility.yul\":3694:3697   */\n      dup3\n        /* \"#utility.yul\":3687:3724   */\n      mstore\n        /* \"#utility.yul\":3612:3730   */\n      pop\n      pop\n      jump\t// out\n        /* \"#utility.yul\":3736:3958   */\n    tag_40:\n        /* \"#utility.yul\":3829:3833   */\n      0x00\n        /* \"#utility.yul\":3867:3869   */\n      0x20\n        /* \"#utility.yul\":3856:3865   */\n      dup3\n        /* \"#utility.yul\":3852:3870   */\n      add\n        /* \"#utility.yul\":3844:3870   */\n      swap1\n      pop\n        /* \"#utility.yul\":3880:3951   */\n      tag_148\n        /* \"#utility.yul\":3948:3949   */\n      0x00\n        /* \"#utility.yul\":3937:3946   */\n      dup4\n        /* \"#utility.yul\":3933:3950   */\n      add\n        /* \"#utility.yul\":3924:3930   */\n      dup5\n        /* \"#utility.yul\":3880:3951   */\n      tag_128\n      jump\t// in\n    tag_148:\n        /* \"#utility.yul\":3736:3958   */\n      swap3\n      swap2\n      pop\n      pop\n      jump\t// out\n        /* \"#utility.yul\":3964:4383   */\n    tag_50:\n        /* \"#utility.yul\":4130:4134   */\n      0x00\n        /* \"#utility.yul\":4168:4170   */\n      0x20\n        /* \"#utility.yul\":4157:4166   */\n      dup3\n        /* \"#utility.yul\":4153:4171   */\n      add\n        /* \"#utility.yul\":4145:4171   */\n      swap1\n      pop\n        /* \"#utility.yul\":4217:4226   */\n      dup2\n        /* \"#utility.yul\":4211:4215   */\n      dup2\n        /* \"#utility.yul\":4207:4227   */\n      sub\n        /* \"#utility.yul\":4203:4204   */\n      0x00\n        /* \"#utility.yul\":4192:4201   */\n      dup4\n        /* \"#utility.yul\":4188:4205   */\n      add\n        /* \"#utility.yul\":4181:4228   */\n      mstore\n        /* \"#utility.yul\":4245:4376   */\n      tag_150\n        /* \"#utility.yul\":4371:4375   */\n      dup2\n        /* \"#utility.yul\":4245:4376   */\n      tag_132\n      jump\t// in\n    tag_150:\n        /* \"#utility.yul\":4237:4376   */\n      swap1\n      pop\n        /* \"#utility.yul\":3964:4383   */\n      swap2\n      swap1\n      pop\n      jump\t// out\n        /* \"#utility.yul\":4389:4808   */\n    tag_81:\n        /* \"#utility.yul\":4555:4559   */\n      0x00\n        /* \"#utility.yul\":4593:4595   */\n      0x20\n        /* \"#utility.yul\":4582:4591   */\n      dup3\n        /* \"#utility.yul\":4578:4596   */\n      add\n        /* \"#utility.yul\":4570:4596   */\n      swap1\n      pop\n        /* \"#utility.yul\":4642:4651   */\n      dup2\n        /* \"#utility.yul\":4636:4640   */\n      dup2\n        /* \"#utility.yul\":4632:4652   */\n      sub\n        /* \"#utility.yul\":4628:4629   */\n      0x00\n        /* \"#utility.yul\":4617:4626   */\n      dup4\n        /* \"#utility.yul\":4613:4630   */\n      add\n        /* \"#utility.yul\":4606:4653   */\n      mstore\n        /* \"#utility.yul\":4670:4801   */\n      tag_152\n        /* \"#utility.yul\":4796:4800   */\n      dup2\n        /* \"#utility.yul\":4670:4801   */\n      tag_138\n      jump\t// in\n    tag_152:\n        /* \"#utility.yul\":4662:4801   */\n      swap1\n      pop\n        /* \"#utility.yul\":4389:4808   */\n      swap2\n      swap1\n      pop\n      jump\t// out\n        /* \"#utility.yul\":4814:5036   */\n    tag_14:\n        /* \"#utility.yul\":4907:4911   */\n      0x00\n        /* \"#utility.yul\":4945:4947   */\n      0x20\n        /* \"#utility.yul\":4934:4943   */\n      dup3\n        /* \"#utility.yul\":4930:4948   */\n      add\n        /* \"#utility.yul\":4922:4948   */\n      swap1\n      pop\n        /* \"#utility.yul\":4958:5029   */\n      tag_154\n        /* \"#utility.yul\":5026:5027   */\n      0x00\n        /* \"#utility.yul\":5015:5024   */\n      dup4\n        /* \"#utility.yul\":5011:5028   */\n      add\n        /* \"#utility.yul\":5002:5008   */\n      dup5\n        /* \"#utility.yul\":4958:5029   */\n      tag_143\n      jump\t// in\n    tag_154:\n        /* \"#utility.yul\":4814:5036   */\n      swap3\n      swap2\n      pop\n      pop\n      jump\t// out\n        /* \"#utility.yul\":5123:5292   */\n    tag_135:\n        /* \"#utility.yul\":5207:5218   */\n      0x00\n        /* \"#utility.yul\":5241:5247   */\n      dup3\n        /* \"#utility.yul\":5236:5239   */\n      dup3\n        /* \"#utility.yul\":5229:5248   */\n      mstore\n        /* \"#utility.yul\":5281:5285   */\n      0x20\n        /* \"#utility.yul\":5276:5279   */\n      dup3\n        /* \"#utility.yul\":5272:5286   */\n      add\n        /* \"#utility.yul\":5257:5286   */\n      swap1\n      pop\n        /* \"#utility.yul\":5123:5292   */\n      swap3\n      swap2\n      pop\n      pop\n      jump\t// out\n        /* \"#utility.yul\":5298:5603   */\n    tag_83:\n        /* \"#utility.yul\":5338:5341   */\n      0x00\n        /* \"#utility.yul\":5357:5377   */\n      tag_159\n        /* \"#utility.yul\":5375:5376   */\n      dup3\n        /* \"#utility.yul\":5357:5377   */\n      tag_146\n      jump\t// in\n    tag_159:\n        /* \"#utility.yul\":5352:5377   */\n      swap2\n      pop\n        /* \"#utility.yul\":5391:5411   */\n      tag_160\n        /* \"#utility.yul\":5409:5410   */\n      dup4\n        /* \"#utility.yul\":5391:5411   */\n      tag_146\n      jump\t// in\n    tag_160:\n        /* \"#utility.yul\":5386:5411   */\n      swap3\n      pop\n        /* \"#utility.yul\":5545:5546   */\n      dup3\n        /* \"#utility.yul\":5477:5543   */\n      0xffffffffffffffffffffffffffffffffffffffffffffffffffffffffffffffff\n        /* \"#utility.yul\":5473:5547   */\n      sub\n        /* \"#utility.yul\":5470:5471   */\n      dup3\n        /* \"#utility.yul\":5467:5548   */\n      gt\n        /* \"#utility.yul\":5464:5571   */\n      iszero\n      tag_161\n      jumpi\n        /* \"#utility.yul\":5551:5569   */\n      tag_162\n      tag_163\n      jump\t// in\n    tag_162:\n        /* \"#utility.yul\":5464:5571   */\n    tag_161:\n        /* \"#utility.yul\":5595:5596   */\n      dup3\n        /* \"#utility.yul\":5592:5593   */\n      dup3\n        /* \"#utility.yul\":5588:5597   */\n      add\n        /* \"#utility.yul\":5581:5597   */\n      swap1\n      pop\n        /* \"#utility.yul\":5298:5603   */\n      swap3\n      swap2\n      pop\n      pop\n      jump\t// out\n        /* \"#utility.yul\":5609:5794   */\n    tag_68:\n        /* \"#utility.yul\":5649:5650   */\n      0x00\n        /* \"#utility.yul\":5666:5686   */\n      tag_165\n        /* \"#utility.yul\":5684:5685   */\n      dup3\n        /* \"#utility.yul\":5666:5686   */\n      tag_146\n      jump\t// in\n    tag_165:\n        /* \"#utility.yul\":5661:5686   */\n      swap2\n      pop\n        /* \"#utility.yul\":5700:5720   */\n      tag_166\n        /* \"#utility.yul\":5718:5719   */\n      dup4\n        /* \"#utility.yul\":5700:5720   */\n      tag_146\n      jump\t// in\n    tag_166:\n        /* \"#utility.yul\":5695:5720   */\n      swap3\n      pop\n        /* \"#utility.yul\":5739:5740   */\n      dup3\n        /* \"#utility.yul\":5729:5764   */\n      tag_167\n      jumpi\n        /* \"#utility.yul\":5744:5762   */\n      tag_168\n      tag_169\n      jump\t// in\n    tag_168:\n        /* \"#utility.yul\":5729:5764   */\n    tag_167:\n        /* \"#utility.yul\":5786:5787   */\n      dup3\n        /* \"#utility.yul\":5783:5784   */\n      dup3\n        /* \"#utility.yul\":5779:5788   */\n      div\n        /* \"#utility.yul\":5774:5788   */\n      swap1\n      pop\n        /* \"#utility.yul\":5609:5794   */\n      swap3\n      swap2\n      pop\n      pop\n      jump\t// out\n        /* \"#utility.yul\":5800:6791   */\n    tag_76:\n        /* \"#utility.yul\":5839:5846   */\n      0x00\n        /* \"#utility.yul\":5862:5881   */\n      tag_171\n        /* \"#utility.yul\":5879:5880   */\n      dup3\n        /* \"#utility.yul\":5862:5881   */\n      tag_172\n      jump\t// in\n    tag_171:\n        /* \"#utility.yul\":5857:5881   */\n      swap2\n      pop\n        /* \"#utility.yul\":5895:5914   */\n      tag_173\n        /* \"#utility.yul\":5912:5913   */\n      dup4\n        /* \"#utility.yul\":5895:5914   */\n      tag_172\n      jump\t// in\n    tag_173:\n        /* \"#utility.yul\":5890:5914   */\n      swap3\n      pop\n        /* \"#utility.yul\":6096:6097   */\n      dup3\n        /* \"#utility.yul\":6028:6094   */\n      0x7fffffffffffffffffffffffffffffffffffffffffffffffffffffffffffffff\n        /* \"#utility.yul\":6024:6098   */\n      div\n        /* \"#utility.yul\":6021:6022   */\n      dup3\n        /* \"#utility.yul\":6018:6099   */\n      gt\n        /* \"#utility.yul\":6013:6014   */\n      0x00\n        /* \"#utility.yul\":6010:6011   */\n      dup5\n        /* \"#utility.yul\":6006:6015   */\n      sgt\n        /* \"#utility.yul\":6002:6003   */\n      0x00\n        /* \"#utility.yul\":5999:6000   */\n      dup5\n        /* \"#utility.yul\":5995:6004   */\n      sgt\n        /* \"#utility.yul\":5991:6016   */\n      and\n        /* \"#utility.yul\":5987:6100   */\n      and\n        /* \"#utility.yul\":5984:6123   */\n      iszero\n      tag_174\n      jumpi\n        /* \"#utility.yul\":6103:6121   */\n      tag_175\n      tag_163\n      jump\t// in\n    tag_175:\n        /* \"#utility.yul\":5984:6123   */\n    tag_174:\n        /* \"#utility.yul\":6307:6308   */\n      dup2\n        /* \"#utility.yul\":6239:6305   */\n      0x8000000000000000000000000000000000000000000000000000000000000000\n        /* \"#utility.yul\":6234:6309   */\n      sdiv\n        /* \"#utility.yul\":6231:6232   */\n      dup4\n        /* \"#utility.yul\":6227:6310   */\n      slt\n        /* \"#utility.yul\":6222:6223   */\n      0x00\n        /* \"#utility.yul\":6219:6220   */\n      dup5\n        /* \"#utility.yul\":6215:6224   */\n      slt\n        /* \"#utility.yul\":6211:6212   */\n      0x00\n        /* \"#utility.yul\":6208:6209   */\n      dup5\n        /* \"#utility.yul\":6204:6213   */\n      sgt\n        /* \"#utility.yul\":6200:6225   */\n      and\n        /* \"#utility.yul\":6196:6311   */\n      and\n        /* \"#utility.yul\":6193:6334   */\n      iszero\n      tag_176\n      jumpi\n        /* \"#utility.yul\":6314:6332   */\n      tag_177\n      tag_163\n      jump\t// in\n    tag_177:\n        /* \"#utility.yul\":6193:6334   */\n    tag_176:\n        /* \"#utility.yul\":6518:6519   */\n      dup3\n        /* \"#utility.yul\":6450:6516   */\n      0x8000000000000000000000000000000000000000000000000000000000000000\n        /* \"#utility.yul\":6445:6520   */\n      sdiv\n        /* \"#utility.yul\":6442:6443   */\n      dup3\n        /* \"#utility.yul\":6438:6521   */\n      slt\n        /* \"#utility.yul\":6433:6434   */\n      0x00\n        /* \"#utility.yul\":6430:6431   */\n      dup5\n        /* \"#utility.yul\":6426:6435   */\n      sgt\n        /* \"#utility.yul\":6422:6423   */\n      0x00\n        /* \"#utility.yul\":6419:6420   */\n      dup5\n        /* \"#utility.yul\":6415:6424   */\n      slt\n        /* \"#utility.yul\":6411:6436   */\n      and\n        /* \"#utility.yul\":6407:6522   */\n      and\n        /* \"#utility.yul\":6404:6545   */\n      iszero\n      tag_178\n      jumpi\n        /* \"#utility.yul\":6525:6543   */\n      tag_179\n      tag_163\n      jump\t// in\n    tag_179:\n        /* \"#utility.yul\":6404:6545   */\n    tag_178:\n        /* \"#utility.yul\":6728:6729   */\n      dup3\n        /* \"#utility.yul\":6660:6726   */\n      0x7fffffffffffffffffffffffffffffffffffffffffffffffffffffffffffffff\n        /* \"#utility.yul\":6655:6730   */\n      sdiv\n        /* \"#utility.yul\":6652:6653   */\n      dup3\n        /* \"#utility.yul\":6648:6731   */\n      slt\n        /* \"#utility.yul\":6643:6644   */\n      0x00\n        /* \"#utility.yul\":6640:6641   */\n      dup5\n        /* \"#utility.yul\":6636:6645   */\n      slt\n        /* \"#utility.yul\":6632:6633   */\n      0x00\n        /* \"#utility.yul\":6629:6630   */\n      dup5\n        /* \"#utility.yul\":6625:6634   */\n      slt\n        /* \"#utility.yul\":6621:6646   */\n      and\n        /* \"#utility.yul\":6617:6732   */\n      and\n        /* \"#utility.yul\":6614:6755   */\n      iszero\n      tag_180\n      jumpi\n        /* \"#utility.yul\":6735:6753   */\n      tag_181\n      tag_163\n      jump\t// in\n    tag_181:\n        /* \"#utility.yul\":6614:6755   */\n    tag_180:\n        /* \"#utility.yul\":6783:6784   */\n      dup3\n        /* \"#utility.yul\":6780:6781   */\n      dup3\n        /* \"#utility.yul\":6776:6785   */\n      mul\n        /* \"#utility.yul\":6765:6785   */\n      swap1\n      pop\n        /* \"#utility.yul\":5800:6791   */\n      swap3\n      swap2\n      pop\n      pop\n      jump\t// out\n        /* \"#utility.yul\":6797:7145   */\n    tag_66:\n        /* \"#utility.yul\":6837:6844   */\n      0x00\n        /* \"#utility.yul\":6860:6880   */\n      tag_183\n        /* \"#utility.yul\":6878:6879   */\n      dup3\n        /* \"#utility.yul\":6860:6880   */\n      tag_146\n      jump\t// in\n    tag_183:\n        /* \"#utility.yul\":6855:6880   */\n      swap2\n      pop\n        /* \"#utility.yul\":6894:6914   */\n      tag_184\n        /* \"#utility.yul\":6912:6913   */\n      dup4\n        /* \"#utility.yul\":6894:6914   */\n      tag_146\n      jump\t// in\n    tag_184:\n        /* \"#utility.yul\":6889:6914   */\n      swap3\n      pop\n        /* \"#utility.yul\":7082:7083   */\n      dup2\n        /* \"#utility.yul\":7014:7080   */\n      0xffffffffffffffffffffffffffffffffffffffffffffffffffffffffffffffff\n        /* \"#utility.yul\":7010:7084   */\n      div\n        /* \"#utility.yul\":7007:7008   */\n      dup4\n        /* \"#utility.yul\":7004:7085   */\n      gt\n        /* \"#utility.yul\":6999:7000   */\n      dup3\n        /* \"#utility.yul\":6992:7001   */\n      iszero\n        /* \"#utility.yul\":6985:7002   */\n      iszero\n        /* \"#utility.yul\":6981:7086   */\n      and\n        /* \"#utility.yul\":6978:7109   */\n      iszero\n      tag_185\n      jumpi\n        /* \"#utility.yul\":7089:7107   */\n      tag_186\n      tag_163\n      jump\t// in\n    tag_186:\n        /* \"#utility.yul\":6978:7109   */\n    tag_185:\n        /* \"#utility.yul\":7137:7138   */\n      dup3\n        /* \"#utility.yul\":7134:7135   */\n      dup3\n        /* \"#utility.yul\":7130:7139   */\n      mul\n        /* \"#utility.yul\":7119:7139   */\n      swap1\n      pop\n        /* \"#utility.yul\":6797:7145   */\n      swap3\n      swap2\n      pop\n      pop\n      jump\t// out\n        /* \"#utility.yul\":7151:7247   */\n    tag_131:\n        /* \"#utility.yul\":7188:7195   */\n      0x00\n        /* \"#utility.yul\":7217:7241   */\n      tag_188\n        /* \"#utility.yul\":7235:7240   */\n      dup3\n        /* \"#utility.yul\":7217:7241   */\n      tag_189\n      jump\t// in\n    tag_188:\n        /* \"#utility.yul\":7206:7241   */\n      swap1\n      pop\n        /* \"#utility.yul\":7151:7247   */\n      swap2\n      swap1\n      pop\n      jump\t// out\n        /* \"#utility.yul\":7253:7329   */\n    tag_172:\n        /* \"#utility.yul\":7289:7296   */\n      0x00\n        /* \"#utility.yul\":7318:7323   */\n      dup2\n        /* \"#utility.yul\":7307:7323   */\n      swap1\n      pop\n        /* \"#utility.yul\":7253:7329   */\n      swap2\n      swap1\n      pop\n      jump\t// out\n        /* \"#utility.yul\":7335:7461   */\n    tag_189:\n        /* \"#utility.yul\":7372:7379   */\n      0x00\n        /* \"#utility.yul\":7412:7454   */\n      0xffffffffffffffffffffffffffffffffffffffff\n        /* \"#utility.yul\":7405:7410   */\n      dup3\n        /* \"#utility.yul\":7401:7455   */\n      and\n        /* \"#utility.yul\":7390:7455   */\n      swap1\n      pop\n        /* \"#utility.yul\":7335:7461   */\n      swap2\n      swap1\n      pop\n      jump\t// out\n        /* \"#utility.yul\":7467:7544   */\n    tag_146:\n        /* \"#utility.yul\":7504:7511   */\n      0x00\n        /* \"#utility.yul\":7533:7538   */\n      dup2\n        /* \"#utility.yul\":7522:7538   */\n      swap1\n      pop\n        /* \"#utility.yul\":7467:7544   */\n      swap2\n      swap1\n      pop\n      jump\t// out\n        /* \"#utility.yul\":7550:7655   */\n    tag_193:\n        /* \"#utility.yul\":7586:7593   */\n      0x00\n        /* \"#utility.yul\":7626:7648   */\n      0xffffffffffffffffffff\n        /* \"#utility.yul\":7619:7624   */\n      dup3\n        /* \"#utility.yul\":7615:7649   */\n      and\n        /* \"#utility.yul\":7604:7649   */\n      swap1\n      pop\n        /* \"#utility.yul\":7550:7655   */\n      swap2\n      swap1\n      pop\n      jump\t// out\n        /* \"#utility.yul\":7661:7894   */\n    tag_62:\n        /* \"#utility.yul\":7700:7703   */\n      0x00\n        /* \"#utility.yul\":7723:7747   */\n      tag_196\n        /* \"#utility.yul\":7741:7746   */\n      dup3\n        /* \"#utility.yul\":7723:7747   */\n      tag_146\n      jump\t// in\n    tag_196:\n        /* \"#utility.yul\":7714:7747   */\n      swap2\n      pop\n        /* \"#utility.yul\":7769:7835   */\n      0xffffffffffffffffffffffffffffffffffffffffffffffffffffffffffffffff\n        /* \"#utility.yul\":7762:7767   */\n      dup3\n        /* \"#utility.yul\":7759:7836   */\n      eq\n        /* \"#utility.yul\":7756:7859   */\n      iszero\n      tag_197\n      jumpi\n        /* \"#utility.yul\":7839:7857   */\n      tag_198\n      tag_163\n      jump\t// in\n    tag_198:\n        /* \"#utility.yul\":7756:7859   */\n    tag_197:\n        /* \"#utility.yul\":7886:7887   */\n      0x01\n        /* \"#utility.yul\":7879:7884   */\n      dup3\n        /* \"#utility.yul\":7875:7888   */\n      add\n        /* \"#utility.yul\":7868:7888   */\n      swap1\n      pop\n        /* \"#utility.yul\":7661:7894   */\n      swap2\n      swap1\n      pop\n      jump\t// out\n        /* \"#utility.yul\":7900:8080   */\n    tag_163:\n        /* \"#utility.yul\":7948:8025   */\n      0x4e487b7100000000000000000000000000000000000000000000000000000000\n        /* \"#utility.yul\":7945:7946   */\n      0x00\n        /* \"#utility.yul\":7938:8026   */\n      mstore\n        /* \"#utility.yul\":8045:8049   */\n      0x11\n        /* \"#utility.yul\":8042:8043   */\n      0x04\n        /* \"#utility.yul\":8035:8050   */\n      mstore\n        /* \"#utility.yul\":8069:8073   */\n      0x24\n        /* \"#utility.yul\":8066:8067   */\n      0x00\n        /* \"#utility.yul\":8059:8074   */\n      revert\n        /* \"#utility.yul\":8086:8266   */\n    tag_169:\n        /* \"#utility.yul\":8134:8211   */\n      0x4e487b7100000000000000000000000000000000000000000000000000000000\n        /* \"#utility.yul\":8131:8132   */\n      0x00\n        /* \"#utility.yul\":8124:8212   */\n      mstore\n        /* \"#utility.yul\":8231:8235   */\n      0x12\n        /* \"#utility.yul\":8228:8229   */\n      0x04\n        /* \"#utility.yul\":8221:8236   */\n      mstore\n        /* \"#utility.yul\":8255:8259   */\n      0x24\n        /* \"#utility.yul\":8252:8253   */\n      0x00\n        /* \"#utility.yul\":8245:8260   */\n      revert\n        /* \"#utility.yul\":8272:8452   */\n    tag_59:\n        /* \"#utility.yul\":8320:8397   */\n      0x4e487b7100000000000000000000000000000000000000000000000000000000\n        /* \"#utility.yul\":8317:8318   */\n      0x00\n        /* \"#utility.yul\":8310:8398   */\n      mstore\n        /* \"#utility.yul\":8417:8421   */\n      0x32\n        /* \"#utility.yul\":8414:8415   */\n      0x04\n        /* \"#utility.yul\":8407:8422   */\n      mstore\n        /* \"#utility.yul\":8441:8445   */\n      0x24\n        /* \"#utility.yul\":8438:8439   */\n      0x00\n        /* \"#utility.yul\":8431:8446   */\n      revert\n        /* \"#utility.yul\":8581:8698   */\n    tag_110:\n        /* \"#utility.yul\":8690:8691   */\n      0x00\n        /* \"#utility.yul\":8687:8688   */\n      dup1\n        /* \"#utility.yul\":8680:8692   */\n      revert\n        /* \"#utility.yul\":8704:8877   */\n    tag_137:\n        /* \"#utility.yul\":8844:8869   */\n      0x4f6e6c79206f776e65722063616e207769746864726177000000000000000000\n        /* \"#utility.yul\":8840:8841   */\n      0x00\n        /* \"#utility.yul\":8832:8838   */\n      dup3\n        /* \"#utility.yul\":8828:8842   */\n      add\n        /* \"#utility.yul\":8821:8870   */\n      mstore\n        /* \"#utility.yul\":8704:8877   */\n      pop\n      jump\t// out\n        /* \"#utility.yul\":8883:9059   */\n    tag_142:\n        /* \"#utility.yul\":9023:9051   */\n      0x596f75206e65656420746f207370656e64206d6f726520455448000000000000\n        /* \"#utility.yul\":9019:9020   */\n      0x00\n        /* \"#utility.yul\":9011:9017   */\n      dup3\n        /* \"#utility.yul\":9007:9021   */\n      add\n        /* \"#utility.yul\":9000:9052   */\n      mstore\n        /* \"#utility.yul\":8883:9059   */\n      pop\n      jump\t// out\n        /* \"#utility.yul\":9065:9187   */\n    tag_91:\n        /* \"#utility.yul\":9138:9162   */\n      tag_208\n        /* \"#utility.yul\":9156:9161   */\n      dup2\n        /* \"#utility.yul\":9138:9162   */\n      tag_131\n      jump\t// in\n    tag_208:\n        /* \"#utility.yul\":9131:9136   */\n      dup2\n        /* \"#utility.yul\":9128:9163   */\n      eq\n        /* \"#utility.yul\":9118:9181   */\n      tag_209\n      jumpi\n        /* \"#utility.yul\":9177:9178   */\n      0x00\n        /* \"#utility.yul\":9174:9175   */\n      dup1\n        /* \"#utility.yul\":9167:9179   */\n      revert\n        /* \"#utility.yul\":9118:9181   */\n    tag_209:\n        /* \"#utility.yul\":9065:9187   */\n      pop\n      jump\t// out\n        /* \"#utility.yul\":9193:9313   */\n    tag_95:\n        /* \"#utility.yul\":9265:9288   */\n      tag_211\n        /* \"#utility.yul\":9282:9287   */\n      dup2\n        /* \"#utility.yul\":9265:9288   */\n      tag_172\n      jump\t// in\n    tag_211:\n        /* \"#utility.yul\":9258:9263   */\n      dup2\n        /* \"#utility.yul\":9255:9289   */\n      eq\n        /* \"#utility.yul\":9245:9307   */\n      tag_212\n      jumpi\n        /* \"#utility.yul\":9303:9304   */\n      0x00\n        /* \"#utility.yul\":9300:9301   */\n      dup1\n        /* \"#utility.yul\":9293:9305   */\n      revert\n        /* \"#utility.yul\":9245:9307   */\n    tag_212:\n        /* \"#utility.yul\":9193:9313   */\n      pop\n      jump\t// out\n        /* \"#utility.yul\":9319:9441   */\n    tag_99:\n        /* \"#utility.yul\":9392:9416   */\n      tag_214\n        /* \"#utility.yul\":9410:9415   */\n      dup2\n        /* \"#utility.yul\":9392:9416   */\n      tag_146\n      jump\t// in\n    tag_214:\n        /* \"#utility.yul\":9385:9390   */\n      dup2\n        /* \"#utility.yul\":9382:9417   */\n      eq\n        /* \"#utility.yul\":9372:9435   */\n      tag_215\n      jumpi\n        /* \"#utility.yul\":9431:9432   */\n      0x00\n        /* \"#utility.yul\":9428:9429   */\n      dup1\n        /* \"#utility.yul\":9421:9433   */\n      revert\n        /* \"#utility.yul\":9372:9435   */\n    tag_215:\n        /* \"#utility.yul\":9319:9441   */\n      pop\n      jump\t// out\n        /* \"#utility.yul\":9447:9567   */\n    tag_106:\n        /* \"#utility.yul\":9519:9542   */\n      tag_217\n        /* \"#utility.yul\":9536:9541   */\n      dup2\n        /* \"#utility.yul\":9519:9542   */\n      tag_193\n      jump\t// in\n    tag_217:\n        /* \"#utility.yul\":9512:9517   */\n      dup2\n        /* \"#utility.yul\":9509:9543   */\n      eq\n        /* \"#utility.yul\":9499:9561   */\n      tag_218\n      jumpi\n        /* \"#utility.yul\":9557:9558   */\n      0x00\n        /* \"#utility.yul\":9554:9555   */\n      dup1\n        /* \"#utility.yul\":9547:9559   */\n      revert\n        /* \"#utility.yul\":9499:9561   */\n    tag_218:\n        /* \"#utility.yul\":9447:9567   */\n      pop\n      jump\t// out\n\n    auxdata: 0xa264697066735822122010efd302d9a2e5337f7738eade769033909827823082029f545394366ca61b6464736f6c63430008070033\n}\n",
				"bytecode": {
					"linkReferences": {},
					"object": "608060405234801561001057600080fd5b5033600160006101000a81548173ffffffffffffffffffffffffffffffffffffffff021916908373ffffffffffffffffffffffffffffffffffffffff160217905550610c72806100616000396000f3fe6080604052600436106100705760003560e01c80636e5b6b281161004e5780636e5b6b28146100e757806398d5fdca14610124578063b60d42881461014f578063dc0d3dff1461015957610070565b80630d8e6e2c146100755780630fdb1c10146100a05780633e47d6f3146100aa575b600080fd5b34801561008157600080fd5b5061008a610196565b6040516100979190610833565b60405180910390f35b6100a8610234565b005b3480156100b657600080fd5b506100d160048036038101906100cc9190610672565b6103b3565b6040516100de9190610833565b60405180910390f35b3480156100f357600080fd5b5061010e6004803603810190610109919061069f565b6103cb565b60405161011b9190610833565b60405180910390f35b34801561013057600080fd5b50610139610405565b6040516101469190610833565b60405180910390f35b6101576104bd565b005b34801561016557600080fd5b50610180600480360381019061017b919061069f565b6105ca565b60405161018d91906107d8565b60405180910390f35b60008073d4a33860578de61dbabdc8bfdb98fd742fa7028e90508073ffffffffffffffffffffffffffffffffffffffff166354fd4d506040518163ffffffff1660e01b815260040160206040518083038186803b1580156101f657600080fd5b505afa15801561020a573d6000803e3d6000fd5b505050506040513d601f19601f8201168201806040525081019061022e91906106cc565b91505090565b600160009054906101000a900473ffffffffffffffffffffffffffffffffffffffff1673ffffffffffffffffffffffffffffffffffffffff163373ffffffffffffffffffffffffffffffffffffffff16146102c4576040517f08c379a00000000000000000000000000000000000000000000000000000000081526004016102bb906107f3565b60405180910390fd5b3373ffffffffffffffffffffffffffffffffffffffff166108fc479081150290604051600060405180830381858888f1935050505015801561030a573d6000803e3d6000fd5b5060005b6002805490508110156103b05760008060006002848154811061033457610333610b5a565b5b9060005260206000200160009054906101000a900473ffffffffffffffffffffffffffffffffffffffff1673ffffffffffffffffffffffffffffffffffffffff1673ffffffffffffffffffffffffffffffffffffffff1681526020019081526020016000208190555080806103a890610ab3565b91505061030e565b50565b60006020528060005260406000206000915090505481565b6000806103d6610405565b90506000670de0b6b3a764000084836103ef91906109fd565b6103f991906108b5565b90508092505050919050565b60008073d4a33860578de61dbabdc8bfdb98fd742fa7028e905060008173ffffffffffffffffffffffffffffffffffffffff1663feaf968c6040518163ffffffff1660e01b815260040160a06040518083038186803b15801561046757600080fd5b505afa15801561047b573d6000803e3d6000fd5b505050506040513d601f19601f8201168201806040525081019061049f91906106f9565b5050509150506402540be400816104b691906108e6565b9250505090565b60006123289050806104ce346103cb565b101561050f576040517f08c379a000000000000000000000000000000000000000000000000000000000815260040161050690610813565b60405180910390fd5b346000803373ffffffffffffffffffffffffffffffffffffffff1673ffffffffffffffffffffffffffffffffffffffff168152602001908152602001600020600082825461055d919061085f565b925050819055506002339080600181540180825580915050600190039060005260206000200160009091909190916101000a81548173ffffffffffffffffffffffffffffffffffffffff021916908373ffffffffffffffffffffffffffffffffffffffff16021790555050565b600281815481106105da57600080fd5b906000526020600020016000915054906101000a900473ffffffffffffffffffffffffffffffffffffffff1681565b60008135905061061881610be0565b92915050565b60008151905061062d81610bf7565b92915050565b60008135905061064281610c0e565b92915050565b60008151905061065781610c0e565b92915050565b60008151905061066c81610c25565b92915050565b60006020828403121561068857610687610b89565b5b600061069684828501610609565b91505092915050565b6000602082840312156106b5576106b4610b89565b5b60006106c384828501610633565b91505092915050565b6000602082840312156106e2576106e1610b89565b5b60006106f084828501610648565b91505092915050565b600080600080600060a0868803121561071557610714610b89565b5b60006107238882890161065d565b95505060206107348882890161061e565b945050604061074588828901610648565b935050606061075688828901610648565b92505060806107678882890161065d565b9150509295509295909350565b61077d81610a57565b82525050565b600061079060178361084e565b915061079b82610b8e565b602082019050919050565b60006107b3601a8361084e565b91506107be82610bb7565b602082019050919050565b6107d281610a93565b82525050565b60006020820190506107ed6000830184610774565b92915050565b6000602082019050818103600083015261080c81610783565b9050919050565b6000602082019050818103600083015261082c816107a6565b9050919050565b600060208201905061084860008301846107c9565b92915050565b600082825260208201905092915050565b600061086a82610a93565b915061087583610a93565b9250827fffffffffffffffffffffffffffffffffffffffffffffffffffffffffffffffff038211156108aa576108a9610afc565b5b828201905092915050565b60006108c082610a93565b91506108cb83610a93565b9250826108db576108da610b2b565b5b828204905092915050565b60006108f182610a69565b91506108fc83610a69565b9250827f7fffffffffffffffffffffffffffffffffffffffffffffffffffffffffffffff048211600084136000841316161561093b5761093a610afc565b5b817f8000000000000000000000000000000000000000000000000000000000000000058312600084126000841316161561097857610977610afc565b5b827f800000000000000000000000000000000000000000000000000000000000000005821260008413600084121616156109b5576109b4610afc565b5b827f7fffffffffffffffffffffffffffffffffffffffffffffffffffffffffffffff05821260008412600084121616156109f2576109f1610afc565b5b828202905092915050565b6000610a0882610a93565b9150610a1383610a93565b9250817fffffffffffffffffffffffffffffffffffffffffffffffffffffffffffffffff0483118215151615610a4c57610a4b610afc565b5b828202905092915050565b6000610a6282610a73565b9050919050565b6000819050919050565b600073ffffffffffffffffffffffffffffffffffffffff82169050919050565b6000819050919050565b600069ffffffffffffffffffff82169050919050565b6000610abe82610a93565b91507fffffffffffffffffffffffffffffffffffffffffffffffffffffffffffffffff821415610af157610af0610afc565b5b600182019050919050565b7f4e487b7100000000000000000000000000000000000000000000000000000000600052601160045260246000fd5b7f4e487b7100000000000000000000000000000000000000000000000000000000600052601260045260246000fd5b7f4e487b7100000000000000000000000000000000000000000000000000000000600052603260045260246000fd5b600080fd5b7f4f6e6c79206f776e65722063616e207769746864726177000000000000000000600082015250565b7f596f75206e65656420746f207370656e64206d6f726520455448000000000000600082015250565b610be981610a57565b8114610bf457600080fd5b50565b610c0081610a69565b8114610c0b57600080fd5b50565b610c1781610a93565b8114610c2257600080fd5b50565b610c2e81610a9d565b8114610c3957600080fd5b5056fea264697066735822122010efd302d9a2e5337f7738eade769033909827823082029f545394366ca61b6464736f6c63430008070033",
					"opcodes": "PUSH1 0x80 PUSH1 0x40 MSTORE CALLVALUE DUP1 ISZERO PUSH2 0x10 JUMPI PUSH1 0x0 DUP1 REVERT JUMPDEST POP CALLER PUSH1 0x1 PUSH1 0x0 PUSH2 0x100 EXP DUP2 SLOAD DUP2 PUSH20 0xFFFFFFFFFFFFFFFFFFFFFFFFFFFFFFFFFFFFFFFF MUL NOT AND SWAP1 DUP4 PUSH20 0xFFFFFFFFFFFFFFFFFFFFFFFFFFFFFFFFFFFFFFFF AND MUL OR SWAP1 SSTORE POP PUSH2 0xC72 DUP1 PUSH2 0x61 PUSH1 0x0 CODECOPY PUSH1 0x0 RETURN INVALID PUSH1 0x80 PUSH1 0x40 MSTORE PUSH1 0x4 CALLDATASIZE LT PUSH2 0x70 JUMPI PUSH1 0x0 CALLDATALOAD PUSH1 0xE0 SHR DUP1 PUSH4 0x6E5B6B28 GT PUSH2 0x4E JUMPI DUP1 PUSH4 0x6E5B6B28 EQ PUSH2 0xE7 JUMPI DUP1 PUSH4 0x98D5FDCA EQ PUSH2 0x124 JUMPI DUP1 PUSH4 0xB60D4288 EQ PUSH2 0x14F JUMPI DUP1 PUSH4 0xDC0D3DFF EQ PUSH2 0x159 JUMPI PUSH2 0x70 JUMP JUMPDEST DUP1 PUSH4 0xD8E6E2C EQ PUSH2 0x75 JUMPI DUP1 PUSH4 0xFDB1C10 EQ PUSH2 0xA0 JUMPI DUP1 PUSH4 0x3E47D6F3 EQ PUSH2 0xAA JUMPI JUMPDEST PUSH1 0x0 DUP1 REVERT JUMPDEST CALLVALUE DUP1 ISZERO PUSH2 0x81 JUMPI PUSH1 0x0 DUP1 REVERT JUMPDEST POP PUSH2 0x8A PUSH2 0x196 JUMP JUMPDEST PUSH1 0x40 MLOAD PUSH2 0x97 SWAP2 SWAP1 PUSH2 0x833 JUMP JUMPDEST PUSH1 0x40 MLOAD DUP1 SWAP2 SUB SWAP1 RETURN JUMPDEST PUSH2 0xA8 PUSH2 0x234 JUMP JUMPDEST STOP JUMPDEST CALLVALUE DUP1 ISZERO PUSH2 0xB6 JUMPI PUSH1 0x0 DUP1 REVERT JUMPDEST POP PUSH2 0xD1 PUSH1 0x4 DUP1 CALLDATASIZE SUB DUP2 ADD SWAP1 PUSH2 0xCC SWAP2 SWAP1 PUSH2 0x672 JUMP JUMPDEST PUSH2 0x3B3 JUMP JUMPDEST PUSH1 0x40 MLOAD PUSH2 0xDE SWAP2 SWAP1 PUSH2 0x833 JUMP JUMPDEST PUSH1 0x40 MLOAD DUP1 SWAP2 SUB SWAP1 RETURN JUMPDEST CALLVALUE DUP1 ISZERO PUSH2 0xF3 JUMPI PUSH1 0x0 DUP1 REVERT JUMPDEST POP PUSH2 0x10E PUSH1 0x4 DUP1 CALLDATASIZE SUB DUP2 ADD SWAP1 PUSH2 0x109 SWAP2 SWAP1 PUSH2 0x69F JUMP JUMPDEST PUSH2 0x3CB JUMP JUMPDEST PUSH1 0x40 MLOAD PUSH2 0x11B SWAP2 SWAP1 PUSH2 0x833 JUMP JUMPDEST PUSH1 0x40 MLOAD DUP1 SWAP2 SUB SWAP1 RETURN JUMPDEST CALLVALUE DUP1 ISZERO PUSH2 0x130 JUMPI PUSH1 0x0 DUP1 REVERT JUMPDEST POP PUSH2 0x139 PUSH2 0x405 JUMP JUMPDEST PUSH1 0x40 MLOAD PUSH2 0x146 SWAP2 SWAP1 PUSH2 0x833 JUMP JUMPDEST PUSH1 0x40 MLOAD DUP1 SWAP2 SUB SWAP1 RETURN JUMPDEST PUSH2 0x157 PUSH2 0x4BD JUMP JUMPDEST STOP JUMPDEST CALLVALUE DUP1 ISZERO PUSH2 0x165 JUMPI PUSH1 0x0 DUP1 REVERT JUMPDEST POP PUSH2 0x180 PUSH1 0x4 DUP1 CALLDATASIZE SUB DUP2 ADD SWAP1 PUSH2 0x17B SWAP2 SWAP1 PUSH2 0x69F JUMP JUMPDEST PUSH2 0x5CA JUMP JUMPDEST PUSH1 0x40 MLOAD PUSH2 0x18D SWAP2 SWAP1 PUSH2 0x7D8 JUMP JUMPDEST PUSH1 0x40 MLOAD DUP1 SWAP2 SUB SWAP1 RETURN JUMPDEST PUSH1 0x0 DUP1 PUSH20 0xD4A33860578DE61DBABDC8BFDB98FD742FA7028E SWAP1 POP DUP1 PUSH20 0xFFFFFFFFFFFFFFFFFFFFFFFFFFFFFFFFFFFFFFFF AND PUSH4 0x54FD4D50 PUSH1 0x40 MLOAD DUP2 PUSH4 0xFFFFFFFF AND PUSH1 0xE0 SHL DUP2 MSTORE PUSH1 0x4 ADD PUSH1 0x20 PUSH1 0x40 MLOAD DUP1 DUP4 SUB DUP2 DUP7 DUP1 EXTCODESIZE ISZERO DUP1 ISZERO PUSH2 0x1F6 JUMPI PUSH1 0x0 DUP1 REVERT JUMPDEST POP GAS STATICCALL ISZERO DUP1 ISZERO PUSH2 0x20A JUMPI RETURNDATASIZE PUSH1 0x0 DUP1 RETURNDATACOPY RETURNDATASIZE PUSH1 0x0 REVERT JUMPDEST POP POP POP POP PUSH1 0x40 MLOAD RETURNDATASIZE PUSH1 0x1F NOT PUSH1 0x1F DUP3 ADD AND DUP3 ADD DUP1 PUSH1 0x40 MSTORE POP DUP2 ADD SWAP1 PUSH2 0x22E SWAP2 SWAP1 PUSH2 0x6CC JUMP JUMPDEST SWAP2 POP POP SWAP1 JUMP JUMPDEST PUSH1 0x1 PUSH1 0x0 SWAP1 SLOAD SWAP1 PUSH2 0x100 EXP SWAP1 DIV PUSH20 0xFFFFFFFFFFFFFFFFFFFFFFFFFFFFFFFFFFFFFFFF AND PUSH20 0xFFFFFFFFFFFFFFFFFFFFFFFFFFFFFFFFFFFFFFFF AND CALLER PUSH20 0xFFFFFFFFFFFFFFFFFFFFFFFFFFFFFFFFFFFFFFFF AND EQ PUSH2 0x2C4 JUMPI PUSH1 0x40 MLOAD PUSH32 0x8C379A000000000000000000000000000000000000000000000000000000000 DUP2 MSTORE PUSH1 0x4 ADD PUSH2 0x2BB SWAP1 PUSH2 0x7F3 JUMP JUMPDEST PUSH1 0x40 MLOAD DUP1 SWAP2 SUB SWAP1 REVERT JUMPDEST CALLER PUSH20 0xFFFFFFFFFFFFFFFFFFFFFFFFFFFFFFFFFFFFFFFF AND PUSH2 0x8FC SELFBALANCE SWAP1 DUP2 ISZERO MUL SWAP1 PUSH1 0x40 MLOAD PUSH1 0x0 PUSH1 0x40 MLOAD DUP1 DUP4 SUB DUP2 DUP6 DUP9 DUP9 CALL SWAP4 POP POP POP POP ISZERO DUP1 ISZERO PUSH2 0x30A JUMPI RETURNDATASIZE PUSH1 0x0 DUP1 RETURNDATACOPY RETURNDATASIZE PUSH1 0x0 REVERT JUMPDEST POP PUSH1 0x0 JUMPDEST PUSH1 0x2 DUP1 SLOAD SWAP1 POP DUP2 LT ISZERO PUSH2 0x3B0 JUMPI PUSH1 0x0 DUP1 PUSH1 0x0 PUSH1 0x2 DUP5 DUP2 SLOAD DUP2 LT PUSH2 0x334 JUMPI PUSH2 0x333 PUSH2 0xB5A JUMP JUMPDEST JUMPDEST SWAP1 PUSH1 0x0 MSTORE PUSH1 0x20 PUSH1 0x0 KECCAK256 ADD PUSH1 0x0 SWAP1 SLOAD SWAP1 PUSH2 0x100 EXP SWAP1 DIV PUSH20 0xFFFFFFFFFFFFFFFFFFFFFFFFFFFFFFFFFFFFFFFF AND PUSH20 0xFFFFFFFFFFFFFFFFFFFFFFFFFFFFFFFFFFFFFFFF AND PUSH20 0xFFFFFFFFFFFFFFFFFFFFFFFFFFFFFFFFFFFFFFFF AND DUP2 MSTORE PUSH1 0x20 ADD SWAP1 DUP2 MSTORE PUSH1 0x20 ADD PUSH1 0x0 KECCAK256 DUP2 SWAP1 SSTORE POP DUP1 DUP1 PUSH2 0x3A8 SWAP1 PUSH2 0xAB3 JUMP JUMPDEST SWAP2 POP POP PUSH2 0x30E JUMP JUMPDEST POP JUMP JUMPDEST PUSH1 0x0 PUSH1 0x20 MSTORE DUP1 PUSH1 0x0 MSTORE PUSH1 0x40 PUSH1 0x0 KECCAK256 PUSH1 0x0 SWAP2 POP SWAP1 POP SLOAD DUP2 JUMP JUMPDEST PUSH1 0x0 DUP1 PUSH2 0x3D6 PUSH2 0x405 JUMP JUMPDEST SWAP1 POP PUSH1 0x0 PUSH8 0xDE0B6B3A7640000 DUP5 DUP4 PUSH2 0x3EF SWAP2 SWAP1 PUSH2 0x9FD JUMP JUMPDEST PUSH2 0x3F9 SWAP2 SWAP1 PUSH2 0x8B5 JUMP JUMPDEST SWAP1 POP DUP1 SWAP3 POP POP POP SWAP2 SWAP1 POP JUMP JUMPDEST PUSH1 0x0 DUP1 PUSH20 0xD4A33860578DE61DBABDC8BFDB98FD742FA7028E SWAP1 POP PUSH1 0x0 DUP2 PUSH20 0xFFFFFFFFFFFFFFFFFFFFFFFFFFFFFFFFFFFFFFFF AND PUSH4 0xFEAF968C PUSH1 0x40 MLOAD DUP2 PUSH4 0xFFFFFFFF AND PUSH1 0xE0 SHL DUP2 MSTORE PUSH1 0x4 ADD PUSH1 0xA0 PUSH1 0x40 MLOAD DUP1 DUP4 SUB DUP2 DUP7 DUP1 EXTCODESIZE ISZERO DUP1 ISZERO PUSH2 0x467 JUMPI PUSH1 0x0 DUP1 REVERT JUMPDEST POP GAS STATICCALL ISZERO DUP1 ISZERO PUSH2 0x47B JUMPI RETURNDATASIZE PUSH1 0x0 DUP1 RETURNDATACOPY RETURNDATASIZE PUSH1 0x0 REVERT JUMPDEST POP POP POP POP PUSH1 0x40 MLOAD RETURNDATASIZE PUSH1 0x1F NOT PUSH1 0x1F DUP3 ADD AND DUP3 ADD DUP1 PUSH1 0x40 MSTORE POP DUP2 ADD SWAP1 PUSH2 0x49F SWAP2 SWAP1 PUSH2 0x6F9 JUMP JUMPDEST POP POP POP SWAP2 POP POP PUSH5 0x2540BE400 DUP2 PUSH2 0x4B6 SWAP2 SWAP1 PUSH2 0x8E6 JUMP JUMPDEST SWAP3 POP POP POP SWAP1 JUMP JUMPDEST PUSH1 0x0 PUSH2 0x2328 SWAP1 POP DUP1 PUSH2 0x4CE CALLVALUE PUSH2 0x3CB JUMP JUMPDEST LT ISZERO PUSH2 0x50F JUMPI PUSH1 0x40 MLOAD PUSH32 0x8C379A000000000000000000000000000000000000000000000000000000000 DUP2 MSTORE PUSH1 0x4 ADD PUSH2 0x506 SWAP1 PUSH2 0x813 JUMP JUMPDEST PUSH1 0x40 MLOAD DUP1 SWAP2 SUB SWAP1 REVERT JUMPDEST CALLVALUE PUSH1 0x0 DUP1 CALLER PUSH20 0xFFFFFFFFFFFFFFFFFFFFFFFFFFFFFFFFFFFFFFFF AND PUSH20 0xFFFFFFFFFFFFFFFFFFFFFFFFFFFFFFFFFFFFFFFF AND DUP2 MSTORE PUSH1 0x20 ADD SWAP1 DUP2 MSTORE PUSH1 0x20 ADD PUSH1 0x0 KECCAK256 PUSH1 0x0 DUP3 DUP3 SLOAD PUSH2 0x55D SWAP2 SWAP1 PUSH2 0x85F JUMP JUMPDEST SWAP3 POP POP DUP2 SWAP1 SSTORE POP PUSH1 0x2 CALLER SWAP1 DUP1 PUSH1 0x1 DUP2 SLOAD ADD DUP1 DUP3 SSTORE DUP1 SWAP2 POP POP PUSH1 0x1 SWAP1 SUB SWAP1 PUSH1 0x0 MSTORE PUSH1 0x20 PUSH1 0x0 KECCAK256 ADD PUSH1 0x0 SWAP1 SWAP2 SWAP1 SWAP2 SWAP1 SWAP2 PUSH2 0x100 EXP DUP2 SLOAD DUP2 PUSH20 0xFFFFFFFFFFFFFFFFFFFFFFFFFFFFFFFFFFFFFFFF MUL NOT AND SWAP1 DUP4 PUSH20 0xFFFFFFFFFFFFFFFFFFFFFFFFFFFFFFFFFFFFFFFF AND MUL OR SWAP1 SSTORE POP POP JUMP JUMPDEST PUSH1 0x2 DUP2 DUP2 SLOAD DUP2 LT PUSH2 0x5DA JUMPI PUSH1 0x0 DUP1 REVERT JUMPDEST SWAP1 PUSH1 0x0 MSTORE PUSH1 0x20 PUSH1 0x0 KECCAK256 ADD PUSH1 0x0 SWAP2 POP SLOAD SWAP1 PUSH2 0x100 EXP SWAP1 DIV PUSH20 0xFFFFFFFFFFFFFFFFFFFFFFFFFFFFFFFFFFFFFFFF AND DUP2 JUMP JUMPDEST PUSH1 0x0 DUP2 CALLDATALOAD SWAP1 POP PUSH2 0x618 DUP2 PUSH2 0xBE0 JUMP JUMPDEST SWAP3 SWAP2 POP POP JUMP JUMPDEST PUSH1 0x0 DUP2 MLOAD SWAP1 POP PUSH2 0x62D DUP2 PUSH2 0xBF7 JUMP JUMPDEST SWAP3 SWAP2 POP POP JUMP JUMPDEST PUSH1 0x0 DUP2 CALLDATALOAD SWAP1 POP PUSH2 0x642 DUP2 PUSH2 0xC0E JUMP JUMPDEST SWAP3 SWAP2 POP POP JUMP JUMPDEST PUSH1 0x0 DUP2 MLOAD SWAP1 POP PUSH2 0x657 DUP2 PUSH2 0xC0E JUMP JUMPDEST SWAP3 SWAP2 POP POP JUMP JUMPDEST PUSH1 0x0 DUP2 MLOAD SWAP1 POP PUSH2 0x66C DUP2 PUSH2 0xC25 JUMP JUMPDEST SWAP3 SWAP2 POP POP JUMP JUMPDEST PUSH1 0x0 PUSH1 0x20 DUP3 DUP5 SUB SLT ISZERO PUSH2 0x688 JUMPI PUSH2 0x687 PUSH2 0xB89 JUMP JUMPDEST JUMPDEST PUSH1 0x0 PUSH2 0x696 DUP5 DUP3 DUP6 ADD PUSH2 0x609 JUMP JUMPDEST SWAP2 POP POP SWAP3 SWAP2 POP POP JUMP JUMPDEST PUSH1 0x0 PUSH1 0x20 DUP3 DUP5 SUB SLT ISZERO PUSH2 0x6B5 JUMPI PUSH2 0x6B4 PUSH2 0xB89 JUMP JUMPDEST JUMPDEST PUSH1 0x0 PUSH2 0x6C3 DUP5 DUP3 DUP6 ADD PUSH2 0x633 JUMP JUMPDEST SWAP2 POP POP SWAP3 SWAP2 POP POP JUMP JUMPDEST PUSH1 0x0 PUSH1 0x20 DUP3 DUP5 SUB SLT ISZERO PUSH2 0x6E2 JUMPI PUSH2 0x6E1 PUSH2 0xB89 JUMP JUMPDEST JUMPDEST PUSH1 0x0 PUSH2 0x6F0 DUP5 DUP3 DUP6 ADD PUSH2 0x648 JUMP JUMPDEST SWAP2 POP POP SWAP3 SWAP2 POP POP JUMP JUMPDEST PUSH1 0x0 DUP1 PUSH1 0x0 DUP1 PUSH1 0x0 PUSH1 0xA0 DUP7 DUP9 SUB SLT ISZERO PUSH2 0x715 JUMPI PUSH2 0x714 PUSH2 0xB89 JUMP JUMPDEST JUMPDEST PUSH1 0x0 PUSH2 0x723 DUP9 DUP3 DUP10 ADD PUSH2 0x65D JUMP JUMPDEST SWAP6 POP POP PUSH1 0x20 PUSH2 0x734 DUP9 DUP3 DUP10 ADD PUSH2 0x61E JUMP JUMPDEST SWAP5 POP POP PUSH1 0x40 PUSH2 0x745 DUP9 DUP3 DUP10 ADD PUSH2 0x648 JUMP JUMPDEST SWAP4 POP POP PUSH1 0x60 PUSH2 0x756 DUP9 DUP3 DUP10 ADD PUSH2 0x648 JUMP JUMPDEST SWAP3 POP POP PUSH1 0x80 PUSH2 0x767 DUP9 DUP3 DUP10 ADD PUSH2 0x65D JUMP JUMPDEST SWAP2 POP POP SWAP3 SWAP6 POP SWAP3 SWAP6 SWAP1 SWAP4 POP JUMP JUMPDEST PUSH2 0x77D DUP2 PUSH2 0xA57 JUMP JUMPDEST DUP3 MSTORE POP POP JUMP JUMPDEST PUSH1 0x0 PUSH2 0x790 PUSH1 0x17 DUP4 PUSH2 0x84E JUMP JUMPDEST SWAP2 POP PUSH2 0x79B DUP3 PUSH2 0xB8E JUMP JUMPDEST PUSH1 0x20 DUP3 ADD SWAP1 POP SWAP2 SWAP1 POP JUMP JUMPDEST PUSH1 0x0 PUSH2 0x7B3 PUSH1 0x1A DUP4 PUSH2 0x84E JUMP JUMPDEST SWAP2 POP PUSH2 0x7BE DUP3 PUSH2 0xBB7 JUMP JUMPDEST PUSH1 0x20 DUP3 ADD SWAP1 POP SWAP2 SWAP1 POP JUMP JUMPDEST PUSH2 0x7D2 DUP2 PUSH2 0xA93 JUMP JUMPDEST DUP3 MSTORE POP POP JUMP JUMPDEST PUSH1 0x0 PUSH1 0x20 DUP3 ADD SWAP1 POP PUSH2 0x7ED PUSH1 0x0 DUP4 ADD DUP5 PUSH2 0x774 JUMP JUMPDEST SWAP3 SWAP2 POP POP JUMP JUMPDEST PUSH1 0x0 PUSH1 0x20 DUP3 ADD SWAP1 POP DUP2 DUP2 SUB PUSH1 0x0 DUP4 ADD MSTORE PUSH2 0x80C DUP2 PUSH2 0x783 JUMP JUMPDEST SWAP1 POP SWAP2 SWAP1 POP JUMP JUMPDEST PUSH1 0x0 PUSH1 0x20 DUP3 ADD SWAP1 POP DUP2 DUP2 SUB PUSH1 0x0 DUP4 ADD MSTORE PUSH2 0x82C DUP2 PUSH2 0x7A6 JUMP JUMPDEST SWAP1 POP SWAP2 SWAP1 POP JUMP JUMPDEST PUSH1 0x0 PUSH1 0x20 DUP3 ADD SWAP1 POP PUSH2 0x848 PUSH1 0x0 DUP4 ADD DUP5 PUSH2 0x7C9 JUMP JUMPDEST SWAP3 SWAP2 POP POP JUMP JUMPDEST PUSH1 0x0 DUP3 DUP3 MSTORE PUSH1 0x20 DUP3 ADD SWAP1 POP SWAP3 SWAP2 POP POP JUMP JUMPDEST PUSH1 0x0 PUSH2 0x86A DUP3 PUSH2 0xA93 JUMP JUMPDEST SWAP2 POP PUSH2 0x875 DUP4 PUSH2 0xA93 JUMP JUMPDEST SWAP3 POP DUP3 PUSH32 0xFFFFFFFFFFFFFFFFFFFFFFFFFFFFFFFFFFFFFFFFFFFFFFFFFFFFFFFFFFFFFFFF SUB DUP3 GT ISZERO PUSH2 0x8AA JUMPI PUSH2 0x8A9 PUSH2 0xAFC JUMP JUMPDEST JUMPDEST DUP3 DUP3 ADD SWAP1 POP SWAP3 SWAP2 POP POP JUMP JUMPDEST PUSH1 0x0 PUSH2 0x8C0 DUP3 PUSH2 0xA93 JUMP JUMPDEST SWAP2 POP PUSH2 0x8CB DUP4 PUSH2 0xA93 JUMP JUMPDEST SWAP3 POP DUP3 PUSH2 0x8DB JUMPI PUSH2 0x8DA PUSH2 0xB2B JUMP JUMPDEST JUMPDEST DUP3 DUP3 DIV SWAP1 POP SWAP3 SWAP2 POP POP JUMP JUMPDEST PUSH1 0x0 PUSH2 0x8F1 DUP3 PUSH2 0xA69 JUMP JUMPDEST SWAP2 POP PUSH2 0x8FC DUP4 PUSH2 0xA69 JUMP JUMPDEST SWAP3 POP DUP3 PUSH32 0x7FFFFFFFFFFFFFFFFFFFFFFFFFFFFFFFFFFFFFFFFFFFFFFFFFFFFFFFFFFFFFFF DIV DUP3 GT PUSH1 0x0 DUP5 SGT PUSH1 0x0 DUP5 SGT AND AND ISZERO PUSH2 0x93B JUMPI PUSH2 0x93A PUSH2 0xAFC JUMP JUMPDEST JUMPDEST DUP2 PUSH32 0x8000000000000000000000000000000000000000000000000000000000000000 SDIV DUP4 SLT PUSH1 0x0 DUP5 SLT PUSH1 0x0 DUP5 SGT AND AND ISZERO PUSH2 0x978 JUMPI PUSH2 0x977 PUSH2 0xAFC JUMP JUMPDEST JUMPDEST DUP3 PUSH32 0x8000000000000000000000000000000000000000000000000000000000000000 SDIV DUP3 SLT PUSH1 0x0 DUP5 SGT PUSH1 0x0 DUP5 SLT AND AND ISZERO PUSH2 0x9B5 JUMPI PUSH2 0x9B4 PUSH2 0xAFC JUMP JUMPDEST JUMPDEST DUP3 PUSH32 0x7FFFFFFFFFFFFFFFFFFFFFFFFFFFFFFFFFFFFFFFFFFFFFFFFFFFFFFFFFFFFFFF SDIV DUP3 SLT PUSH1 0x0 DUP5 SLT PUSH1 0x0 DUP5 SLT AND AND ISZERO PUSH2 0x9F2 JUMPI PUSH2 0x9F1 PUSH2 0xAFC JUMP JUMPDEST JUMPDEST DUP3 DUP3 MUL SWAP1 POP SWAP3 SWAP2 POP POP JUMP JUMPDEST PUSH1 0x0 PUSH2 0xA08 DUP3 PUSH2 0xA93 JUMP JUMPDEST SWAP2 POP PUSH2 0xA13 DUP4 PUSH2 0xA93 JUMP JUMPDEST SWAP3 POP DUP2 PUSH32 0xFFFFFFFFFFFFFFFFFFFFFFFFFFFFFFFFFFFFFFFFFFFFFFFFFFFFFFFFFFFFFFFF DIV DUP4 GT DUP3 ISZERO ISZERO AND ISZERO PUSH2 0xA4C JUMPI PUSH2 0xA4B PUSH2 0xAFC JUMP JUMPDEST JUMPDEST DUP3 DUP3 MUL SWAP1 POP SWAP3 SWAP2 POP POP JUMP JUMPDEST PUSH1 0x0 PUSH2 0xA62 DUP3 PUSH2 0xA73 JUMP JUMPDEST SWAP1 POP SWAP2 SWAP1 POP JUMP JUMPDEST PUSH1 0x0 DUP2 SWAP1 POP SWAP2 SWAP1 POP JUMP JUMPDEST PUSH1 0x0 PUSH20 0xFFFFFFFFFFFFFFFFFFFFFFFFFFFFFFFFFFFFFFFF DUP3 AND SWAP1 POP SWAP2 SWAP1 POP JUMP JUMPDEST PUSH1 0x0 DUP2 SWAP1 POP SWAP2 SWAP1 POP JUMP JUMPDEST PUSH1 0x0 PUSH10 0xFFFFFFFFFFFFFFFFFFFF DUP3 AND SWAP1 POP SWAP2 SWAP1 POP JUMP JUMPDEST PUSH1 0x0 PUSH2 0xABE DUP3 PUSH2 0xA93 JUMP JUMPDEST SWAP2 POP PUSH32 0xFFFFFFFFFFFFFFFFFFFFFFFFFFFFFFFFFFFFFFFFFFFFFFFFFFFFFFFFFFFFFFFF DUP3 EQ ISZERO PUSH2 0xAF1 JUMPI PUSH2 0xAF0 PUSH2 0xAFC JUMP JUMPDEST JUMPDEST PUSH1 0x1 DUP3 ADD SWAP1 POP SWAP2 SWAP1 POP JUMP JUMPDEST PUSH32 0x4E487B7100000000000000000000000000000000000000000000000000000000 PUSH1 0x0 MSTORE PUSH1 0x11 PUSH1 0x4 MSTORE PUSH1 0x24 PUSH1 0x0 REVERT JUMPDEST PUSH32 0x4E487B7100000000000000000000000000000000000000000000000000000000 PUSH1 0x0 MSTORE PUSH1 0x12 PUSH1 0x4 MSTORE PUSH1 0x24 PUSH1 0x0 REVERT JUMPDEST PUSH32 0x4E487B7100000000000000000000000000000000000000000000000000000000 PUSH1 0x0 MSTORE PUSH1 0x32 PUSH1 0x4 MSTORE PUSH1 0x24 PUSH1 0x0 REVERT JUMPDEST PUSH1 0x0 DUP1 REVERT JUMPDEST PUSH32 0x4F6E6C79206F776E65722063616E207769746864726177000000000000000000 PUSH1 0x0 DUP3 ADD MSTORE POP JUMP JUMPDEST PUSH32 0x596F75206E65656420746F207370656E64206D6F726520455448000000000000 PUSH1 0x0 DUP3 ADD MSTORE POP JUMP JUMPDEST PUSH2 0xBE9 DUP2 PUSH2 0xA57 JUMP JUMPDEST DUP2 EQ PUSH2 0xBF4 JUMPI PUSH1 0x0 DUP1 REVERT JUMPDEST POP JUMP JUMPDEST PUSH2 0xC00 DUP2 PUSH2 0xA69 JUMP JUMPDEST DUP2 EQ PUSH2 0xC0B JUMPI PUSH1 0x0 DUP1 REVERT JUMPDEST POP JUMP JUMPDEST PUSH2 0xC17 DUP2 PUSH2 0xA93 JUMP JUMPDEST DUP2 EQ PUSH2 0xC22 JUMPI PUSH1 0x0 DUP1 REVERT JUMPDEST POP JUMP JUMPDEST PUSH2 0xC2E DUP2 PUSH2 0xA9D JUMP JUMPDEST DUP2 EQ PUSH2 0xC39 JUMPI PUSH1 0x0 DUP1 REVERT JUMPDEST POP JUMP INVALID LOG2 PUSH5 0x6970667358 0x22 SLT KECCAK256 LT 0xEF 0xD3 MUL 0xD9 LOG2 0xE5 CALLER PUSH32 0x7738EADE769033909827823082029F545394366CA61B6464736F6C6343000807 STOP CALLER "
				},
				"gasEstimates": {
					"creation": {
						"codeDepositCost": "637200",
						"executionCost": "24936",
						"totalCost": "662136"
					},
					"external": {
						"addressToAmountFunded(address)": "2859",
						"fund()": "infinite",
						"funders(uint256)": "5022",
						"getConversionRate(uint256)": "infinite",
						"getPrice()": "infinite",
						"getVersion()": "infinite",
						"withDraw()": "infinite"
					}
				},
				"methodIdentifiers": {
					"addressToAmountFunded(address)": "3e47d6f3",
					"fund()": "b60d4288",
					"funders(uint256)": "dc0d3dff",
					"getConversionRate(uint256)": "6e5b6b28",
					"getPrice()": "98d5fdca",
					"getVersion()": "0d8e6e2c",
					"withDraw()": "0fdb1c10"
				}
			},
			"storageLayout": {
				"storage": [
					{
						"astId": 195,
						"contract": "contracts/FundMe.sol:FundMe",
						"label": "addressToAmountFunded",
						"offset": 0,
						"slot": "0",
						"type": "t_mapping(t_address,t_uint256)"
					},
					{
						"astId": 197,
						"contract": "contracts/FundMe.sol:FundMe",
						"label": "owner",
						"offset": 0,
						"slot": "1",
						"type": "t_address"
					},
					{
						"astId": 200,
						"contract": "contracts/FundMe.sol:FundMe",
						"label": "funders",
						"offset": 0,
						"slot": "2",
						"type": "t_array(t_address)dyn_storage"
					}
				],
				"types": {
					"t_address": {
						"encoding": "inplace",
						"label": "address",
						"numberOfBytes": "20"
					},
					"t_array(t_address)dyn_storage": {
						"base": "t_address",
						"encoding": "dynamic_array",
						"label": "address[]",
						"numberOfBytes": "32"
					},
					"t_mapping(t_address,t_uint256)": {
						"encoding": "mapping",
						"key": "t_address",
						"label": "mapping(address => uint256)",
						"numberOfBytes": "32",
						"value": "t_uint256"
					},
					"t_uint256": {
						"encoding": "inplace",
						"label": "uint256",
						"numberOfBytes": "32"
					}
				}
			},
			"userdoc": {
				"kind": "user",
				"methods": {},
				"version": 1
			}
		}
	}
}