{
	"contracts/FundMe.sol": {
		"FundMe": {
			"abi": [
				{
					"inputs": [
						{
							"internalType": "address",
							"name": "",
							"type": "address"
						}
					],
					"name": "addressToAmountFunded",
					"outputs": [
						{
							"internalType": "uint256",
							"name": "",
							"type": "uint256"
						}
					],
					"stateMutability": "view",
					"type": "function"
				},
				{
					"inputs": [],
					"name": "fund",
					"outputs": [],
					"stateMutability": "payable",
					"type": "function"
				},
				{
					"inputs": [
						{
							"internalType": "uint256",
							"name": "_ethAmount",
							"type": "uint256"
						}
					],
					"name": "getConversionRate",
					"outputs": [
						{
							"internalType": "uint256",
							"name": "",
							"type": "uint256"
						}
					],
					"stateMutability": "view",
					"type": "function"
				},
				{
					"inputs": [],
					"name": "getPrice",
					"outputs": [
						{
							"internalType": "uint256",
							"name": "",
							"type": "uint256"
						}
					],
					"stateMutability": "view",
					"type": "function"
				},
				{
					"inputs": [],
					"name": "getVersion",
					"outputs": [
						{
							"internalType": "uint256",
							"name": "",
							"type": "uint256"
						}
					],
					"stateMutability": "view",
					"type": "function"
				},
				{
					"inputs": [
						{
							"internalType": "uint256",
							"name": "_amount",
							"type": "uint256"
						}
					],
					"name": "withDraw",
					"outputs": [],
					"stateMutability": "nonpayable",
					"type": "function"
				}
			],
			"devdoc": {
				"kind": "dev",
				"methods": {},
				"version": 1
			},
			"evm": {
				"assembly": "    /* \"contracts/FundMe.sol\":221:2301  contract FundMe\r... */\n  mstore(0x40, 0x80)\n  callvalue\n  dup1\n  iszero\n  tag_1\n  jumpi\n  0x00\n  dup1\n  revert\ntag_1:\n  pop\n  dataSize(sub_0)\n  dup1\n  dataOffset(sub_0)\n  0x00\n  codecopy\n  0x00\n  return\nstop\n\nsub_0: assembly {\n        /* \"contracts/FundMe.sol\":221:2301  contract FundMe\r... */\n      mstore(0x40, 0x80)\n      jumpi(tag_1, lt(calldatasize, 0x04))\n      shr(0xe0, calldataload(0x00))\n      dup1\n      0x0d8e6e2c\n      eq\n      tag_2\n      jumpi\n      dup1\n      0x14174f33\n      eq\n      tag_3\n      jumpi\n      dup1\n      0x3e47d6f3\n      eq\n      tag_4\n      jumpi\n      dup1\n      0x6e5b6b28\n      eq\n      tag_5\n      jumpi\n      dup1\n      0x98d5fdca\n      eq\n      tag_6\n      jumpi\n      dup1\n      0xb60d4288\n      eq\n      tag_7\n      jumpi\n    tag_1:\n      0x00\n      dup1\n      revert\n        /* \"contracts/FundMe.sol\":1012:1405  function getVersion() public view returns(uint256)\r... */\n    tag_2:\n      callvalue\n      dup1\n      iszero\n      tag_8\n      jumpi\n      0x00\n      dup1\n      revert\n    tag_8:\n      pop\n      tag_9\n      tag_10\n      jump\t// in\n    tag_9:\n      mload(0x40)\n      tag_11\n      swap2\n      swap1\n      tag_12\n      jump\t// in\n    tag_11:\n      mload(0x40)\n      dup1\n      swap2\n      sub\n      swap1\n      return\n        /* \"contracts/FundMe.sol\":2105:2298  function withDraw(uint256 _amount) public \r... */\n    tag_3:\n      callvalue\n      dup1\n      iszero\n      tag_13\n      jumpi\n      0x00\n      dup1\n      revert\n    tag_13:\n      pop\n      tag_14\n      0x04\n      dup1\n      calldatasize\n      sub\n      dup2\n      add\n      swap1\n      tag_15\n      swap2\n      swap1\n      tag_16\n      jump\t// in\n    tag_15:\n      tag_17\n      jump\t// in\n    tag_14:\n      stop\n        /* \"contracts/FundMe.sol\":398:454  mapping(address => uint256) public addressToAmountFunded */\n    tag_4:\n      callvalue\n      dup1\n      iszero\n      tag_18\n      jumpi\n      0x00\n      dup1\n      revert\n    tag_18:\n      pop\n      tag_19\n      0x04\n      dup1\n      calldatasize\n      sub\n      dup2\n      add\n      swap1\n      tag_20\n      swap2\n      swap1\n      tag_21\n      jump\t// in\n    tag_20:\n      tag_22\n      jump\t// in\n    tag_19:\n      mload(0x40)\n      tag_23\n      swap2\n      swap1\n      tag_12\n      jump\t// in\n    tag_23:\n      mload(0x40)\n      dup1\n      swap2\n      sub\n      swap1\n      return\n        /* \"contracts/FundMe.sol\":1859:2097  function getConversionRate(uint256 _ethAmount) public view returns(uint256)\r... */\n    tag_5:\n      callvalue\n      dup1\n      iszero\n      tag_24\n      jumpi\n      0x00\n      dup1\n      revert\n    tag_24:\n      pop\n      tag_25\n      0x04\n      dup1\n      calldatasize\n      sub\n      dup2\n      add\n      swap1\n      tag_26\n      swap2\n      swap1\n      tag_16\n      jump\t// in\n    tag_26:\n      tag_27\n      jump\t// in\n    tag_25:\n      mload(0x40)\n      tag_28\n      swap2\n      swap1\n      tag_12\n      jump\t// in\n    tag_28:\n      mload(0x40)\n      dup1\n      swap2\n      sub\n      swap1\n      return\n        /* \"contracts/FundMe.sol\":1413:1851  function getPrice() public view returns(uint256)\r... */\n    tag_6:\n      callvalue\n      dup1\n      iszero\n      tag_29\n      jumpi\n      0x00\n      dup1\n      revert\n    tag_29:\n      pop\n      tag_30\n      tag_31\n      jump\t// in\n    tag_30:\n      mload(0x40)\n      tag_32\n      swap2\n      swap1\n      tag_12\n      jump\t// in\n    tag_32:\n      mload(0x40)\n      dup1\n      swap2\n      sub\n      swap1\n      return\n        /* \"contracts/FundMe.sol\":608:1004  function fund() public payable\r... */\n    tag_7:\n      tag_33\n      tag_34\n      jump\t// in\n    tag_33:\n      stop\n        /* \"contracts/FundMe.sol\":1012:1405  function getVersion() public view returns(uint256)\r... */\n    tag_10:\n        /* \"contracts/FundMe.sol\":1054:1061  uint256 */\n      0x00\n        /* \"contracts/FundMe.sol\":1259:1290  AggregatorV3Interface pricefeed */\n      dup1\n        /* \"contracts/FundMe.sol\":1315:1357  0xD4a33860578De61DBAbDc8BFdb98FD742fA7028e */\n      0xd4a33860578de61dbabdc8bfdb98fd742fa7028e\n        /* \"contracts/FundMe.sol\":1259:1358  AggregatorV3Interface pricefeed = AggregatorV3Interface(0xD4a33860578De61DBAbDc8BFdb98FD742fA7028e) */\n      swap1\n      pop\n        /* \"contracts/FundMe.sol\":1376:1385  pricefeed */\n      dup1\n        /* \"contracts/FundMe.sol\":1376:1393  pricefeed.version */\n      0xffffffffffffffffffffffffffffffffffffffff\n      and\n      0x54fd4d50\n        /* \"contracts/FundMe.sol\":1376:1395  pricefeed.version() */\n      mload(0x40)\n      dup2\n      0xffffffff\n      and\n      0xe0\n      shl\n      dup2\n      mstore\n      0x04\n      add\n      0x20\n      mload(0x40)\n      dup1\n      dup4\n      sub\n      dup2\n      dup7\n      dup1\n      extcodesize\n      iszero\n      dup1\n      iszero\n      tag_36\n      jumpi\n      0x00\n      dup1\n      revert\n    tag_36:\n      pop\n      gas\n      staticcall\n      iszero\n      dup1\n      iszero\n      tag_38\n      jumpi\n      returndatasize\n      0x00\n      dup1\n      returndatacopy\n      revert(0x00, returndatasize)\n    tag_38:\n      pop\n      pop\n      pop\n      pop\n      mload(0x40)\n      returndatasize\n      not(0x1f)\n      0x1f\n      dup3\n      add\n      and\n      dup3\n      add\n      dup1\n      0x40\n      mstore\n      pop\n      dup2\n      add\n      swap1\n      tag_39\n      swap2\n      swap1\n      tag_40\n      jump\t// in\n    tag_39:\n        /* \"contracts/FundMe.sol\":1369:1395  return pricefeed.version() */\n      swap2\n      pop\n      pop\n        /* \"contracts/FundMe.sol\":1012:1405  function getVersion() public view returns(uint256)\r... */\n      swap1\n      jump\t// out\n        /* \"contracts/FundMe.sol\":2105:2298  function withDraw(uint256 _amount) public \r... */\n    tag_17:\n        /* \"contracts/FundMe.sol\":2203:2210  _amount */\n      dup1\n        /* \"contracts/FundMe.sol\":2167:2188  addressToAmountFunded */\n      0x00\n        /* \"contracts/FundMe.sol\":2167:2200  addressToAmountFunded[msg.sender] */\n      dup1\n        /* \"contracts/FundMe.sol\":2189:2199  msg.sender */\n      caller\n        /* \"contracts/FundMe.sol\":2167:2200  addressToAmountFunded[msg.sender] */\n      0xffffffffffffffffffffffffffffffffffffffff\n      and\n      0xffffffffffffffffffffffffffffffffffffffff\n      and\n      dup2\n      mstore\n      0x20\n      add\n      swap1\n      dup2\n      mstore\n      0x20\n      add\n      0x00\n      keccak256\n      sload\n        /* \"contracts/FundMe.sol\":2167:2210  addressToAmountFunded[msg.sender] > _amount */\n      gt\n        /* \"contracts/FundMe.sol\":2164:2291  if(addressToAmountFunded[msg.sender] > _amount)\r... */\n      iszero\n      tag_42\n      jumpi\n        /* \"contracts/FundMe.sol\":2272:2279  _amount */\n      dup1\n        /* \"contracts/FundMe.sol\":2236:2257  addressToAmountFunded */\n      0x00\n        /* \"contracts/FundMe.sol\":2236:2269  addressToAmountFunded[msg.sender] */\n      dup1\n        /* \"contracts/FundMe.sol\":2258:2268  msg.sender */\n      caller\n        /* \"contracts/FundMe.sol\":2236:2269  addressToAmountFunded[msg.sender] */\n      0xffffffffffffffffffffffffffffffffffffffff\n      and\n      0xffffffffffffffffffffffffffffffffffffffff\n      and\n      dup2\n      mstore\n      0x20\n      add\n      swap1\n      dup2\n      mstore\n      0x20\n      add\n      0x00\n      keccak256\n      0x00\n        /* \"contracts/FundMe.sol\":2236:2279  addressToAmountFunded[msg.sender] -=_amount */\n      dup3\n      dup3\n      sload\n      tag_43\n      swap2\n      swap1\n      tag_44\n      jump\t// in\n    tag_43:\n      swap3\n      pop\n      pop\n      dup2\n      swap1\n      sstore\n      pop\n        /* \"contracts/FundMe.sol\":2164:2291  if(addressToAmountFunded[msg.sender] > _amount)\r... */\n    tag_42:\n        /* \"contracts/FundMe.sol\":2105:2298  function withDraw(uint256 _amount) public \r... */\n      pop\n      jump\t// out\n        /* \"contracts/FundMe.sol\":398:454  mapping(address => uint256) public addressToAmountFunded */\n    tag_22:\n      mstore(0x20, 0x00)\n      dup1\n      0x00\n      mstore\n      keccak256(0x00, 0x40)\n      0x00\n      swap2\n      pop\n      swap1\n      pop\n      sload\n      dup2\n      jump\t// out\n        /* \"contracts/FundMe.sol\":1859:2097  function getConversionRate(uint256 _ethAmount) public view returns(uint256)\r... */\n    tag_27:\n        /* \"contracts/FundMe.sol\":1926:1933  uint256 */\n      0x00\n        /* \"contracts/FundMe.sol\":1951:1967  uint256 ethPrice */\n      dup1\n        /* \"contracts/FundMe.sol\":1970:1980  getPrice() */\n      tag_46\n        /* \"contracts/FundMe.sol\":1970:1978  getPrice */\n      tag_31\n        /* \"contracts/FundMe.sol\":1970:1980  getPrice() */\n      jump\t// in\n    tag_46:\n        /* \"contracts/FundMe.sol\":1951:1980  uint256 ethPrice = getPrice() */\n      swap1\n      pop\n        /* \"contracts/FundMe.sol\":1991:2013  uint256 ethAmountInUsd */\n      0x00\n        /* \"contracts/FundMe.sol\":2038:2057  1000000000000000000 */\n      0x0de0b6b3a7640000\n        /* \"contracts/FundMe.sol\":2026:2036  _ethAmount */\n      dup5\n        /* \"contracts/FundMe.sol\":2017:2025  ethPrice */\n      dup4\n        /* \"contracts/FundMe.sol\":2017:2036  ethPrice*_ethAmount */\n      tag_47\n      swap2\n      swap1\n      tag_48\n      jump\t// in\n    tag_47:\n        /* \"contracts/FundMe.sol\":2016:2057  (ethPrice*_ethAmount)/1000000000000000000 */\n      tag_49\n      swap2\n      swap1\n      tag_50\n      jump\t// in\n    tag_49:\n        /* \"contracts/FundMe.sol\":1991:2057  uint256 ethAmountInUsd = (ethPrice*_ethAmount)/1000000000000000000 */\n      swap1\n      pop\n        /* \"contracts/FundMe.sol\":2075:2089  ethAmountInUsd */\n      dup1\n        /* \"contracts/FundMe.sol\":2068:2089  return ethAmountInUsd */\n      swap3\n      pop\n      pop\n      pop\n        /* \"contracts/FundMe.sol\":1859:2097  function getConversionRate(uint256 _ethAmount) public view returns(uint256)\r... */\n      swap2\n      swap1\n      pop\n      jump\t// out\n        /* \"contracts/FundMe.sol\":1413:1851  function getPrice() public view returns(uint256)\r... */\n    tag_31:\n        /* \"contracts/FundMe.sol\":1453:1460  uint256 */\n      0x00\n        /* \"contracts/FundMe.sol\":1478:1509  AggregatorV3Interface pricefeed */\n      dup1\n        /* \"contracts/FundMe.sol\":1534:1576  0xD4a33860578De61DBAbDc8BFdb98FD742fA7028e */\n      0xd4a33860578de61dbabdc8bfdb98fd742fa7028e\n        /* \"contracts/FundMe.sol\":1478:1577  AggregatorV3Interface pricefeed = AggregatorV3Interface(0xD4a33860578De61DBAbDc8BFdb98FD742fA7028e) */\n      swap1\n      pop\n        /* \"contracts/FundMe.sol\":1636:1649  int256 answer */\n      0x00\n        /* \"contracts/FundMe.sol\":1770:1779  pricefeed */\n      dup2\n        /* \"contracts/FundMe.sol\":1770:1795  pricefeed.latestRoundData */\n      0xffffffffffffffffffffffffffffffffffffffff\n      and\n      0xfeaf968c\n        /* \"contracts/FundMe.sol\":1770:1797  pricefeed.latestRoundData() */\n      mload(0x40)\n      dup2\n      0xffffffff\n      and\n      0xe0\n      shl\n      dup2\n      mstore\n      0x04\n      add\n      0xa0\n      mload(0x40)\n      dup1\n      dup4\n      sub\n      dup2\n      dup7\n      dup1\n      extcodesize\n      iszero\n      dup1\n      iszero\n      tag_52\n      jumpi\n      0x00\n      dup1\n      revert\n    tag_52:\n      pop\n      gas\n      staticcall\n      iszero\n      dup1\n      iszero\n      tag_54\n      jumpi\n      returndatasize\n      0x00\n      dup1\n      returndatacopy\n      revert(0x00, returndatasize)\n    tag_54:\n      pop\n      pop\n      pop\n      pop\n      mload(0x40)\n      returndatasize\n      not(0x1f)\n      0x1f\n      dup3\n      add\n      and\n      dup3\n      add\n      dup1\n      0x40\n      mstore\n      pop\n      dup2\n      add\n      swap1\n      tag_55\n      swap2\n      swap1\n      tag_56\n      jump\t// in\n    tag_55:\n        /* \"contracts/FundMe.sol\":1588:1797  (\r... */\n      pop\n      pop\n      pop\n      swap2\n      pop\n      pop\n        /* \"contracts/FundMe.sol\":1830:1841  10000000000 */\n      0x02540be400\n        /* \"contracts/FundMe.sol\":1823:1829  answer */\n      dup2\n        /* \"contracts/FundMe.sol\":1823:1841  answer*10000000000 */\n      tag_57\n      swap2\n      swap1\n      tag_58\n      jump\t// in\n    tag_57:\n        /* \"contracts/FundMe.sol\":1808:1842  return uint256(answer*10000000000) */\n      swap3\n      pop\n      pop\n      pop\n        /* \"contracts/FundMe.sol\":1413:1851  function getPrice() public view returns(uint256)\r... */\n      swap1\n      jump\t// out\n        /* \"contracts/FundMe.sol\":608:1004  function fund() public payable\r... */\n    tag_34:\n        /* \"contracts/FundMe.sol\":678:696  uint256 minimumUSD */\n      0x00\n        /* \"contracts/FundMe.sol\":699:708  50*10**18 */\n      0x02b5e3af16b1880000\n        /* \"contracts/FundMe.sol\":678:708  uint256 minimumUSD = 50*10**18 */\n      swap1\n      pop\n        /* \"contracts/FundMe.sol\":847:857  minimumUSD */\n      dup1\n        /* \"contracts/FundMe.sol\":815:843  getConversionRate(msg.value) */\n      tag_60\n        /* \"contracts/FundMe.sol\":833:842  msg.value */\n      callvalue\n        /* \"contracts/FundMe.sol\":815:832  getConversionRate */\n      tag_27\n        /* \"contracts/FundMe.sol\":815:843  getConversionRate(msg.value) */\n      jump\t// in\n    tag_60:\n        /* \"contracts/FundMe.sol\":815:857  getConversionRate(msg.value) >= minimumUSD */\n      lt\n      iszero\n        /* \"contracts/FundMe.sol\":807:887  require(getConversionRate(msg.value) >= minimumUSD,\"You need to spend more ETH\") */\n      tag_61\n      jumpi\n      mload(0x40)\n      0x08c379a000000000000000000000000000000000000000000000000000000000\n      dup2\n      mstore\n      0x04\n      add\n      tag_62\n      swap1\n      tag_63\n      jump\t// in\n    tag_62:\n      mload(0x40)\n      dup1\n      swap2\n      sub\n      swap1\n      revert\n    tag_61:\n        /* \"contracts/FundMe.sol\":939:948  msg.value */\n      callvalue\n        /* \"contracts/FundMe.sol\":902:923  addressToAmountFunded */\n      0x00\n        /* \"contracts/FundMe.sol\":902:935  addressToAmountFunded[msg.sender] */\n      dup1\n        /* \"contracts/FundMe.sol\":924:934  msg.sender */\n      caller\n        /* \"contracts/FundMe.sol\":902:935  addressToAmountFunded[msg.sender] */\n      0xffffffffffffffffffffffffffffffffffffffff\n      and\n      0xffffffffffffffffffffffffffffffffffffffff\n      and\n      dup2\n      mstore\n      0x20\n      add\n      swap1\n      dup2\n      mstore\n      0x20\n      add\n      0x00\n      keccak256\n      0x00\n        /* \"contracts/FundMe.sol\":902:948  addressToAmountFunded[msg.sender] += msg.value */\n      dup3\n      dup3\n      sload\n      tag_64\n      swap2\n      swap1\n      tag_65\n      jump\t// in\n    tag_64:\n      swap3\n      pop\n      pop\n      dup2\n      swap1\n      sstore\n      pop\n        /* \"contracts/FundMe.sol\":644:1004  {\r... */\n      pop\n        /* \"contracts/FundMe.sol\":608:1004  function fund() public payable\r... */\n      jump\t// out\n        /* \"#utility.yul\":7:146   */\n    tag_67:\n        /* \"#utility.yul\":53:58   */\n      0x00\n        /* \"#utility.yul\":91:97   */\n      dup2\n        /* \"#utility.yul\":78:98   */\n      calldataload\n        /* \"#utility.yul\":69:98   */\n      swap1\n      pop\n        /* \"#utility.yul\":107:140   */\n      tag_69\n        /* \"#utility.yul\":134:139   */\n      dup2\n        /* \"#utility.yul\":107:140   */\n      tag_70\n      jump\t// in\n    tag_69:\n        /* \"#utility.yul\":7:146   */\n      swap3\n      swap2\n      pop\n      pop\n      jump\t// out\n        /* \"#utility.yul\":152:293   */\n    tag_71:\n        /* \"#utility.yul\":208:213   */\n      0x00\n        /* \"#utility.yul\":239:245   */\n      dup2\n        /* \"#utility.yul\":233:246   */\n      mload\n        /* \"#utility.yul\":224:246   */\n      swap1\n      pop\n        /* \"#utility.yul\":255:287   */\n      tag_73\n        /* \"#utility.yul\":281:286   */\n      dup2\n        /* \"#utility.yul\":255:287   */\n      tag_74\n      jump\t// in\n    tag_73:\n        /* \"#utility.yul\":152:293   */\n      swap3\n      swap2\n      pop\n      pop\n      jump\t// out\n        /* \"#utility.yul\":299:438   */\n    tag_75:\n        /* \"#utility.yul\":345:350   */\n      0x00\n        /* \"#utility.yul\":383:389   */\n      dup2\n        /* \"#utility.yul\":370:390   */\n      calldataload\n        /* \"#utility.yul\":361:390   */\n      swap1\n      pop\n        /* \"#utility.yul\":399:432   */\n      tag_77\n        /* \"#utility.yul\":426:431   */\n      dup2\n        /* \"#utility.yul\":399:432   */\n      tag_78\n      jump\t// in\n    tag_77:\n        /* \"#utility.yul\":299:438   */\n      swap3\n      swap2\n      pop\n      pop\n      jump\t// out\n        /* \"#utility.yul\":444:587   */\n    tag_79:\n        /* \"#utility.yul\":501:506   */\n      0x00\n        /* \"#utility.yul\":532:538   */\n      dup2\n        /* \"#utility.yul\":526:539   */\n      mload\n        /* \"#utility.yul\":517:539   */\n      swap1\n      pop\n        /* \"#utility.yul\":548:581   */\n      tag_81\n        /* \"#utility.yul\":575:580   */\n      dup2\n        /* \"#utility.yul\":548:581   */\n      tag_78\n      jump\t// in\n    tag_81:\n        /* \"#utility.yul\":444:587   */\n      swap3\n      swap2\n      pop\n      pop\n      jump\t// out\n        /* \"#utility.yul\":593:734   */\n    tag_82:\n        /* \"#utility.yul\":649:654   */\n      0x00\n        /* \"#utility.yul\":680:686   */\n      dup2\n        /* \"#utility.yul\":674:687   */\n      mload\n        /* \"#utility.yul\":665:687   */\n      swap1\n      pop\n        /* \"#utility.yul\":696:728   */\n      tag_84\n        /* \"#utility.yul\":722:727   */\n      dup2\n        /* \"#utility.yul\":696:728   */\n      tag_85\n      jump\t// in\n    tag_84:\n        /* \"#utility.yul\":593:734   */\n      swap3\n      swap2\n      pop\n      pop\n      jump\t// out\n        /* \"#utility.yul\":740:1069   */\n    tag_21:\n        /* \"#utility.yul\":799:805   */\n      0x00\n        /* \"#utility.yul\":848:850   */\n      0x20\n        /* \"#utility.yul\":836:845   */\n      dup3\n        /* \"#utility.yul\":827:834   */\n      dup5\n        /* \"#utility.yul\":823:846   */\n      sub\n        /* \"#utility.yul\":819:851   */\n      slt\n        /* \"#utility.yul\":816:935   */\n      iszero\n      tag_87\n      jumpi\n        /* \"#utility.yul\":854:933   */\n      tag_88\n      tag_89\n      jump\t// in\n    tag_88:\n        /* \"#utility.yul\":816:935   */\n    tag_87:\n        /* \"#utility.yul\":974:975   */\n      0x00\n        /* \"#utility.yul\":999:1052   */\n      tag_90\n        /* \"#utility.yul\":1044:1051   */\n      dup5\n        /* \"#utility.yul\":1035:1041   */\n      dup3\n        /* \"#utility.yul\":1024:1033   */\n      dup6\n        /* \"#utility.yul\":1020:1042   */\n      add\n        /* \"#utility.yul\":999:1052   */\n      tag_67\n      jump\t// in\n    tag_90:\n        /* \"#utility.yul\":989:1052   */\n      swap2\n      pop\n        /* \"#utility.yul\":945:1062   */\n      pop\n        /* \"#utility.yul\":740:1069   */\n      swap3\n      swap2\n      pop\n      pop\n      jump\t// out\n        /* \"#utility.yul\":1075:1404   */\n    tag_16:\n        /* \"#utility.yul\":1134:1140   */\n      0x00\n        /* \"#utility.yul\":1183:1185   */\n      0x20\n        /* \"#utility.yul\":1171:1180   */\n      dup3\n        /* \"#utility.yul\":1162:1169   */\n      dup5\n        /* \"#utility.yul\":1158:1181   */\n      sub\n        /* \"#utility.yul\":1154:1186   */\n      slt\n        /* \"#utility.yul\":1151:1270   */\n      iszero\n      tag_92\n      jumpi\n        /* \"#utility.yul\":1189:1268   */\n      tag_93\n      tag_89\n      jump\t// in\n    tag_93:\n        /* \"#utility.yul\":1151:1270   */\n    tag_92:\n        /* \"#utility.yul\":1309:1310   */\n      0x00\n        /* \"#utility.yul\":1334:1387   */\n      tag_94\n        /* \"#utility.yul\":1379:1386   */\n      dup5\n        /* \"#utility.yul\":1370:1376   */\n      dup3\n        /* \"#utility.yul\":1359:1368   */\n      dup6\n        /* \"#utility.yul\":1355:1377   */\n      add\n        /* \"#utility.yul\":1334:1387   */\n      tag_75\n      jump\t// in\n    tag_94:\n        /* \"#utility.yul\":1324:1387   */\n      swap2\n      pop\n        /* \"#utility.yul\":1280:1397   */\n      pop\n        /* \"#utility.yul\":1075:1404   */\n      swap3\n      swap2\n      pop\n      pop\n      jump\t// out\n        /* \"#utility.yul\":1410:1761   */\n    tag_40:\n        /* \"#utility.yul\":1480:1486   */\n      0x00\n        /* \"#utility.yul\":1529:1531   */\n      0x20\n        /* \"#utility.yul\":1517:1526   */\n      dup3\n        /* \"#utility.yul\":1508:1515   */\n      dup5\n        /* \"#utility.yul\":1504:1527   */\n      sub\n        /* \"#utility.yul\":1500:1532   */\n      slt\n        /* \"#utility.yul\":1497:1616   */\n      iszero\n      tag_96\n      jumpi\n        /* \"#utility.yul\":1535:1614   */\n      tag_97\n      tag_89\n      jump\t// in\n    tag_97:\n        /* \"#utility.yul\":1497:1616   */\n    tag_96:\n        /* \"#utility.yul\":1655:1656   */\n      0x00\n        /* \"#utility.yul\":1680:1744   */\n      tag_98\n        /* \"#utility.yul\":1736:1743   */\n      dup5\n        /* \"#utility.yul\":1727:1733   */\n      dup3\n        /* \"#utility.yul\":1716:1725   */\n      dup6\n        /* \"#utility.yul\":1712:1734   */\n      add\n        /* \"#utility.yul\":1680:1744   */\n      tag_79\n      jump\t// in\n    tag_98:\n        /* \"#utility.yul\":1670:1744   */\n      swap2\n      pop\n        /* \"#utility.yul\":1626:1754   */\n      pop\n        /* \"#utility.yul\":1410:1761   */\n      swap3\n      swap2\n      pop\n      pop\n      jump\t// out\n        /* \"#utility.yul\":1767:2738   */\n    tag_56:\n        /* \"#utility.yul\":1870:1876   */\n      0x00\n        /* \"#utility.yul\":1878:1884   */\n      dup1\n        /* \"#utility.yul\":1886:1892   */\n      0x00\n        /* \"#utility.yul\":1894:1900   */\n      dup1\n        /* \"#utility.yul\":1902:1908   */\n      0x00\n        /* \"#utility.yul\":1951:1954   */\n      0xa0\n        /* \"#utility.yul\":1939:1948   */\n      dup7\n        /* \"#utility.yul\":1930:1937   */\n      dup9\n        /* \"#utility.yul\":1926:1949   */\n      sub\n        /* \"#utility.yul\":1922:1955   */\n      slt\n        /* \"#utility.yul\":1919:2039   */\n      iszero\n      tag_100\n      jumpi\n        /* \"#utility.yul\":1958:2037   */\n      tag_101\n      tag_89\n      jump\t// in\n    tag_101:\n        /* \"#utility.yul\":1919:2039   */\n    tag_100:\n        /* \"#utility.yul\":2078:2079   */\n      0x00\n        /* \"#utility.yul\":2103:2166   */\n      tag_102\n        /* \"#utility.yul\":2158:2165   */\n      dup9\n        /* \"#utility.yul\":2149:2155   */\n      dup3\n        /* \"#utility.yul\":2138:2147   */\n      dup10\n        /* \"#utility.yul\":2134:2156   */\n      add\n        /* \"#utility.yul\":2103:2166   */\n      tag_82\n      jump\t// in\n    tag_102:\n        /* \"#utility.yul\":2093:2166   */\n      swap6\n      pop\n        /* \"#utility.yul\":2049:2176   */\n      pop\n        /* \"#utility.yul\":2215:2217   */\n      0x20\n        /* \"#utility.yul\":2241:2304   */\n      tag_103\n        /* \"#utility.yul\":2296:2303   */\n      dup9\n        /* \"#utility.yul\":2287:2293   */\n      dup3\n        /* \"#utility.yul\":2276:2285   */\n      dup10\n        /* \"#utility.yul\":2272:2294   */\n      add\n        /* \"#utility.yul\":2241:2304   */\n      tag_71\n      jump\t// in\n    tag_103:\n        /* \"#utility.yul\":2231:2304   */\n      swap5\n      pop\n        /* \"#utility.yul\":2186:2314   */\n      pop\n        /* \"#utility.yul\":2353:2355   */\n      0x40\n        /* \"#utility.yul\":2379:2443   */\n      tag_104\n        /* \"#utility.yul\":2435:2442   */\n      dup9\n        /* \"#utility.yul\":2426:2432   */\n      dup3\n        /* \"#utility.yul\":2415:2424   */\n      dup10\n        /* \"#utility.yul\":2411:2433   */\n      add\n        /* \"#utility.yul\":2379:2443   */\n      tag_79\n      jump\t// in\n    tag_104:\n        /* \"#utility.yul\":2369:2443   */\n      swap4\n      pop\n        /* \"#utility.yul\":2324:2453   */\n      pop\n        /* \"#utility.yul\":2492:2494   */\n      0x60\n        /* \"#utility.yul\":2518:2582   */\n      tag_105\n        /* \"#utility.yul\":2574:2581   */\n      dup9\n        /* \"#utility.yul\":2565:2571   */\n      dup3\n        /* \"#utility.yul\":2554:2563   */\n      dup10\n        /* \"#utility.yul\":2550:2572   */\n      add\n        /* \"#utility.yul\":2518:2582   */\n      tag_79\n      jump\t// in\n    tag_105:\n        /* \"#utility.yul\":2508:2582   */\n      swap3\n      pop\n        /* \"#utility.yul\":2463:2592   */\n      pop\n        /* \"#utility.yul\":2631:2634   */\n      0x80\n        /* \"#utility.yul\":2658:2721   */\n      tag_106\n        /* \"#utility.yul\":2713:2720   */\n      dup9\n        /* \"#utility.yul\":2704:2710   */\n      dup3\n        /* \"#utility.yul\":2693:2702   */\n      dup10\n        /* \"#utility.yul\":2689:2711   */\n      add\n        /* \"#utility.yul\":2658:2721   */\n      tag_82\n      jump\t// in\n    tag_106:\n        /* \"#utility.yul\":2648:2721   */\n      swap2\n      pop\n        /* \"#utility.yul\":2602:2731   */\n      pop\n        /* \"#utility.yul\":1767:2738   */\n      swap3\n      swap6\n      pop\n      swap3\n      swap6\n      swap1\n      swap4\n      pop\n      jump\t// out\n        /* \"#utility.yul\":2744:3110   */\n    tag_107:\n        /* \"#utility.yul\":2886:2889   */\n      0x00\n        /* \"#utility.yul\":2907:2974   */\n      tag_109\n        /* \"#utility.yul\":2971:2973   */\n      0x1a\n        /* \"#utility.yul\":2966:2969   */\n      dup4\n        /* \"#utility.yul\":2907:2974   */\n      tag_110\n      jump\t// in\n    tag_109:\n        /* \"#utility.yul\":2900:2974   */\n      swap2\n      pop\n        /* \"#utility.yul\":2983:3076   */\n      tag_111\n        /* \"#utility.yul\":3072:3075   */\n      dup3\n        /* \"#utility.yul\":2983:3076   */\n      tag_112\n      jump\t// in\n    tag_111:\n        /* \"#utility.yul\":3101:3103   */\n      0x20\n        /* \"#utility.yul\":3096:3099   */\n      dup3\n        /* \"#utility.yul\":3092:3104   */\n      add\n        /* \"#utility.yul\":3085:3104   */\n      swap1\n      pop\n        /* \"#utility.yul\":2744:3110   */\n      swap2\n      swap1\n      pop\n      jump\t// out\n        /* \"#utility.yul\":3116:3234   */\n    tag_113:\n        /* \"#utility.yul\":3203:3227   */\n      tag_115\n        /* \"#utility.yul\":3221:3226   */\n      dup2\n        /* \"#utility.yul\":3203:3227   */\n      tag_116\n      jump\t// in\n    tag_115:\n        /* \"#utility.yul\":3198:3201   */\n      dup3\n        /* \"#utility.yul\":3191:3228   */\n      mstore\n        /* \"#utility.yul\":3116:3234   */\n      pop\n      pop\n      jump\t// out\n        /* \"#utility.yul\":3240:3659   */\n    tag_63:\n        /* \"#utility.yul\":3406:3410   */\n      0x00\n        /* \"#utility.yul\":3444:3446   */\n      0x20\n        /* \"#utility.yul\":3433:3442   */\n      dup3\n        /* \"#utility.yul\":3429:3447   */\n      add\n        /* \"#utility.yul\":3421:3447   */\n      swap1\n      pop\n        /* \"#utility.yul\":3493:3502   */\n      dup2\n        /* \"#utility.yul\":3487:3491   */\n      dup2\n        /* \"#utility.yul\":3483:3503   */\n      sub\n        /* \"#utility.yul\":3479:3480   */\n      0x00\n        /* \"#utility.yul\":3468:3477   */\n      dup4\n        /* \"#utility.yul\":3464:3481   */\n      add\n        /* \"#utility.yul\":3457:3504   */\n      mstore\n        /* \"#utility.yul\":3521:3652   */\n      tag_118\n        /* \"#utility.yul\":3647:3651   */\n      dup2\n        /* \"#utility.yul\":3521:3652   */\n      tag_107\n      jump\t// in\n    tag_118:\n        /* \"#utility.yul\":3513:3652   */\n      swap1\n      pop\n        /* \"#utility.yul\":3240:3659   */\n      swap2\n      swap1\n      pop\n      jump\t// out\n        /* \"#utility.yul\":3665:3887   */\n    tag_12:\n        /* \"#utility.yul\":3758:3762   */\n      0x00\n        /* \"#utility.yul\":3796:3798   */\n      0x20\n        /* \"#utility.yul\":3785:3794   */\n      dup3\n        /* \"#utility.yul\":3781:3799   */\n      add\n        /* \"#utility.yul\":3773:3799   */\n      swap1\n      pop\n        /* \"#utility.yul\":3809:3880   */\n      tag_120\n        /* \"#utility.yul\":3877:3878   */\n      0x00\n        /* \"#utility.yul\":3866:3875   */\n      dup4\n        /* \"#utility.yul\":3862:3879   */\n      add\n        /* \"#utility.yul\":3853:3859   */\n      dup5\n        /* \"#utility.yul\":3809:3880   */\n      tag_113\n      jump\t// in\n    tag_120:\n        /* \"#utility.yul\":3665:3887   */\n      swap3\n      swap2\n      pop\n      pop\n      jump\t// out\n        /* \"#utility.yul\":3974:4143   */\n    tag_110:\n        /* \"#utility.yul\":4058:4069   */\n      0x00\n        /* \"#utility.yul\":4092:4098   */\n      dup3\n        /* \"#utility.yul\":4087:4090   */\n      dup3\n        /* \"#utility.yul\":4080:4099   */\n      mstore\n        /* \"#utility.yul\":4132:4136   */\n      0x20\n        /* \"#utility.yul\":4127:4130   */\n      dup3\n        /* \"#utility.yul\":4123:4137   */\n      add\n        /* \"#utility.yul\":4108:4137   */\n      swap1\n      pop\n        /* \"#utility.yul\":3974:4143   */\n      swap3\n      swap2\n      pop\n      pop\n      jump\t// out\n        /* \"#utility.yul\":4149:4454   */\n    tag_65:\n        /* \"#utility.yul\":4189:4192   */\n      0x00\n        /* \"#utility.yul\":4208:4228   */\n      tag_125\n        /* \"#utility.yul\":4226:4227   */\n      dup3\n        /* \"#utility.yul\":4208:4228   */\n      tag_116\n      jump\t// in\n    tag_125:\n        /* \"#utility.yul\":4203:4228   */\n      swap2\n      pop\n        /* \"#utility.yul\":4242:4262   */\n      tag_126\n        /* \"#utility.yul\":4260:4261   */\n      dup4\n        /* \"#utility.yul\":4242:4262   */\n      tag_116\n      jump\t// in\n    tag_126:\n        /* \"#utility.yul\":4237:4262   */\n      swap3\n      pop\n        /* \"#utility.yul\":4396:4397   */\n      dup3\n        /* \"#utility.yul\":4328:4394   */\n      0xffffffffffffffffffffffffffffffffffffffffffffffffffffffffffffffff\n        /* \"#utility.yul\":4324:4398   */\n      sub\n        /* \"#utility.yul\":4321:4322   */\n      dup3\n        /* \"#utility.yul\":4318:4399   */\n      gt\n        /* \"#utility.yul\":4315:4422   */\n      iszero\n      tag_127\n      jumpi\n        /* \"#utility.yul\":4402:4420   */\n      tag_128\n      tag_129\n      jump\t// in\n    tag_128:\n        /* \"#utility.yul\":4315:4422   */\n    tag_127:\n        /* \"#utility.yul\":4446:4447   */\n      dup3\n        /* \"#utility.yul\":4443:4444   */\n      dup3\n        /* \"#utility.yul\":4439:4448   */\n      add\n        /* \"#utility.yul\":4432:4448   */\n      swap1\n      pop\n        /* \"#utility.yul\":4149:4454   */\n      swap3\n      swap2\n      pop\n      pop\n      jump\t// out\n        /* \"#utility.yul\":4460:4645   */\n    tag_50:\n        /* \"#utility.yul\":4500:4501   */\n      0x00\n        /* \"#utility.yul\":4517:4537   */\n      tag_131\n        /* \"#utility.yul\":4535:4536   */\n      dup3\n        /* \"#utility.yul\":4517:4537   */\n      tag_116\n      jump\t// in\n    tag_131:\n        /* \"#utility.yul\":4512:4537   */\n      swap2\n      pop\n        /* \"#utility.yul\":4551:4571   */\n      tag_132\n        /* \"#utility.yul\":4569:4570   */\n      dup4\n        /* \"#utility.yul\":4551:4571   */\n      tag_116\n      jump\t// in\n    tag_132:\n        /* \"#utility.yul\":4546:4571   */\n      swap3\n      pop\n        /* \"#utility.yul\":4590:4591   */\n      dup3\n        /* \"#utility.yul\":4580:4615   */\n      tag_133\n      jumpi\n        /* \"#utility.yul\":4595:4613   */\n      tag_134\n      tag_135\n      jump\t// in\n    tag_134:\n        /* \"#utility.yul\":4580:4615   */\n    tag_133:\n        /* \"#utility.yul\":4637:4638   */\n      dup3\n        /* \"#utility.yul\":4634:4635   */\n      dup3\n        /* \"#utility.yul\":4630:4639   */\n      div\n        /* \"#utility.yul\":4625:4639   */\n      swap1\n      pop\n        /* \"#utility.yul\":4460:4645   */\n      swap3\n      swap2\n      pop\n      pop\n      jump\t// out\n        /* \"#utility.yul\":4651:5642   */\n    tag_58:\n        /* \"#utility.yul\":4690:4697   */\n      0x00\n        /* \"#utility.yul\":4713:4732   */\n      tag_137\n        /* \"#utility.yul\":4730:4731   */\n      dup3\n        /* \"#utility.yul\":4713:4732   */\n      tag_138\n      jump\t// in\n    tag_137:\n        /* \"#utility.yul\":4708:4732   */\n      swap2\n      pop\n        /* \"#utility.yul\":4746:4765   */\n      tag_139\n        /* \"#utility.yul\":4763:4764   */\n      dup4\n        /* \"#utility.yul\":4746:4765   */\n      tag_138\n      jump\t// in\n    tag_139:\n        /* \"#utility.yul\":4741:4765   */\n      swap3\n      pop\n        /* \"#utility.yul\":4947:4948   */\n      dup3\n        /* \"#utility.yul\":4879:4945   */\n      0x7fffffffffffffffffffffffffffffffffffffffffffffffffffffffffffffff\n        /* \"#utility.yul\":4875:4949   */\n      div\n        /* \"#utility.yul\":4872:4873   */\n      dup3\n        /* \"#utility.yul\":4869:4950   */\n      gt\n        /* \"#utility.yul\":4864:4865   */\n      0x00\n        /* \"#utility.yul\":4861:4862   */\n      dup5\n        /* \"#utility.yul\":4857:4866   */\n      sgt\n        /* \"#utility.yul\":4853:4854   */\n      0x00\n        /* \"#utility.yul\":4850:4851   */\n      dup5\n        /* \"#utility.yul\":4846:4855   */\n      sgt\n        /* \"#utility.yul\":4842:4867   */\n      and\n        /* \"#utility.yul\":4838:4951   */\n      and\n        /* \"#utility.yul\":4835:4974   */\n      iszero\n      tag_140\n      jumpi\n        /* \"#utility.yul\":4954:4972   */\n      tag_141\n      tag_129\n      jump\t// in\n    tag_141:\n        /* \"#utility.yul\":4835:4974   */\n    tag_140:\n        /* \"#utility.yul\":5158:5159   */\n      dup2\n        /* \"#utility.yul\":5090:5156   */\n      0x8000000000000000000000000000000000000000000000000000000000000000\n        /* \"#utility.yul\":5085:5160   */\n      sdiv\n        /* \"#utility.yul\":5082:5083   */\n      dup4\n        /* \"#utility.yul\":5078:5161   */\n      slt\n        /* \"#utility.yul\":5073:5074   */\n      0x00\n        /* \"#utility.yul\":5070:5071   */\n      dup5\n        /* \"#utility.yul\":5066:5075   */\n      slt\n        /* \"#utility.yul\":5062:5063   */\n      0x00\n        /* \"#utility.yul\":5059:5060   */\n      dup5\n        /* \"#utility.yul\":5055:5064   */\n      sgt\n        /* \"#utility.yul\":5051:5076   */\n      and\n        /* \"#utility.yul\":5047:5162   */\n      and\n        /* \"#utility.yul\":5044:5185   */\n      iszero\n      tag_142\n      jumpi\n        /* \"#utility.yul\":5165:5183   */\n      tag_143\n      tag_129\n      jump\t// in\n    tag_143:\n        /* \"#utility.yul\":5044:5185   */\n    tag_142:\n        /* \"#utility.yul\":5369:5370   */\n      dup3\n        /* \"#utility.yul\":5301:5367   */\n      0x8000000000000000000000000000000000000000000000000000000000000000\n        /* \"#utility.yul\":5296:5371   */\n      sdiv\n        /* \"#utility.yul\":5293:5294   */\n      dup3\n        /* \"#utility.yul\":5289:5372   */\n      slt\n        /* \"#utility.yul\":5284:5285   */\n      0x00\n        /* \"#utility.yul\":5281:5282   */\n      dup5\n        /* \"#utility.yul\":5277:5286   */\n      sgt\n        /* \"#utility.yul\":5273:5274   */\n      0x00\n        /* \"#utility.yul\":5270:5271   */\n      dup5\n        /* \"#utility.yul\":5266:5275   */\n      slt\n        /* \"#utility.yul\":5262:5287   */\n      and\n        /* \"#utility.yul\":5258:5373   */\n      and\n        /* \"#utility.yul\":5255:5396   */\n      iszero\n      tag_144\n      jumpi\n        /* \"#utility.yul\":5376:5394   */\n      tag_145\n      tag_129\n      jump\t// in\n    tag_145:\n        /* \"#utility.yul\":5255:5396   */\n    tag_144:\n        /* \"#utility.yul\":5579:5580   */\n      dup3\n        /* \"#utility.yul\":5511:5577   */\n      0x7fffffffffffffffffffffffffffffffffffffffffffffffffffffffffffffff\n        /* \"#utility.yul\":5506:5581   */\n      sdiv\n        /* \"#utility.yul\":5503:5504   */\n      dup3\n        /* \"#utility.yul\":5499:5582   */\n      slt\n        /* \"#utility.yul\":5494:5495   */\n      0x00\n        /* \"#utility.yul\":5491:5492   */\n      dup5\n        /* \"#utility.yul\":5487:5496   */\n      slt\n        /* \"#utility.yul\":5483:5484   */\n      0x00\n        /* \"#utility.yul\":5480:5481   */\n      dup5\n        /* \"#utility.yul\":5476:5485   */\n      slt\n        /* \"#utility.yul\":5472:5497   */\n      and\n        /* \"#utility.yul\":5468:5583   */\n      and\n        /* \"#utility.yul\":5465:5606   */\n      iszero\n      tag_146\n      jumpi\n        /* \"#utility.yul\":5586:5604   */\n      tag_147\n      tag_129\n      jump\t// in\n    tag_147:\n        /* \"#utility.yul\":5465:5606   */\n    tag_146:\n        /* \"#utility.yul\":5634:5635   */\n      dup3\n        /* \"#utility.yul\":5631:5632   */\n      dup3\n        /* \"#utility.yul\":5627:5636   */\n      mul\n        /* \"#utility.yul\":5616:5636   */\n      swap1\n      pop\n        /* \"#utility.yul\":4651:5642   */\n      swap3\n      swap2\n      pop\n      pop\n      jump\t// out\n        /* \"#utility.yul\":5648:5996   */\n    tag_48:\n        /* \"#utility.yul\":5688:5695   */\n      0x00\n        /* \"#utility.yul\":5711:5731   */\n      tag_149\n        /* \"#utility.yul\":5729:5730   */\n      dup3\n        /* \"#utility.yul\":5711:5731   */\n      tag_116\n      jump\t// in\n    tag_149:\n        /* \"#utility.yul\":5706:5731   */\n      swap2\n      pop\n        /* \"#utility.yul\":5745:5765   */\n      tag_150\n        /* \"#utility.yul\":5763:5764   */\n      dup4\n        /* \"#utility.yul\":5745:5765   */\n      tag_116\n      jump\t// in\n    tag_150:\n        /* \"#utility.yul\":5740:5765   */\n      swap3\n      pop\n        /* \"#utility.yul\":5933:5934   */\n      dup2\n        /* \"#utility.yul\":5865:5931   */\n      0xffffffffffffffffffffffffffffffffffffffffffffffffffffffffffffffff\n        /* \"#utility.yul\":5861:5935   */\n      div\n        /* \"#utility.yul\":5858:5859   */\n      dup4\n        /* \"#utility.yul\":5855:5936   */\n      gt\n        /* \"#utility.yul\":5850:5851   */\n      dup3\n        /* \"#utility.yul\":5843:5852   */\n      iszero\n        /* \"#utility.yul\":5836:5853   */\n      iszero\n        /* \"#utility.yul\":5832:5937   */\n      and\n        /* \"#utility.yul\":5829:5960   */\n      iszero\n      tag_151\n      jumpi\n        /* \"#utility.yul\":5940:5958   */\n      tag_152\n      tag_129\n      jump\t// in\n    tag_152:\n        /* \"#utility.yul\":5829:5960   */\n    tag_151:\n        /* \"#utility.yul\":5988:5989   */\n      dup3\n        /* \"#utility.yul\":5985:5986   */\n      dup3\n        /* \"#utility.yul\":5981:5990   */\n      mul\n        /* \"#utility.yul\":5970:5990   */\n      swap1\n      pop\n        /* \"#utility.yul\":5648:5996   */\n      swap3\n      swap2\n      pop\n      pop\n      jump\t// out\n        /* \"#utility.yul\":6002:6193   */\n    tag_44:\n        /* \"#utility.yul\":6042:6046   */\n      0x00\n        /* \"#utility.yul\":6062:6082   */\n      tag_154\n        /* \"#utility.yul\":6080:6081   */\n      dup3\n        /* \"#utility.yul\":6062:6082   */\n      tag_116\n      jump\t// in\n    tag_154:\n        /* \"#utility.yul\":6057:6082   */\n      swap2\n      pop\n        /* \"#utility.yul\":6096:6116   */\n      tag_155\n        /* \"#utility.yul\":6114:6115   */\n      dup4\n        /* \"#utility.yul\":6096:6116   */\n      tag_116\n      jump\t// in\n    tag_155:\n        /* \"#utility.yul\":6091:6116   */\n      swap3\n      pop\n        /* \"#utility.yul\":6135:6136   */\n      dup3\n        /* \"#utility.yul\":6132:6133   */\n      dup3\n        /* \"#utility.yul\":6129:6137   */\n      lt\n        /* \"#utility.yul\":6126:6160   */\n      iszero\n      tag_156\n      jumpi\n        /* \"#utility.yul\":6140:6158   */\n      tag_157\n      tag_129\n      jump\t// in\n    tag_157:\n        /* \"#utility.yul\":6126:6160   */\n    tag_156:\n        /* \"#utility.yul\":6185:6186   */\n      dup3\n        /* \"#utility.yul\":6182:6183   */\n      dup3\n        /* \"#utility.yul\":6178:6187   */\n      sub\n        /* \"#utility.yul\":6170:6187   */\n      swap1\n      pop\n        /* \"#utility.yul\":6002:6193   */\n      swap3\n      swap2\n      pop\n      pop\n      jump\t// out\n        /* \"#utility.yul\":6199:6295   */\n    tag_158:\n        /* \"#utility.yul\":6236:6243   */\n      0x00\n        /* \"#utility.yul\":6265:6289   */\n      tag_160\n        /* \"#utility.yul\":6283:6288   */\n      dup3\n        /* \"#utility.yul\":6265:6289   */\n      tag_161\n      jump\t// in\n    tag_160:\n        /* \"#utility.yul\":6254:6289   */\n      swap1\n      pop\n        /* \"#utility.yul\":6199:6295   */\n      swap2\n      swap1\n      pop\n      jump\t// out\n        /* \"#utility.yul\":6301:6377   */\n    tag_138:\n        /* \"#utility.yul\":6337:6344   */\n      0x00\n        /* \"#utility.yul\":6366:6371   */\n      dup2\n        /* \"#utility.yul\":6355:6371   */\n      swap1\n      pop\n        /* \"#utility.yul\":6301:6377   */\n      swap2\n      swap1\n      pop\n      jump\t// out\n        /* \"#utility.yul\":6383:6509   */\n    tag_161:\n        /* \"#utility.yul\":6420:6427   */\n      0x00\n        /* \"#utility.yul\":6460:6502   */\n      0xffffffffffffffffffffffffffffffffffffffff\n        /* \"#utility.yul\":6453:6458   */\n      dup3\n        /* \"#utility.yul\":6449:6503   */\n      and\n        /* \"#utility.yul\":6438:6503   */\n      swap1\n      pop\n        /* \"#utility.yul\":6383:6509   */\n      swap2\n      swap1\n      pop\n      jump\t// out\n        /* \"#utility.yul\":6515:6592   */\n    tag_116:\n        /* \"#utility.yul\":6552:6559   */\n      0x00\n        /* \"#utility.yul\":6581:6586   */\n      dup2\n        /* \"#utility.yul\":6570:6586   */\n      swap1\n      pop\n        /* \"#utility.yul\":6515:6592   */\n      swap2\n      swap1\n      pop\n      jump\t// out\n        /* \"#utility.yul\":6598:6703   */\n    tag_165:\n        /* \"#utility.yul\":6634:6641   */\n      0x00\n        /* \"#utility.yul\":6674:6696   */\n      0xffffffffffffffffffff\n        /* \"#utility.yul\":6667:6672   */\n      dup3\n        /* \"#utility.yul\":6663:6697   */\n      and\n        /* \"#utility.yul\":6652:6697   */\n      swap1\n      pop\n        /* \"#utility.yul\":6598:6703   */\n      swap2\n      swap1\n      pop\n      jump\t// out\n        /* \"#utility.yul\":6709:6889   */\n    tag_129:\n        /* \"#utility.yul\":6757:6834   */\n      0x4e487b7100000000000000000000000000000000000000000000000000000000\n        /* \"#utility.yul\":6754:6755   */\n      0x00\n        /* \"#utility.yul\":6747:6835   */\n      mstore\n        /* \"#utility.yul\":6854:6858   */\n      0x11\n        /* \"#utility.yul\":6851:6852   */\n      0x04\n        /* \"#utility.yul\":6844:6859   */\n      mstore\n        /* \"#utility.yul\":6878:6882   */\n      0x24\n        /* \"#utility.yul\":6875:6876   */\n      0x00\n        /* \"#utility.yul\":6868:6883   */\n      revert\n        /* \"#utility.yul\":6895:7075   */\n    tag_135:\n        /* \"#utility.yul\":6943:7020   */\n      0x4e487b7100000000000000000000000000000000000000000000000000000000\n        /* \"#utility.yul\":6940:6941   */\n      0x00\n        /* \"#utility.yul\":6933:7021   */\n      mstore\n        /* \"#utility.yul\":7040:7044   */\n      0x12\n        /* \"#utility.yul\":7037:7038   */\n      0x04\n        /* \"#utility.yul\":7030:7045   */\n      mstore\n        /* \"#utility.yul\":7064:7068   */\n      0x24\n        /* \"#utility.yul\":7061:7062   */\n      0x00\n        /* \"#utility.yul\":7054:7069   */\n      revert\n        /* \"#utility.yul\":7204:7321   */\n    tag_89:\n        /* \"#utility.yul\":7313:7314   */\n      0x00\n        /* \"#utility.yul\":7310:7311   */\n      dup1\n        /* \"#utility.yul\":7303:7315   */\n      revert\n        /* \"#utility.yul\":7327:7503   */\n    tag_112:\n        /* \"#utility.yul\":7467:7495   */\n      0x596f75206e65656420746f207370656e64206d6f726520455448000000000000\n        /* \"#utility.yul\":7463:7464   */\n      0x00\n        /* \"#utility.yul\":7455:7461   */\n      dup3\n        /* \"#utility.yul\":7451:7465   */\n      add\n        /* \"#utility.yul\":7444:7496   */\n      mstore\n        /* \"#utility.yul\":7327:7503   */\n      pop\n      jump\t// out\n        /* \"#utility.yul\":7509:7631   */\n    tag_70:\n        /* \"#utility.yul\":7582:7606   */\n      tag_174\n        /* \"#utility.yul\":7600:7605   */\n      dup2\n        /* \"#utility.yul\":7582:7606   */\n      tag_158\n      jump\t// in\n    tag_174:\n        /* \"#utility.yul\":7575:7580   */\n      dup2\n        /* \"#utility.yul\":7572:7607   */\n      eq\n        /* \"#utility.yul\":7562:7625   */\n      tag_175\n      jumpi\n        /* \"#utility.yul\":7621:7622   */\n      0x00\n        /* \"#utility.yul\":7618:7619   */\n      dup1\n        /* \"#utility.yul\":7611:7623   */\n      revert\n        /* \"#utility.yul\":7562:7625   */\n    tag_175:\n        /* \"#utility.yul\":7509:7631   */\n      pop\n      jump\t// out\n        /* \"#utility.yul\":7637:7757   */\n    tag_74:\n        /* \"#utility.yul\":7709:7732   */\n      tag_177\n        /* \"#utility.yul\":7726:7731   */\n      dup2\n        /* \"#utility.yul\":7709:7732   */\n      tag_138\n      jump\t// in\n    tag_177:\n        /* \"#utility.yul\":7702:7707   */\n      dup2\n        /* \"#utility.yul\":7699:7733   */\n      eq\n        /* \"#utility.yul\":7689:7751   */\n      tag_178\n      jumpi\n        /* \"#utility.yul\":7747:7748   */\n      0x00\n        /* \"#utility.yul\":7744:7745   */\n      dup1\n        /* \"#utility.yul\":7737:7749   */\n      revert\n        /* \"#utility.yul\":7689:7751   */\n    tag_178:\n        /* \"#utility.yul\":7637:7757   */\n      pop\n      jump\t// out\n        /* \"#utility.yul\":7763:7885   */\n    tag_78:\n        /* \"#utility.yul\":7836:7860   */\n      tag_180\n        /* \"#utility.yul\":7854:7859   */\n      dup2\n        /* \"#utility.yul\":7836:7860   */\n      tag_116\n      jump\t// in\n    tag_180:\n        /* \"#utility.yul\":7829:7834   */\n      dup2\n        /* \"#utility.yul\":7826:7861   */\n      eq\n        /* \"#utility.yul\":7816:7879   */\n      tag_181\n      jumpi\n        /* \"#utility.yul\":7875:7876   */\n      0x00\n        /* \"#utility.yul\":7872:7873   */\n      dup1\n        /* \"#utility.yul\":7865:7877   */\n      revert\n        /* \"#utility.yul\":7816:7879   */\n    tag_181:\n        /* \"#utility.yul\":7763:7885   */\n      pop\n      jump\t// out\n        /* \"#utility.yul\":7891:8011   */\n    tag_85:\n        /* \"#utility.yul\":7963:7986   */\n      tag_183\n        /* \"#utility.yul\":7980:7985   */\n      dup2\n        /* \"#utility.yul\":7963:7986   */\n      tag_165\n      jump\t// in\n    tag_183:\n        /* \"#utility.yul\":7956:7961   */\n      dup2\n        /* \"#utility.yul\":7953:7987   */\n      eq\n        /* \"#utility.yul\":7943:8005   */\n      tag_184\n      jumpi\n        /* \"#utility.yul\":8001:8002   */\n      0x00\n        /* \"#utility.yul\":7998:7999   */\n      dup1\n        /* \"#utility.yul\":7991:8003   */\n      revert\n        /* \"#utility.yul\":7943:8005   */\n    tag_184:\n        /* \"#utility.yul\":7891:8011   */\n      pop\n      jump\t// out\n\n    auxdata: 0xa26469706673582212206fe6be6af81796a2a930407d58320fd955ce517f125c2718c63ab2f03ed38d6864736f6c63430008070033\n}\n",
				"bytecode": {
					"linkReferences": {},
					"object": "608060405234801561001057600080fd5b506109e4806100206000396000f3fe6080604052600436106100555760003560e01c80630d8e6e2c1461005a57806314174f33146100855780633e47d6f3146100ae5780636e5b6b28146100eb57806398d5fdca14610128578063b60d428814610153575b600080fd5b34801561006657600080fd5b5061006f61015d565b60405161007c9190610612565b60405180910390f35b34801561009157600080fd5b506100ac60048036038101906100a791906104eb565b6101fb565b005b3480156100ba57600080fd5b506100d560048036038101906100d091906104be565b61029a565b6040516100e29190610612565b60405180910390f35b3480156100f757600080fd5b50610112600480360381019061010d91906104eb565b6102b2565b60405161011f9190610612565b60405180910390f35b34801561013457600080fd5b5061013d6102ec565b60405161014a9190610612565b60405180910390f35b61015b6103a4565b005b60008073d4a33860578de61dbabdc8bfdb98fd742fa7028e90508073ffffffffffffffffffffffffffffffffffffffff166354fd4d506040518163ffffffff1660e01b815260040160206040518083038186803b1580156101bd57600080fd5b505afa1580156101d1573d6000803e3d6000fd5b505050506040513d601f19601f820116820180604052508101906101f59190610518565b91505090565b806000803373ffffffffffffffffffffffffffffffffffffffff1673ffffffffffffffffffffffffffffffffffffffff16815260200190815260200160002054111561029757806000803373ffffffffffffffffffffffffffffffffffffffff1673ffffffffffffffffffffffffffffffffffffffff168152602001908152602001600020600082825461028f9190610836565b925050819055505b50565b60006020528060005260406000206000915090505481565b6000806102bd6102ec565b90506000670de0b6b3a764000084836102d691906107dc565b6102e09190610694565b90508092505050919050565b60008073d4a33860578de61dbabdc8bfdb98fd742fa7028e905060008173ffffffffffffffffffffffffffffffffffffffff1663feaf968c6040518163ffffffff1660e01b815260040160a06040518083038186803b15801561034e57600080fd5b505afa158015610362573d6000803e3d6000fd5b505050506040513d601f19601f820116820180604052508101906103869190610545565b5050509150506402540be4008161039d91906106c5565b9250505090565b60006802b5e3af16b18800009050806103bc346102b2565b10156103fd576040517f08c379a00000000000000000000000000000000000000000000000000000000081526004016103f4906105f2565b60405180910390fd5b346000803373ffffffffffffffffffffffffffffffffffffffff1673ffffffffffffffffffffffffffffffffffffffff168152602001908152602001600020600082825461044b919061063e565b9250508190555050565b60008135905061046481610952565b92915050565b60008151905061047981610969565b92915050565b60008135905061048e81610980565b92915050565b6000815190506104a381610980565b92915050565b6000815190506104b881610997565b92915050565b6000602082840312156104d4576104d3610924565b5b60006104e284828501610455565b91505092915050565b60006020828403121561050157610500610924565b5b600061050f8482850161047f565b91505092915050565b60006020828403121561052e5761052d610924565b5b600061053c84828501610494565b91505092915050565b600080600080600060a0868803121561056157610560610924565b5b600061056f888289016104a9565b95505060206105808882890161046a565b945050604061059188828901610494565b93505060606105a288828901610494565b92505060806105b3888289016104a9565b9150509295509295909350565b60006105cd601a8361062d565b91506105d882610929565b602082019050919050565b6105ec816108a6565b82525050565b6000602082019050818103600083015261060b816105c0565b9050919050565b600060208201905061062760008301846105e3565b92915050565b600082825260208201905092915050565b6000610649826108a6565b9150610654836108a6565b9250827fffffffffffffffffffffffffffffffffffffffffffffffffffffffffffffffff03821115610689576106886108c6565b5b828201905092915050565b600061069f826108a6565b91506106aa836108a6565b9250826106ba576106b96108f5565b5b828204905092915050565b60006106d08261087c565b91506106db8361087c565b9250827f7fffffffffffffffffffffffffffffffffffffffffffffffffffffffffffffff048211600084136000841316161561071a576107196108c6565b5b817f80000000000000000000000000000000000000000000000000000000000000000583126000841260008413161615610757576107566108c6565b5b827f80000000000000000000000000000000000000000000000000000000000000000582126000841360008412161615610794576107936108c6565b5b827f7fffffffffffffffffffffffffffffffffffffffffffffffffffffffffffffff05821260008412600084121616156107d1576107d06108c6565b5b828202905092915050565b60006107e7826108a6565b91506107f2836108a6565b9250817fffffffffffffffffffffffffffffffffffffffffffffffffffffffffffffffff048311821515161561082b5761082a6108c6565b5b828202905092915050565b6000610841826108a6565b915061084c836108a6565b92508282101561085f5761085e6108c6565b5b828203905092915050565b600061087582610886565b9050919050565b6000819050919050565b600073ffffffffffffffffffffffffffffffffffffffff82169050919050565b6000819050919050565b600069ffffffffffffffffffff82169050919050565b7f4e487b7100000000000000000000000000000000000000000000000000000000600052601160045260246000fd5b7f4e487b7100000000000000000000000000000000000000000000000000000000600052601260045260246000fd5b600080fd5b7f596f75206e65656420746f207370656e64206d6f726520455448000000000000600082015250565b61095b8161086a565b811461096657600080fd5b50565b6109728161087c565b811461097d57600080fd5b50565b610989816108a6565b811461099457600080fd5b50565b6109a0816108b0565b81146109ab57600080fd5b5056fea26469706673582212206fe6be6af81796a2a930407d58320fd955ce517f125c2718c63ab2f03ed38d6864736f6c63430008070033",
					"opcodes": "PUSH1 0x80 PUSH1 0x40 MSTORE CALLVALUE DUP1 ISZERO PUSH2 0x10 JUMPI PUSH1 0x0 DUP1 REVERT JUMPDEST POP PUSH2 0x9E4 DUP1 PUSH2 0x20 PUSH1 0x0 CODECOPY PUSH1 0x0 RETURN INVALID PUSH1 0x80 PUSH1 0x40 MSTORE PUSH1 0x4 CALLDATASIZE LT PUSH2 0x55 JUMPI PUSH1 0x0 CALLDATALOAD PUSH1 0xE0 SHR DUP1 PUSH4 0xD8E6E2C EQ PUSH2 0x5A JUMPI DUP1 PUSH4 0x14174F33 EQ PUSH2 0x85 JUMPI DUP1 PUSH4 0x3E47D6F3 EQ PUSH2 0xAE JUMPI DUP1 PUSH4 0x6E5B6B28 EQ PUSH2 0xEB JUMPI DUP1 PUSH4 0x98D5FDCA EQ PUSH2 0x128 JUMPI DUP1 PUSH4 0xB60D4288 EQ PUSH2 0x153 JUMPI JUMPDEST PUSH1 0x0 DUP1 REVERT JUMPDEST CALLVALUE DUP1 ISZERO PUSH2 0x66 JUMPI PUSH1 0x0 DUP1 REVERT JUMPDEST POP PUSH2 0x6F PUSH2 0x15D JUMP JUMPDEST PUSH1 0x40 MLOAD PUSH2 0x7C SWAP2 SWAP1 PUSH2 0x612 JUMP JUMPDEST PUSH1 0x40 MLOAD DUP1 SWAP2 SUB SWAP1 RETURN JUMPDEST CALLVALUE DUP1 ISZERO PUSH2 0x91 JUMPI PUSH1 0x0 DUP1 REVERT JUMPDEST POP PUSH2 0xAC PUSH1 0x4 DUP1 CALLDATASIZE SUB DUP2 ADD SWAP1 PUSH2 0xA7 SWAP2 SWAP1 PUSH2 0x4EB JUMP JUMPDEST PUSH2 0x1FB JUMP JUMPDEST STOP JUMPDEST CALLVALUE DUP1 ISZERO PUSH2 0xBA JUMPI PUSH1 0x0 DUP1 REVERT JUMPDEST POP PUSH2 0xD5 PUSH1 0x4 DUP1 CALLDATASIZE SUB DUP2 ADD SWAP1 PUSH2 0xD0 SWAP2 SWAP1 PUSH2 0x4BE JUMP JUMPDEST PUSH2 0x29A JUMP JUMPDEST PUSH1 0x40 MLOAD PUSH2 0xE2 SWAP2 SWAP1 PUSH2 0x612 JUMP JUMPDEST PUSH1 0x40 MLOAD DUP1 SWAP2 SUB SWAP1 RETURN JUMPDEST CALLVALUE DUP1 ISZERO PUSH2 0xF7 JUMPI PUSH1 0x0 DUP1 REVERT JUMPDEST POP PUSH2 0x112 PUSH1 0x4 DUP1 CALLDATASIZE SUB DUP2 ADD SWAP1 PUSH2 0x10D SWAP2 SWAP1 PUSH2 0x4EB JUMP JUMPDEST PUSH2 0x2B2 JUMP JUMPDEST PUSH1 0x40 MLOAD PUSH2 0x11F SWAP2 SWAP1 PUSH2 0x612 JUMP JUMPDEST PUSH1 0x40 MLOAD DUP1 SWAP2 SUB SWAP1 RETURN JUMPDEST CALLVALUE DUP1 ISZERO PUSH2 0x134 JUMPI PUSH1 0x0 DUP1 REVERT JUMPDEST POP PUSH2 0x13D PUSH2 0x2EC JUMP JUMPDEST PUSH1 0x40 MLOAD PUSH2 0x14A SWAP2 SWAP1 PUSH2 0x612 JUMP JUMPDEST PUSH1 0x40 MLOAD DUP1 SWAP2 SUB SWAP1 RETURN JUMPDEST PUSH2 0x15B PUSH2 0x3A4 JUMP JUMPDEST STOP JUMPDEST PUSH1 0x0 DUP1 PUSH20 0xD4A33860578DE61DBABDC8BFDB98FD742FA7028E SWAP1 POP DUP1 PUSH20 0xFFFFFFFFFFFFFFFFFFFFFFFFFFFFFFFFFFFFFFFF AND PUSH4 0x54FD4D50 PUSH1 0x40 MLOAD DUP2 PUSH4 0xFFFFFFFF AND PUSH1 0xE0 SHL DUP2 MSTORE PUSH1 0x4 ADD PUSH1 0x20 PUSH1 0x40 MLOAD DUP1 DUP4 SUB DUP2 DUP7 DUP1 EXTCODESIZE ISZERO DUP1 ISZERO PUSH2 0x1BD JUMPI PUSH1 0x0 DUP1 REVERT JUMPDEST POP GAS STATICCALL ISZERO DUP1 ISZERO PUSH2 0x1D1 JUMPI RETURNDATASIZE PUSH1 0x0 DUP1 RETURNDATACOPY RETURNDATASIZE PUSH1 0x0 REVERT JUMPDEST POP POP POP POP PUSH1 0x40 MLOAD RETURNDATASIZE PUSH1 0x1F NOT PUSH1 0x1F DUP3 ADD AND DUP3 ADD DUP1 PUSH1 0x40 MSTORE POP DUP2 ADD SWAP1 PUSH2 0x1F5 SWAP2 SWAP1 PUSH2 0x518 JUMP JUMPDEST SWAP2 POP POP SWAP1 JUMP JUMPDEST DUP1 PUSH1 0x0 DUP1 CALLER PUSH20 0xFFFFFFFFFFFFFFFFFFFFFFFFFFFFFFFFFFFFFFFF AND PUSH20 0xFFFFFFFFFFFFFFFFFFFFFFFFFFFFFFFFFFFFFFFF AND DUP2 MSTORE PUSH1 0x20 ADD SWAP1 DUP2 MSTORE PUSH1 0x20 ADD PUSH1 0x0 KECCAK256 SLOAD GT ISZERO PUSH2 0x297 JUMPI DUP1 PUSH1 0x0 DUP1 CALLER PUSH20 0xFFFFFFFFFFFFFFFFFFFFFFFFFFFFFFFFFFFFFFFF AND PUSH20 0xFFFFFFFFFFFFFFFFFFFFFFFFFFFFFFFFFFFFFFFF AND DUP2 MSTORE PUSH1 0x20 ADD SWAP1 DUP2 MSTORE PUSH1 0x20 ADD PUSH1 0x0 KECCAK256 PUSH1 0x0 DUP3 DUP3 SLOAD PUSH2 0x28F SWAP2 SWAP1 PUSH2 0x836 JUMP JUMPDEST SWAP3 POP POP DUP2 SWAP1 SSTORE POP JUMPDEST POP JUMP JUMPDEST PUSH1 0x0 PUSH1 0x20 MSTORE DUP1 PUSH1 0x0 MSTORE PUSH1 0x40 PUSH1 0x0 KECCAK256 PUSH1 0x0 SWAP2 POP SWAP1 POP SLOAD DUP2 JUMP JUMPDEST PUSH1 0x0 DUP1 PUSH2 0x2BD PUSH2 0x2EC JUMP JUMPDEST SWAP1 POP PUSH1 0x0 PUSH8 0xDE0B6B3A7640000 DUP5 DUP4 PUSH2 0x2D6 SWAP2 SWAP1 PUSH2 0x7DC JUMP JUMPDEST PUSH2 0x2E0 SWAP2 SWAP1 PUSH2 0x694 JUMP JUMPDEST SWAP1 POP DUP1 SWAP3 POP POP POP SWAP2 SWAP1 POP JUMP JUMPDEST PUSH1 0x0 DUP1 PUSH20 0xD4A33860578DE61DBABDC8BFDB98FD742FA7028E SWAP1 POP PUSH1 0x0 DUP2 PUSH20 0xFFFFFFFFFFFFFFFFFFFFFFFFFFFFFFFFFFFFFFFF AND PUSH4 0xFEAF968C PUSH1 0x40 MLOAD DUP2 PUSH4 0xFFFFFFFF AND PUSH1 0xE0 SHL DUP2 MSTORE PUSH1 0x4 ADD PUSH1 0xA0 PUSH1 0x40 MLOAD DUP1 DUP4 SUB DUP2 DUP7 DUP1 EXTCODESIZE ISZERO DUP1 ISZERO PUSH2 0x34E JUMPI PUSH1 0x0 DUP1 REVERT JUMPDEST POP GAS STATICCALL ISZERO DUP1 ISZERO PUSH2 0x362 JUMPI RETURNDATASIZE PUSH1 0x0 DUP1 RETURNDATACOPY RETURNDATASIZE PUSH1 0x0 REVERT JUMPDEST POP POP POP POP PUSH1 0x40 MLOAD RETURNDATASIZE PUSH1 0x1F NOT PUSH1 0x1F DUP3 ADD AND DUP3 ADD DUP1 PUSH1 0x40 MSTORE POP DUP2 ADD SWAP1 PUSH2 0x386 SWAP2 SWAP1 PUSH2 0x545 JUMP JUMPDEST POP POP POP SWAP2 POP POP PUSH5 0x2540BE400 DUP2 PUSH2 0x39D SWAP2 SWAP1 PUSH2 0x6C5 JUMP JUMPDEST SWAP3 POP POP POP SWAP1 JUMP JUMPDEST PUSH1 0x0 PUSH9 0x2B5E3AF16B1880000 SWAP1 POP DUP1 PUSH2 0x3BC CALLVALUE PUSH2 0x2B2 JUMP JUMPDEST LT ISZERO PUSH2 0x3FD JUMPI PUSH1 0x40 MLOAD PUSH32 0x8C379A000000000000000000000000000000000000000000000000000000000 DUP2 MSTORE PUSH1 0x4 ADD PUSH2 0x3F4 SWAP1 PUSH2 0x5F2 JUMP JUMPDEST PUSH1 0x40 MLOAD DUP1 SWAP2 SUB SWAP1 REVERT JUMPDEST CALLVALUE PUSH1 0x0 DUP1 CALLER PUSH20 0xFFFFFFFFFFFFFFFFFFFFFFFFFFFFFFFFFFFFFFFF AND PUSH20 0xFFFFFFFFFFFFFFFFFFFFFFFFFFFFFFFFFFFFFFFF AND DUP2 MSTORE PUSH1 0x20 ADD SWAP1 DUP2 MSTORE PUSH1 0x20 ADD PUSH1 0x0 KECCAK256 PUSH1 0x0 DUP3 DUP3 SLOAD PUSH2 0x44B SWAP2 SWAP1 PUSH2 0x63E JUMP JUMPDEST SWAP3 POP POP DUP2 SWAP1 SSTORE POP POP JUMP JUMPDEST PUSH1 0x0 DUP2 CALLDATALOAD SWAP1 POP PUSH2 0x464 DUP2 PUSH2 0x952 JUMP JUMPDEST SWAP3 SWAP2 POP POP JUMP JUMPDEST PUSH1 0x0 DUP2 MLOAD SWAP1 POP PUSH2 0x479 DUP2 PUSH2 0x969 JUMP JUMPDEST SWAP3 SWAP2 POP POP JUMP JUMPDEST PUSH1 0x0 DUP2 CALLDATALOAD SWAP1 POP PUSH2 0x48E DUP2 PUSH2 0x980 JUMP JUMPDEST SWAP3 SWAP2 POP POP JUMP JUMPDEST PUSH1 0x0 DUP2 MLOAD SWAP1 POP PUSH2 0x4A3 DUP2 PUSH2 0x980 JUMP JUMPDEST SWAP3 SWAP2 POP POP JUMP JUMPDEST PUSH1 0x0 DUP2 MLOAD SWAP1 POP PUSH2 0x4B8 DUP2 PUSH2 0x997 JUMP JUMPDEST SWAP3 SWAP2 POP POP JUMP JUMPDEST PUSH1 0x0 PUSH1 0x20 DUP3 DUP5 SUB SLT ISZERO PUSH2 0x4D4 JUMPI PUSH2 0x4D3 PUSH2 0x924 JUMP JUMPDEST JUMPDEST PUSH1 0x0 PUSH2 0x4E2 DUP5 DUP3 DUP6 ADD PUSH2 0x455 JUMP JUMPDEST SWAP2 POP POP SWAP3 SWAP2 POP POP JUMP JUMPDEST PUSH1 0x0 PUSH1 0x20 DUP3 DUP5 SUB SLT ISZERO PUSH2 0x501 JUMPI PUSH2 0x500 PUSH2 0x924 JUMP JUMPDEST JUMPDEST PUSH1 0x0 PUSH2 0x50F DUP5 DUP3 DUP6 ADD PUSH2 0x47F JUMP JUMPDEST SWAP2 POP POP SWAP3 SWAP2 POP POP JUMP JUMPDEST PUSH1 0x0 PUSH1 0x20 DUP3 DUP5 SUB SLT ISZERO PUSH2 0x52E JUMPI PUSH2 0x52D PUSH2 0x924 JUMP JUMPDEST JUMPDEST PUSH1 0x0 PUSH2 0x53C DUP5 DUP3 DUP6 ADD PUSH2 0x494 JUMP JUMPDEST SWAP2 POP POP SWAP3 SWAP2 POP POP JUMP JUMPDEST PUSH1 0x0 DUP1 PUSH1 0x0 DUP1 PUSH1 0x0 PUSH1 0xA0 DUP7 DUP9 SUB SLT ISZERO PUSH2 0x561 JUMPI PUSH2 0x560 PUSH2 0x924 JUMP JUMPDEST JUMPDEST PUSH1 0x0 PUSH2 0x56F DUP9 DUP3 DUP10 ADD PUSH2 0x4A9 JUMP JUMPDEST SWAP6 POP POP PUSH1 0x20 PUSH2 0x580 DUP9 DUP3 DUP10 ADD PUSH2 0x46A JUMP JUMPDEST SWAP5 POP POP PUSH1 0x40 PUSH2 0x591 DUP9 DUP3 DUP10 ADD PUSH2 0x494 JUMP JUMPDEST SWAP4 POP POP PUSH1 0x60 PUSH2 0x5A2 DUP9 DUP3 DUP10 ADD PUSH2 0x494 JUMP JUMPDEST SWAP3 POP POP PUSH1 0x80 PUSH2 0x5B3 DUP9 DUP3 DUP10 ADD PUSH2 0x4A9 JUMP JUMPDEST SWAP2 POP POP SWAP3 SWAP6 POP SWAP3 SWAP6 SWAP1 SWAP4 POP JUMP JUMPDEST PUSH1 0x0 PUSH2 0x5CD PUSH1 0x1A DUP4 PUSH2 0x62D JUMP JUMPDEST SWAP2 POP PUSH2 0x5D8 DUP3 PUSH2 0x929 JUMP JUMPDEST PUSH1 0x20 DUP3 ADD SWAP1 POP SWAP2 SWAP1 POP JUMP JUMPDEST PUSH2 0x5EC DUP2 PUSH2 0x8A6 JUMP JUMPDEST DUP3 MSTORE POP POP JUMP JUMPDEST PUSH1 0x0 PUSH1 0x20 DUP3 ADD SWAP1 POP DUP2 DUP2 SUB PUSH1 0x0 DUP4 ADD MSTORE PUSH2 0x60B DUP2 PUSH2 0x5C0 JUMP JUMPDEST SWAP1 POP SWAP2 SWAP1 POP JUMP JUMPDEST PUSH1 0x0 PUSH1 0x20 DUP3 ADD SWAP1 POP PUSH2 0x627 PUSH1 0x0 DUP4 ADD DUP5 PUSH2 0x5E3 JUMP JUMPDEST SWAP3 SWAP2 POP POP JUMP JUMPDEST PUSH1 0x0 DUP3 DUP3 MSTORE PUSH1 0x20 DUP3 ADD SWAP1 POP SWAP3 SWAP2 POP POP JUMP JUMPDEST PUSH1 0x0 PUSH2 0x649 DUP3 PUSH2 0x8A6 JUMP JUMPDEST SWAP2 POP PUSH2 0x654 DUP4 PUSH2 0x8A6 JUMP JUMPDEST SWAP3 POP DUP3 PUSH32 0xFFFFFFFFFFFFFFFFFFFFFFFFFFFFFFFFFFFFFFFFFFFFFFFFFFFFFFFFFFFFFFFF SUB DUP3 GT ISZERO PUSH2 0x689 JUMPI PUSH2 0x688 PUSH2 0x8C6 JUMP JUMPDEST JUMPDEST DUP3 DUP3 ADD SWAP1 POP SWAP3 SWAP2 POP POP JUMP JUMPDEST PUSH1 0x0 PUSH2 0x69F DUP3 PUSH2 0x8A6 JUMP JUMPDEST SWAP2 POP PUSH2 0x6AA DUP4 PUSH2 0x8A6 JUMP JUMPDEST SWAP3 POP DUP3 PUSH2 0x6BA JUMPI PUSH2 0x6B9 PUSH2 0x8F5 JUMP JUMPDEST JUMPDEST DUP3 DUP3 DIV SWAP1 POP SWAP3 SWAP2 POP POP JUMP JUMPDEST PUSH1 0x0 PUSH2 0x6D0 DUP3 PUSH2 0x87C JUMP JUMPDEST SWAP2 POP PUSH2 0x6DB DUP4 PUSH2 0x87C JUMP JUMPDEST SWAP3 POP DUP3 PUSH32 0x7FFFFFFFFFFFFFFFFFFFFFFFFFFFFFFFFFFFFFFFFFFFFFFFFFFFFFFFFFFFFFFF DIV DUP3 GT PUSH1 0x0 DUP5 SGT PUSH1 0x0 DUP5 SGT AND AND ISZERO PUSH2 0x71A JUMPI PUSH2 0x719 PUSH2 0x8C6 JUMP JUMPDEST JUMPDEST DUP2 PUSH32 0x8000000000000000000000000000000000000000000000000000000000000000 SDIV DUP4 SLT PUSH1 0x0 DUP5 SLT PUSH1 0x0 DUP5 SGT AND AND ISZERO PUSH2 0x757 JUMPI PUSH2 0x756 PUSH2 0x8C6 JUMP JUMPDEST JUMPDEST DUP3 PUSH32 0x8000000000000000000000000000000000000000000000000000000000000000 SDIV DUP3 SLT PUSH1 0x0 DUP5 SGT PUSH1 0x0 DUP5 SLT AND AND ISZERO PUSH2 0x794 JUMPI PUSH2 0x793 PUSH2 0x8C6 JUMP JUMPDEST JUMPDEST DUP3 PUSH32 0x7FFFFFFFFFFFFFFFFFFFFFFFFFFFFFFFFFFFFFFFFFFFFFFFFFFFFFFFFFFFFFFF SDIV DUP3 SLT PUSH1 0x0 DUP5 SLT PUSH1 0x0 DUP5 SLT AND AND ISZERO PUSH2 0x7D1 JUMPI PUSH2 0x7D0 PUSH2 0x8C6 JUMP JUMPDEST JUMPDEST DUP3 DUP3 MUL SWAP1 POP SWAP3 SWAP2 POP POP JUMP JUMPDEST PUSH1 0x0 PUSH2 0x7E7 DUP3 PUSH2 0x8A6 JUMP JUMPDEST SWAP2 POP PUSH2 0x7F2 DUP4 PUSH2 0x8A6 JUMP JUMPDEST SWAP3 POP DUP2 PUSH32 0xFFFFFFFFFFFFFFFFFFFFFFFFFFFFFFFFFFFFFFFFFFFFFFFFFFFFFFFFFFFFFFFF DIV DUP4 GT DUP3 ISZERO ISZERO AND ISZERO PUSH2 0x82B JUMPI PUSH2 0x82A PUSH2 0x8C6 JUMP JUMPDEST JUMPDEST DUP3 DUP3 MUL SWAP1 POP SWAP3 SWAP2 POP POP JUMP JUMPDEST PUSH1 0x0 PUSH2 0x841 DUP3 PUSH2 0x8A6 JUMP JUMPDEST SWAP2 POP PUSH2 0x84C DUP4 PUSH2 0x8A6 JUMP JUMPDEST SWAP3 POP DUP3 DUP3 LT ISZERO PUSH2 0x85F JUMPI PUSH2 0x85E PUSH2 0x8C6 JUMP JUMPDEST JUMPDEST DUP3 DUP3 SUB SWAP1 POP SWAP3 SWAP2 POP POP JUMP JUMPDEST PUSH1 0x0 PUSH2 0x875 DUP3 PUSH2 0x886 JUMP JUMPDEST SWAP1 POP SWAP2 SWAP1 POP JUMP JUMPDEST PUSH1 0x0 DUP2 SWAP1 POP SWAP2 SWAP1 POP JUMP JUMPDEST PUSH1 0x0 PUSH20 0xFFFFFFFFFFFFFFFFFFFFFFFFFFFFFFFFFFFFFFFF DUP3 AND SWAP1 POP SWAP2 SWAP1 POP JUMP JUMPDEST PUSH1 0x0 DUP2 SWAP1 POP SWAP2 SWAP1 POP JUMP JUMPDEST PUSH1 0x0 PUSH10 0xFFFFFFFFFFFFFFFFFFFF DUP3 AND SWAP1 POP SWAP2 SWAP1 POP JUMP JUMPDEST PUSH32 0x4E487B7100000000000000000000000000000000000000000000000000000000 PUSH1 0x0 MSTORE PUSH1 0x11 PUSH1 0x4 MSTORE PUSH1 0x24 PUSH1 0x0 REVERT JUMPDEST PUSH32 0x4E487B7100000000000000000000000000000000000000000000000000000000 PUSH1 0x0 MSTORE PUSH1 0x12 PUSH1 0x4 MSTORE PUSH1 0x24 PUSH1 0x0 REVERT JUMPDEST PUSH1 0x0 DUP1 REVERT JUMPDEST PUSH32 0x596F75206E65656420746F207370656E64206D6F726520455448000000000000 PUSH1 0x0 DUP3 ADD MSTORE POP JUMP JUMPDEST PUSH2 0x95B DUP2 PUSH2 0x86A JUMP JUMPDEST DUP2 EQ PUSH2 0x966 JUMPI PUSH1 0x0 DUP1 REVERT JUMPDEST POP JUMP JUMPDEST PUSH2 0x972 DUP2 PUSH2 0x87C JUMP JUMPDEST DUP2 EQ PUSH2 0x97D JUMPI PUSH1 0x0 DUP1 REVERT JUMPDEST POP JUMP JUMPDEST PUSH2 0x989 DUP2 PUSH2 0x8A6 JUMP JUMPDEST DUP2 EQ PUSH2 0x994 JUMPI PUSH1 0x0 DUP1 REVERT JUMPDEST POP JUMP JUMPDEST PUSH2 0x9A0 DUP2 PUSH2 0x8B0 JUMP JUMPDEST DUP2 EQ PUSH2 0x9AB JUMPI PUSH1 0x0 DUP1 REVERT JUMPDEST POP JUMP INVALID LOG2 PUSH5 0x6970667358 0x22 SLT KECCAK256 PUSH16 0xE6BE6AF81796A2A930407D58320FD955 0xCE MLOAD PUSH32 0x125C2718C63AB2F03ED38D6864736F6C63430008070033000000000000000000 "
				},
				"gasEstimates": {
					"creation": {
						"codeDepositCost": "506400",
						"executionCost": "543",
						"totalCost": "506943"
					},
					"external": {
						"addressToAmountFunded(address)": "2836",
						"fund()": "infinite",
						"getConversionRate(uint256)": "infinite",
						"getPrice()": "infinite",
						"getVersion()": "infinite",
						"withDraw(uint256)": "infinite"
					}
				},
				"methodIdentifiers": {
					"addressToAmountFunded(address)": "3e47d6f3",
					"fund()": "b60d4288",
					"getConversionRate(uint256)": "6e5b6b28",
					"getPrice()": "98d5fdca",
					"getVersion()": "0d8e6e2c",
					"withDraw(uint256)": "14174f33"
				}
			},
			"storageLayout": {
				"storage": [
					{
						"astId": 194,
						"contract": "contracts/FundMe.sol:FundMe",
						"label": "addressToAmountFunded",
						"offset": 0,
						"slot": "0",
						"type": "t_mapping(t_address,t_uint256)"
					}
				],
				"types": {
					"t_address": {
						"encoding": "inplace",
						"label": "address",
						"numberOfBytes": "20"
					},
					"t_mapping(t_address,t_uint256)": {
						"encoding": "mapping",
						"key": "t_address",
						"label": "mapping(address => uint256)",
						"numberOfBytes": "32",
						"value": "t_uint256"
					},
					"t_uint256": {
						"encoding": "inplace",
						"label": "uint256",
						"numberOfBytes": "32"
					}
				}
			},
			"userdoc": {
				"kind": "user",
				"methods": {},
				"version": 1
			}
		}
	}
}