{
	"contracts/SimpleStorage.sol": {
		"SimpleStorage": {
			"abi": [
				{
					"inputs": [
						{
							"internalType": "uint256",
							"name": "",
							"type": "uint256"
						},
						{
							"internalType": "uint256",
							"name": "",
							"type": "uint256"
						}
					],
					"name": "people",
					"outputs": [
						{
							"internalType": "uint256",
							"name": "favouriteNumber",
							"type": "uint256"
						},
						{
							"internalType": "string",
							"name": "name",
							"type": "string"
						}
					],
					"stateMutability": "view",
					"type": "function"
				},
				{
					"inputs": [],
					"name": "retrieve",
					"outputs": [
						{
							"internalType": "uint256",
							"name": "",
							"type": "uint256"
						}
					],
					"stateMutability": "view",
					"type": "function"
				},
				{
					"inputs": [
						{
							"internalType": "uint256",
							"name": "_favouriteNumber",
							"type": "uint256"
						}
					],
					"name": "store",
					"outputs": [],
					"stateMutability": "nonpayable",
					"type": "function"
				}
			],
			"devdoc": {
				"kind": "dev",
				"methods": {},
				"version": 1
			},
			"evm": {
				"assembly": "    /* \"contracts/SimpleStorage.sol\":148:1285  contract SimpleStorage\r... */\n  mstore(0x40, 0x80)\n  callvalue\n  dup1\n  iszero\n  tag_1\n  jumpi\n  0x00\n  dup1\n  revert\ntag_1:\n  pop\n  dataSize(sub_0)\n  dup1\n  dataOffset(sub_0)\n  0x00\n  codecopy\n  0x00\n  return\nstop\n\nsub_0: assembly {\n        /* \"contracts/SimpleStorage.sol\":148:1285  contract SimpleStorage\r... */\n      mstore(0x40, 0x80)\n      callvalue\n      dup1\n      iszero\n      tag_1\n      jumpi\n      0x00\n      dup1\n      revert\n    tag_1:\n      pop\n      jumpi(tag_2, lt(calldatasize, 0x04))\n      shr(0xe0, calldataload(0x00))\n      dup1\n      0x173353ed\n      eq\n      tag_3\n      jumpi\n      dup1\n      0x2e64cec1\n      eq\n      tag_4\n      jumpi\n      dup1\n      0x6057361d\n      eq\n      tag_5\n      jumpi\n    tag_2:\n      0x00\n      dup1\n      revert\n        /* \"contracts/SimpleStorage.sol\":726:750  People[][] public people */\n    tag_3:\n      tag_6\n      0x04\n      dup1\n      calldatasize\n      sub\n      dup2\n      add\n      swap1\n      tag_7\n      swap2\n      swap1\n      tag_8\n      jump\t// in\n    tag_7:\n      tag_9\n      jump\t// in\n    tag_6:\n      mload(0x40)\n      tag_10\n      swap3\n      swap2\n      swap1\n      tag_11\n      jump\t// in\n    tag_10:\n      mload(0x40)\n      dup1\n      swap2\n      sub\n      swap1\n      return\n        /* \"contracts/SimpleStorage.sol\":1184:1279  function retrieve() public view returns(uint256)\r... */\n    tag_4:\n      tag_12\n      tag_13\n      jump\t// in\n    tag_12:\n      mload(0x40)\n      tag_14\n      swap2\n      swap1\n      tag_15\n      jump\t// in\n    tag_14:\n      mload(0x40)\n      dup1\n      swap2\n      sub\n      swap1\n      return\n        /* \"contracts/SimpleStorage.sol\":818:924  function store(uint256 _favouriteNumber) public\r... */\n    tag_5:\n      tag_16\n      0x04\n      dup1\n      calldatasize\n      sub\n      dup2\n      add\n      swap1\n      tag_17\n      swap2\n      swap1\n      tag_18\n      jump\t// in\n    tag_17:\n      tag_19\n      jump\t// in\n    tag_16:\n      stop\n        /* \"contracts/SimpleStorage.sol\":726:750  People[][] public people */\n    tag_9:\n      0x02\n      dup3\n      dup2\n      sload\n      dup2\n      lt\n      tag_20\n      jumpi\n      0x00\n      dup1\n      revert\n    tag_20:\n      swap1\n      0x00\n      mstore\n      keccak256(0x00, 0x20)\n      add\n      dup2\n      dup2\n      sload\n      dup2\n      lt\n      tag_22\n      jumpi\n      0x00\n      dup1\n      revert\n    tag_22:\n      swap1\n      0x00\n      mstore\n      keccak256(0x00, 0x20)\n      swap1\n      0x02\n      mul\n      add\n      0x00\n      swap2\n      pop\n      swap2\n      pop\n      pop\n      dup1\n      0x00\n      add\n      sload\n      swap1\n      dup1\n      0x01\n      add\n      dup1\n      sload\n      tag_24\n      swap1\n      tag_25\n      jump\t// in\n    tag_24:\n      dup1\n      0x1f\n      add\n      0x20\n      dup1\n      swap2\n      div\n      mul\n      0x20\n      add\n      mload(0x40)\n      swap1\n      dup2\n      add\n      0x40\n      mstore\n      dup1\n      swap3\n      swap2\n      swap1\n      dup2\n      dup2\n      mstore\n      0x20\n      add\n      dup3\n      dup1\n      sload\n      tag_26\n      swap1\n      tag_25\n      jump\t// in\n    tag_26:\n      dup1\n      iszero\n      tag_27\n      jumpi\n      dup1\n      0x1f\n      lt\n      tag_28\n      jumpi\n      0x0100\n      dup1\n      dup4\n      sload\n      div\n      mul\n      dup4\n      mstore\n      swap2\n      0x20\n      add\n      swap2\n      jump(tag_27)\n    tag_28:\n      dup3\n      add\n      swap2\n      swap1\n      0x00\n      mstore\n      keccak256(0x00, 0x20)\n      swap1\n    tag_29:\n      dup2\n      sload\n      dup2\n      mstore\n      swap1\n      0x01\n      add\n      swap1\n      0x20\n      add\n      dup1\n      dup4\n      gt\n      tag_29\n      jumpi\n      dup3\n      swap1\n      sub\n      0x1f\n      and\n      dup3\n      add\n      swap2\n    tag_27:\n      pop\n      pop\n      pop\n      pop\n      pop\n      swap1\n      pop\n      dup3\n      jump\t// out\n        /* \"contracts/SimpleStorage.sol\":1184:1279  function retrieve() public view returns(uint256)\r... */\n    tag_13:\n        /* \"contracts/SimpleStorage.sol\":1224:1231  uint256 */\n      0x00\n        /* \"contracts/SimpleStorage.sol\":1256:1271  favouriteNumber */\n      dup1\n      sload\n        /* \"contracts/SimpleStorage.sol\":1249:1271  return favouriteNumber */\n      swap1\n      pop\n        /* \"contracts/SimpleStorage.sol\":1184:1279  function retrieve() public view returns(uint256)\r... */\n      swap1\n      jump\t// out\n        /* \"contracts/SimpleStorage.sol\":818:924  function store(uint256 _favouriteNumber) public\r... */\n    tag_19:\n        /* \"contracts/SimpleStorage.sol\":900:916  _favouriteNumber */\n      dup1\n        /* \"contracts/SimpleStorage.sol\":882:897  favouriteNumber */\n      0x00\n        /* \"contracts/SimpleStorage.sol\":882:916  favouriteNumber = _favouriteNumber */\n      dup2\n      swap1\n      sstore\n      pop\n        /* \"contracts/SimpleStorage.sol\":818:924  function store(uint256 _favouriteNumber) public\r... */\n      pop\n      jump\t// out\n        /* \"#utility.yul\":7:146   */\n    tag_33:\n        /* \"#utility.yul\":53:58   */\n      0x00\n        /* \"#utility.yul\":91:97   */\n      dup2\n        /* \"#utility.yul\":78:98   */\n      calldataload\n        /* \"#utility.yul\":69:98   */\n      swap1\n      pop\n        /* \"#utility.yul\":107:140   */\n      tag_35\n        /* \"#utility.yul\":134:139   */\n      dup2\n        /* \"#utility.yul\":107:140   */\n      tag_36\n      jump\t// in\n    tag_35:\n        /* \"#utility.yul\":7:146   */\n      swap3\n      swap2\n      pop\n      pop\n      jump\t// out\n        /* \"#utility.yul\":152:481   */\n    tag_18:\n        /* \"#utility.yul\":211:217   */\n      0x00\n        /* \"#utility.yul\":260:262   */\n      0x20\n        /* \"#utility.yul\":248:257   */\n      dup3\n        /* \"#utility.yul\":239:246   */\n      dup5\n        /* \"#utility.yul\":235:258   */\n      sub\n        /* \"#utility.yul\":231:263   */\n      slt\n        /* \"#utility.yul\":228:347   */\n      iszero\n      tag_38\n      jumpi\n        /* \"#utility.yul\":266:345   */\n      tag_39\n      tag_40\n      jump\t// in\n    tag_39:\n        /* \"#utility.yul\":228:347   */\n    tag_38:\n        /* \"#utility.yul\":386:387   */\n      0x00\n        /* \"#utility.yul\":411:464   */\n      tag_41\n        /* \"#utility.yul\":456:463   */\n      dup5\n        /* \"#utility.yul\":447:453   */\n      dup3\n        /* \"#utility.yul\":436:445   */\n      dup6\n        /* \"#utility.yul\":432:454   */\n      add\n        /* \"#utility.yul\":411:464   */\n      tag_33\n      jump\t// in\n    tag_41:\n        /* \"#utility.yul\":401:464   */\n      swap2\n      pop\n        /* \"#utility.yul\":357:474   */\n      pop\n        /* \"#utility.yul\":152:481   */\n      swap3\n      swap2\n      pop\n      pop\n      jump\t// out\n        /* \"#utility.yul\":487:961   */\n    tag_8:\n        /* \"#utility.yul\":555:561   */\n      0x00\n        /* \"#utility.yul\":563:569   */\n      dup1\n        /* \"#utility.yul\":612:614   */\n      0x40\n        /* \"#utility.yul\":600:609   */\n      dup4\n        /* \"#utility.yul\":591:598   */\n      dup6\n        /* \"#utility.yul\":587:610   */\n      sub\n        /* \"#utility.yul\":583:615   */\n      slt\n        /* \"#utility.yul\":580:699   */\n      iszero\n      tag_43\n      jumpi\n        /* \"#utility.yul\":618:697   */\n      tag_44\n      tag_40\n      jump\t// in\n    tag_44:\n        /* \"#utility.yul\":580:699   */\n    tag_43:\n        /* \"#utility.yul\":738:739   */\n      0x00\n        /* \"#utility.yul\":763:816   */\n      tag_45\n        /* \"#utility.yul\":808:815   */\n      dup6\n        /* \"#utility.yul\":799:805   */\n      dup3\n        /* \"#utility.yul\":788:797   */\n      dup7\n        /* \"#utility.yul\":784:806   */\n      add\n        /* \"#utility.yul\":763:816   */\n      tag_33\n      jump\t// in\n    tag_45:\n        /* \"#utility.yul\":753:816   */\n      swap3\n      pop\n        /* \"#utility.yul\":709:826   */\n      pop\n        /* \"#utility.yul\":865:867   */\n      0x20\n        /* \"#utility.yul\":891:944   */\n      tag_46\n        /* \"#utility.yul\":936:943   */\n      dup6\n        /* \"#utility.yul\":927:933   */\n      dup3\n        /* \"#utility.yul\":916:925   */\n      dup7\n        /* \"#utility.yul\":912:934   */\n      add\n        /* \"#utility.yul\":891:944   */\n      tag_33\n      jump\t// in\n    tag_46:\n        /* \"#utility.yul\":881:944   */\n      swap2\n      pop\n        /* \"#utility.yul\":836:954   */\n      pop\n        /* \"#utility.yul\":487:961   */\n      swap3\n      pop\n      swap3\n      swap1\n      pop\n      jump\t// out\n        /* \"#utility.yul\":967:1331   */\n    tag_47:\n        /* \"#utility.yul\":1055:1058   */\n      0x00\n        /* \"#utility.yul\":1083:1122   */\n      tag_49\n        /* \"#utility.yul\":1116:1121   */\n      dup3\n        /* \"#utility.yul\":1083:1122   */\n      tag_50\n      jump\t// in\n    tag_49:\n        /* \"#utility.yul\":1138:1209   */\n      tag_51\n        /* \"#utility.yul\":1202:1208   */\n      dup2\n        /* \"#utility.yul\":1197:1200   */\n      dup6\n        /* \"#utility.yul\":1138:1209   */\n      tag_52\n      jump\t// in\n    tag_51:\n        /* \"#utility.yul\":1131:1209   */\n      swap4\n      pop\n        /* \"#utility.yul\":1218:1270   */\n      tag_53\n        /* \"#utility.yul\":1263:1269   */\n      dup2\n        /* \"#utility.yul\":1258:1261   */\n      dup6\n        /* \"#utility.yul\":1251:1255   */\n      0x20\n        /* \"#utility.yul\":1244:1249   */\n      dup7\n        /* \"#utility.yul\":1240:1256   */\n      add\n        /* \"#utility.yul\":1218:1270   */\n      tag_54\n      jump\t// in\n    tag_53:\n        /* \"#utility.yul\":1295:1324   */\n      tag_55\n        /* \"#utility.yul\":1317:1323   */\n      dup2\n        /* \"#utility.yul\":1295:1324   */\n      tag_56\n      jump\t// in\n    tag_55:\n        /* \"#utility.yul\":1290:1293   */\n      dup5\n        /* \"#utility.yul\":1286:1325   */\n      add\n        /* \"#utility.yul\":1279:1325   */\n      swap2\n      pop\n        /* \"#utility.yul\":1059:1331   */\n      pop\n        /* \"#utility.yul\":967:1331   */\n      swap3\n      swap2\n      pop\n      pop\n      jump\t// out\n        /* \"#utility.yul\":1337:1455   */\n    tag_57:\n        /* \"#utility.yul\":1424:1448   */\n      tag_59\n        /* \"#utility.yul\":1442:1447   */\n      dup2\n        /* \"#utility.yul\":1424:1448   */\n      tag_60\n      jump\t// in\n    tag_59:\n        /* \"#utility.yul\":1419:1422   */\n      dup3\n        /* \"#utility.yul\":1412:1449   */\n      mstore\n        /* \"#utility.yul\":1337:1455   */\n      pop\n      pop\n      jump\t// out\n        /* \"#utility.yul\":1461:1683   */\n    tag_15:\n        /* \"#utility.yul\":1554:1558   */\n      0x00\n        /* \"#utility.yul\":1592:1594   */\n      0x20\n        /* \"#utility.yul\":1581:1590   */\n      dup3\n        /* \"#utility.yul\":1577:1595   */\n      add\n        /* \"#utility.yul\":1569:1595   */\n      swap1\n      pop\n        /* \"#utility.yul\":1605:1676   */\n      tag_62\n        /* \"#utility.yul\":1673:1674   */\n      0x00\n        /* \"#utility.yul\":1662:1671   */\n      dup4\n        /* \"#utility.yul\":1658:1675   */\n      add\n        /* \"#utility.yul\":1649:1655   */\n      dup5\n        /* \"#utility.yul\":1605:1676   */\n      tag_57\n      jump\t// in\n    tag_62:\n        /* \"#utility.yul\":1461:1683   */\n      swap3\n      swap2\n      pop\n      pop\n      jump\t// out\n        /* \"#utility.yul\":1689:2112   */\n    tag_11:\n        /* \"#utility.yul\":1830:1834   */\n      0x00\n        /* \"#utility.yul\":1868:1870   */\n      0x40\n        /* \"#utility.yul\":1857:1866   */\n      dup3\n        /* \"#utility.yul\":1853:1871   */\n      add\n        /* \"#utility.yul\":1845:1871   */\n      swap1\n      pop\n        /* \"#utility.yul\":1881:1952   */\n      tag_64\n        /* \"#utility.yul\":1949:1950   */\n      0x00\n        /* \"#utility.yul\":1938:1947   */\n      dup4\n        /* \"#utility.yul\":1934:1951   */\n      add\n        /* \"#utility.yul\":1925:1931   */\n      dup6\n        /* \"#utility.yul\":1881:1952   */\n      tag_57\n      jump\t// in\n    tag_64:\n        /* \"#utility.yul\":1999:2008   */\n      dup2\n        /* \"#utility.yul\":1993:1997   */\n      dup2\n        /* \"#utility.yul\":1989:2009   */\n      sub\n        /* \"#utility.yul\":1984:1986   */\n      0x20\n        /* \"#utility.yul\":1973:1982   */\n      dup4\n        /* \"#utility.yul\":1969:1987   */\n      add\n        /* \"#utility.yul\":1962:2010   */\n      mstore\n        /* \"#utility.yul\":2027:2105   */\n      tag_65\n        /* \"#utility.yul\":2100:2104   */\n      dup2\n        /* \"#utility.yul\":2091:2097   */\n      dup5\n        /* \"#utility.yul\":2027:2105   */\n      tag_47\n      jump\t// in\n    tag_65:\n        /* \"#utility.yul\":2019:2105   */\n      swap1\n      pop\n        /* \"#utility.yul\":1689:2112   */\n      swap4\n      swap3\n      pop\n      pop\n      pop\n      jump\t// out\n        /* \"#utility.yul\":2199:2298   */\n    tag_50:\n        /* \"#utility.yul\":2251:2257   */\n      0x00\n        /* \"#utility.yul\":2285:2290   */\n      dup2\n        /* \"#utility.yul\":2279:2291   */\n      mload\n        /* \"#utility.yul\":2269:2291   */\n      swap1\n      pop\n        /* \"#utility.yul\":2199:2298   */\n      swap2\n      swap1\n      pop\n      jump\t// out\n        /* \"#utility.yul\":2304:2473   */\n    tag_52:\n        /* \"#utility.yul\":2388:2399   */\n      0x00\n        /* \"#utility.yul\":2422:2428   */\n      dup3\n        /* \"#utility.yul\":2417:2420   */\n      dup3\n        /* \"#utility.yul\":2410:2429   */\n      mstore\n        /* \"#utility.yul\":2462:2466   */\n      0x20\n        /* \"#utility.yul\":2457:2460   */\n      dup3\n        /* \"#utility.yul\":2453:2467   */\n      add\n        /* \"#utility.yul\":2438:2467   */\n      swap1\n      pop\n        /* \"#utility.yul\":2304:2473   */\n      swap3\n      swap2\n      pop\n      pop\n      jump\t// out\n        /* \"#utility.yul\":2479:2556   */\n    tag_60:\n        /* \"#utility.yul\":2516:2523   */\n      0x00\n        /* \"#utility.yul\":2545:2550   */\n      dup2\n        /* \"#utility.yul\":2534:2550   */\n      swap1\n      pop\n        /* \"#utility.yul\":2479:2556   */\n      swap2\n      swap1\n      pop\n      jump\t// out\n        /* \"#utility.yul\":2562:2869   */\n    tag_54:\n        /* \"#utility.yul\":2630:2631   */\n      0x00\n        /* \"#utility.yul\":2640:2753   */\n    tag_72:\n        /* \"#utility.yul\":2654:2660   */\n      dup4\n        /* \"#utility.yul\":2651:2652   */\n      dup2\n        /* \"#utility.yul\":2648:2661   */\n      lt\n        /* \"#utility.yul\":2640:2753   */\n      iszero\n      tag_74\n      jumpi\n        /* \"#utility.yul\":2739:2740   */\n      dup1\n        /* \"#utility.yul\":2734:2737   */\n      dup3\n        /* \"#utility.yul\":2730:2741   */\n      add\n        /* \"#utility.yul\":2724:2742   */\n      mload\n        /* \"#utility.yul\":2720:2721   */\n      dup2\n        /* \"#utility.yul\":2715:2718   */\n      dup5\n        /* \"#utility.yul\":2711:2722   */\n      add\n        /* \"#utility.yul\":2704:2743   */\n      mstore\n        /* \"#utility.yul\":2676:2678   */\n      0x20\n        /* \"#utility.yul\":2673:2674   */\n      dup2\n        /* \"#utility.yul\":2669:2679   */\n      add\n        /* \"#utility.yul\":2664:2679   */\n      swap1\n      pop\n        /* \"#utility.yul\":2640:2753   */\n      jump(tag_72)\n    tag_74:\n        /* \"#utility.yul\":2771:2777   */\n      dup4\n        /* \"#utility.yul\":2768:2769   */\n      dup2\n        /* \"#utility.yul\":2765:2778   */\n      gt\n        /* \"#utility.yul\":2762:2863   */\n      iszero\n      tag_75\n      jumpi\n        /* \"#utility.yul\":2851:2852   */\n      0x00\n        /* \"#utility.yul\":2842:2848   */\n      dup5\n        /* \"#utility.yul\":2837:2840   */\n      dup5\n        /* \"#utility.yul\":2833:2849   */\n      add\n        /* \"#utility.yul\":2826:2853   */\n      mstore\n        /* \"#utility.yul\":2762:2863   */\n    tag_75:\n        /* \"#utility.yul\":2611:2869   */\n      pop\n        /* \"#utility.yul\":2562:2869   */\n      pop\n      pop\n      pop\n      jump\t// out\n        /* \"#utility.yul\":2875:3195   */\n    tag_25:\n        /* \"#utility.yul\":2919:2925   */\n      0x00\n        /* \"#utility.yul\":2956:2957   */\n      0x02\n        /* \"#utility.yul\":2950:2954   */\n      dup3\n        /* \"#utility.yul\":2946:2958   */\n      div\n        /* \"#utility.yul\":2936:2958   */\n      swap1\n      pop\n        /* \"#utility.yul\":3003:3004   */\n      0x01\n        /* \"#utility.yul\":2997:3001   */\n      dup3\n        /* \"#utility.yul\":2993:3005   */\n      and\n        /* \"#utility.yul\":3024:3042   */\n      dup1\n        /* \"#utility.yul\":3014:3095   */\n      tag_77\n      jumpi\n        /* \"#utility.yul\":3080:3084   */\n      0x7f\n        /* \"#utility.yul\":3072:3078   */\n      dup3\n        /* \"#utility.yul\":3068:3085   */\n      and\n        /* \"#utility.yul\":3058:3085   */\n      swap2\n      pop\n        /* \"#utility.yul\":3014:3095   */\n    tag_77:\n        /* \"#utility.yul\":3142:3144   */\n      0x20\n        /* \"#utility.yul\":3134:3140   */\n      dup3\n        /* \"#utility.yul\":3131:3145   */\n      lt\n        /* \"#utility.yul\":3111:3129   */\n      dup2\n        /* \"#utility.yul\":3108:3146   */\n      eq\n        /* \"#utility.yul\":3105:3189   */\n      iszero\n      tag_78\n      jumpi\n        /* \"#utility.yul\":3161:3179   */\n      tag_79\n      tag_80\n      jump\t// in\n    tag_79:\n        /* \"#utility.yul\":3105:3189   */\n    tag_78:\n        /* \"#utility.yul\":2926:3195   */\n      pop\n        /* \"#utility.yul\":2875:3195   */\n      swap2\n      swap1\n      pop\n      jump\t// out\n        /* \"#utility.yul\":3201:3381   */\n    tag_80:\n        /* \"#utility.yul\":3249:3326   */\n      0x4e487b7100000000000000000000000000000000000000000000000000000000\n        /* \"#utility.yul\":3246:3247   */\n      0x00\n        /* \"#utility.yul\":3239:3327   */\n      mstore\n        /* \"#utility.yul\":3346:3350   */\n      0x22\n        /* \"#utility.yul\":3343:3344   */\n      0x04\n        /* \"#utility.yul\":3336:3351   */\n      mstore\n        /* \"#utility.yul\":3370:3374   */\n      0x24\n        /* \"#utility.yul\":3367:3368   */\n      0x00\n        /* \"#utility.yul\":3360:3375   */\n      revert\n        /* \"#utility.yul\":3510:3627   */\n    tag_40:\n        /* \"#utility.yul\":3619:3620   */\n      0x00\n        /* \"#utility.yul\":3616:3617   */\n      dup1\n        /* \"#utility.yul\":3609:3621   */\n      revert\n        /* \"#utility.yul\":3633:3735   */\n    tag_56:\n        /* \"#utility.yul\":3674:3680   */\n      0x00\n        /* \"#utility.yul\":3725:3727   */\n      0x1f\n        /* \"#utility.yul\":3721:3728   */\n      not\n        /* \"#utility.yul\":3716:3718   */\n      0x1f\n        /* \"#utility.yul\":3709:3714   */\n      dup4\n        /* \"#utility.yul\":3705:3719   */\n      add\n        /* \"#utility.yul\":3701:3729   */\n      and\n        /* \"#utility.yul\":3691:3729   */\n      swap1\n      pop\n        /* \"#utility.yul\":3633:3735   */\n      swap2\n      swap1\n      pop\n      jump\t// out\n        /* \"#utility.yul\":3741:3863   */\n    tag_36:\n        /* \"#utility.yul\":3814:3838   */\n      tag_87\n        /* \"#utility.yul\":3832:3837   */\n      dup2\n        /* \"#utility.yul\":3814:3838   */\n      tag_60\n      jump\t// in\n    tag_87:\n        /* \"#utility.yul\":3807:3812   */\n      dup2\n        /* \"#utility.yul\":3804:3839   */\n      eq\n        /* \"#utility.yul\":3794:3857   */\n      tag_88\n      jumpi\n        /* \"#utility.yul\":3853:3854   */\n      0x00\n        /* \"#utility.yul\":3850:3851   */\n      dup1\n        /* \"#utility.yul\":3843:3855   */\n      revert\n        /* \"#utility.yul\":3794:3857   */\n    tag_88:\n        /* \"#utility.yul\":3741:3863   */\n      pop\n      jump\t// out\n\n    auxdata: 0xa264697066735822122000bccd98de014c4326b023e537576f17ae8b29fc6dbffa063cdc880062426fc864736f6c63430008070033\n}\n",
				"bytecode": {
					"linkReferences": {},
					"object": "608060405234801561001057600080fd5b506103cb806100206000396000f3fe608060405234801561001057600080fd5b50600436106100415760003560e01c8063173353ed146100465780632e64cec1146100775780636057361d14610095575b600080fd5b610060600480360381019061005b91906101db565b6100b1565b60405161006e92919061027e565b60405180910390f35b61007f610186565b60405161008c9190610263565b60405180910390f35b6100af60048036038101906100aa91906101ae565b61018f565b005b600282815481106100c157600080fd5b9060005260206000200181815481106100d957600080fd5b90600052602060002090600202016000915091505080600001549080600101805461010390610307565b80601f016020809104026020016040519081016040528092919081815260200182805461012f90610307565b801561017c5780601f106101515761010080835404028352916020019161017c565b820191906000526020600020905b81548152906001019060200180831161015f57829003601f168201915b5050505050905082565b60008054905090565b8060008190555050565b6000813590506101a88161037e565b92915050565b6000602082840312156101c4576101c3610368565b5b60006101d284828501610199565b91505092915050565b600080604083850312156101f2576101f1610368565b5b600061020085828601610199565b925050602061021185828601610199565b9150509250929050565b6000610226826102ae565b61023081856102b9565b93506102408185602086016102d4565b6102498161036d565b840191505092915050565b61025d816102ca565b82525050565b60006020820190506102786000830184610254565b92915050565b60006040820190506102936000830185610254565b81810360208301526102a5818461021b565b90509392505050565b600081519050919050565b600082825260208201905092915050565b6000819050919050565b60005b838110156102f25780820151818401526020810190506102d7565b83811115610301576000848401525b50505050565b6000600282049050600182168061031f57607f821691505b6020821081141561033357610332610339565b5b50919050565b7f4e487b7100000000000000000000000000000000000000000000000000000000600052602260045260246000fd5b600080fd5b6000601f19601f8301169050919050565b610387816102ca565b811461039257600080fd5b5056fea264697066735822122000bccd98de014c4326b023e537576f17ae8b29fc6dbffa063cdc880062426fc864736f6c63430008070033",
					"opcodes": "PUSH1 0x80 PUSH1 0x40 MSTORE CALLVALUE DUP1 ISZERO PUSH2 0x10 JUMPI PUSH1 0x0 DUP1 REVERT JUMPDEST POP PUSH2 0x3CB DUP1 PUSH2 0x20 PUSH1 0x0 CODECOPY PUSH1 0x0 RETURN INVALID PUSH1 0x80 PUSH1 0x40 MSTORE CALLVALUE DUP1 ISZERO PUSH2 0x10 JUMPI PUSH1 0x0 DUP1 REVERT JUMPDEST POP PUSH1 0x4 CALLDATASIZE LT PUSH2 0x41 JUMPI PUSH1 0x0 CALLDATALOAD PUSH1 0xE0 SHR DUP1 PUSH4 0x173353ED EQ PUSH2 0x46 JUMPI DUP1 PUSH4 0x2E64CEC1 EQ PUSH2 0x77 JUMPI DUP1 PUSH4 0x6057361D EQ PUSH2 0x95 JUMPI JUMPDEST PUSH1 0x0 DUP1 REVERT JUMPDEST PUSH2 0x60 PUSH1 0x4 DUP1 CALLDATASIZE SUB DUP2 ADD SWAP1 PUSH2 0x5B SWAP2 SWAP1 PUSH2 0x1DB JUMP JUMPDEST PUSH2 0xB1 JUMP JUMPDEST PUSH1 0x40 MLOAD PUSH2 0x6E SWAP3 SWAP2 SWAP1 PUSH2 0x27E JUMP JUMPDEST PUSH1 0x40 MLOAD DUP1 SWAP2 SUB SWAP1 RETURN JUMPDEST PUSH2 0x7F PUSH2 0x186 JUMP JUMPDEST PUSH1 0x40 MLOAD PUSH2 0x8C SWAP2 SWAP1 PUSH2 0x263 JUMP JUMPDEST PUSH1 0x40 MLOAD DUP1 SWAP2 SUB SWAP1 RETURN JUMPDEST PUSH2 0xAF PUSH1 0x4 DUP1 CALLDATASIZE SUB DUP2 ADD SWAP1 PUSH2 0xAA SWAP2 SWAP1 PUSH2 0x1AE JUMP JUMPDEST PUSH2 0x18F JUMP JUMPDEST STOP JUMPDEST PUSH1 0x2 DUP3 DUP2 SLOAD DUP2 LT PUSH2 0xC1 JUMPI PUSH1 0x0 DUP1 REVERT JUMPDEST SWAP1 PUSH1 0x0 MSTORE PUSH1 0x20 PUSH1 0x0 KECCAK256 ADD DUP2 DUP2 SLOAD DUP2 LT PUSH2 0xD9 JUMPI PUSH1 0x0 DUP1 REVERT JUMPDEST SWAP1 PUSH1 0x0 MSTORE PUSH1 0x20 PUSH1 0x0 KECCAK256 SWAP1 PUSH1 0x2 MUL ADD PUSH1 0x0 SWAP2 POP SWAP2 POP POP DUP1 PUSH1 0x0 ADD SLOAD SWAP1 DUP1 PUSH1 0x1 ADD DUP1 SLOAD PUSH2 0x103 SWAP1 PUSH2 0x307 JUMP JUMPDEST DUP1 PUSH1 0x1F ADD PUSH1 0x20 DUP1 SWAP2 DIV MUL PUSH1 0x20 ADD PUSH1 0x40 MLOAD SWAP1 DUP2 ADD PUSH1 0x40 MSTORE DUP1 SWAP3 SWAP2 SWAP1 DUP2 DUP2 MSTORE PUSH1 0x20 ADD DUP3 DUP1 SLOAD PUSH2 0x12F SWAP1 PUSH2 0x307 JUMP JUMPDEST DUP1 ISZERO PUSH2 0x17C JUMPI DUP1 PUSH1 0x1F LT PUSH2 0x151 JUMPI PUSH2 0x100 DUP1 DUP4 SLOAD DIV MUL DUP4 MSTORE SWAP2 PUSH1 0x20 ADD SWAP2 PUSH2 0x17C JUMP JUMPDEST DUP3 ADD SWAP2 SWAP1 PUSH1 0x0 MSTORE PUSH1 0x20 PUSH1 0x0 KECCAK256 SWAP1 JUMPDEST DUP2 SLOAD DUP2 MSTORE SWAP1 PUSH1 0x1 ADD SWAP1 PUSH1 0x20 ADD DUP1 DUP4 GT PUSH2 0x15F JUMPI DUP3 SWAP1 SUB PUSH1 0x1F AND DUP3 ADD SWAP2 JUMPDEST POP POP POP POP POP SWAP1 POP DUP3 JUMP JUMPDEST PUSH1 0x0 DUP1 SLOAD SWAP1 POP SWAP1 JUMP JUMPDEST DUP1 PUSH1 0x0 DUP2 SWAP1 SSTORE POP POP JUMP JUMPDEST PUSH1 0x0 DUP2 CALLDATALOAD SWAP1 POP PUSH2 0x1A8 DUP2 PUSH2 0x37E JUMP JUMPDEST SWAP3 SWAP2 POP POP JUMP JUMPDEST PUSH1 0x0 PUSH1 0x20 DUP3 DUP5 SUB SLT ISZERO PUSH2 0x1C4 JUMPI PUSH2 0x1C3 PUSH2 0x368 JUMP JUMPDEST JUMPDEST PUSH1 0x0 PUSH2 0x1D2 DUP5 DUP3 DUP6 ADD PUSH2 0x199 JUMP JUMPDEST SWAP2 POP POP SWAP3 SWAP2 POP POP JUMP JUMPDEST PUSH1 0x0 DUP1 PUSH1 0x40 DUP4 DUP6 SUB SLT ISZERO PUSH2 0x1F2 JUMPI PUSH2 0x1F1 PUSH2 0x368 JUMP JUMPDEST JUMPDEST PUSH1 0x0 PUSH2 0x200 DUP6 DUP3 DUP7 ADD PUSH2 0x199 JUMP JUMPDEST SWAP3 POP POP PUSH1 0x20 PUSH2 0x211 DUP6 DUP3 DUP7 ADD PUSH2 0x199 JUMP JUMPDEST SWAP2 POP POP SWAP3 POP SWAP3 SWAP1 POP JUMP JUMPDEST PUSH1 0x0 PUSH2 0x226 DUP3 PUSH2 0x2AE JUMP JUMPDEST PUSH2 0x230 DUP2 DUP6 PUSH2 0x2B9 JUMP JUMPDEST SWAP4 POP PUSH2 0x240 DUP2 DUP6 PUSH1 0x20 DUP7 ADD PUSH2 0x2D4 JUMP JUMPDEST PUSH2 0x249 DUP2 PUSH2 0x36D JUMP JUMPDEST DUP5 ADD SWAP2 POP POP SWAP3 SWAP2 POP POP JUMP JUMPDEST PUSH2 0x25D DUP2 PUSH2 0x2CA JUMP JUMPDEST DUP3 MSTORE POP POP JUMP JUMPDEST PUSH1 0x0 PUSH1 0x20 DUP3 ADD SWAP1 POP PUSH2 0x278 PUSH1 0x0 DUP4 ADD DUP5 PUSH2 0x254 JUMP JUMPDEST SWAP3 SWAP2 POP POP JUMP JUMPDEST PUSH1 0x0 PUSH1 0x40 DUP3 ADD SWAP1 POP PUSH2 0x293 PUSH1 0x0 DUP4 ADD DUP6 PUSH2 0x254 JUMP JUMPDEST DUP2 DUP2 SUB PUSH1 0x20 DUP4 ADD MSTORE PUSH2 0x2A5 DUP2 DUP5 PUSH2 0x21B JUMP JUMPDEST SWAP1 POP SWAP4 SWAP3 POP POP POP JUMP JUMPDEST PUSH1 0x0 DUP2 MLOAD SWAP1 POP SWAP2 SWAP1 POP JUMP JUMPDEST PUSH1 0x0 DUP3 DUP3 MSTORE PUSH1 0x20 DUP3 ADD SWAP1 POP SWAP3 SWAP2 POP POP JUMP JUMPDEST PUSH1 0x0 DUP2 SWAP1 POP SWAP2 SWAP1 POP JUMP JUMPDEST PUSH1 0x0 JUMPDEST DUP4 DUP2 LT ISZERO PUSH2 0x2F2 JUMPI DUP1 DUP3 ADD MLOAD DUP2 DUP5 ADD MSTORE PUSH1 0x20 DUP2 ADD SWAP1 POP PUSH2 0x2D7 JUMP JUMPDEST DUP4 DUP2 GT ISZERO PUSH2 0x301 JUMPI PUSH1 0x0 DUP5 DUP5 ADD MSTORE JUMPDEST POP POP POP POP JUMP JUMPDEST PUSH1 0x0 PUSH1 0x2 DUP3 DIV SWAP1 POP PUSH1 0x1 DUP3 AND DUP1 PUSH2 0x31F JUMPI PUSH1 0x7F DUP3 AND SWAP2 POP JUMPDEST PUSH1 0x20 DUP3 LT DUP2 EQ ISZERO PUSH2 0x333 JUMPI PUSH2 0x332 PUSH2 0x339 JUMP JUMPDEST JUMPDEST POP SWAP2 SWAP1 POP JUMP JUMPDEST PUSH32 0x4E487B7100000000000000000000000000000000000000000000000000000000 PUSH1 0x0 MSTORE PUSH1 0x22 PUSH1 0x4 MSTORE PUSH1 0x24 PUSH1 0x0 REVERT JUMPDEST PUSH1 0x0 DUP1 REVERT JUMPDEST PUSH1 0x0 PUSH1 0x1F NOT PUSH1 0x1F DUP4 ADD AND SWAP1 POP SWAP2 SWAP1 POP JUMP JUMPDEST PUSH2 0x387 DUP2 PUSH2 0x2CA JUMP JUMPDEST DUP2 EQ PUSH2 0x392 JUMPI PUSH1 0x0 DUP1 REVERT JUMPDEST POP JUMP INVALID LOG2 PUSH5 0x6970667358 0x22 SLT KECCAK256 STOP 0xBC 0xCD SWAP9 0xDE ADD 0x4C NUMBER 0x26 0xB0 0x23 0xE5 CALLDATACOPY JUMPI PUSH16 0x17AE8B29FC6DBFFA063CDC880062426F 0xC8 PUSH5 0x736F6C6343 STOP ADDMOD SMOD STOP CALLER "
				},
				"gasEstimates": {
					"creation": {
						"codeDepositCost": "194200",
						"executionCost": "238",
						"totalCost": "194438"
					},
					"external": {
						"people(uint256,uint256)": "infinite",
						"retrieve()": "2437",
						"store(uint256)": "22542"
					}
				},
				"methodIdentifiers": {
					"people(uint256,uint256)": "173353ed",
					"retrieve()": "2e64cec1",
					"store(uint256)": "6057361d"
				}
			},
			"storageLayout": {
				"storage": [
					{
						"astId": 3,
						"contract": "contracts/SimpleStorage.sol:SimpleStorage",
						"label": "favouriteNumber",
						"offset": 0,
						"slot": "0",
						"type": "t_uint256"
					},
					{
						"astId": 5,
						"contract": "contracts/SimpleStorage.sol:SimpleStorage",
						"label": "favouriteBool",
						"offset": 0,
						"slot": "1",
						"type": "t_bool"
					},
					{
						"astId": 15,
						"contract": "contracts/SimpleStorage.sol:SimpleStorage",
						"label": "people",
						"offset": 0,
						"slot": "2",
						"type": "t_array(t_array(t_struct(People)10_storage)dyn_storage)dyn_storage"
					}
				],
				"types": {
					"t_array(t_array(t_struct(People)10_storage)dyn_storage)dyn_storage": {
						"base": "t_array(t_struct(People)10_storage)dyn_storage",
						"encoding": "dynamic_array",
						"label": "struct SimpleStorage.People[][]",
						"numberOfBytes": "32"
					},
					"t_array(t_struct(People)10_storage)dyn_storage": {
						"base": "t_struct(People)10_storage",
						"encoding": "dynamic_array",
						"label": "struct SimpleStorage.People[]",
						"numberOfBytes": "32"
					},
					"t_bool": {
						"encoding": "inplace",
						"label": "bool",
						"numberOfBytes": "1"
					},
					"t_string_storage": {
						"encoding": "bytes",
						"label": "string",
						"numberOfBytes": "32"
					},
					"t_struct(People)10_storage": {
						"encoding": "inplace",
						"label": "struct SimpleStorage.People",
						"members": [
							{
								"astId": 7,
								"contract": "contracts/SimpleStorage.sol:SimpleStorage",
								"label": "favouriteNumber",
								"offset": 0,
								"slot": "0",
								"type": "t_uint256"
							},
							{
								"astId": 9,
								"contract": "contracts/SimpleStorage.sol:SimpleStorage",
								"label": "name",
								"offset": 0,
								"slot": "1",
								"type": "t_string_storage"
							}
						],
						"numberOfBytes": "64"
					},
					"t_uint256": {
						"encoding": "inplace",
						"label": "uint256",
						"numberOfBytes": "32"
					}
				}
			},
			"userdoc": {
				"kind": "user",
				"methods": {},
				"version": 1
			}
		}
	}
}