{
	"contracts/FundMe.sol": {
		"FundMe": {
			"abi": [
				{
					"inputs": [],
					"stateMutability": "nonpayable",
					"type": "constructor"
				},
				{
					"inputs": [
						{
							"internalType": "address",
							"name": "",
							"type": "address"
						}
					],
					"name": "addressToAmountFunded",
					"outputs": [
						{
							"internalType": "uint256",
							"name": "",
							"type": "uint256"
						}
					],
					"stateMutability": "view",
					"type": "function"
				},
				{
					"inputs": [],
					"name": "fund",
					"outputs": [],
					"stateMutability": "payable",
					"type": "function"
				},
				{
					"inputs": [
						{
							"internalType": "uint256",
							"name": "_ethAmount",
							"type": "uint256"
						}
					],
					"name": "getConversionRate",
					"outputs": [
						{
							"internalType": "uint256",
							"name": "",
							"type": "uint256"
						}
					],
					"stateMutability": "view",
					"type": "function"
				},
				{
					"inputs": [],
					"name": "getPrice",
					"outputs": [
						{
							"internalType": "uint256",
							"name": "",
							"type": "uint256"
						}
					],
					"stateMutability": "view",
					"type": "function"
				},
				{
					"inputs": [],
					"name": "getVersion",
					"outputs": [
						{
							"internalType": "uint256",
							"name": "",
							"type": "uint256"
						}
					],
					"stateMutability": "view",
					"type": "function"
				},
				{
					"inputs": [],
					"name": "withDraw",
					"outputs": [],
					"stateMutability": "payable",
					"type": "function"
				}
			],
			"devdoc": {
				"kind": "dev",
				"methods": {},
				"version": 1
			},
			"evm": {
				"assembly": "    /* \"contracts/FundMe.sol\":244:1787  contract FundMe\r... */\n  mstore(0x40, 0x80)\n    /* \"contracts/FundMe.sol\":394:450  constructor()\r... */\n  callvalue\n  dup1\n  iszero\n  tag_1\n  jumpi\n  0x00\n  dup1\n  revert\ntag_1:\n  pop\n    /* \"contracts/FundMe.sol\":432:442  msg.sender */\n  caller\n    /* \"contracts/FundMe.sol\":424:429  owner */\n  0x01\n  0x00\n    /* \"contracts/FundMe.sol\":424:442  owner = msg.sender */\n  0x0100\n  exp\n  dup2\n  sload\n  dup2\n  0xffffffffffffffffffffffffffffffffffffffff\n  mul\n  not\n  and\n  swap1\n  dup4\n  0xffffffffffffffffffffffffffffffffffffffff\n  and\n  mul\n  or\n  swap1\n  sstore\n  pop\n    /* \"contracts/FundMe.sol\":244:1787  contract FundMe\r... */\n  dataSize(sub_0)\n  dup1\n  dataOffset(sub_0)\n  0x00\n  codecopy\n  0x00\n  return\nstop\n\nsub_0: assembly {\n        /* \"contracts/FundMe.sol\":244:1787  contract FundMe\r... */\n      mstore(0x40, 0x80)\n      jumpi(tag_1, lt(calldatasize, 0x04))\n      shr(0xe0, calldataload(0x00))\n      dup1\n      0x0d8e6e2c\n      eq\n      tag_2\n      jumpi\n      dup1\n      0x0fdb1c10\n      eq\n      tag_3\n      jumpi\n      dup1\n      0x3e47d6f3\n      eq\n      tag_4\n      jumpi\n      dup1\n      0x6e5b6b28\n      eq\n      tag_5\n      jumpi\n      dup1\n      0x98d5fdca\n      eq\n      tag_6\n      jumpi\n      dup1\n      0xb60d4288\n      eq\n      tag_7\n      jumpi\n    tag_1:\n      0x00\n      dup1\n      revert\n        /* \"contracts/FundMe.sol\":696:909  function getVersion() public view returns(uint256)\r... */\n    tag_2:\n      callvalue\n      dup1\n      iszero\n      tag_8\n      jumpi\n      0x00\n      dup1\n      revert\n    tag_8:\n      pop\n      tag_9\n      tag_10\n      jump\t// in\n    tag_9:\n      mload(0x40)\n      tag_11\n      swap2\n      swap1\n      tag_12\n      jump\t// in\n    tag_11:\n      mload(0x40)\n      dup1\n      swap2\n      sub\n      swap1\n      return\n        /* \"contracts/FundMe.sol\":1609:1784  function withDraw() payable public\r... */\n    tag_3:\n      tag_13\n      tag_14\n      jump\t// in\n    tag_13:\n      stop\n        /* \"contracts/FundMe.sol\":311:367  mapping(address => uint256) public addressToAmountFunded */\n    tag_4:\n      callvalue\n      dup1\n      iszero\n      tag_15\n      jumpi\n      0x00\n      dup1\n      revert\n    tag_15:\n      pop\n      tag_16\n      0x04\n      dup1\n      calldatasize\n      sub\n      dup2\n      add\n      swap1\n      tag_17\n      swap2\n      swap1\n      tag_18\n      jump\t// in\n    tag_17:\n      tag_19\n      jump\t// in\n    tag_16:\n      mload(0x40)\n      tag_20\n      swap2\n      swap1\n      tag_12\n      jump\t// in\n    tag_20:\n      mload(0x40)\n      dup1\n      swap2\n      sub\n      swap1\n      return\n        /* \"contracts/FundMe.sol\":1363:1601  function getConversionRate(uint256 _ethAmount) public view returns(uint256)\r... */\n    tag_5:\n      callvalue\n      dup1\n      iszero\n      tag_21\n      jumpi\n      0x00\n      dup1\n      revert\n    tag_21:\n      pop\n      tag_22\n      0x04\n      dup1\n      calldatasize\n      sub\n      dup2\n      add\n      swap1\n      tag_23\n      swap2\n      swap1\n      tag_24\n      jump\t// in\n    tag_23:\n      tag_25\n      jump\t// in\n    tag_22:\n      mload(0x40)\n      tag_26\n      swap2\n      swap1\n      tag_12\n      jump\t// in\n    tag_26:\n      mload(0x40)\n      dup1\n      swap2\n      sub\n      swap1\n      return\n        /* \"contracts/FundMe.sol\":917:1355  function getPrice() public view returns(uint256)\r... */\n    tag_6:\n      callvalue\n      dup1\n      iszero\n      tag_27\n      jumpi\n      0x00\n      dup1\n      revert\n    tag_27:\n      pop\n      tag_28\n      tag_29\n      jump\t// in\n    tag_28:\n      mload(0x40)\n      tag_30\n      swap2\n      swap1\n      tag_12\n      jump\t// in\n    tag_30:\n      mload(0x40)\n      dup1\n      swap2\n      sub\n      swap1\n      return\n        /* \"contracts/FundMe.sol\":456:688  function fund() public payable\r... */\n    tag_7:\n      tag_31\n      tag_32\n      jump\t// in\n    tag_31:\n      stop\n        /* \"contracts/FundMe.sol\":696:909  function getVersion() public view returns(uint256)\r... */\n    tag_10:\n        /* \"contracts/FundMe.sol\":738:745  uint256 */\n      0x00\n        /* \"contracts/FundMe.sol\":763:794  AggregatorV3Interface pricefeed */\n      dup1\n        /* \"contracts/FundMe.sol\":819:861  0xD4a33860578De61DBAbDc8BFdb98FD742fA7028e */\n      0xd4a33860578de61dbabdc8bfdb98fd742fa7028e\n        /* \"contracts/FundMe.sol\":763:862  AggregatorV3Interface pricefeed = AggregatorV3Interface(0xD4a33860578De61DBAbDc8BFdb98FD742fA7028e) */\n      swap1\n      pop\n        /* \"contracts/FundMe.sol\":880:889  pricefeed */\n      dup1\n        /* \"contracts/FundMe.sol\":880:897  pricefeed.version */\n      0xffffffffffffffffffffffffffffffffffffffff\n      and\n      0x54fd4d50\n        /* \"contracts/FundMe.sol\":880:899  pricefeed.version() */\n      mload(0x40)\n      dup2\n      0xffffffff\n      and\n      0xe0\n      shl\n      dup2\n      mstore\n      0x04\n      add\n      0x20\n      mload(0x40)\n      dup1\n      dup4\n      sub\n      dup2\n      dup7\n      dup1\n      extcodesize\n      iszero\n      dup1\n      iszero\n      tag_34\n      jumpi\n      0x00\n      dup1\n      revert\n    tag_34:\n      pop\n      gas\n      staticcall\n      iszero\n      dup1\n      iszero\n      tag_36\n      jumpi\n      returndatasize\n      0x00\n      dup1\n      returndatacopy\n      revert(0x00, returndatasize)\n    tag_36:\n      pop\n      pop\n      pop\n      pop\n      mload(0x40)\n      returndatasize\n      not(0x1f)\n      0x1f\n      dup3\n      add\n      and\n      dup3\n      add\n      dup1\n      0x40\n      mstore\n      pop\n      dup2\n      add\n      swap1\n      tag_37\n      swap2\n      swap1\n      tag_38\n      jump\t// in\n    tag_37:\n        /* \"contracts/FundMe.sol\":873:899  return pricefeed.version() */\n      swap2\n      pop\n      pop\n        /* \"contracts/FundMe.sol\":696:909  function getVersion() public view returns(uint256)\r... */\n      swap1\n      jump\t// out\n        /* \"contracts/FundMe.sol\":1609:1784  function withDraw() payable public\r... */\n    tag_14:\n        /* \"contracts/FundMe.sol\":1682:1687  owner */\n      0x01\n      0x00\n      swap1\n      sload\n      swap1\n      0x0100\n      exp\n      swap1\n      div\n      0xffffffffffffffffffffffffffffffffffffffff\n      and\n        /* \"contracts/FundMe.sol\":1668:1687  msg.sender == owner */\n      0xffffffffffffffffffffffffffffffffffffffff\n      and\n        /* \"contracts/FundMe.sol\":1668:1678  msg.sender */\n      caller\n        /* \"contracts/FundMe.sol\":1668:1687  msg.sender == owner */\n      0xffffffffffffffffffffffffffffffffffffffff\n      and\n      eq\n        /* \"contracts/FundMe.sol\":1660:1714  require(msg.sender == owner,\"Only owner can withdraw\") */\n      tag_40\n      jumpi\n      mload(0x40)\n      0x08c379a000000000000000000000000000000000000000000000000000000000\n      dup2\n      mstore\n      0x04\n      add\n      tag_41\n      swap1\n      tag_42\n      jump\t// in\n    tag_41:\n      mload(0x40)\n      dup1\n      swap2\n      sub\n      swap1\n      revert\n    tag_40:\n        /* \"contracts/FundMe.sol\":1733:1743  msg.sender */\n      caller\n        /* \"contracts/FundMe.sol\":1725:1753  payable(msg.sender).transfer */\n      0xffffffffffffffffffffffffffffffffffffffff\n      and\n        /* \"contracts/FundMe.sol\":1725:1776  payable(msg.sender).transfer(address(this).balance) */\n      0x08fc\n        /* \"contracts/FundMe.sol\":1754:1775  address(this).balance */\n      selfbalance\n        /* \"contracts/FundMe.sol\":1725:1776  payable(msg.sender).transfer(address(this).balance) */\n      swap1\n      dup2\n      iszero\n      mul\n      swap1\n      mload(0x40)\n      0x00\n      mload(0x40)\n      dup1\n      dup4\n      sub\n      dup2\n      dup6\n      dup9\n      dup9\n      call\n      swap4\n      pop\n      pop\n      pop\n      pop\n      iszero\n      dup1\n      iszero\n      tag_44\n      jumpi\n      returndatasize\n      0x00\n      dup1\n      returndatacopy\n      revert(0x00, returndatasize)\n    tag_44:\n      pop\n        /* \"contracts/FundMe.sol\":1609:1784  function withDraw() payable public\r... */\n      jump\t// out\n        /* \"contracts/FundMe.sol\":311:367  mapping(address => uint256) public addressToAmountFunded */\n    tag_19:\n      mstore(0x20, 0x00)\n      dup1\n      0x00\n      mstore\n      keccak256(0x00, 0x40)\n      0x00\n      swap2\n      pop\n      swap1\n      pop\n      sload\n      dup2\n      jump\t// out\n        /* \"contracts/FundMe.sol\":1363:1601  function getConversionRate(uint256 _ethAmount) public view returns(uint256)\r... */\n    tag_25:\n        /* \"contracts/FundMe.sol\":1430:1437  uint256 */\n      0x00\n        /* \"contracts/FundMe.sol\":1455:1471  uint256 ethPrice */\n      dup1\n        /* \"contracts/FundMe.sol\":1474:1484  getPrice() */\n      tag_46\n        /* \"contracts/FundMe.sol\":1474:1482  getPrice */\n      tag_29\n        /* \"contracts/FundMe.sol\":1474:1484  getPrice() */\n      jump\t// in\n    tag_46:\n        /* \"contracts/FundMe.sol\":1455:1484  uint256 ethPrice = getPrice() */\n      swap1\n      pop\n        /* \"contracts/FundMe.sol\":1495:1517  uint256 ethAmountInUsd */\n      0x00\n        /* \"contracts/FundMe.sol\":1542:1561  1000000000000000000 */\n      0x0de0b6b3a7640000\n        /* \"contracts/FundMe.sol\":1530:1540  _ethAmount */\n      dup5\n        /* \"contracts/FundMe.sol\":1521:1529  ethPrice */\n      dup4\n        /* \"contracts/FundMe.sol\":1521:1540  ethPrice*_ethAmount */\n      tag_47\n      swap2\n      swap1\n      tag_48\n      jump\t// in\n    tag_47:\n        /* \"contracts/FundMe.sol\":1520:1561  (ethPrice*_ethAmount)/1000000000000000000 */\n      tag_49\n      swap2\n      swap1\n      tag_50\n      jump\t// in\n    tag_49:\n        /* \"contracts/FundMe.sol\":1495:1561  uint256 ethAmountInUsd = (ethPrice*_ethAmount)/1000000000000000000 */\n      swap1\n      pop\n        /* \"contracts/FundMe.sol\":1579:1593  ethAmountInUsd */\n      dup1\n        /* \"contracts/FundMe.sol\":1572:1593  return ethAmountInUsd */\n      swap3\n      pop\n      pop\n      pop\n        /* \"contracts/FundMe.sol\":1363:1601  function getConversionRate(uint256 _ethAmount) public view returns(uint256)\r... */\n      swap2\n      swap1\n      pop\n      jump\t// out\n        /* \"contracts/FundMe.sol\":917:1355  function getPrice() public view returns(uint256)\r... */\n    tag_29:\n        /* \"contracts/FundMe.sol\":957:964  uint256 */\n      0x00\n        /* \"contracts/FundMe.sol\":982:1013  AggregatorV3Interface pricefeed */\n      dup1\n        /* \"contracts/FundMe.sol\":1038:1080  0xD4a33860578De61DBAbDc8BFdb98FD742fA7028e */\n      0xd4a33860578de61dbabdc8bfdb98fd742fa7028e\n        /* \"contracts/FundMe.sol\":982:1081  AggregatorV3Interface pricefeed = AggregatorV3Interface(0xD4a33860578De61DBAbDc8BFdb98FD742fA7028e) */\n      swap1\n      pop\n        /* \"contracts/FundMe.sol\":1140:1153  int256 answer */\n      0x00\n        /* \"contracts/FundMe.sol\":1274:1283  pricefeed */\n      dup2\n        /* \"contracts/FundMe.sol\":1274:1299  pricefeed.latestRoundData */\n      0xffffffffffffffffffffffffffffffffffffffff\n      and\n      0xfeaf968c\n        /* \"contracts/FundMe.sol\":1274:1301  pricefeed.latestRoundData() */\n      mload(0x40)\n      dup2\n      0xffffffff\n      and\n      0xe0\n      shl\n      dup2\n      mstore\n      0x04\n      add\n      0xa0\n      mload(0x40)\n      dup1\n      dup4\n      sub\n      dup2\n      dup7\n      dup1\n      extcodesize\n      iszero\n      dup1\n      iszero\n      tag_52\n      jumpi\n      0x00\n      dup1\n      revert\n    tag_52:\n      pop\n      gas\n      staticcall\n      iszero\n      dup1\n      iszero\n      tag_54\n      jumpi\n      returndatasize\n      0x00\n      dup1\n      returndatacopy\n      revert(0x00, returndatasize)\n    tag_54:\n      pop\n      pop\n      pop\n      pop\n      mload(0x40)\n      returndatasize\n      not(0x1f)\n      0x1f\n      dup3\n      add\n      and\n      dup3\n      add\n      dup1\n      0x40\n      mstore\n      pop\n      dup2\n      add\n      swap1\n      tag_55\n      swap2\n      swap1\n      tag_56\n      jump\t// in\n    tag_55:\n        /* \"contracts/FundMe.sol\":1092:1301  (\r... */\n      pop\n      pop\n      pop\n      swap2\n      pop\n      pop\n        /* \"contracts/FundMe.sol\":1334:1345  10000000000 */\n      0x02540be400\n        /* \"contracts/FundMe.sol\":1327:1333  answer */\n      dup2\n        /* \"contracts/FundMe.sol\":1327:1345  answer*10000000000 */\n      tag_57\n      swap2\n      swap1\n      tag_58\n      jump\t// in\n    tag_57:\n        /* \"contracts/FundMe.sol\":1312:1346  return uint256(answer*10000000000) */\n      swap3\n      pop\n      pop\n      pop\n        /* \"contracts/FundMe.sol\":917:1355  function getPrice() public view returns(uint256)\r... */\n      swap1\n      jump\t// out\n        /* \"contracts/FundMe.sol\":456:688  function fund() public payable\r... */\n    tag_32:\n        /* \"contracts/FundMe.sol\":503:521  uint256 minimumUSD */\n      0x00\n        /* \"contracts/FundMe.sol\":524:532  50*10*18 */\n      0x2328\n        /* \"contracts/FundMe.sol\":503:532  uint256 minimumUSD = 50*10*18 */\n      swap1\n      pop\n        /* \"contracts/FundMe.sol\":583:593  minimumUSD */\n      dup1\n        /* \"contracts/FundMe.sol\":551:579  getConversionRate(msg.value) */\n      tag_60\n        /* \"contracts/FundMe.sol\":569:578  msg.value */\n      callvalue\n        /* \"contracts/FundMe.sol\":551:568  getConversionRate */\n      tag_25\n        /* \"contracts/FundMe.sol\":551:579  getConversionRate(msg.value) */\n      jump\t// in\n    tag_60:\n        /* \"contracts/FundMe.sol\":551:593  getConversionRate(msg.value) >= minimumUSD */\n      lt\n      iszero\n        /* \"contracts/FundMe.sol\":543:623  require(getConversionRate(msg.value) >= minimumUSD,\"You need to spend more ETH\") */\n      tag_61\n      jumpi\n      mload(0x40)\n      0x08c379a000000000000000000000000000000000000000000000000000000000\n      dup2\n      mstore\n      0x04\n      add\n      tag_62\n      swap1\n      tag_63\n      jump\t// in\n    tag_62:\n      mload(0x40)\n      dup1\n      swap2\n      sub\n      swap1\n      revert\n    tag_61:\n        /* \"contracts/FundMe.sol\":671:680  msg.value */\n      callvalue\n        /* \"contracts/FundMe.sol\":634:655  addressToAmountFunded */\n      0x00\n        /* \"contracts/FundMe.sol\":634:667  addressToAmountFunded[msg.sender] */\n      dup1\n        /* \"contracts/FundMe.sol\":656:666  msg.sender */\n      caller\n        /* \"contracts/FundMe.sol\":634:667  addressToAmountFunded[msg.sender] */\n      0xffffffffffffffffffffffffffffffffffffffff\n      and\n      0xffffffffffffffffffffffffffffffffffffffff\n      and\n      dup2\n      mstore\n      0x20\n      add\n      swap1\n      dup2\n      mstore\n      0x20\n      add\n      0x00\n      keccak256\n      0x00\n        /* \"contracts/FundMe.sol\":634:680  addressToAmountFunded[msg.sender] += msg.value */\n      dup3\n      dup3\n      sload\n      tag_64\n      swap2\n      swap1\n      tag_65\n      jump\t// in\n    tag_64:\n      swap3\n      pop\n      pop\n      dup2\n      swap1\n      sstore\n      pop\n        /* \"contracts/FundMe.sol\":492:688  {\r... */\n      pop\n        /* \"contracts/FundMe.sol\":456:688  function fund() public payable\r... */\n      jump\t// out\n        /* \"#utility.yul\":7:146   */\n    tag_67:\n        /* \"#utility.yul\":53:58   */\n      0x00\n        /* \"#utility.yul\":91:97   */\n      dup2\n        /* \"#utility.yul\":78:98   */\n      calldataload\n        /* \"#utility.yul\":69:98   */\n      swap1\n      pop\n        /* \"#utility.yul\":107:140   */\n      tag_69\n        /* \"#utility.yul\":134:139   */\n      dup2\n        /* \"#utility.yul\":107:140   */\n      tag_70\n      jump\t// in\n    tag_69:\n        /* \"#utility.yul\":7:146   */\n      swap3\n      swap2\n      pop\n      pop\n      jump\t// out\n        /* \"#utility.yul\":152:293   */\n    tag_71:\n        /* \"#utility.yul\":208:213   */\n      0x00\n        /* \"#utility.yul\":239:245   */\n      dup2\n        /* \"#utility.yul\":233:246   */\n      mload\n        /* \"#utility.yul\":224:246   */\n      swap1\n      pop\n        /* \"#utility.yul\":255:287   */\n      tag_73\n        /* \"#utility.yul\":281:286   */\n      dup2\n        /* \"#utility.yul\":255:287   */\n      tag_74\n      jump\t// in\n    tag_73:\n        /* \"#utility.yul\":152:293   */\n      swap3\n      swap2\n      pop\n      pop\n      jump\t// out\n        /* \"#utility.yul\":299:438   */\n    tag_75:\n        /* \"#utility.yul\":345:350   */\n      0x00\n        /* \"#utility.yul\":383:389   */\n      dup2\n        /* \"#utility.yul\":370:390   */\n      calldataload\n        /* \"#utility.yul\":361:390   */\n      swap1\n      pop\n        /* \"#utility.yul\":399:432   */\n      tag_77\n        /* \"#utility.yul\":426:431   */\n      dup2\n        /* \"#utility.yul\":399:432   */\n      tag_78\n      jump\t// in\n    tag_77:\n        /* \"#utility.yul\":299:438   */\n      swap3\n      swap2\n      pop\n      pop\n      jump\t// out\n        /* \"#utility.yul\":444:587   */\n    tag_79:\n        /* \"#utility.yul\":501:506   */\n      0x00\n        /* \"#utility.yul\":532:538   */\n      dup2\n        /* \"#utility.yul\":526:539   */\n      mload\n        /* \"#utility.yul\":517:539   */\n      swap1\n      pop\n        /* \"#utility.yul\":548:581   */\n      tag_81\n        /* \"#utility.yul\":575:580   */\n      dup2\n        /* \"#utility.yul\":548:581   */\n      tag_78\n      jump\t// in\n    tag_81:\n        /* \"#utility.yul\":444:587   */\n      swap3\n      swap2\n      pop\n      pop\n      jump\t// out\n        /* \"#utility.yul\":593:734   */\n    tag_82:\n        /* \"#utility.yul\":649:654   */\n      0x00\n        /* \"#utility.yul\":680:686   */\n      dup2\n        /* \"#utility.yul\":674:687   */\n      mload\n        /* \"#utility.yul\":665:687   */\n      swap1\n      pop\n        /* \"#utility.yul\":696:728   */\n      tag_84\n        /* \"#utility.yul\":722:727   */\n      dup2\n        /* \"#utility.yul\":696:728   */\n      tag_85\n      jump\t// in\n    tag_84:\n        /* \"#utility.yul\":593:734   */\n      swap3\n      swap2\n      pop\n      pop\n      jump\t// out\n        /* \"#utility.yul\":740:1069   */\n    tag_18:\n        /* \"#utility.yul\":799:805   */\n      0x00\n        /* \"#utility.yul\":848:850   */\n      0x20\n        /* \"#utility.yul\":836:845   */\n      dup3\n        /* \"#utility.yul\":827:834   */\n      dup5\n        /* \"#utility.yul\":823:846   */\n      sub\n        /* \"#utility.yul\":819:851   */\n      slt\n        /* \"#utility.yul\":816:935   */\n      iszero\n      tag_87\n      jumpi\n        /* \"#utility.yul\":854:933   */\n      tag_88\n      tag_89\n      jump\t// in\n    tag_88:\n        /* \"#utility.yul\":816:935   */\n    tag_87:\n        /* \"#utility.yul\":974:975   */\n      0x00\n        /* \"#utility.yul\":999:1052   */\n      tag_90\n        /* \"#utility.yul\":1044:1051   */\n      dup5\n        /* \"#utility.yul\":1035:1041   */\n      dup3\n        /* \"#utility.yul\":1024:1033   */\n      dup6\n        /* \"#utility.yul\":1020:1042   */\n      add\n        /* \"#utility.yul\":999:1052   */\n      tag_67\n      jump\t// in\n    tag_90:\n        /* \"#utility.yul\":989:1052   */\n      swap2\n      pop\n        /* \"#utility.yul\":945:1062   */\n      pop\n        /* \"#utility.yul\":740:1069   */\n      swap3\n      swap2\n      pop\n      pop\n      jump\t// out\n        /* \"#utility.yul\":1075:1404   */\n    tag_24:\n        /* \"#utility.yul\":1134:1140   */\n      0x00\n        /* \"#utility.yul\":1183:1185   */\n      0x20\n        /* \"#utility.yul\":1171:1180   */\n      dup3\n        /* \"#utility.yul\":1162:1169   */\n      dup5\n        /* \"#utility.yul\":1158:1181   */\n      sub\n        /* \"#utility.yul\":1154:1186   */\n      slt\n        /* \"#utility.yul\":1151:1270   */\n      iszero\n      tag_92\n      jumpi\n        /* \"#utility.yul\":1189:1268   */\n      tag_93\n      tag_89\n      jump\t// in\n    tag_93:\n        /* \"#utility.yul\":1151:1270   */\n    tag_92:\n        /* \"#utility.yul\":1309:1310   */\n      0x00\n        /* \"#utility.yul\":1334:1387   */\n      tag_94\n        /* \"#utility.yul\":1379:1386   */\n      dup5\n        /* \"#utility.yul\":1370:1376   */\n      dup3\n        /* \"#utility.yul\":1359:1368   */\n      dup6\n        /* \"#utility.yul\":1355:1377   */\n      add\n        /* \"#utility.yul\":1334:1387   */\n      tag_75\n      jump\t// in\n    tag_94:\n        /* \"#utility.yul\":1324:1387   */\n      swap2\n      pop\n        /* \"#utility.yul\":1280:1397   */\n      pop\n        /* \"#utility.yul\":1075:1404   */\n      swap3\n      swap2\n      pop\n      pop\n      jump\t// out\n        /* \"#utility.yul\":1410:1761   */\n    tag_38:\n        /* \"#utility.yul\":1480:1486   */\n      0x00\n        /* \"#utility.yul\":1529:1531   */\n      0x20\n        /* \"#utility.yul\":1517:1526   */\n      dup3\n        /* \"#utility.yul\":1508:1515   */\n      dup5\n        /* \"#utility.yul\":1504:1527   */\n      sub\n        /* \"#utility.yul\":1500:1532   */\n      slt\n        /* \"#utility.yul\":1497:1616   */\n      iszero\n      tag_96\n      jumpi\n        /* \"#utility.yul\":1535:1614   */\n      tag_97\n      tag_89\n      jump\t// in\n    tag_97:\n        /* \"#utility.yul\":1497:1616   */\n    tag_96:\n        /* \"#utility.yul\":1655:1656   */\n      0x00\n        /* \"#utility.yul\":1680:1744   */\n      tag_98\n        /* \"#utility.yul\":1736:1743   */\n      dup5\n        /* \"#utility.yul\":1727:1733   */\n      dup3\n        /* \"#utility.yul\":1716:1725   */\n      dup6\n        /* \"#utility.yul\":1712:1734   */\n      add\n        /* \"#utility.yul\":1680:1744   */\n      tag_79\n      jump\t// in\n    tag_98:\n        /* \"#utility.yul\":1670:1744   */\n      swap2\n      pop\n        /* \"#utility.yul\":1626:1754   */\n      pop\n        /* \"#utility.yul\":1410:1761   */\n      swap3\n      swap2\n      pop\n      pop\n      jump\t// out\n        /* \"#utility.yul\":1767:2738   */\n    tag_56:\n        /* \"#utility.yul\":1870:1876   */\n      0x00\n        /* \"#utility.yul\":1878:1884   */\n      dup1\n        /* \"#utility.yul\":1886:1892   */\n      0x00\n        /* \"#utility.yul\":1894:1900   */\n      dup1\n        /* \"#utility.yul\":1902:1908   */\n      0x00\n        /* \"#utility.yul\":1951:1954   */\n      0xa0\n        /* \"#utility.yul\":1939:1948   */\n      dup7\n        /* \"#utility.yul\":1930:1937   */\n      dup9\n        /* \"#utility.yul\":1926:1949   */\n      sub\n        /* \"#utility.yul\":1922:1955   */\n      slt\n        /* \"#utility.yul\":1919:2039   */\n      iszero\n      tag_100\n      jumpi\n        /* \"#utility.yul\":1958:2037   */\n      tag_101\n      tag_89\n      jump\t// in\n    tag_101:\n        /* \"#utility.yul\":1919:2039   */\n    tag_100:\n        /* \"#utility.yul\":2078:2079   */\n      0x00\n        /* \"#utility.yul\":2103:2166   */\n      tag_102\n        /* \"#utility.yul\":2158:2165   */\n      dup9\n        /* \"#utility.yul\":2149:2155   */\n      dup3\n        /* \"#utility.yul\":2138:2147   */\n      dup10\n        /* \"#utility.yul\":2134:2156   */\n      add\n        /* \"#utility.yul\":2103:2166   */\n      tag_82\n      jump\t// in\n    tag_102:\n        /* \"#utility.yul\":2093:2166   */\n      swap6\n      pop\n        /* \"#utility.yul\":2049:2176   */\n      pop\n        /* \"#utility.yul\":2215:2217   */\n      0x20\n        /* \"#utility.yul\":2241:2304   */\n      tag_103\n        /* \"#utility.yul\":2296:2303   */\n      dup9\n        /* \"#utility.yul\":2287:2293   */\n      dup3\n        /* \"#utility.yul\":2276:2285   */\n      dup10\n        /* \"#utility.yul\":2272:2294   */\n      add\n        /* \"#utility.yul\":2241:2304   */\n      tag_71\n      jump\t// in\n    tag_103:\n        /* \"#utility.yul\":2231:2304   */\n      swap5\n      pop\n        /* \"#utility.yul\":2186:2314   */\n      pop\n        /* \"#utility.yul\":2353:2355   */\n      0x40\n        /* \"#utility.yul\":2379:2443   */\n      tag_104\n        /* \"#utility.yul\":2435:2442   */\n      dup9\n        /* \"#utility.yul\":2426:2432   */\n      dup3\n        /* \"#utility.yul\":2415:2424   */\n      dup10\n        /* \"#utility.yul\":2411:2433   */\n      add\n        /* \"#utility.yul\":2379:2443   */\n      tag_79\n      jump\t// in\n    tag_104:\n        /* \"#utility.yul\":2369:2443   */\n      swap4\n      pop\n        /* \"#utility.yul\":2324:2453   */\n      pop\n        /* \"#utility.yul\":2492:2494   */\n      0x60\n        /* \"#utility.yul\":2518:2582   */\n      tag_105\n        /* \"#utility.yul\":2574:2581   */\n      dup9\n        /* \"#utility.yul\":2565:2571   */\n      dup3\n        /* \"#utility.yul\":2554:2563   */\n      dup10\n        /* \"#utility.yul\":2550:2572   */\n      add\n        /* \"#utility.yul\":2518:2582   */\n      tag_79\n      jump\t// in\n    tag_105:\n        /* \"#utility.yul\":2508:2582   */\n      swap3\n      pop\n        /* \"#utility.yul\":2463:2592   */\n      pop\n        /* \"#utility.yul\":2631:2634   */\n      0x80\n        /* \"#utility.yul\":2658:2721   */\n      tag_106\n        /* \"#utility.yul\":2713:2720   */\n      dup9\n        /* \"#utility.yul\":2704:2710   */\n      dup3\n        /* \"#utility.yul\":2693:2702   */\n      dup10\n        /* \"#utility.yul\":2689:2711   */\n      add\n        /* \"#utility.yul\":2658:2721   */\n      tag_82\n      jump\t// in\n    tag_106:\n        /* \"#utility.yul\":2648:2721   */\n      swap2\n      pop\n        /* \"#utility.yul\":2602:2731   */\n      pop\n        /* \"#utility.yul\":1767:2738   */\n      swap3\n      swap6\n      pop\n      swap3\n      swap6\n      swap1\n      swap4\n      pop\n      jump\t// out\n        /* \"#utility.yul\":2744:3110   */\n    tag_107:\n        /* \"#utility.yul\":2886:2889   */\n      0x00\n        /* \"#utility.yul\":2907:2974   */\n      tag_109\n        /* \"#utility.yul\":2971:2973   */\n      0x17\n        /* \"#utility.yul\":2966:2969   */\n      dup4\n        /* \"#utility.yul\":2907:2974   */\n      tag_110\n      jump\t// in\n    tag_109:\n        /* \"#utility.yul\":2900:2974   */\n      swap2\n      pop\n        /* \"#utility.yul\":2983:3076   */\n      tag_111\n        /* \"#utility.yul\":3072:3075   */\n      dup3\n        /* \"#utility.yul\":2983:3076   */\n      tag_112\n      jump\t// in\n    tag_111:\n        /* \"#utility.yul\":3101:3103   */\n      0x20\n        /* \"#utility.yul\":3096:3099   */\n      dup3\n        /* \"#utility.yul\":3092:3104   */\n      add\n        /* \"#utility.yul\":3085:3104   */\n      swap1\n      pop\n        /* \"#utility.yul\":2744:3110   */\n      swap2\n      swap1\n      pop\n      jump\t// out\n        /* \"#utility.yul\":3116:3482   */\n    tag_113:\n        /* \"#utility.yul\":3258:3261   */\n      0x00\n        /* \"#utility.yul\":3279:3346   */\n      tag_115\n        /* \"#utility.yul\":3343:3345   */\n      0x1a\n        /* \"#utility.yul\":3338:3341   */\n      dup4\n        /* \"#utility.yul\":3279:3346   */\n      tag_110\n      jump\t// in\n    tag_115:\n        /* \"#utility.yul\":3272:3346   */\n      swap2\n      pop\n        /* \"#utility.yul\":3355:3448   */\n      tag_116\n        /* \"#utility.yul\":3444:3447   */\n      dup3\n        /* \"#utility.yul\":3355:3448   */\n      tag_117\n      jump\t// in\n    tag_116:\n        /* \"#utility.yul\":3473:3475   */\n      0x20\n        /* \"#utility.yul\":3468:3471   */\n      dup3\n        /* \"#utility.yul\":3464:3476   */\n      add\n        /* \"#utility.yul\":3457:3476   */\n      swap1\n      pop\n        /* \"#utility.yul\":3116:3482   */\n      swap2\n      swap1\n      pop\n      jump\t// out\n        /* \"#utility.yul\":3488:3606   */\n    tag_118:\n        /* \"#utility.yul\":3575:3599   */\n      tag_120\n        /* \"#utility.yul\":3593:3598   */\n      dup2\n        /* \"#utility.yul\":3575:3599   */\n      tag_121\n      jump\t// in\n    tag_120:\n        /* \"#utility.yul\":3570:3573   */\n      dup3\n        /* \"#utility.yul\":3563:3600   */\n      mstore\n        /* \"#utility.yul\":3488:3606   */\n      pop\n      pop\n      jump\t// out\n        /* \"#utility.yul\":3612:4031   */\n    tag_42:\n        /* \"#utility.yul\":3778:3782   */\n      0x00\n        /* \"#utility.yul\":3816:3818   */\n      0x20\n        /* \"#utility.yul\":3805:3814   */\n      dup3\n        /* \"#utility.yul\":3801:3819   */\n      add\n        /* \"#utility.yul\":3793:3819   */\n      swap1\n      pop\n        /* \"#utility.yul\":3865:3874   */\n      dup2\n        /* \"#utility.yul\":3859:3863   */\n      dup2\n        /* \"#utility.yul\":3855:3875   */\n      sub\n        /* \"#utility.yul\":3851:3852   */\n      0x00\n        /* \"#utility.yul\":3840:3849   */\n      dup4\n        /* \"#utility.yul\":3836:3853   */\n      add\n        /* \"#utility.yul\":3829:3876   */\n      mstore\n        /* \"#utility.yul\":3893:4024   */\n      tag_123\n        /* \"#utility.yul\":4019:4023   */\n      dup2\n        /* \"#utility.yul\":3893:4024   */\n      tag_107\n      jump\t// in\n    tag_123:\n        /* \"#utility.yul\":3885:4024   */\n      swap1\n      pop\n        /* \"#utility.yul\":3612:4031   */\n      swap2\n      swap1\n      pop\n      jump\t// out\n        /* \"#utility.yul\":4037:4456   */\n    tag_63:\n        /* \"#utility.yul\":4203:4207   */\n      0x00\n        /* \"#utility.yul\":4241:4243   */\n      0x20\n        /* \"#utility.yul\":4230:4239   */\n      dup3\n        /* \"#utility.yul\":4226:4244   */\n      add\n        /* \"#utility.yul\":4218:4244   */\n      swap1\n      pop\n        /* \"#utility.yul\":4290:4299   */\n      dup2\n        /* \"#utility.yul\":4284:4288   */\n      dup2\n        /* \"#utility.yul\":4280:4300   */\n      sub\n        /* \"#utility.yul\":4276:4277   */\n      0x00\n        /* \"#utility.yul\":4265:4274   */\n      dup4\n        /* \"#utility.yul\":4261:4278   */\n      add\n        /* \"#utility.yul\":4254:4301   */\n      mstore\n        /* \"#utility.yul\":4318:4449   */\n      tag_125\n        /* \"#utility.yul\":4444:4448   */\n      dup2\n        /* \"#utility.yul\":4318:4449   */\n      tag_113\n      jump\t// in\n    tag_125:\n        /* \"#utility.yul\":4310:4449   */\n      swap1\n      pop\n        /* \"#utility.yul\":4037:4456   */\n      swap2\n      swap1\n      pop\n      jump\t// out\n        /* \"#utility.yul\":4462:4684   */\n    tag_12:\n        /* \"#utility.yul\":4555:4559   */\n      0x00\n        /* \"#utility.yul\":4593:4595   */\n      0x20\n        /* \"#utility.yul\":4582:4591   */\n      dup3\n        /* \"#utility.yul\":4578:4596   */\n      add\n        /* \"#utility.yul\":4570:4596   */\n      swap1\n      pop\n        /* \"#utility.yul\":4606:4677   */\n      tag_127\n        /* \"#utility.yul\":4674:4675   */\n      0x00\n        /* \"#utility.yul\":4663:4672   */\n      dup4\n        /* \"#utility.yul\":4659:4676   */\n      add\n        /* \"#utility.yul\":4650:4656   */\n      dup5\n        /* \"#utility.yul\":4606:4677   */\n      tag_118\n      jump\t// in\n    tag_127:\n        /* \"#utility.yul\":4462:4684   */\n      swap3\n      swap2\n      pop\n      pop\n      jump\t// out\n        /* \"#utility.yul\":4771:4940   */\n    tag_110:\n        /* \"#utility.yul\":4855:4866   */\n      0x00\n        /* \"#utility.yul\":4889:4895   */\n      dup3\n        /* \"#utility.yul\":4884:4887   */\n      dup3\n        /* \"#utility.yul\":4877:4896   */\n      mstore\n        /* \"#utility.yul\":4929:4933   */\n      0x20\n        /* \"#utility.yul\":4924:4927   */\n      dup3\n        /* \"#utility.yul\":4920:4934   */\n      add\n        /* \"#utility.yul\":4905:4934   */\n      swap1\n      pop\n        /* \"#utility.yul\":4771:4940   */\n      swap3\n      swap2\n      pop\n      pop\n      jump\t// out\n        /* \"#utility.yul\":4946:5251   */\n    tag_65:\n        /* \"#utility.yul\":4986:4989   */\n      0x00\n        /* \"#utility.yul\":5005:5025   */\n      tag_132\n        /* \"#utility.yul\":5023:5024   */\n      dup3\n        /* \"#utility.yul\":5005:5025   */\n      tag_121\n      jump\t// in\n    tag_132:\n        /* \"#utility.yul\":5000:5025   */\n      swap2\n      pop\n        /* \"#utility.yul\":5039:5059   */\n      tag_133\n        /* \"#utility.yul\":5057:5058   */\n      dup4\n        /* \"#utility.yul\":5039:5059   */\n      tag_121\n      jump\t// in\n    tag_133:\n        /* \"#utility.yul\":5034:5059   */\n      swap3\n      pop\n        /* \"#utility.yul\":5193:5194   */\n      dup3\n        /* \"#utility.yul\":5125:5191   */\n      0xffffffffffffffffffffffffffffffffffffffffffffffffffffffffffffffff\n        /* \"#utility.yul\":5121:5195   */\n      sub\n        /* \"#utility.yul\":5118:5119   */\n      dup3\n        /* \"#utility.yul\":5115:5196   */\n      gt\n        /* \"#utility.yul\":5112:5219   */\n      iszero\n      tag_134\n      jumpi\n        /* \"#utility.yul\":5199:5217   */\n      tag_135\n      tag_136\n      jump\t// in\n    tag_135:\n        /* \"#utility.yul\":5112:5219   */\n    tag_134:\n        /* \"#utility.yul\":5243:5244   */\n      dup3\n        /* \"#utility.yul\":5240:5241   */\n      dup3\n        /* \"#utility.yul\":5236:5245   */\n      add\n        /* \"#utility.yul\":5229:5245   */\n      swap1\n      pop\n        /* \"#utility.yul\":4946:5251   */\n      swap3\n      swap2\n      pop\n      pop\n      jump\t// out\n        /* \"#utility.yul\":5257:5442   */\n    tag_50:\n        /* \"#utility.yul\":5297:5298   */\n      0x00\n        /* \"#utility.yul\":5314:5334   */\n      tag_138\n        /* \"#utility.yul\":5332:5333   */\n      dup3\n        /* \"#utility.yul\":5314:5334   */\n      tag_121\n      jump\t// in\n    tag_138:\n        /* \"#utility.yul\":5309:5334   */\n      swap2\n      pop\n        /* \"#utility.yul\":5348:5368   */\n      tag_139\n        /* \"#utility.yul\":5366:5367   */\n      dup4\n        /* \"#utility.yul\":5348:5368   */\n      tag_121\n      jump\t// in\n    tag_139:\n        /* \"#utility.yul\":5343:5368   */\n      swap3\n      pop\n        /* \"#utility.yul\":5387:5388   */\n      dup3\n        /* \"#utility.yul\":5377:5412   */\n      tag_140\n      jumpi\n        /* \"#utility.yul\":5392:5410   */\n      tag_141\n      tag_142\n      jump\t// in\n    tag_141:\n        /* \"#utility.yul\":5377:5412   */\n    tag_140:\n        /* \"#utility.yul\":5434:5435   */\n      dup3\n        /* \"#utility.yul\":5431:5432   */\n      dup3\n        /* \"#utility.yul\":5427:5436   */\n      div\n        /* \"#utility.yul\":5422:5436   */\n      swap1\n      pop\n        /* \"#utility.yul\":5257:5442   */\n      swap3\n      swap2\n      pop\n      pop\n      jump\t// out\n        /* \"#utility.yul\":5448:6439   */\n    tag_58:\n        /* \"#utility.yul\":5487:5494   */\n      0x00\n        /* \"#utility.yul\":5510:5529   */\n      tag_144\n        /* \"#utility.yul\":5527:5528   */\n      dup3\n        /* \"#utility.yul\":5510:5529   */\n      tag_145\n      jump\t// in\n    tag_144:\n        /* \"#utility.yul\":5505:5529   */\n      swap2\n      pop\n        /* \"#utility.yul\":5543:5562   */\n      tag_146\n        /* \"#utility.yul\":5560:5561   */\n      dup4\n        /* \"#utility.yul\":5543:5562   */\n      tag_145\n      jump\t// in\n    tag_146:\n        /* \"#utility.yul\":5538:5562   */\n      swap3\n      pop\n        /* \"#utility.yul\":5744:5745   */\n      dup3\n        /* \"#utility.yul\":5676:5742   */\n      0x7fffffffffffffffffffffffffffffffffffffffffffffffffffffffffffffff\n        /* \"#utility.yul\":5672:5746   */\n      div\n        /* \"#utility.yul\":5669:5670   */\n      dup3\n        /* \"#utility.yul\":5666:5747   */\n      gt\n        /* \"#utility.yul\":5661:5662   */\n      0x00\n        /* \"#utility.yul\":5658:5659   */\n      dup5\n        /* \"#utility.yul\":5654:5663   */\n      sgt\n        /* \"#utility.yul\":5650:5651   */\n      0x00\n        /* \"#utility.yul\":5647:5648   */\n      dup5\n        /* \"#utility.yul\":5643:5652   */\n      sgt\n        /* \"#utility.yul\":5639:5664   */\n      and\n        /* \"#utility.yul\":5635:5748   */\n      and\n        /* \"#utility.yul\":5632:5771   */\n      iszero\n      tag_147\n      jumpi\n        /* \"#utility.yul\":5751:5769   */\n      tag_148\n      tag_136\n      jump\t// in\n    tag_148:\n        /* \"#utility.yul\":5632:5771   */\n    tag_147:\n        /* \"#utility.yul\":5955:5956   */\n      dup2\n        /* \"#utility.yul\":5887:5953   */\n      0x8000000000000000000000000000000000000000000000000000000000000000\n        /* \"#utility.yul\":5882:5957   */\n      sdiv\n        /* \"#utility.yul\":5879:5880   */\n      dup4\n        /* \"#utility.yul\":5875:5958   */\n      slt\n        /* \"#utility.yul\":5870:5871   */\n      0x00\n        /* \"#utility.yul\":5867:5868   */\n      dup5\n        /* \"#utility.yul\":5863:5872   */\n      slt\n        /* \"#utility.yul\":5859:5860   */\n      0x00\n        /* \"#utility.yul\":5856:5857   */\n      dup5\n        /* \"#utility.yul\":5852:5861   */\n      sgt\n        /* \"#utility.yul\":5848:5873   */\n      and\n        /* \"#utility.yul\":5844:5959   */\n      and\n        /* \"#utility.yul\":5841:5982   */\n      iszero\n      tag_149\n      jumpi\n        /* \"#utility.yul\":5962:5980   */\n      tag_150\n      tag_136\n      jump\t// in\n    tag_150:\n        /* \"#utility.yul\":5841:5982   */\n    tag_149:\n        /* \"#utility.yul\":6166:6167   */\n      dup3\n        /* \"#utility.yul\":6098:6164   */\n      0x8000000000000000000000000000000000000000000000000000000000000000\n        /* \"#utility.yul\":6093:6168   */\n      sdiv\n        /* \"#utility.yul\":6090:6091   */\n      dup3\n        /* \"#utility.yul\":6086:6169   */\n      slt\n        /* \"#utility.yul\":6081:6082   */\n      0x00\n        /* \"#utility.yul\":6078:6079   */\n      dup5\n        /* \"#utility.yul\":6074:6083   */\n      sgt\n        /* \"#utility.yul\":6070:6071   */\n      0x00\n        /* \"#utility.yul\":6067:6068   */\n      dup5\n        /* \"#utility.yul\":6063:6072   */\n      slt\n        /* \"#utility.yul\":6059:6084   */\n      and\n        /* \"#utility.yul\":6055:6170   */\n      and\n        /* \"#utility.yul\":6052:6193   */\n      iszero\n      tag_151\n      jumpi\n        /* \"#utility.yul\":6173:6191   */\n      tag_152\n      tag_136\n      jump\t// in\n    tag_152:\n        /* \"#utility.yul\":6052:6193   */\n    tag_151:\n        /* \"#utility.yul\":6376:6377   */\n      dup3\n        /* \"#utility.yul\":6308:6374   */\n      0x7fffffffffffffffffffffffffffffffffffffffffffffffffffffffffffffff\n        /* \"#utility.yul\":6303:6378   */\n      sdiv\n        /* \"#utility.yul\":6300:6301   */\n      dup3\n        /* \"#utility.yul\":6296:6379   */\n      slt\n        /* \"#utility.yul\":6291:6292   */\n      0x00\n        /* \"#utility.yul\":6288:6289   */\n      dup5\n        /* \"#utility.yul\":6284:6293   */\n      slt\n        /* \"#utility.yul\":6280:6281   */\n      0x00\n        /* \"#utility.yul\":6277:6278   */\n      dup5\n        /* \"#utility.yul\":6273:6282   */\n      slt\n        /* \"#utility.yul\":6269:6294   */\n      and\n        /* \"#utility.yul\":6265:6380   */\n      and\n        /* \"#utility.yul\":6262:6403   */\n      iszero\n      tag_153\n      jumpi\n        /* \"#utility.yul\":6383:6401   */\n      tag_154\n      tag_136\n      jump\t// in\n    tag_154:\n        /* \"#utility.yul\":6262:6403   */\n    tag_153:\n        /* \"#utility.yul\":6431:6432   */\n      dup3\n        /* \"#utility.yul\":6428:6429   */\n      dup3\n        /* \"#utility.yul\":6424:6433   */\n      mul\n        /* \"#utility.yul\":6413:6433   */\n      swap1\n      pop\n        /* \"#utility.yul\":5448:6439   */\n      swap3\n      swap2\n      pop\n      pop\n      jump\t// out\n        /* \"#utility.yul\":6445:6793   */\n    tag_48:\n        /* \"#utility.yul\":6485:6492   */\n      0x00\n        /* \"#utility.yul\":6508:6528   */\n      tag_156\n        /* \"#utility.yul\":6526:6527   */\n      dup3\n        /* \"#utility.yul\":6508:6528   */\n      tag_121\n      jump\t// in\n    tag_156:\n        /* \"#utility.yul\":6503:6528   */\n      swap2\n      pop\n        /* \"#utility.yul\":6542:6562   */\n      tag_157\n        /* \"#utility.yul\":6560:6561   */\n      dup4\n        /* \"#utility.yul\":6542:6562   */\n      tag_121\n      jump\t// in\n    tag_157:\n        /* \"#utility.yul\":6537:6562   */\n      swap3\n      pop\n        /* \"#utility.yul\":6730:6731   */\n      dup2\n        /* \"#utility.yul\":6662:6728   */\n      0xffffffffffffffffffffffffffffffffffffffffffffffffffffffffffffffff\n        /* \"#utility.yul\":6658:6732   */\n      div\n        /* \"#utility.yul\":6655:6656   */\n      dup4\n        /* \"#utility.yul\":6652:6733   */\n      gt\n        /* \"#utility.yul\":6647:6648   */\n      dup3\n        /* \"#utility.yul\":6640:6649   */\n      iszero\n        /* \"#utility.yul\":6633:6650   */\n      iszero\n        /* \"#utility.yul\":6629:6734   */\n      and\n        /* \"#utility.yul\":6626:6757   */\n      iszero\n      tag_158\n      jumpi\n        /* \"#utility.yul\":6737:6755   */\n      tag_159\n      tag_136\n      jump\t// in\n    tag_159:\n        /* \"#utility.yul\":6626:6757   */\n    tag_158:\n        /* \"#utility.yul\":6785:6786   */\n      dup3\n        /* \"#utility.yul\":6782:6783   */\n      dup3\n        /* \"#utility.yul\":6778:6787   */\n      mul\n        /* \"#utility.yul\":6767:6787   */\n      swap1\n      pop\n        /* \"#utility.yul\":6445:6793   */\n      swap3\n      swap2\n      pop\n      pop\n      jump\t// out\n        /* \"#utility.yul\":6799:6895   */\n    tag_160:\n        /* \"#utility.yul\":6836:6843   */\n      0x00\n        /* \"#utility.yul\":6865:6889   */\n      tag_162\n        /* \"#utility.yul\":6883:6888   */\n      dup3\n        /* \"#utility.yul\":6865:6889   */\n      tag_163\n      jump\t// in\n    tag_162:\n        /* \"#utility.yul\":6854:6889   */\n      swap1\n      pop\n        /* \"#utility.yul\":6799:6895   */\n      swap2\n      swap1\n      pop\n      jump\t// out\n        /* \"#utility.yul\":6901:6977   */\n    tag_145:\n        /* \"#utility.yul\":6937:6944   */\n      0x00\n        /* \"#utility.yul\":6966:6971   */\n      dup2\n        /* \"#utility.yul\":6955:6971   */\n      swap1\n      pop\n        /* \"#utility.yul\":6901:6977   */\n      swap2\n      swap1\n      pop\n      jump\t// out\n        /* \"#utility.yul\":6983:7109   */\n    tag_163:\n        /* \"#utility.yul\":7020:7027   */\n      0x00\n        /* \"#utility.yul\":7060:7102   */\n      0xffffffffffffffffffffffffffffffffffffffff\n        /* \"#utility.yul\":7053:7058   */\n      dup3\n        /* \"#utility.yul\":7049:7103   */\n      and\n        /* \"#utility.yul\":7038:7103   */\n      swap1\n      pop\n        /* \"#utility.yul\":6983:7109   */\n      swap2\n      swap1\n      pop\n      jump\t// out\n        /* \"#utility.yul\":7115:7192   */\n    tag_121:\n        /* \"#utility.yul\":7152:7159   */\n      0x00\n        /* \"#utility.yul\":7181:7186   */\n      dup2\n        /* \"#utility.yul\":7170:7186   */\n      swap1\n      pop\n        /* \"#utility.yul\":7115:7192   */\n      swap2\n      swap1\n      pop\n      jump\t// out\n        /* \"#utility.yul\":7198:7303   */\n    tag_167:\n        /* \"#utility.yul\":7234:7241   */\n      0x00\n        /* \"#utility.yul\":7274:7296   */\n      0xffffffffffffffffffff\n        /* \"#utility.yul\":7267:7272   */\n      dup3\n        /* \"#utility.yul\":7263:7297   */\n      and\n        /* \"#utility.yul\":7252:7297   */\n      swap1\n      pop\n        /* \"#utility.yul\":7198:7303   */\n      swap2\n      swap1\n      pop\n      jump\t// out\n        /* \"#utility.yul\":7309:7489   */\n    tag_136:\n        /* \"#utility.yul\":7357:7434   */\n      0x4e487b7100000000000000000000000000000000000000000000000000000000\n        /* \"#utility.yul\":7354:7355   */\n      0x00\n        /* \"#utility.yul\":7347:7435   */\n      mstore\n        /* \"#utility.yul\":7454:7458   */\n      0x11\n        /* \"#utility.yul\":7451:7452   */\n      0x04\n        /* \"#utility.yul\":7444:7459   */\n      mstore\n        /* \"#utility.yul\":7478:7482   */\n      0x24\n        /* \"#utility.yul\":7475:7476   */\n      0x00\n        /* \"#utility.yul\":7468:7483   */\n      revert\n        /* \"#utility.yul\":7495:7675   */\n    tag_142:\n        /* \"#utility.yul\":7543:7620   */\n      0x4e487b7100000000000000000000000000000000000000000000000000000000\n        /* \"#utility.yul\":7540:7541   */\n      0x00\n        /* \"#utility.yul\":7533:7621   */\n      mstore\n        /* \"#utility.yul\":7640:7644   */\n      0x12\n        /* \"#utility.yul\":7637:7638   */\n      0x04\n        /* \"#utility.yul\":7630:7645   */\n      mstore\n        /* \"#utility.yul\":7664:7668   */\n      0x24\n        /* \"#utility.yul\":7661:7662   */\n      0x00\n        /* \"#utility.yul\":7654:7669   */\n      revert\n        /* \"#utility.yul\":7804:7921   */\n    tag_89:\n        /* \"#utility.yul\":7913:7914   */\n      0x00\n        /* \"#utility.yul\":7910:7911   */\n      dup1\n        /* \"#utility.yul\":7903:7915   */\n      revert\n        /* \"#utility.yul\":7927:8100   */\n    tag_112:\n        /* \"#utility.yul\":8067:8092   */\n      0x4f6e6c79206f776e65722063616e207769746864726177000000000000000000\n        /* \"#utility.yul\":8063:8064   */\n      0x00\n        /* \"#utility.yul\":8055:8061   */\n      dup3\n        /* \"#utility.yul\":8051:8065   */\n      add\n        /* \"#utility.yul\":8044:8093   */\n      mstore\n        /* \"#utility.yul\":7927:8100   */\n      pop\n      jump\t// out\n        /* \"#utility.yul\":8106:8282   */\n    tag_117:\n        /* \"#utility.yul\":8246:8274   */\n      0x596f75206e65656420746f207370656e64206d6f726520455448000000000000\n        /* \"#utility.yul\":8242:8243   */\n      0x00\n        /* \"#utility.yul\":8234:8240   */\n      dup3\n        /* \"#utility.yul\":8230:8244   */\n      add\n        /* \"#utility.yul\":8223:8275   */\n      mstore\n        /* \"#utility.yul\":8106:8282   */\n      pop\n      jump\t// out\n        /* \"#utility.yul\":8288:8410   */\n    tag_70:\n        /* \"#utility.yul\":8361:8385   */\n      tag_177\n        /* \"#utility.yul\":8379:8384   */\n      dup2\n        /* \"#utility.yul\":8361:8385   */\n      tag_160\n      jump\t// in\n    tag_177:\n        /* \"#utility.yul\":8354:8359   */\n      dup2\n        /* \"#utility.yul\":8351:8386   */\n      eq\n        /* \"#utility.yul\":8341:8404   */\n      tag_178\n      jumpi\n        /* \"#utility.yul\":8400:8401   */\n      0x00\n        /* \"#utility.yul\":8397:8398   */\n      dup1\n        /* \"#utility.yul\":8390:8402   */\n      revert\n        /* \"#utility.yul\":8341:8404   */\n    tag_178:\n        /* \"#utility.yul\":8288:8410   */\n      pop\n      jump\t// out\n        /* \"#utility.yul\":8416:8536   */\n    tag_74:\n        /* \"#utility.yul\":8488:8511   */\n      tag_180\n        /* \"#utility.yul\":8505:8510   */\n      dup2\n        /* \"#utility.yul\":8488:8511   */\n      tag_145\n      jump\t// in\n    tag_180:\n        /* \"#utility.yul\":8481:8486   */\n      dup2\n        /* \"#utility.yul\":8478:8512   */\n      eq\n        /* \"#utility.yul\":8468:8530   */\n      tag_181\n      jumpi\n        /* \"#utility.yul\":8526:8527   */\n      0x00\n        /* \"#utility.yul\":8523:8524   */\n      dup1\n        /* \"#utility.yul\":8516:8528   */\n      revert\n        /* \"#utility.yul\":8468:8530   */\n    tag_181:\n        /* \"#utility.yul\":8416:8536   */\n      pop\n      jump\t// out\n        /* \"#utility.yul\":8542:8664   */\n    tag_78:\n        /* \"#utility.yul\":8615:8639   */\n      tag_183\n        /* \"#utility.yul\":8633:8638   */\n      dup2\n        /* \"#utility.yul\":8615:8639   */\n      tag_121\n      jump\t// in\n    tag_183:\n        /* \"#utility.yul\":8608:8613   */\n      dup2\n        /* \"#utility.yul\":8605:8640   */\n      eq\n        /* \"#utility.yul\":8595:8658   */\n      tag_184\n      jumpi\n        /* \"#utility.yul\":8654:8655   */\n      0x00\n        /* \"#utility.yul\":8651:8652   */\n      dup1\n        /* \"#utility.yul\":8644:8656   */\n      revert\n        /* \"#utility.yul\":8595:8658   */\n    tag_184:\n        /* \"#utility.yul\":8542:8664   */\n      pop\n      jump\t// out\n        /* \"#utility.yul\":8670:8790   */\n    tag_85:\n        /* \"#utility.yul\":8742:8765   */\n      tag_186\n        /* \"#utility.yul\":8759:8764   */\n      dup2\n        /* \"#utility.yul\":8742:8765   */\n      tag_167\n      jump\t// in\n    tag_186:\n        /* \"#utility.yul\":8735:8740   */\n      dup2\n        /* \"#utility.yul\":8732:8766   */\n      eq\n        /* \"#utility.yul\":8722:8784   */\n      tag_187\n      jumpi\n        /* \"#utility.yul\":8780:8781   */\n      0x00\n        /* \"#utility.yul\":8777:8778   */\n      dup1\n        /* \"#utility.yul\":8770:8782   */\n      revert\n        /* \"#utility.yul\":8722:8784   */\n    tag_187:\n        /* \"#utility.yul\":8670:8790   */\n      pop\n      jump\t// out\n\n    auxdata: 0xa264697066735822122039683dde643bb7909b8d71e84c3f6d0423bfee7ba59994e6877583852ada550564736f6c63430008070033\n}\n",
				"bytecode": {
					"linkReferences": {},
					"object": "608060405234801561001057600080fd5b5033600160006101000a81548173ffffffffffffffffffffffffffffffffffffffff021916908373ffffffffffffffffffffffffffffffffffffffff160217905550610a30806100616000396000f3fe6080604052600436106100555760003560e01c80630d8e6e2c1461005a5780630fdb1c10146100855780633e47d6f31461008f5780636e5b6b28146100cc57806398d5fdca14610109578063b60d428814610134575b600080fd5b34801561006657600080fd5b5061006f61013e565b60405161007c9190610669565b60405180910390f35b61008d6101dc565b005b34801561009b57600080fd5b506100b660048036038101906100b191906104d2565b6102b5565b6040516100c39190610669565b60405180910390f35b3480156100d857600080fd5b506100f360048036038101906100ee91906104ff565b6102cd565b6040516101009190610669565b60405180910390f35b34801561011557600080fd5b5061011e610307565b60405161012b9190610669565b60405180910390f35b61013c6103bf565b005b60008073d4a33860578de61dbabdc8bfdb98fd742fa7028e90508073ffffffffffffffffffffffffffffffffffffffff166354fd4d506040518163ffffffff1660e01b815260040160206040518083038186803b15801561019e57600080fd5b505afa1580156101b2573d6000803e3d6000fd5b505050506040513d601f19601f820116820180604052508101906101d6919061052c565b91505090565b600160009054906101000a900473ffffffffffffffffffffffffffffffffffffffff1673ffffffffffffffffffffffffffffffffffffffff163373ffffffffffffffffffffffffffffffffffffffff161461026c576040517f08c379a000000000000000000000000000000000000000000000000000000000815260040161026390610629565b60405180910390fd5b3373ffffffffffffffffffffffffffffffffffffffff166108fc479081150290604051600060405180830381858888f193505050501580156102b2573d6000803e3d6000fd5b50565b60006020528060005260406000206000915090505481565b6000806102d8610307565b90506000670de0b6b3a764000084836102f19190610833565b6102fb91906106eb565b90508092505050919050565b60008073d4a33860578de61dbabdc8bfdb98fd742fa7028e905060008173ffffffffffffffffffffffffffffffffffffffff1663feaf968c6040518163ffffffff1660e01b815260040160a06040518083038186803b15801561036957600080fd5b505afa15801561037d573d6000803e3d6000fd5b505050506040513d601f19601f820116820180604052508101906103a19190610559565b5050509150506402540be400816103b8919061071c565b9250505090565b60006123289050806103d0346102cd565b1015610411576040517f08c379a000000000000000000000000000000000000000000000000000000000815260040161040890610649565b60405180910390fd5b346000803373ffffffffffffffffffffffffffffffffffffffff1673ffffffffffffffffffffffffffffffffffffffff168152602001908152602001600020600082825461045f9190610695565b9250508190555050565b6000813590506104788161099e565b92915050565b60008151905061048d816109b5565b92915050565b6000813590506104a2816109cc565b92915050565b6000815190506104b7816109cc565b92915050565b6000815190506104cc816109e3565b92915050565b6000602082840312156104e8576104e7610947565b5b60006104f684828501610469565b91505092915050565b60006020828403121561051557610514610947565b5b600061052384828501610493565b91505092915050565b60006020828403121561054257610541610947565b5b6000610550848285016104a8565b91505092915050565b600080600080600060a0868803121561057557610574610947565b5b6000610583888289016104bd565b95505060206105948882890161047e565b94505060406105a5888289016104a8565b93505060606105b6888289016104a8565b92505060806105c7888289016104bd565b9150509295509295909350565b60006105e1601783610684565b91506105ec8261094c565b602082019050919050565b6000610604601a83610684565b915061060f82610975565b602082019050919050565b610623816108c9565b82525050565b60006020820190508181036000830152610642816105d4565b9050919050565b60006020820190508181036000830152610662816105f7565b9050919050565b600060208201905061067e600083018461061a565b92915050565b600082825260208201905092915050565b60006106a0826108c9565b91506106ab836108c9565b9250827fffffffffffffffffffffffffffffffffffffffffffffffffffffffffffffffff038211156106e0576106df6108e9565b5b828201905092915050565b60006106f6826108c9565b9150610701836108c9565b92508261071157610710610918565b5b828204905092915050565b60006107278261089f565b91506107328361089f565b9250827f7fffffffffffffffffffffffffffffffffffffffffffffffffffffffffffffff0482116000841360008413161615610771576107706108e9565b5b817f800000000000000000000000000000000000000000000000000000000000000005831260008412600084131616156107ae576107ad6108e9565b5b827f800000000000000000000000000000000000000000000000000000000000000005821260008413600084121616156107eb576107ea6108e9565b5b827f7fffffffffffffffffffffffffffffffffffffffffffffffffffffffffffffff0582126000841260008412161615610828576108276108e9565b5b828202905092915050565b600061083e826108c9565b9150610849836108c9565b9250817fffffffffffffffffffffffffffffffffffffffffffffffffffffffffffffffff0483118215151615610882576108816108e9565b5b828202905092915050565b6000610898826108a9565b9050919050565b6000819050919050565b600073ffffffffffffffffffffffffffffffffffffffff82169050919050565b6000819050919050565b600069ffffffffffffffffffff82169050919050565b7f4e487b7100000000000000000000000000000000000000000000000000000000600052601160045260246000fd5b7f4e487b7100000000000000000000000000000000000000000000000000000000600052601260045260246000fd5b600080fd5b7f4f6e6c79206f776e65722063616e207769746864726177000000000000000000600082015250565b7f596f75206e65656420746f207370656e64206d6f726520455448000000000000600082015250565b6109a78161088d565b81146109b257600080fd5b50565b6109be8161089f565b81146109c957600080fd5b50565b6109d5816108c9565b81146109e057600080fd5b50565b6109ec816108d3565b81146109f757600080fd5b5056fea264697066735822122039683dde643bb7909b8d71e84c3f6d0423bfee7ba59994e6877583852ada550564736f6c63430008070033",
					"opcodes": "PUSH1 0x80 PUSH1 0x40 MSTORE CALLVALUE DUP1 ISZERO PUSH2 0x10 JUMPI PUSH1 0x0 DUP1 REVERT JUMPDEST POP CALLER PUSH1 0x1 PUSH1 0x0 PUSH2 0x100 EXP DUP2 SLOAD DUP2 PUSH20 0xFFFFFFFFFFFFFFFFFFFFFFFFFFFFFFFFFFFFFFFF MUL NOT AND SWAP1 DUP4 PUSH20 0xFFFFFFFFFFFFFFFFFFFFFFFFFFFFFFFFFFFFFFFF AND MUL OR SWAP1 SSTORE POP PUSH2 0xA30 DUP1 PUSH2 0x61 PUSH1 0x0 CODECOPY PUSH1 0x0 RETURN INVALID PUSH1 0x80 PUSH1 0x40 MSTORE PUSH1 0x4 CALLDATASIZE LT PUSH2 0x55 JUMPI PUSH1 0x0 CALLDATALOAD PUSH1 0xE0 SHR DUP1 PUSH4 0xD8E6E2C EQ PUSH2 0x5A JUMPI DUP1 PUSH4 0xFDB1C10 EQ PUSH2 0x85 JUMPI DUP1 PUSH4 0x3E47D6F3 EQ PUSH2 0x8F JUMPI DUP1 PUSH4 0x6E5B6B28 EQ PUSH2 0xCC JUMPI DUP1 PUSH4 0x98D5FDCA EQ PUSH2 0x109 JUMPI DUP1 PUSH4 0xB60D4288 EQ PUSH2 0x134 JUMPI JUMPDEST PUSH1 0x0 DUP1 REVERT JUMPDEST CALLVALUE DUP1 ISZERO PUSH2 0x66 JUMPI PUSH1 0x0 DUP1 REVERT JUMPDEST POP PUSH2 0x6F PUSH2 0x13E JUMP JUMPDEST PUSH1 0x40 MLOAD PUSH2 0x7C SWAP2 SWAP1 PUSH2 0x669 JUMP JUMPDEST PUSH1 0x40 MLOAD DUP1 SWAP2 SUB SWAP1 RETURN JUMPDEST PUSH2 0x8D PUSH2 0x1DC JUMP JUMPDEST STOP JUMPDEST CALLVALUE DUP1 ISZERO PUSH2 0x9B JUMPI PUSH1 0x0 DUP1 REVERT JUMPDEST POP PUSH2 0xB6 PUSH1 0x4 DUP1 CALLDATASIZE SUB DUP2 ADD SWAP1 PUSH2 0xB1 SWAP2 SWAP1 PUSH2 0x4D2 JUMP JUMPDEST PUSH2 0x2B5 JUMP JUMPDEST PUSH1 0x40 MLOAD PUSH2 0xC3 SWAP2 SWAP1 PUSH2 0x669 JUMP JUMPDEST PUSH1 0x40 MLOAD DUP1 SWAP2 SUB SWAP1 RETURN JUMPDEST CALLVALUE DUP1 ISZERO PUSH2 0xD8 JUMPI PUSH1 0x0 DUP1 REVERT JUMPDEST POP PUSH2 0xF3 PUSH1 0x4 DUP1 CALLDATASIZE SUB DUP2 ADD SWAP1 PUSH2 0xEE SWAP2 SWAP1 PUSH2 0x4FF JUMP JUMPDEST PUSH2 0x2CD JUMP JUMPDEST PUSH1 0x40 MLOAD PUSH2 0x100 SWAP2 SWAP1 PUSH2 0x669 JUMP JUMPDEST PUSH1 0x40 MLOAD DUP1 SWAP2 SUB SWAP1 RETURN JUMPDEST CALLVALUE DUP1 ISZERO PUSH2 0x115 JUMPI PUSH1 0x0 DUP1 REVERT JUMPDEST POP PUSH2 0x11E PUSH2 0x307 JUMP JUMPDEST PUSH1 0x40 MLOAD PUSH2 0x12B SWAP2 SWAP1 PUSH2 0x669 JUMP JUMPDEST PUSH1 0x40 MLOAD DUP1 SWAP2 SUB SWAP1 RETURN JUMPDEST PUSH2 0x13C PUSH2 0x3BF JUMP JUMPDEST STOP JUMPDEST PUSH1 0x0 DUP1 PUSH20 0xD4A33860578DE61DBABDC8BFDB98FD742FA7028E SWAP1 POP DUP1 PUSH20 0xFFFFFFFFFFFFFFFFFFFFFFFFFFFFFFFFFFFFFFFF AND PUSH4 0x54FD4D50 PUSH1 0x40 MLOAD DUP2 PUSH4 0xFFFFFFFF AND PUSH1 0xE0 SHL DUP2 MSTORE PUSH1 0x4 ADD PUSH1 0x20 PUSH1 0x40 MLOAD DUP1 DUP4 SUB DUP2 DUP7 DUP1 EXTCODESIZE ISZERO DUP1 ISZERO PUSH2 0x19E JUMPI PUSH1 0x0 DUP1 REVERT JUMPDEST POP GAS STATICCALL ISZERO DUP1 ISZERO PUSH2 0x1B2 JUMPI RETURNDATASIZE PUSH1 0x0 DUP1 RETURNDATACOPY RETURNDATASIZE PUSH1 0x0 REVERT JUMPDEST POP POP POP POP PUSH1 0x40 MLOAD RETURNDATASIZE PUSH1 0x1F NOT PUSH1 0x1F DUP3 ADD AND DUP3 ADD DUP1 PUSH1 0x40 MSTORE POP DUP2 ADD SWAP1 PUSH2 0x1D6 SWAP2 SWAP1 PUSH2 0x52C JUMP JUMPDEST SWAP2 POP POP SWAP1 JUMP JUMPDEST PUSH1 0x1 PUSH1 0x0 SWAP1 SLOAD SWAP1 PUSH2 0x100 EXP SWAP1 DIV PUSH20 0xFFFFFFFFFFFFFFFFFFFFFFFFFFFFFFFFFFFFFFFF AND PUSH20 0xFFFFFFFFFFFFFFFFFFFFFFFFFFFFFFFFFFFFFFFF AND CALLER PUSH20 0xFFFFFFFFFFFFFFFFFFFFFFFFFFFFFFFFFFFFFFFF AND EQ PUSH2 0x26C JUMPI PUSH1 0x40 MLOAD PUSH32 0x8C379A000000000000000000000000000000000000000000000000000000000 DUP2 MSTORE PUSH1 0x4 ADD PUSH2 0x263 SWAP1 PUSH2 0x629 JUMP JUMPDEST PUSH1 0x40 MLOAD DUP1 SWAP2 SUB SWAP1 REVERT JUMPDEST CALLER PUSH20 0xFFFFFFFFFFFFFFFFFFFFFFFFFFFFFFFFFFFFFFFF AND PUSH2 0x8FC SELFBALANCE SWAP1 DUP2 ISZERO MUL SWAP1 PUSH1 0x40 MLOAD PUSH1 0x0 PUSH1 0x40 MLOAD DUP1 DUP4 SUB DUP2 DUP6 DUP9 DUP9 CALL SWAP4 POP POP POP POP ISZERO DUP1 ISZERO PUSH2 0x2B2 JUMPI RETURNDATASIZE PUSH1 0x0 DUP1 RETURNDATACOPY RETURNDATASIZE PUSH1 0x0 REVERT JUMPDEST POP JUMP JUMPDEST PUSH1 0x0 PUSH1 0x20 MSTORE DUP1 PUSH1 0x0 MSTORE PUSH1 0x40 PUSH1 0x0 KECCAK256 PUSH1 0x0 SWAP2 POP SWAP1 POP SLOAD DUP2 JUMP JUMPDEST PUSH1 0x0 DUP1 PUSH2 0x2D8 PUSH2 0x307 JUMP JUMPDEST SWAP1 POP PUSH1 0x0 PUSH8 0xDE0B6B3A7640000 DUP5 DUP4 PUSH2 0x2F1 SWAP2 SWAP1 PUSH2 0x833 JUMP JUMPDEST PUSH2 0x2FB SWAP2 SWAP1 PUSH2 0x6EB JUMP JUMPDEST SWAP1 POP DUP1 SWAP3 POP POP POP SWAP2 SWAP1 POP JUMP JUMPDEST PUSH1 0x0 DUP1 PUSH20 0xD4A33860578DE61DBABDC8BFDB98FD742FA7028E SWAP1 POP PUSH1 0x0 DUP2 PUSH20 0xFFFFFFFFFFFFFFFFFFFFFFFFFFFFFFFFFFFFFFFF AND PUSH4 0xFEAF968C PUSH1 0x40 MLOAD DUP2 PUSH4 0xFFFFFFFF AND PUSH1 0xE0 SHL DUP2 MSTORE PUSH1 0x4 ADD PUSH1 0xA0 PUSH1 0x40 MLOAD DUP1 DUP4 SUB DUP2 DUP7 DUP1 EXTCODESIZE ISZERO DUP1 ISZERO PUSH2 0x369 JUMPI PUSH1 0x0 DUP1 REVERT JUMPDEST POP GAS STATICCALL ISZERO DUP1 ISZERO PUSH2 0x37D JUMPI RETURNDATASIZE PUSH1 0x0 DUP1 RETURNDATACOPY RETURNDATASIZE PUSH1 0x0 REVERT JUMPDEST POP POP POP POP PUSH1 0x40 MLOAD RETURNDATASIZE PUSH1 0x1F NOT PUSH1 0x1F DUP3 ADD AND DUP3 ADD DUP1 PUSH1 0x40 MSTORE POP DUP2 ADD SWAP1 PUSH2 0x3A1 SWAP2 SWAP1 PUSH2 0x559 JUMP JUMPDEST POP POP POP SWAP2 POP POP PUSH5 0x2540BE400 DUP2 PUSH2 0x3B8 SWAP2 SWAP1 PUSH2 0x71C JUMP JUMPDEST SWAP3 POP POP POP SWAP1 JUMP JUMPDEST PUSH1 0x0 PUSH2 0x2328 SWAP1 POP DUP1 PUSH2 0x3D0 CALLVALUE PUSH2 0x2CD JUMP JUMPDEST LT ISZERO PUSH2 0x411 JUMPI PUSH1 0x40 MLOAD PUSH32 0x8C379A000000000000000000000000000000000000000000000000000000000 DUP2 MSTORE PUSH1 0x4 ADD PUSH2 0x408 SWAP1 PUSH2 0x649 JUMP JUMPDEST PUSH1 0x40 MLOAD DUP1 SWAP2 SUB SWAP1 REVERT JUMPDEST CALLVALUE PUSH1 0x0 DUP1 CALLER PUSH20 0xFFFFFFFFFFFFFFFFFFFFFFFFFFFFFFFFFFFFFFFF AND PUSH20 0xFFFFFFFFFFFFFFFFFFFFFFFFFFFFFFFFFFFFFFFF AND DUP2 MSTORE PUSH1 0x20 ADD SWAP1 DUP2 MSTORE PUSH1 0x20 ADD PUSH1 0x0 KECCAK256 PUSH1 0x0 DUP3 DUP3 SLOAD PUSH2 0x45F SWAP2 SWAP1 PUSH2 0x695 JUMP JUMPDEST SWAP3 POP POP DUP2 SWAP1 SSTORE POP POP JUMP JUMPDEST PUSH1 0x0 DUP2 CALLDATALOAD SWAP1 POP PUSH2 0x478 DUP2 PUSH2 0x99E JUMP JUMPDEST SWAP3 SWAP2 POP POP JUMP JUMPDEST PUSH1 0x0 DUP2 MLOAD SWAP1 POP PUSH2 0x48D DUP2 PUSH2 0x9B5 JUMP JUMPDEST SWAP3 SWAP2 POP POP JUMP JUMPDEST PUSH1 0x0 DUP2 CALLDATALOAD SWAP1 POP PUSH2 0x4A2 DUP2 PUSH2 0x9CC JUMP JUMPDEST SWAP3 SWAP2 POP POP JUMP JUMPDEST PUSH1 0x0 DUP2 MLOAD SWAP1 POP PUSH2 0x4B7 DUP2 PUSH2 0x9CC JUMP JUMPDEST SWAP3 SWAP2 POP POP JUMP JUMPDEST PUSH1 0x0 DUP2 MLOAD SWAP1 POP PUSH2 0x4CC DUP2 PUSH2 0x9E3 JUMP JUMPDEST SWAP3 SWAP2 POP POP JUMP JUMPDEST PUSH1 0x0 PUSH1 0x20 DUP3 DUP5 SUB SLT ISZERO PUSH2 0x4E8 JUMPI PUSH2 0x4E7 PUSH2 0x947 JUMP JUMPDEST JUMPDEST PUSH1 0x0 PUSH2 0x4F6 DUP5 DUP3 DUP6 ADD PUSH2 0x469 JUMP JUMPDEST SWAP2 POP POP SWAP3 SWAP2 POP POP JUMP JUMPDEST PUSH1 0x0 PUSH1 0x20 DUP3 DUP5 SUB SLT ISZERO PUSH2 0x515 JUMPI PUSH2 0x514 PUSH2 0x947 JUMP JUMPDEST JUMPDEST PUSH1 0x0 PUSH2 0x523 DUP5 DUP3 DUP6 ADD PUSH2 0x493 JUMP JUMPDEST SWAP2 POP POP SWAP3 SWAP2 POP POP JUMP JUMPDEST PUSH1 0x0 PUSH1 0x20 DUP3 DUP5 SUB SLT ISZERO PUSH2 0x542 JUMPI PUSH2 0x541 PUSH2 0x947 JUMP JUMPDEST JUMPDEST PUSH1 0x0 PUSH2 0x550 DUP5 DUP3 DUP6 ADD PUSH2 0x4A8 JUMP JUMPDEST SWAP2 POP POP SWAP3 SWAP2 POP POP JUMP JUMPDEST PUSH1 0x0 DUP1 PUSH1 0x0 DUP1 PUSH1 0x0 PUSH1 0xA0 DUP7 DUP9 SUB SLT ISZERO PUSH2 0x575 JUMPI PUSH2 0x574 PUSH2 0x947 JUMP JUMPDEST JUMPDEST PUSH1 0x0 PUSH2 0x583 DUP9 DUP3 DUP10 ADD PUSH2 0x4BD JUMP JUMPDEST SWAP6 POP POP PUSH1 0x20 PUSH2 0x594 DUP9 DUP3 DUP10 ADD PUSH2 0x47E JUMP JUMPDEST SWAP5 POP POP PUSH1 0x40 PUSH2 0x5A5 DUP9 DUP3 DUP10 ADD PUSH2 0x4A8 JUMP JUMPDEST SWAP4 POP POP PUSH1 0x60 PUSH2 0x5B6 DUP9 DUP3 DUP10 ADD PUSH2 0x4A8 JUMP JUMPDEST SWAP3 POP POP PUSH1 0x80 PUSH2 0x5C7 DUP9 DUP3 DUP10 ADD PUSH2 0x4BD JUMP JUMPDEST SWAP2 POP POP SWAP3 SWAP6 POP SWAP3 SWAP6 SWAP1 SWAP4 POP JUMP JUMPDEST PUSH1 0x0 PUSH2 0x5E1 PUSH1 0x17 DUP4 PUSH2 0x684 JUMP JUMPDEST SWAP2 POP PUSH2 0x5EC DUP3 PUSH2 0x94C JUMP JUMPDEST PUSH1 0x20 DUP3 ADD SWAP1 POP SWAP2 SWAP1 POP JUMP JUMPDEST PUSH1 0x0 PUSH2 0x604 PUSH1 0x1A DUP4 PUSH2 0x684 JUMP JUMPDEST SWAP2 POP PUSH2 0x60F DUP3 PUSH2 0x975 JUMP JUMPDEST PUSH1 0x20 DUP3 ADD SWAP1 POP SWAP2 SWAP1 POP JUMP JUMPDEST PUSH2 0x623 DUP2 PUSH2 0x8C9 JUMP JUMPDEST DUP3 MSTORE POP POP JUMP JUMPDEST PUSH1 0x0 PUSH1 0x20 DUP3 ADD SWAP1 POP DUP2 DUP2 SUB PUSH1 0x0 DUP4 ADD MSTORE PUSH2 0x642 DUP2 PUSH2 0x5D4 JUMP JUMPDEST SWAP1 POP SWAP2 SWAP1 POP JUMP JUMPDEST PUSH1 0x0 PUSH1 0x20 DUP3 ADD SWAP1 POP DUP2 DUP2 SUB PUSH1 0x0 DUP4 ADD MSTORE PUSH2 0x662 DUP2 PUSH2 0x5F7 JUMP JUMPDEST SWAP1 POP SWAP2 SWAP1 POP JUMP JUMPDEST PUSH1 0x0 PUSH1 0x20 DUP3 ADD SWAP1 POP PUSH2 0x67E PUSH1 0x0 DUP4 ADD DUP5 PUSH2 0x61A JUMP JUMPDEST SWAP3 SWAP2 POP POP JUMP JUMPDEST PUSH1 0x0 DUP3 DUP3 MSTORE PUSH1 0x20 DUP3 ADD SWAP1 POP SWAP3 SWAP2 POP POP JUMP JUMPDEST PUSH1 0x0 PUSH2 0x6A0 DUP3 PUSH2 0x8C9 JUMP JUMPDEST SWAP2 POP PUSH2 0x6AB DUP4 PUSH2 0x8C9 JUMP JUMPDEST SWAP3 POP DUP3 PUSH32 0xFFFFFFFFFFFFFFFFFFFFFFFFFFFFFFFFFFFFFFFFFFFFFFFFFFFFFFFFFFFFFFFF SUB DUP3 GT ISZERO PUSH2 0x6E0 JUMPI PUSH2 0x6DF PUSH2 0x8E9 JUMP JUMPDEST JUMPDEST DUP3 DUP3 ADD SWAP1 POP SWAP3 SWAP2 POP POP JUMP JUMPDEST PUSH1 0x0 PUSH2 0x6F6 DUP3 PUSH2 0x8C9 JUMP JUMPDEST SWAP2 POP PUSH2 0x701 DUP4 PUSH2 0x8C9 JUMP JUMPDEST SWAP3 POP DUP3 PUSH2 0x711 JUMPI PUSH2 0x710 PUSH2 0x918 JUMP JUMPDEST JUMPDEST DUP3 DUP3 DIV SWAP1 POP SWAP3 SWAP2 POP POP JUMP JUMPDEST PUSH1 0x0 PUSH2 0x727 DUP3 PUSH2 0x89F JUMP JUMPDEST SWAP2 POP PUSH2 0x732 DUP4 PUSH2 0x89F JUMP JUMPDEST SWAP3 POP DUP3 PUSH32 0x7FFFFFFFFFFFFFFFFFFFFFFFFFFFFFFFFFFFFFFFFFFFFFFFFFFFFFFFFFFFFFFF DIV DUP3 GT PUSH1 0x0 DUP5 SGT PUSH1 0x0 DUP5 SGT AND AND ISZERO PUSH2 0x771 JUMPI PUSH2 0x770 PUSH2 0x8E9 JUMP JUMPDEST JUMPDEST DUP2 PUSH32 0x8000000000000000000000000000000000000000000000000000000000000000 SDIV DUP4 SLT PUSH1 0x0 DUP5 SLT PUSH1 0x0 DUP5 SGT AND AND ISZERO PUSH2 0x7AE JUMPI PUSH2 0x7AD PUSH2 0x8E9 JUMP JUMPDEST JUMPDEST DUP3 PUSH32 0x8000000000000000000000000000000000000000000000000000000000000000 SDIV DUP3 SLT PUSH1 0x0 DUP5 SGT PUSH1 0x0 DUP5 SLT AND AND ISZERO PUSH2 0x7EB JUMPI PUSH2 0x7EA PUSH2 0x8E9 JUMP JUMPDEST JUMPDEST DUP3 PUSH32 0x7FFFFFFFFFFFFFFFFFFFFFFFFFFFFFFFFFFFFFFFFFFFFFFFFFFFFFFFFFFFFFFF SDIV DUP3 SLT PUSH1 0x0 DUP5 SLT PUSH1 0x0 DUP5 SLT AND AND ISZERO PUSH2 0x828 JUMPI PUSH2 0x827 PUSH2 0x8E9 JUMP JUMPDEST JUMPDEST DUP3 DUP3 MUL SWAP1 POP SWAP3 SWAP2 POP POP JUMP JUMPDEST PUSH1 0x0 PUSH2 0x83E DUP3 PUSH2 0x8C9 JUMP JUMPDEST SWAP2 POP PUSH2 0x849 DUP4 PUSH2 0x8C9 JUMP JUMPDEST SWAP3 POP DUP2 PUSH32 0xFFFFFFFFFFFFFFFFFFFFFFFFFFFFFFFFFFFFFFFFFFFFFFFFFFFFFFFFFFFFFFFF DIV DUP4 GT DUP3 ISZERO ISZERO AND ISZERO PUSH2 0x882 JUMPI PUSH2 0x881 PUSH2 0x8E9 JUMP JUMPDEST JUMPDEST DUP3 DUP3 MUL SWAP1 POP SWAP3 SWAP2 POP POP JUMP JUMPDEST PUSH1 0x0 PUSH2 0x898 DUP3 PUSH2 0x8A9 JUMP JUMPDEST SWAP1 POP SWAP2 SWAP1 POP JUMP JUMPDEST PUSH1 0x0 DUP2 SWAP1 POP SWAP2 SWAP1 POP JUMP JUMPDEST PUSH1 0x0 PUSH20 0xFFFFFFFFFFFFFFFFFFFFFFFFFFFFFFFFFFFFFFFF DUP3 AND SWAP1 POP SWAP2 SWAP1 POP JUMP JUMPDEST PUSH1 0x0 DUP2 SWAP1 POP SWAP2 SWAP1 POP JUMP JUMPDEST PUSH1 0x0 PUSH10 0xFFFFFFFFFFFFFFFFFFFF DUP3 AND SWAP1 POP SWAP2 SWAP1 POP JUMP JUMPDEST PUSH32 0x4E487B7100000000000000000000000000000000000000000000000000000000 PUSH1 0x0 MSTORE PUSH1 0x11 PUSH1 0x4 MSTORE PUSH1 0x24 PUSH1 0x0 REVERT JUMPDEST PUSH32 0x4E487B7100000000000000000000000000000000000000000000000000000000 PUSH1 0x0 MSTORE PUSH1 0x12 PUSH1 0x4 MSTORE PUSH1 0x24 PUSH1 0x0 REVERT JUMPDEST PUSH1 0x0 DUP1 REVERT JUMPDEST PUSH32 0x4F6E6C79206F776E65722063616E207769746864726177000000000000000000 PUSH1 0x0 DUP3 ADD MSTORE POP JUMP JUMPDEST PUSH32 0x596F75206E65656420746F207370656E64206D6F726520455448000000000000 PUSH1 0x0 DUP3 ADD MSTORE POP JUMP JUMPDEST PUSH2 0x9A7 DUP2 PUSH2 0x88D JUMP JUMPDEST DUP2 EQ PUSH2 0x9B2 JUMPI PUSH1 0x0 DUP1 REVERT JUMPDEST POP JUMP JUMPDEST PUSH2 0x9BE DUP2 PUSH2 0x89F JUMP JUMPDEST DUP2 EQ PUSH2 0x9C9 JUMPI PUSH1 0x0 DUP1 REVERT JUMPDEST POP JUMP JUMPDEST PUSH2 0x9D5 DUP2 PUSH2 0x8C9 JUMP JUMPDEST DUP2 EQ PUSH2 0x9E0 JUMPI PUSH1 0x0 DUP1 REVERT JUMPDEST POP JUMP JUMPDEST PUSH2 0x9EC DUP2 PUSH2 0x8D3 JUMP JUMPDEST DUP2 EQ PUSH2 0x9F7 JUMPI PUSH1 0x0 DUP1 REVERT JUMPDEST POP JUMP INVALID LOG2 PUSH5 0x6970667358 0x22 SLT KECCAK256 CODECOPY PUSH9 0x3DDE643BB7909B8D71 0xE8 0x4C EXTCODEHASH PUSH14 0x423BFEE7BA59994E6877583852A 0xDA SSTORE SDIV PUSH5 0x736F6C6343 STOP ADDMOD SMOD STOP CALLER "
				},
				"gasEstimates": {
					"creation": {
						"codeDepositCost": "521600",
						"executionCost": "24822",
						"totalCost": "546422"
					},
					"external": {
						"addressToAmountFunded(address)": "2836",
						"fund()": "infinite",
						"getConversionRate(uint256)": "infinite",
						"getPrice()": "infinite",
						"getVersion()": "infinite",
						"withDraw()": "infinite"
					}
				},
				"methodIdentifiers": {
					"addressToAmountFunded(address)": "3e47d6f3",
					"fund()": "b60d4288",
					"getConversionRate(uint256)": "6e5b6b28",
					"getPrice()": "98d5fdca",
					"getVersion()": "0d8e6e2c",
					"withDraw()": "0fdb1c10"
				}
			},
			"storageLayout": {
				"storage": [
					{
						"astId": 195,
						"contract": "contracts/FundMe.sol:FundMe",
						"label": "addressToAmountFunded",
						"offset": 0,
						"slot": "0",
						"type": "t_mapping(t_address,t_uint256)"
					},
					{
						"astId": 197,
						"contract": "contracts/FundMe.sol:FundMe",
						"label": "owner",
						"offset": 0,
						"slot": "1",
						"type": "t_address"
					}
				],
				"types": {
					"t_address": {
						"encoding": "inplace",
						"label": "address",
						"numberOfBytes": "20"
					},
					"t_mapping(t_address,t_uint256)": {
						"encoding": "mapping",
						"key": "t_address",
						"label": "mapping(address => uint256)",
						"numberOfBytes": "32",
						"value": "t_uint256"
					},
					"t_uint256": {
						"encoding": "inplace",
						"label": "uint256",
						"numberOfBytes": "32"
					}
				}
			},
			"userdoc": {
				"kind": "user",
				"methods": {},
				"version": 1
			}
		}
	}
}