{
	"contracts/FundMe.sol": {
		"FundMe": {
			"abi": [
				{
					"inputs": [
						{
							"internalType": "address",
							"name": "",
							"type": "address"
						}
					],
					"name": "addressToAmountFunded",
					"outputs": [
						{
							"internalType": "uint256",
							"name": "",
							"type": "uint256"
						}
					],
					"stateMutability": "view",
					"type": "function"
				},
				{
					"inputs": [],
					"name": "fund",
					"outputs": [],
					"stateMutability": "payable",
					"type": "function"
				},
				{
					"inputs": [],
					"name": "getPrice",
					"outputs": [
						{
							"internalType": "uint80",
							"name": "roundId",
							"type": "uint80"
						},
						{
							"internalType": "int256",
							"name": "answer",
							"type": "int256"
						},
						{
							"internalType": "uint256",
							"name": "startedAt",
							"type": "uint256"
						},
						{
							"internalType": "uint256",
							"name": "updatedAt",
							"type": "uint256"
						},
						{
							"internalType": "uint80",
							"name": "answeredInRound",
							"type": "uint80"
						}
					],
					"stateMutability": "view",
					"type": "function"
				},
				{
					"inputs": [],
					"name": "getVersion",
					"outputs": [
						{
							"internalType": "uint256",
							"name": "",
							"type": "uint256"
						}
					],
					"stateMutability": "view",
					"type": "function"
				}
			],
			"devdoc": {
				"kind": "dev",
				"methods": {},
				"version": 1
			},
			"evm": {
				"assembly": "    /* \"contracts/FundMe.sol\":913:2079  contract FundMe\r... */\n  mstore(0x40, 0x80)\n  callvalue\n  dup1\n  iszero\n  tag_1\n  jumpi\n  0x00\n  dup1\n  revert\ntag_1:\n  pop\n  dataSize(sub_0)\n  dup1\n  dataOffset(sub_0)\n  0x00\n  codecopy\n  0x00\n  return\nstop\n\nsub_0: assembly {\n        /* \"contracts/FundMe.sol\":913:2079  contract FundMe\r... */\n      mstore(0x40, 0x80)\n      jumpi(tag_1, lt(calldatasize, 0x04))\n      shr(0xe0, calldataload(0x00))\n      dup1\n      0x0d8e6e2c\n      eq\n      tag_2\n      jumpi\n      dup1\n      0x3e47d6f3\n      eq\n      tag_3\n      jumpi\n      dup1\n      0x98d5fdca\n      eq\n      tag_4\n      jumpi\n      dup1\n      0xb60d4288\n      eq\n      tag_5\n      jumpi\n    tag_1:\n      0x00\n      dup1\n      revert\n        /* \"contracts/FundMe.sol\":1316:1718  function getVersion() public view returns(uint256)\r... */\n    tag_2:\n      callvalue\n      dup1\n      iszero\n      tag_6\n      jumpi\n      0x00\n      dup1\n      revert\n    tag_6:\n      pop\n      tag_7\n      tag_8\n      jump\t// in\n    tag_7:\n      mload(0x40)\n      tag_9\n      swap2\n      swap1\n      tag_10\n      jump\t// in\n    tag_9:\n      mload(0x40)\n      dup1\n      swap2\n      sub\n      swap1\n      return\n        /* \"contracts/FundMe.sol\":949:1005  mapping(address => uint256) public addressToAmountFunded */\n    tag_3:\n      callvalue\n      dup1\n      iszero\n      tag_11\n      jumpi\n      0x00\n      dup1\n      revert\n    tag_11:\n      pop\n      tag_12\n      0x04\n      dup1\n      calldatasize\n      sub\n      dup2\n      add\n      swap1\n      tag_13\n      swap2\n      swap1\n      tag_14\n      jump\t// in\n    tag_13:\n      tag_15\n      jump\t// in\n    tag_12:\n      mload(0x40)\n      tag_16\n      swap2\n      swap1\n      tag_10\n      jump\t// in\n    tag_16:\n      mload(0x40)\n      dup1\n      swap2\n      sub\n      swap1\n      return\n        /* \"contracts/FundMe.sol\":1726:2076  function getPrice() public view \r... */\n    tag_4:\n      callvalue\n      dup1\n      iszero\n      tag_17\n      jumpi\n      0x00\n      dup1\n      revert\n    tag_17:\n      pop\n      tag_18\n      tag_19\n      jump\t// in\n    tag_18:\n      mload(0x40)\n      tag_20\n      swap6\n      swap5\n      swap4\n      swap3\n      swap2\n      swap1\n      tag_21\n      jump\t// in\n    tag_20:\n      mload(0x40)\n      dup1\n      swap2\n      sub\n      swap1\n      return\n        /* \"contracts/FundMe.sol\":1159:1308  function fund() public payable\r... */\n    tag_5:\n      tag_22\n      tag_23\n      jump\t// in\n    tag_22:\n      stop\n        /* \"contracts/FundMe.sol\":1316:1718  function getVersion() public view returns(uint256)\r... */\n    tag_8:\n        /* \"contracts/FundMe.sol\":1358:1365  uint256 */\n      0x00\n        /* \"contracts/FundMe.sol\":1572:1603  AggregatorV3Interface pricefeed */\n      dup1\n        /* \"contracts/FundMe.sol\":1628:1670  0xD4a33860578De61DBAbDc8BFdb98FD742fA7028e */\n      0xd4a33860578de61dbabdc8bfdb98fd742fa7028e\n        /* \"contracts/FundMe.sol\":1572:1671  AggregatorV3Interface pricefeed = AggregatorV3Interface(0xD4a33860578De61DBAbDc8BFdb98FD742fA7028e) */\n      swap1\n      pop\n        /* \"contracts/FundMe.sol\":1689:1698  pricefeed */\n      dup1\n        /* \"contracts/FundMe.sol\":1689:1706  pricefeed.version */\n      0xffffffffffffffffffffffffffffffffffffffff\n      and\n      0x54fd4d50\n        /* \"contracts/FundMe.sol\":1689:1708  pricefeed.version() */\n      mload(0x40)\n      dup2\n      0xffffffff\n      and\n      0xe0\n      shl\n      dup2\n      mstore\n      0x04\n      add\n      0x20\n      mload(0x40)\n      dup1\n      dup4\n      sub\n      dup2\n      dup7\n      dup1\n      extcodesize\n      iszero\n      dup1\n      iszero\n      tag_25\n      jumpi\n      0x00\n      dup1\n      revert\n    tag_25:\n      pop\n      gas\n      staticcall\n      iszero\n      dup1\n      iszero\n      tag_27\n      jumpi\n      returndatasize\n      0x00\n      dup1\n      returndatacopy\n      revert(0x00, returndatasize)\n    tag_27:\n      pop\n      pop\n      pop\n      pop\n      mload(0x40)\n      returndatasize\n      not(0x1f)\n      0x1f\n      dup3\n      add\n      and\n      dup3\n      add\n      dup1\n      0x40\n      mstore\n      pop\n      dup2\n      add\n      swap1\n      tag_28\n      swap2\n      swap1\n      tag_29\n      jump\t// in\n    tag_28:\n        /* \"contracts/FundMe.sol\":1682:1708  return pricefeed.version() */\n      swap2\n      pop\n      pop\n        /* \"contracts/FundMe.sol\":1316:1718  function getVersion() public view returns(uint256)\r... */\n      swap1\n      jump\t// out\n        /* \"contracts/FundMe.sol\":949:1005  mapping(address => uint256) public addressToAmountFunded */\n    tag_15:\n      mstore(0x20, 0x00)\n      dup1\n      0x00\n      mstore\n      keccak256(0x00, 0x40)\n      0x00\n      swap2\n      pop\n      swap1\n      pop\n      sload\n      dup2\n      jump\t// out\n        /* \"contracts/FundMe.sol\":1726:2076  function getPrice() public view \r... */\n    tag_19:\n        /* \"contracts/FundMe.sol\":1781:1795  uint80 roundId */\n      0x00\n        /* \"contracts/FundMe.sol\":1804:1817  int256 answer */\n      dup1\n        /* \"contracts/FundMe.sol\":1826:1843  uint256 startedAt */\n      0x00\n        /* \"contracts/FundMe.sol\":1852:1869  uint256 updatedAt */\n      dup1\n        /* \"contracts/FundMe.sol\":1878:1900  uint80 answeredInRound */\n      0x00\n        /* \"contracts/FundMe.sol\":1924:1955  AggregatorV3Interface pricefeed */\n      dup1\n        /* \"contracts/FundMe.sol\":1980:2022  0xD4a33860578De61DBAbDc8BFdb98FD742fA7028e */\n      0xd4a33860578de61dbabdc8bfdb98fd742fa7028e\n        /* \"contracts/FundMe.sol\":1924:2023  AggregatorV3Interface pricefeed = AggregatorV3Interface(0xD4a33860578De61DBAbDc8BFdb98FD742fA7028e) */\n      swap1\n      pop\n        /* \"contracts/FundMe.sol\":2041:2050  pricefeed */\n      dup1\n        /* \"contracts/FundMe.sol\":2041:2066  pricefeed.latestRoundData */\n      0xffffffffffffffffffffffffffffffffffffffff\n      and\n      0xfeaf968c\n        /* \"contracts/FundMe.sol\":2041:2068  pricefeed.latestRoundData() */\n      mload(0x40)\n      dup2\n      0xffffffff\n      and\n      0xe0\n      shl\n      dup2\n      mstore\n      0x04\n      add\n      0xa0\n      mload(0x40)\n      dup1\n      dup4\n      sub\n      dup2\n      dup7\n      dup1\n      extcodesize\n      iszero\n      dup1\n      iszero\n      tag_31\n      jumpi\n      0x00\n      dup1\n      revert\n    tag_31:\n      pop\n      gas\n      staticcall\n      iszero\n      dup1\n      iszero\n      tag_33\n      jumpi\n      returndatasize\n      0x00\n      dup1\n      returndatacopy\n      revert(0x00, returndatasize)\n    tag_33:\n      pop\n      pop\n      pop\n      pop\n      mload(0x40)\n      returndatasize\n      not(0x1f)\n      0x1f\n      dup3\n      add\n      and\n      dup3\n      add\n      dup1\n      0x40\n      mstore\n      pop\n      dup2\n      add\n      swap1\n      tag_34\n      swap2\n      swap1\n      tag_35\n      jump\t// in\n    tag_34:\n        /* \"contracts/FundMe.sol\":2034:2068  return pricefeed.latestRoundData() */\n      swap6\n      pop\n      swap6\n      pop\n      swap6\n      pop\n      swap6\n      pop\n      swap6\n      pop\n      pop\n        /* \"contracts/FundMe.sol\":1726:2076  function getPrice() public view \r... */\n      swap1\n      swap2\n      swap3\n      swap4\n      swap5\n      jump\t// out\n        /* \"contracts/FundMe.sol\":1159:1308  function fund() public payable\r... */\n    tag_23:\n        /* \"contracts/FundMe.sol\":1243:1252  msg.value */\n      callvalue\n        /* \"contracts/FundMe.sol\":1206:1227  addressToAmountFunded */\n      0x00\n        /* \"contracts/FundMe.sol\":1206:1239  addressToAmountFunded[msg.sender] */\n      dup1\n        /* \"contracts/FundMe.sol\":1228:1238  msg.sender */\n      caller\n        /* \"contracts/FundMe.sol\":1206:1239  addressToAmountFunded[msg.sender] */\n      0xffffffffffffffffffffffffffffffffffffffff\n      and\n      0xffffffffffffffffffffffffffffffffffffffff\n      and\n      dup2\n      mstore\n      0x20\n      add\n      swap1\n      dup2\n      mstore\n      0x20\n      add\n      0x00\n      keccak256\n      0x00\n        /* \"contracts/FundMe.sol\":1206:1252  addressToAmountFunded[msg.sender] += msg.value */\n      dup3\n      dup3\n      sload\n      tag_37\n      swap2\n      swap1\n      tag_38\n      jump\t// in\n    tag_37:\n      swap3\n      pop\n      pop\n      dup2\n      swap1\n      sstore\n      pop\n        /* \"contracts/FundMe.sol\":1159:1308  function fund() public payable\r... */\n      jump\t// out\n        /* \"#utility.yul\":7:146   */\n    tag_40:\n        /* \"#utility.yul\":53:58   */\n      0x00\n        /* \"#utility.yul\":91:97   */\n      dup2\n        /* \"#utility.yul\":78:98   */\n      calldataload\n        /* \"#utility.yul\":69:98   */\n      swap1\n      pop\n        /* \"#utility.yul\":107:140   */\n      tag_42\n        /* \"#utility.yul\":134:139   */\n      dup2\n        /* \"#utility.yul\":107:140   */\n      tag_43\n      jump\t// in\n    tag_42:\n        /* \"#utility.yul\":7:146   */\n      swap3\n      swap2\n      pop\n      pop\n      jump\t// out\n        /* \"#utility.yul\":152:293   */\n    tag_44:\n        /* \"#utility.yul\":208:213   */\n      0x00\n        /* \"#utility.yul\":239:245   */\n      dup2\n        /* \"#utility.yul\":233:246   */\n      mload\n        /* \"#utility.yul\":224:246   */\n      swap1\n      pop\n        /* \"#utility.yul\":255:287   */\n      tag_46\n        /* \"#utility.yul\":281:286   */\n      dup2\n        /* \"#utility.yul\":255:287   */\n      tag_47\n      jump\t// in\n    tag_46:\n        /* \"#utility.yul\":152:293   */\n      swap3\n      swap2\n      pop\n      pop\n      jump\t// out\n        /* \"#utility.yul\":299:442   */\n    tag_48:\n        /* \"#utility.yul\":356:361   */\n      0x00\n        /* \"#utility.yul\":387:393   */\n      dup2\n        /* \"#utility.yul\":381:394   */\n      mload\n        /* \"#utility.yul\":372:394   */\n      swap1\n      pop\n        /* \"#utility.yul\":403:436   */\n      tag_50\n        /* \"#utility.yul\":430:435   */\n      dup2\n        /* \"#utility.yul\":403:436   */\n      tag_51\n      jump\t// in\n    tag_50:\n        /* \"#utility.yul\":299:442   */\n      swap3\n      swap2\n      pop\n      pop\n      jump\t// out\n        /* \"#utility.yul\":448:589   */\n    tag_52:\n        /* \"#utility.yul\":504:509   */\n      0x00\n        /* \"#utility.yul\":535:541   */\n      dup2\n        /* \"#utility.yul\":529:542   */\n      mload\n        /* \"#utility.yul\":520:542   */\n      swap1\n      pop\n        /* \"#utility.yul\":551:583   */\n      tag_54\n        /* \"#utility.yul\":577:582   */\n      dup2\n        /* \"#utility.yul\":551:583   */\n      tag_55\n      jump\t// in\n    tag_54:\n        /* \"#utility.yul\":448:589   */\n      swap3\n      swap2\n      pop\n      pop\n      jump\t// out\n        /* \"#utility.yul\":595:924   */\n    tag_14:\n        /* \"#utility.yul\":654:660   */\n      0x00\n        /* \"#utility.yul\":703:705   */\n      0x20\n        /* \"#utility.yul\":691:700   */\n      dup3\n        /* \"#utility.yul\":682:689   */\n      dup5\n        /* \"#utility.yul\":678:701   */\n      sub\n        /* \"#utility.yul\":674:706   */\n      slt\n        /* \"#utility.yul\":671:790   */\n      iszero\n      tag_57\n      jumpi\n        /* \"#utility.yul\":709:788   */\n      tag_58\n      tag_59\n      jump\t// in\n    tag_58:\n        /* \"#utility.yul\":671:790   */\n    tag_57:\n        /* \"#utility.yul\":829:830   */\n      0x00\n        /* \"#utility.yul\":854:907   */\n      tag_60\n        /* \"#utility.yul\":899:906   */\n      dup5\n        /* \"#utility.yul\":890:896   */\n      dup3\n        /* \"#utility.yul\":879:888   */\n      dup6\n        /* \"#utility.yul\":875:897   */\n      add\n        /* \"#utility.yul\":854:907   */\n      tag_40\n      jump\t// in\n    tag_60:\n        /* \"#utility.yul\":844:907   */\n      swap2\n      pop\n        /* \"#utility.yul\":800:917   */\n      pop\n        /* \"#utility.yul\":595:924   */\n      swap3\n      swap2\n      pop\n      pop\n      jump\t// out\n        /* \"#utility.yul\":930:1281   */\n    tag_29:\n        /* \"#utility.yul\":1000:1006   */\n      0x00\n        /* \"#utility.yul\":1049:1051   */\n      0x20\n        /* \"#utility.yul\":1037:1046   */\n      dup3\n        /* \"#utility.yul\":1028:1035   */\n      dup5\n        /* \"#utility.yul\":1024:1047   */\n      sub\n        /* \"#utility.yul\":1020:1052   */\n      slt\n        /* \"#utility.yul\":1017:1136   */\n      iszero\n      tag_62\n      jumpi\n        /* \"#utility.yul\":1055:1134   */\n      tag_63\n      tag_59\n      jump\t// in\n    tag_63:\n        /* \"#utility.yul\":1017:1136   */\n    tag_62:\n        /* \"#utility.yul\":1175:1176   */\n      0x00\n        /* \"#utility.yul\":1200:1264   */\n      tag_64\n        /* \"#utility.yul\":1256:1263   */\n      dup5\n        /* \"#utility.yul\":1247:1253   */\n      dup3\n        /* \"#utility.yul\":1236:1245   */\n      dup6\n        /* \"#utility.yul\":1232:1254   */\n      add\n        /* \"#utility.yul\":1200:1264   */\n      tag_48\n      jump\t// in\n    tag_64:\n        /* \"#utility.yul\":1190:1264   */\n      swap2\n      pop\n        /* \"#utility.yul\":1146:1274   */\n      pop\n        /* \"#utility.yul\":930:1281   */\n      swap3\n      swap2\n      pop\n      pop\n      jump\t// out\n        /* \"#utility.yul\":1287:2258   */\n    tag_35:\n        /* \"#utility.yul\":1390:1396   */\n      0x00\n        /* \"#utility.yul\":1398:1404   */\n      dup1\n        /* \"#utility.yul\":1406:1412   */\n      0x00\n        /* \"#utility.yul\":1414:1420   */\n      dup1\n        /* \"#utility.yul\":1422:1428   */\n      0x00\n        /* \"#utility.yul\":1471:1474   */\n      0xa0\n        /* \"#utility.yul\":1459:1468   */\n      dup7\n        /* \"#utility.yul\":1450:1457   */\n      dup9\n        /* \"#utility.yul\":1446:1469   */\n      sub\n        /* \"#utility.yul\":1442:1475   */\n      slt\n        /* \"#utility.yul\":1439:1559   */\n      iszero\n      tag_66\n      jumpi\n        /* \"#utility.yul\":1478:1557   */\n      tag_67\n      tag_59\n      jump\t// in\n    tag_67:\n        /* \"#utility.yul\":1439:1559   */\n    tag_66:\n        /* \"#utility.yul\":1598:1599   */\n      0x00\n        /* \"#utility.yul\":1623:1686   */\n      tag_68\n        /* \"#utility.yul\":1678:1685   */\n      dup9\n        /* \"#utility.yul\":1669:1675   */\n      dup3\n        /* \"#utility.yul\":1658:1667   */\n      dup10\n        /* \"#utility.yul\":1654:1676   */\n      add\n        /* \"#utility.yul\":1623:1686   */\n      tag_52\n      jump\t// in\n    tag_68:\n        /* \"#utility.yul\":1613:1686   */\n      swap6\n      pop\n        /* \"#utility.yul\":1569:1696   */\n      pop\n        /* \"#utility.yul\":1735:1737   */\n      0x20\n        /* \"#utility.yul\":1761:1824   */\n      tag_69\n        /* \"#utility.yul\":1816:1823   */\n      dup9\n        /* \"#utility.yul\":1807:1813   */\n      dup3\n        /* \"#utility.yul\":1796:1805   */\n      dup10\n        /* \"#utility.yul\":1792:1814   */\n      add\n        /* \"#utility.yul\":1761:1824   */\n      tag_44\n      jump\t// in\n    tag_69:\n        /* \"#utility.yul\":1751:1824   */\n      swap5\n      pop\n        /* \"#utility.yul\":1706:1834   */\n      pop\n        /* \"#utility.yul\":1873:1875   */\n      0x40\n        /* \"#utility.yul\":1899:1963   */\n      tag_70\n        /* \"#utility.yul\":1955:1962   */\n      dup9\n        /* \"#utility.yul\":1946:1952   */\n      dup3\n        /* \"#utility.yul\":1935:1944   */\n      dup10\n        /* \"#utility.yul\":1931:1953   */\n      add\n        /* \"#utility.yul\":1899:1963   */\n      tag_48\n      jump\t// in\n    tag_70:\n        /* \"#utility.yul\":1889:1963   */\n      swap4\n      pop\n        /* \"#utility.yul\":1844:1973   */\n      pop\n        /* \"#utility.yul\":2012:2014   */\n      0x60\n        /* \"#utility.yul\":2038:2102   */\n      tag_71\n        /* \"#utility.yul\":2094:2101   */\n      dup9\n        /* \"#utility.yul\":2085:2091   */\n      dup3\n        /* \"#utility.yul\":2074:2083   */\n      dup10\n        /* \"#utility.yul\":2070:2092   */\n      add\n        /* \"#utility.yul\":2038:2102   */\n      tag_48\n      jump\t// in\n    tag_71:\n        /* \"#utility.yul\":2028:2102   */\n      swap3\n      pop\n        /* \"#utility.yul\":1983:2112   */\n      pop\n        /* \"#utility.yul\":2151:2154   */\n      0x80\n        /* \"#utility.yul\":2178:2241   */\n      tag_72\n        /* \"#utility.yul\":2233:2240   */\n      dup9\n        /* \"#utility.yul\":2224:2230   */\n      dup3\n        /* \"#utility.yul\":2213:2222   */\n      dup10\n        /* \"#utility.yul\":2209:2231   */\n      add\n        /* \"#utility.yul\":2178:2241   */\n      tag_52\n      jump\t// in\n    tag_72:\n        /* \"#utility.yul\":2168:2241   */\n      swap2\n      pop\n        /* \"#utility.yul\":2122:2251   */\n      pop\n        /* \"#utility.yul\":1287:2258   */\n      swap3\n      swap6\n      pop\n      swap3\n      swap6\n      swap1\n      swap4\n      pop\n      jump\t// out\n        /* \"#utility.yul\":2264:2379   */\n    tag_73:\n        /* \"#utility.yul\":2349:2372   */\n      tag_75\n        /* \"#utility.yul\":2366:2371   */\n      dup2\n        /* \"#utility.yul\":2349:2372   */\n      tag_76\n      jump\t// in\n    tag_75:\n        /* \"#utility.yul\":2344:2347   */\n      dup3\n        /* \"#utility.yul\":2337:2373   */\n      mstore\n        /* \"#utility.yul\":2264:2379   */\n      pop\n      pop\n      jump\t// out\n        /* \"#utility.yul\":2385:2503   */\n    tag_77:\n        /* \"#utility.yul\":2472:2496   */\n      tag_79\n        /* \"#utility.yul\":2490:2495   */\n      dup2\n        /* \"#utility.yul\":2472:2496   */\n      tag_80\n      jump\t// in\n    tag_79:\n        /* \"#utility.yul\":2467:2470   */\n      dup3\n        /* \"#utility.yul\":2460:2497   */\n      mstore\n        /* \"#utility.yul\":2385:2503   */\n      pop\n      pop\n      jump\t// out\n        /* \"#utility.yul\":2509:2624   */\n    tag_81:\n        /* \"#utility.yul\":2594:2617   */\n      tag_83\n        /* \"#utility.yul\":2611:2616   */\n      dup2\n        /* \"#utility.yul\":2594:2617   */\n      tag_84\n      jump\t// in\n    tag_83:\n        /* \"#utility.yul\":2589:2592   */\n      dup3\n        /* \"#utility.yul\":2582:2618   */\n      mstore\n        /* \"#utility.yul\":2509:2624   */\n      pop\n      pop\n      jump\t// out\n        /* \"#utility.yul\":2630:2852   */\n    tag_10:\n        /* \"#utility.yul\":2723:2727   */\n      0x00\n        /* \"#utility.yul\":2761:2763   */\n      0x20\n        /* \"#utility.yul\":2750:2759   */\n      dup3\n        /* \"#utility.yul\":2746:2764   */\n      add\n        /* \"#utility.yul\":2738:2764   */\n      swap1\n      pop\n        /* \"#utility.yul\":2774:2845   */\n      tag_86\n        /* \"#utility.yul\":2842:2843   */\n      0x00\n        /* \"#utility.yul\":2831:2840   */\n      dup4\n        /* \"#utility.yul\":2827:2844   */\n      add\n        /* \"#utility.yul\":2818:2824   */\n      dup5\n        /* \"#utility.yul\":2774:2845   */\n      tag_77\n      jump\t// in\n    tag_86:\n        /* \"#utility.yul\":2630:2852   */\n      swap3\n      swap2\n      pop\n      pop\n      jump\t// out\n        /* \"#utility.yul\":2858:3510   */\n    tag_21:\n        /* \"#utility.yul\":3057:3061   */\n      0x00\n        /* \"#utility.yul\":3095:3098   */\n      0xa0\n        /* \"#utility.yul\":3084:3093   */\n      dup3\n        /* \"#utility.yul\":3080:3099   */\n      add\n        /* \"#utility.yul\":3072:3099   */\n      swap1\n      pop\n        /* \"#utility.yul\":3109:3178   */\n      tag_88\n        /* \"#utility.yul\":3175:3176   */\n      0x00\n        /* \"#utility.yul\":3164:3173   */\n      dup4\n        /* \"#utility.yul\":3160:3177   */\n      add\n        /* \"#utility.yul\":3151:3157   */\n      dup9\n        /* \"#utility.yul\":3109:3178   */\n      tag_81\n      jump\t// in\n    tag_88:\n        /* \"#utility.yul\":3188:3258   */\n      tag_89\n        /* \"#utility.yul\":3254:3256   */\n      0x20\n        /* \"#utility.yul\":3243:3252   */\n      dup4\n        /* \"#utility.yul\":3239:3257   */\n      add\n        /* \"#utility.yul\":3230:3236   */\n      dup8\n        /* \"#utility.yul\":3188:3258   */\n      tag_73\n      jump\t// in\n    tag_89:\n        /* \"#utility.yul\":3268:3340   */\n      tag_90\n        /* \"#utility.yul\":3336:3338   */\n      0x40\n        /* \"#utility.yul\":3325:3334   */\n      dup4\n        /* \"#utility.yul\":3321:3339   */\n      add\n        /* \"#utility.yul\":3312:3318   */\n      dup7\n        /* \"#utility.yul\":3268:3340   */\n      tag_77\n      jump\t// in\n    tag_90:\n        /* \"#utility.yul\":3350:3422   */\n      tag_91\n        /* \"#utility.yul\":3418:3420   */\n      0x60\n        /* \"#utility.yul\":3407:3416   */\n      dup4\n        /* \"#utility.yul\":3403:3421   */\n      add\n        /* \"#utility.yul\":3394:3400   */\n      dup6\n        /* \"#utility.yul\":3350:3422   */\n      tag_77\n      jump\t// in\n    tag_91:\n        /* \"#utility.yul\":3432:3503   */\n      tag_92\n        /* \"#utility.yul\":3498:3501   */\n      0x80\n        /* \"#utility.yul\":3487:3496   */\n      dup4\n        /* \"#utility.yul\":3483:3502   */\n      add\n        /* \"#utility.yul\":3474:3480   */\n      dup5\n        /* \"#utility.yul\":3432:3503   */\n      tag_81\n      jump\t// in\n    tag_92:\n        /* \"#utility.yul\":2858:3510   */\n      swap7\n      swap6\n      pop\n      pop\n      pop\n      pop\n      pop\n      pop\n      jump\t// out\n        /* \"#utility.yul\":3597:3902   */\n    tag_38:\n        /* \"#utility.yul\":3637:3640   */\n      0x00\n        /* \"#utility.yul\":3656:3676   */\n      tag_96\n        /* \"#utility.yul\":3674:3675   */\n      dup3\n        /* \"#utility.yul\":3656:3676   */\n      tag_80\n      jump\t// in\n    tag_96:\n        /* \"#utility.yul\":3651:3676   */\n      swap2\n      pop\n        /* \"#utility.yul\":3690:3710   */\n      tag_97\n        /* \"#utility.yul\":3708:3709   */\n      dup4\n        /* \"#utility.yul\":3690:3710   */\n      tag_80\n      jump\t// in\n    tag_97:\n        /* \"#utility.yul\":3685:3710   */\n      swap3\n      pop\n        /* \"#utility.yul\":3844:3845   */\n      dup3\n        /* \"#utility.yul\":3776:3842   */\n      0xffffffffffffffffffffffffffffffffffffffffffffffffffffffffffffffff\n        /* \"#utility.yul\":3772:3846   */\n      sub\n        /* \"#utility.yul\":3769:3770   */\n      dup3\n        /* \"#utility.yul\":3766:3847   */\n      gt\n        /* \"#utility.yul\":3763:3870   */\n      iszero\n      tag_98\n      jumpi\n        /* \"#utility.yul\":3850:3868   */\n      tag_99\n      tag_100\n      jump\t// in\n    tag_99:\n        /* \"#utility.yul\":3763:3870   */\n    tag_98:\n        /* \"#utility.yul\":3894:3895   */\n      dup3\n        /* \"#utility.yul\":3891:3892   */\n      dup3\n        /* \"#utility.yul\":3887:3896   */\n      add\n        /* \"#utility.yul\":3880:3896   */\n      swap1\n      pop\n        /* \"#utility.yul\":3597:3902   */\n      swap3\n      swap2\n      pop\n      pop\n      jump\t// out\n        /* \"#utility.yul\":3908:4004   */\n    tag_101:\n        /* \"#utility.yul\":3945:3952   */\n      0x00\n        /* \"#utility.yul\":3974:3998   */\n      tag_103\n        /* \"#utility.yul\":3992:3997   */\n      dup3\n        /* \"#utility.yul\":3974:3998   */\n      tag_104\n      jump\t// in\n    tag_103:\n        /* \"#utility.yul\":3963:3998   */\n      swap1\n      pop\n        /* \"#utility.yul\":3908:4004   */\n      swap2\n      swap1\n      pop\n      jump\t// out\n        /* \"#utility.yul\":4010:4086   */\n    tag_76:\n        /* \"#utility.yul\":4046:4053   */\n      0x00\n        /* \"#utility.yul\":4075:4080   */\n      dup2\n        /* \"#utility.yul\":4064:4080   */\n      swap1\n      pop\n        /* \"#utility.yul\":4010:4086   */\n      swap2\n      swap1\n      pop\n      jump\t// out\n        /* \"#utility.yul\":4092:4218   */\n    tag_104:\n        /* \"#utility.yul\":4129:4136   */\n      0x00\n        /* \"#utility.yul\":4169:4211   */\n      0xffffffffffffffffffffffffffffffffffffffff\n        /* \"#utility.yul\":4162:4167   */\n      dup3\n        /* \"#utility.yul\":4158:4212   */\n      and\n        /* \"#utility.yul\":4147:4212   */\n      swap1\n      pop\n        /* \"#utility.yul\":4092:4218   */\n      swap2\n      swap1\n      pop\n      jump\t// out\n        /* \"#utility.yul\":4224:4301   */\n    tag_80:\n        /* \"#utility.yul\":4261:4268   */\n      0x00\n        /* \"#utility.yul\":4290:4295   */\n      dup2\n        /* \"#utility.yul\":4279:4295   */\n      swap1\n      pop\n        /* \"#utility.yul\":4224:4301   */\n      swap2\n      swap1\n      pop\n      jump\t// out\n        /* \"#utility.yul\":4307:4412   */\n    tag_84:\n        /* \"#utility.yul\":4343:4350   */\n      0x00\n        /* \"#utility.yul\":4383:4405   */\n      0xffffffffffffffffffff\n        /* \"#utility.yul\":4376:4381   */\n      dup3\n        /* \"#utility.yul\":4372:4406   */\n      and\n        /* \"#utility.yul\":4361:4406   */\n      swap1\n      pop\n        /* \"#utility.yul\":4307:4412   */\n      swap2\n      swap1\n      pop\n      jump\t// out\n        /* \"#utility.yul\":4418:4598   */\n    tag_100:\n        /* \"#utility.yul\":4466:4543   */\n      0x4e487b7100000000000000000000000000000000000000000000000000000000\n        /* \"#utility.yul\":4463:4464   */\n      0x00\n        /* \"#utility.yul\":4456:4544   */\n      mstore\n        /* \"#utility.yul\":4563:4567   */\n      0x11\n        /* \"#utility.yul\":4560:4561   */\n      0x04\n        /* \"#utility.yul\":4553:4568   */\n      mstore\n        /* \"#utility.yul\":4587:4591   */\n      0x24\n        /* \"#utility.yul\":4584:4585   */\n      0x00\n        /* \"#utility.yul\":4577:4592   */\n      revert\n        /* \"#utility.yul\":4727:4844   */\n    tag_59:\n        /* \"#utility.yul\":4836:4837   */\n      0x00\n        /* \"#utility.yul\":4833:4834   */\n      dup1\n        /* \"#utility.yul\":4826:4838   */\n      revert\n        /* \"#utility.yul\":4850:4972   */\n    tag_43:\n        /* \"#utility.yul\":4923:4947   */\n      tag_114\n        /* \"#utility.yul\":4941:4946   */\n      dup2\n        /* \"#utility.yul\":4923:4947   */\n      tag_101\n      jump\t// in\n    tag_114:\n        /* \"#utility.yul\":4916:4921   */\n      dup2\n        /* \"#utility.yul\":4913:4948   */\n      eq\n        /* \"#utility.yul\":4903:4966   */\n      tag_115\n      jumpi\n        /* \"#utility.yul\":4962:4963   */\n      0x00\n        /* \"#utility.yul\":4959:4960   */\n      dup1\n        /* \"#utility.yul\":4952:4964   */\n      revert\n        /* \"#utility.yul\":4903:4966   */\n    tag_115:\n        /* \"#utility.yul\":4850:4972   */\n      pop\n      jump\t// out\n        /* \"#utility.yul\":4978:5098   */\n    tag_47:\n        /* \"#utility.yul\":5050:5073   */\n      tag_117\n        /* \"#utility.yul\":5067:5072   */\n      dup2\n        /* \"#utility.yul\":5050:5073   */\n      tag_76\n      jump\t// in\n    tag_117:\n        /* \"#utility.yul\":5043:5048   */\n      dup2\n        /* \"#utility.yul\":5040:5074   */\n      eq\n        /* \"#utility.yul\":5030:5092   */\n      tag_118\n      jumpi\n        /* \"#utility.yul\":5088:5089   */\n      0x00\n        /* \"#utility.yul\":5085:5086   */\n      dup1\n        /* \"#utility.yul\":5078:5090   */\n      revert\n        /* \"#utility.yul\":5030:5092   */\n    tag_118:\n        /* \"#utility.yul\":4978:5098   */\n      pop\n      jump\t// out\n        /* \"#utility.yul\":5104:5226   */\n    tag_51:\n        /* \"#utility.yul\":5177:5201   */\n      tag_120\n        /* \"#utility.yul\":5195:5200   */\n      dup2\n        /* \"#utility.yul\":5177:5201   */\n      tag_80\n      jump\t// in\n    tag_120:\n        /* \"#utility.yul\":5170:5175   */\n      dup2\n        /* \"#utility.yul\":5167:5202   */\n      eq\n        /* \"#utility.yul\":5157:5220   */\n      tag_121\n      jumpi\n        /* \"#utility.yul\":5216:5217   */\n      0x00\n        /* \"#utility.yul\":5213:5214   */\n      dup1\n        /* \"#utility.yul\":5206:5218   */\n      revert\n        /* \"#utility.yul\":5157:5220   */\n    tag_121:\n        /* \"#utility.yul\":5104:5226   */\n      pop\n      jump\t// out\n        /* \"#utility.yul\":5232:5352   */\n    tag_55:\n        /* \"#utility.yul\":5304:5327   */\n      tag_123\n        /* \"#utility.yul\":5321:5326   */\n      dup2\n        /* \"#utility.yul\":5304:5327   */\n      tag_84\n      jump\t// in\n    tag_123:\n        /* \"#utility.yul\":5297:5302   */\n      dup2\n        /* \"#utility.yul\":5294:5328   */\n      eq\n        /* \"#utility.yul\":5284:5346   */\n      tag_124\n      jumpi\n        /* \"#utility.yul\":5342:5343   */\n      0x00\n        /* \"#utility.yul\":5339:5340   */\n      dup1\n        /* \"#utility.yul\":5332:5344   */\n      revert\n        /* \"#utility.yul\":5284:5346   */\n    tag_124:\n        /* \"#utility.yul\":5232:5352   */\n      pop\n      jump\t// out\n\n    auxdata: 0xa2646970667358221220cf9aaf7b3fb69485b35367e56e40ce43a8c9cce885fceb96e7fcbb4534d0566e64736f6c63430008070033\n}\n",
				"bytecode": {
					"linkReferences": {},
					"object": "608060405234801561001057600080fd5b506105de806100206000396000f3fe60806040526004361061003f5760003560e01c80630d8e6e2c146100445780633e47d6f31461006f57806398d5fdca146100ac578063b60d4288146100db575b600080fd5b34801561005057600080fd5b506100596100e5565b60405161006691906103f8565b60405180910390f35b34801561007b57600080fd5b50610096600480360381019061009191906102f6565b610183565b6040516100a391906103f8565b60405180910390f35b3480156100b857600080fd5b506100c161019b565b6040516100d2959493929190610413565b60405180910390f35b6100e361024b565b005b60008073d4a33860578de61dbabdc8bfdb98fd742fa7028e90508073ffffffffffffffffffffffffffffffffffffffff166354fd4d506040518163ffffffff1660e01b815260040160206040518083038186803b15801561014557600080fd5b505afa158015610159573d6000803e3d6000fd5b505050506040513d601f19601f8201168201806040525081019061017d9190610323565b91505090565b60006020528060005260406000206000915090505481565b60008060008060008073d4a33860578de61dbabdc8bfdb98fd742fa7028e90508073ffffffffffffffffffffffffffffffffffffffff1663feaf968c6040518163ffffffff1660e01b815260040160a06040518083038186803b15801561020157600080fd5b505afa158015610215573d6000803e3d6000fd5b505050506040513d601f19601f820116820180604052508101906102399190610350565b95509550955095509550509091929394565b346000803373ffffffffffffffffffffffffffffffffffffffff1673ffffffffffffffffffffffffffffffffffffffff16815260200190815260200160002060008282546102999190610466565b92505081905550565b6000813590506102b18161054c565b92915050565b6000815190506102c681610563565b92915050565b6000815190506102db8161057a565b92915050565b6000815190506102f081610591565b92915050565b60006020828403121561030c5761030b610547565b5b600061031a848285016102a2565b91505092915050565b60006020828403121561033957610338610547565b5b6000610347848285016102cc565b91505092915050565b600080600080600060a0868803121561036c5761036b610547565b5b600061037a888289016102e1565b955050602061038b888289016102b7565b945050604061039c888289016102cc565b93505060606103ad888289016102cc565b92505060806103be888289016102e1565b9150509295509295909350565b6103d4816104ce565b82525050565b6103e3816104f8565b82525050565b6103f281610502565b82525050565b600060208201905061040d60008301846103da565b92915050565b600060a08201905061042860008301886103e9565b61043560208301876103cb565b61044260408301866103da565b61044f60608301856103da565b61045c60808301846103e9565b9695505050505050565b6000610471826104f8565b915061047c836104f8565b9250827fffffffffffffffffffffffffffffffffffffffffffffffffffffffffffffffff038211156104b1576104b0610518565b5b828201905092915050565b60006104c7826104d8565b9050919050565b6000819050919050565b600073ffffffffffffffffffffffffffffffffffffffff82169050919050565b6000819050919050565b600069ffffffffffffffffffff82169050919050565b7f4e487b7100000000000000000000000000000000000000000000000000000000600052601160045260246000fd5b600080fd5b610555816104bc565b811461056057600080fd5b50565b61056c816104ce565b811461057757600080fd5b50565b610583816104f8565b811461058e57600080fd5b50565b61059a81610502565b81146105a557600080fd5b5056fea2646970667358221220cf9aaf7b3fb69485b35367e56e40ce43a8c9cce885fceb96e7fcbb4534d0566e64736f6c63430008070033",
					"opcodes": "PUSH1 0x80 PUSH1 0x40 MSTORE CALLVALUE DUP1 ISZERO PUSH2 0x10 JUMPI PUSH1 0x0 DUP1 REVERT JUMPDEST POP PUSH2 0x5DE DUP1 PUSH2 0x20 PUSH1 0x0 CODECOPY PUSH1 0x0 RETURN INVALID PUSH1 0x80 PUSH1 0x40 MSTORE PUSH1 0x4 CALLDATASIZE LT PUSH2 0x3F JUMPI PUSH1 0x0 CALLDATALOAD PUSH1 0xE0 SHR DUP1 PUSH4 0xD8E6E2C EQ PUSH2 0x44 JUMPI DUP1 PUSH4 0x3E47D6F3 EQ PUSH2 0x6F JUMPI DUP1 PUSH4 0x98D5FDCA EQ PUSH2 0xAC JUMPI DUP1 PUSH4 0xB60D4288 EQ PUSH2 0xDB JUMPI JUMPDEST PUSH1 0x0 DUP1 REVERT JUMPDEST CALLVALUE DUP1 ISZERO PUSH2 0x50 JUMPI PUSH1 0x0 DUP1 REVERT JUMPDEST POP PUSH2 0x59 PUSH2 0xE5 JUMP JUMPDEST PUSH1 0x40 MLOAD PUSH2 0x66 SWAP2 SWAP1 PUSH2 0x3F8 JUMP JUMPDEST PUSH1 0x40 MLOAD DUP1 SWAP2 SUB SWAP1 RETURN JUMPDEST CALLVALUE DUP1 ISZERO PUSH2 0x7B JUMPI PUSH1 0x0 DUP1 REVERT JUMPDEST POP PUSH2 0x96 PUSH1 0x4 DUP1 CALLDATASIZE SUB DUP2 ADD SWAP1 PUSH2 0x91 SWAP2 SWAP1 PUSH2 0x2F6 JUMP JUMPDEST PUSH2 0x183 JUMP JUMPDEST PUSH1 0x40 MLOAD PUSH2 0xA3 SWAP2 SWAP1 PUSH2 0x3F8 JUMP JUMPDEST PUSH1 0x40 MLOAD DUP1 SWAP2 SUB SWAP1 RETURN JUMPDEST CALLVALUE DUP1 ISZERO PUSH2 0xB8 JUMPI PUSH1 0x0 DUP1 REVERT JUMPDEST POP PUSH2 0xC1 PUSH2 0x19B JUMP JUMPDEST PUSH1 0x40 MLOAD PUSH2 0xD2 SWAP6 SWAP5 SWAP4 SWAP3 SWAP2 SWAP1 PUSH2 0x413 JUMP JUMPDEST PUSH1 0x40 MLOAD DUP1 SWAP2 SUB SWAP1 RETURN JUMPDEST PUSH2 0xE3 PUSH2 0x24B JUMP JUMPDEST STOP JUMPDEST PUSH1 0x0 DUP1 PUSH20 0xD4A33860578DE61DBABDC8BFDB98FD742FA7028E SWAP1 POP DUP1 PUSH20 0xFFFFFFFFFFFFFFFFFFFFFFFFFFFFFFFFFFFFFFFF AND PUSH4 0x54FD4D50 PUSH1 0x40 MLOAD DUP2 PUSH4 0xFFFFFFFF AND PUSH1 0xE0 SHL DUP2 MSTORE PUSH1 0x4 ADD PUSH1 0x20 PUSH1 0x40 MLOAD DUP1 DUP4 SUB DUP2 DUP7 DUP1 EXTCODESIZE ISZERO DUP1 ISZERO PUSH2 0x145 JUMPI PUSH1 0x0 DUP1 REVERT JUMPDEST POP GAS STATICCALL ISZERO DUP1 ISZERO PUSH2 0x159 JUMPI RETURNDATASIZE PUSH1 0x0 DUP1 RETURNDATACOPY RETURNDATASIZE PUSH1 0x0 REVERT JUMPDEST POP POP POP POP PUSH1 0x40 MLOAD RETURNDATASIZE PUSH1 0x1F NOT PUSH1 0x1F DUP3 ADD AND DUP3 ADD DUP1 PUSH1 0x40 MSTORE POP DUP2 ADD SWAP1 PUSH2 0x17D SWAP2 SWAP1 PUSH2 0x323 JUMP JUMPDEST SWAP2 POP POP SWAP1 JUMP JUMPDEST PUSH1 0x0 PUSH1 0x20 MSTORE DUP1 PUSH1 0x0 MSTORE PUSH1 0x40 PUSH1 0x0 KECCAK256 PUSH1 0x0 SWAP2 POP SWAP1 POP SLOAD DUP2 JUMP JUMPDEST PUSH1 0x0 DUP1 PUSH1 0x0 DUP1 PUSH1 0x0 DUP1 PUSH20 0xD4A33860578DE61DBABDC8BFDB98FD742FA7028E SWAP1 POP DUP1 PUSH20 0xFFFFFFFFFFFFFFFFFFFFFFFFFFFFFFFFFFFFFFFF AND PUSH4 0xFEAF968C PUSH1 0x40 MLOAD DUP2 PUSH4 0xFFFFFFFF AND PUSH1 0xE0 SHL DUP2 MSTORE PUSH1 0x4 ADD PUSH1 0xA0 PUSH1 0x40 MLOAD DUP1 DUP4 SUB DUP2 DUP7 DUP1 EXTCODESIZE ISZERO DUP1 ISZERO PUSH2 0x201 JUMPI PUSH1 0x0 DUP1 REVERT JUMPDEST POP GAS STATICCALL ISZERO DUP1 ISZERO PUSH2 0x215 JUMPI RETURNDATASIZE PUSH1 0x0 DUP1 RETURNDATACOPY RETURNDATASIZE PUSH1 0x0 REVERT JUMPDEST POP POP POP POP PUSH1 0x40 MLOAD RETURNDATASIZE PUSH1 0x1F NOT PUSH1 0x1F DUP3 ADD AND DUP3 ADD DUP1 PUSH1 0x40 MSTORE POP DUP2 ADD SWAP1 PUSH2 0x239 SWAP2 SWAP1 PUSH2 0x350 JUMP JUMPDEST SWAP6 POP SWAP6 POP SWAP6 POP SWAP6 POP SWAP6 POP POP SWAP1 SWAP2 SWAP3 SWAP4 SWAP5 JUMP JUMPDEST CALLVALUE PUSH1 0x0 DUP1 CALLER PUSH20 0xFFFFFFFFFFFFFFFFFFFFFFFFFFFFFFFFFFFFFFFF AND PUSH20 0xFFFFFFFFFFFFFFFFFFFFFFFFFFFFFFFFFFFFFFFF AND DUP2 MSTORE PUSH1 0x20 ADD SWAP1 DUP2 MSTORE PUSH1 0x20 ADD PUSH1 0x0 KECCAK256 PUSH1 0x0 DUP3 DUP3 SLOAD PUSH2 0x299 SWAP2 SWAP1 PUSH2 0x466 JUMP JUMPDEST SWAP3 POP POP DUP2 SWAP1 SSTORE POP JUMP JUMPDEST PUSH1 0x0 DUP2 CALLDATALOAD SWAP1 POP PUSH2 0x2B1 DUP2 PUSH2 0x54C JUMP JUMPDEST SWAP3 SWAP2 POP POP JUMP JUMPDEST PUSH1 0x0 DUP2 MLOAD SWAP1 POP PUSH2 0x2C6 DUP2 PUSH2 0x563 JUMP JUMPDEST SWAP3 SWAP2 POP POP JUMP JUMPDEST PUSH1 0x0 DUP2 MLOAD SWAP1 POP PUSH2 0x2DB DUP2 PUSH2 0x57A JUMP JUMPDEST SWAP3 SWAP2 POP POP JUMP JUMPDEST PUSH1 0x0 DUP2 MLOAD SWAP1 POP PUSH2 0x2F0 DUP2 PUSH2 0x591 JUMP JUMPDEST SWAP3 SWAP2 POP POP JUMP JUMPDEST PUSH1 0x0 PUSH1 0x20 DUP3 DUP5 SUB SLT ISZERO PUSH2 0x30C JUMPI PUSH2 0x30B PUSH2 0x547 JUMP JUMPDEST JUMPDEST PUSH1 0x0 PUSH2 0x31A DUP5 DUP3 DUP6 ADD PUSH2 0x2A2 JUMP JUMPDEST SWAP2 POP POP SWAP3 SWAP2 POP POP JUMP JUMPDEST PUSH1 0x0 PUSH1 0x20 DUP3 DUP5 SUB SLT ISZERO PUSH2 0x339 JUMPI PUSH2 0x338 PUSH2 0x547 JUMP JUMPDEST JUMPDEST PUSH1 0x0 PUSH2 0x347 DUP5 DUP3 DUP6 ADD PUSH2 0x2CC JUMP JUMPDEST SWAP2 POP POP SWAP3 SWAP2 POP POP JUMP JUMPDEST PUSH1 0x0 DUP1 PUSH1 0x0 DUP1 PUSH1 0x0 PUSH1 0xA0 DUP7 DUP9 SUB SLT ISZERO PUSH2 0x36C JUMPI PUSH2 0x36B PUSH2 0x547 JUMP JUMPDEST JUMPDEST PUSH1 0x0 PUSH2 0x37A DUP9 DUP3 DUP10 ADD PUSH2 0x2E1 JUMP JUMPDEST SWAP6 POP POP PUSH1 0x20 PUSH2 0x38B DUP9 DUP3 DUP10 ADD PUSH2 0x2B7 JUMP JUMPDEST SWAP5 POP POP PUSH1 0x40 PUSH2 0x39C DUP9 DUP3 DUP10 ADD PUSH2 0x2CC JUMP JUMPDEST SWAP4 POP POP PUSH1 0x60 PUSH2 0x3AD DUP9 DUP3 DUP10 ADD PUSH2 0x2CC JUMP JUMPDEST SWAP3 POP POP PUSH1 0x80 PUSH2 0x3BE DUP9 DUP3 DUP10 ADD PUSH2 0x2E1 JUMP JUMPDEST SWAP2 POP POP SWAP3 SWAP6 POP SWAP3 SWAP6 SWAP1 SWAP4 POP JUMP JUMPDEST PUSH2 0x3D4 DUP2 PUSH2 0x4CE JUMP JUMPDEST DUP3 MSTORE POP POP JUMP JUMPDEST PUSH2 0x3E3 DUP2 PUSH2 0x4F8 JUMP JUMPDEST DUP3 MSTORE POP POP JUMP JUMPDEST PUSH2 0x3F2 DUP2 PUSH2 0x502 JUMP JUMPDEST DUP3 MSTORE POP POP JUMP JUMPDEST PUSH1 0x0 PUSH1 0x20 DUP3 ADD SWAP1 POP PUSH2 0x40D PUSH1 0x0 DUP4 ADD DUP5 PUSH2 0x3DA JUMP JUMPDEST SWAP3 SWAP2 POP POP JUMP JUMPDEST PUSH1 0x0 PUSH1 0xA0 DUP3 ADD SWAP1 POP PUSH2 0x428 PUSH1 0x0 DUP4 ADD DUP9 PUSH2 0x3E9 JUMP JUMPDEST PUSH2 0x435 PUSH1 0x20 DUP4 ADD DUP8 PUSH2 0x3CB JUMP JUMPDEST PUSH2 0x442 PUSH1 0x40 DUP4 ADD DUP7 PUSH2 0x3DA JUMP JUMPDEST PUSH2 0x44F PUSH1 0x60 DUP4 ADD DUP6 PUSH2 0x3DA JUMP JUMPDEST PUSH2 0x45C PUSH1 0x80 DUP4 ADD DUP5 PUSH2 0x3E9 JUMP JUMPDEST SWAP7 SWAP6 POP POP POP POP POP POP JUMP JUMPDEST PUSH1 0x0 PUSH2 0x471 DUP3 PUSH2 0x4F8 JUMP JUMPDEST SWAP2 POP PUSH2 0x47C DUP4 PUSH2 0x4F8 JUMP JUMPDEST SWAP3 POP DUP3 PUSH32 0xFFFFFFFFFFFFFFFFFFFFFFFFFFFFFFFFFFFFFFFFFFFFFFFFFFFFFFFFFFFFFFFF SUB DUP3 GT ISZERO PUSH2 0x4B1 JUMPI PUSH2 0x4B0 PUSH2 0x518 JUMP JUMPDEST JUMPDEST DUP3 DUP3 ADD SWAP1 POP SWAP3 SWAP2 POP POP JUMP JUMPDEST PUSH1 0x0 PUSH2 0x4C7 DUP3 PUSH2 0x4D8 JUMP JUMPDEST SWAP1 POP SWAP2 SWAP1 POP JUMP JUMPDEST PUSH1 0x0 DUP2 SWAP1 POP SWAP2 SWAP1 POP JUMP JUMPDEST PUSH1 0x0 PUSH20 0xFFFFFFFFFFFFFFFFFFFFFFFFFFFFFFFFFFFFFFFF DUP3 AND SWAP1 POP SWAP2 SWAP1 POP JUMP JUMPDEST PUSH1 0x0 DUP2 SWAP1 POP SWAP2 SWAP1 POP JUMP JUMPDEST PUSH1 0x0 PUSH10 0xFFFFFFFFFFFFFFFFFFFF DUP3 AND SWAP1 POP SWAP2 SWAP1 POP JUMP JUMPDEST PUSH32 0x4E487B7100000000000000000000000000000000000000000000000000000000 PUSH1 0x0 MSTORE PUSH1 0x11 PUSH1 0x4 MSTORE PUSH1 0x24 PUSH1 0x0 REVERT JUMPDEST PUSH1 0x0 DUP1 REVERT JUMPDEST PUSH2 0x555 DUP2 PUSH2 0x4BC JUMP JUMPDEST DUP2 EQ PUSH2 0x560 JUMPI PUSH1 0x0 DUP1 REVERT JUMPDEST POP JUMP JUMPDEST PUSH2 0x56C DUP2 PUSH2 0x4CE JUMP JUMPDEST DUP2 EQ PUSH2 0x577 JUMPI PUSH1 0x0 DUP1 REVERT JUMPDEST POP JUMP JUMPDEST PUSH2 0x583 DUP2 PUSH2 0x4F8 JUMP JUMPDEST DUP2 EQ PUSH2 0x58E JUMPI PUSH1 0x0 DUP1 REVERT JUMPDEST POP JUMP JUMPDEST PUSH2 0x59A DUP2 PUSH2 0x502 JUMP JUMPDEST DUP2 EQ PUSH2 0x5A5 JUMPI PUSH1 0x0 DUP1 REVERT JUMPDEST POP JUMP INVALID LOG2 PUSH5 0x6970667358 0x22 SLT KECCAK256 0xCF SWAP11 0xAF PUSH28 0x3FB69485B35367E56E40CE43A8C9CCE885FCEB96E7FCBB4534D0566E PUSH5 0x736F6C6343 STOP ADDMOD SMOD STOP CALLER "
				},
				"gasEstimates": {
					"creation": {
						"codeDepositCost": "300400",
						"executionCost": "337",
						"totalCost": "300737"
					},
					"external": {
						"addressToAmountFunded(address)": "2814",
						"fund()": "infinite",
						"getPrice()": "infinite",
						"getVersion()": "infinite"
					}
				},
				"methodIdentifiers": {
					"addressToAmountFunded(address)": "3e47d6f3",
					"fund()": "b60d4288",
					"getPrice()": "98d5fdca",
					"getVersion()": "0d8e6e2c"
				}
			},
			"storageLayout": {
				"storage": [
					{
						"astId": 49,
						"contract": "contracts/FundMe.sol:FundMe",
						"label": "addressToAmountFunded",
						"offset": 0,
						"slot": "0",
						"type": "t_mapping(t_address,t_uint256)"
					}
				],
				"types": {
					"t_address": {
						"encoding": "inplace",
						"label": "address",
						"numberOfBytes": "20"
					},
					"t_mapping(t_address,t_uint256)": {
						"encoding": "mapping",
						"key": "t_address",
						"label": "mapping(address => uint256)",
						"numberOfBytes": "32",
						"value": "t_uint256"
					},
					"t_uint256": {
						"encoding": "inplace",
						"label": "uint256",
						"numberOfBytes": "32"
					}
				}
			},
			"userdoc": {
				"kind": "user",
				"methods": {},
				"version": 1
			}
		}
	}
}