{
	"contracts/FundMe.sol": {
		"FundMe": {
			"abi": [
				{
					"inputs": [
						{
							"internalType": "address",
							"name": "",
							"type": "address"
						}
					],
					"name": "addressToAmountFunded",
					"outputs": [
						{
							"internalType": "uint256",
							"name": "",
							"type": "uint256"
						}
					],
					"stateMutability": "view",
					"type": "function"
				},
				{
					"inputs": [],
					"name": "fund",
					"outputs": [],
					"stateMutability": "payable",
					"type": "function"
				},
				{
					"inputs": [],
					"name": "getPrice",
					"outputs": [
						{
							"internalType": "int256",
							"name": "",
							"type": "int256"
						}
					],
					"stateMutability": "view",
					"type": "function"
				},
				{
					"inputs": [],
					"name": "getVersion",
					"outputs": [
						{
							"internalType": "uint256",
							"name": "",
							"type": "uint256"
						}
					],
					"stateMutability": "view",
					"type": "function"
				}
			],
			"devdoc": {
				"kind": "dev",
				"methods": {},
				"version": 1
			},
			"evm": {
				"assembly": "    /* \"contracts/FundMe.sol\":913:2135  contract FundMe\r... */\n  mstore(0x40, 0x80)\n  callvalue\n  dup1\n  iszero\n  tag_1\n  jumpi\n  0x00\n  dup1\n  revert\ntag_1:\n  pop\n  dataSize(sub_0)\n  dup1\n  dataOffset(sub_0)\n  0x00\n  codecopy\n  0x00\n  return\nstop\n\nsub_0: assembly {\n        /* \"contracts/FundMe.sol\":913:2135  contract FundMe\r... */\n      mstore(0x40, 0x80)\n      jumpi(tag_1, lt(calldatasize, 0x04))\n      shr(0xe0, calldataload(0x00))\n      dup1\n      0x0d8e6e2c\n      eq\n      tag_2\n      jumpi\n      dup1\n      0x3e47d6f3\n      eq\n      tag_3\n      jumpi\n      dup1\n      0x98d5fdca\n      eq\n      tag_4\n      jumpi\n      dup1\n      0xb60d4288\n      eq\n      tag_5\n      jumpi\n    tag_1:\n      0x00\n      dup1\n      revert\n        /* \"contracts/FundMe.sol\":1316:1718  function getVersion() public view returns(uint256)\r... */\n    tag_2:\n      callvalue\n      dup1\n      iszero\n      tag_6\n      jumpi\n      0x00\n      dup1\n      revert\n    tag_6:\n      pop\n      tag_7\n      tag_8\n      jump\t// in\n    tag_7:\n      mload(0x40)\n      tag_9\n      swap2\n      swap1\n      tag_10\n      jump\t// in\n    tag_9:\n      mload(0x40)\n      dup1\n      swap2\n      sub\n      swap1\n      return\n        /* \"contracts/FundMe.sol\":949:1005  mapping(address => uint256) public addressToAmountFunded */\n    tag_3:\n      callvalue\n      dup1\n      iszero\n      tag_11\n      jumpi\n      0x00\n      dup1\n      revert\n    tag_11:\n      pop\n      tag_12\n      0x04\n      dup1\n      calldatasize\n      sub\n      dup2\n      add\n      swap1\n      tag_13\n      swap2\n      swap1\n      tag_14\n      jump\t// in\n    tag_13:\n      tag_15\n      jump\t// in\n    tag_12:\n      mload(0x40)\n      tag_16\n      swap2\n      swap1\n      tag_10\n      jump\t// in\n    tag_16:\n      mload(0x40)\n      dup1\n      swap2\n      sub\n      swap1\n      return\n        /* \"contracts/FundMe.sol\":1726:2132  function getPrice() public view returns(int256)\r... */\n    tag_4:\n      callvalue\n      dup1\n      iszero\n      tag_17\n      jumpi\n      0x00\n      dup1\n      revert\n    tag_17:\n      pop\n      tag_18\n      tag_19\n      jump\t// in\n    tag_18:\n      mload(0x40)\n      tag_20\n      swap2\n      swap1\n      tag_21\n      jump\t// in\n    tag_20:\n      mload(0x40)\n      dup1\n      swap2\n      sub\n      swap1\n      return\n        /* \"contracts/FundMe.sol\":1159:1308  function fund() public payable\r... */\n    tag_5:\n      tag_22\n      tag_23\n      jump\t// in\n    tag_22:\n      stop\n        /* \"contracts/FundMe.sol\":1316:1718  function getVersion() public view returns(uint256)\r... */\n    tag_8:\n        /* \"contracts/FundMe.sol\":1358:1365  uint256 */\n      0x00\n        /* \"contracts/FundMe.sol\":1572:1603  AggregatorV3Interface pricefeed */\n      dup1\n        /* \"contracts/FundMe.sol\":1628:1670  0xD4a33860578De61DBAbDc8BFdb98FD742fA7028e */\n      0xd4a33860578de61dbabdc8bfdb98fd742fa7028e\n        /* \"contracts/FundMe.sol\":1572:1671  AggregatorV3Interface pricefeed = AggregatorV3Interface(0xD4a33860578De61DBAbDc8BFdb98FD742fA7028e) */\n      swap1\n      pop\n        /* \"contracts/FundMe.sol\":1689:1698  pricefeed */\n      dup1\n        /* \"contracts/FundMe.sol\":1689:1706  pricefeed.version */\n      0xffffffffffffffffffffffffffffffffffffffff\n      and\n      0x54fd4d50\n        /* \"contracts/FundMe.sol\":1689:1708  pricefeed.version() */\n      mload(0x40)\n      dup2\n      0xffffffff\n      and\n      0xe0\n      shl\n      dup2\n      mstore\n      0x04\n      add\n      0x20\n      mload(0x40)\n      dup1\n      dup4\n      sub\n      dup2\n      dup7\n      dup1\n      extcodesize\n      iszero\n      dup1\n      iszero\n      tag_25\n      jumpi\n      0x00\n      dup1\n      revert\n    tag_25:\n      pop\n      gas\n      staticcall\n      iszero\n      dup1\n      iszero\n      tag_27\n      jumpi\n      returndatasize\n      0x00\n      dup1\n      returndatacopy\n      revert(0x00, returndatasize)\n    tag_27:\n      pop\n      pop\n      pop\n      pop\n      mload(0x40)\n      returndatasize\n      not(0x1f)\n      0x1f\n      dup3\n      add\n      and\n      dup3\n      add\n      dup1\n      0x40\n      mstore\n      pop\n      dup2\n      add\n      swap1\n      tag_28\n      swap2\n      swap1\n      tag_29\n      jump\t// in\n    tag_28:\n        /* \"contracts/FundMe.sol\":1682:1708  return pricefeed.version() */\n      swap2\n      pop\n      pop\n        /* \"contracts/FundMe.sol\":1316:1718  function getVersion() public view returns(uint256)\r... */\n      swap1\n      jump\t// out\n        /* \"contracts/FundMe.sol\":949:1005  mapping(address => uint256) public addressToAmountFunded */\n    tag_15:\n      mstore(0x20, 0x00)\n      dup1\n      0x00\n      mstore\n      keccak256(0x00, 0x40)\n      0x00\n      swap2\n      pop\n      swap1\n      pop\n      sload\n      dup2\n      jump\t// out\n        /* \"contracts/FundMe.sol\":1726:2132  function getPrice() public view returns(int256)\r... */\n    tag_19:\n        /* \"contracts/FundMe.sol\":1766:1772  int256 */\n      0x00\n        /* \"contracts/FundMe.sol\":1790:1821  AggregatorV3Interface pricefeed */\n      dup1\n        /* \"contracts/FundMe.sol\":1846:1888  0xD4a33860578De61DBAbDc8BFdb98FD742fA7028e */\n      0xd4a33860578de61dbabdc8bfdb98fd742fa7028e\n        /* \"contracts/FundMe.sol\":1790:1889  AggregatorV3Interface pricefeed = AggregatorV3Interface(0xD4a33860578De61DBAbDc8BFdb98FD742fA7028e) */\n      swap1\n      pop\n        /* \"contracts/FundMe.sol\":1948:1961  int256 answer */\n      0x00\n        /* \"contracts/FundMe.sol\":2077:2086  pricefeed */\n      dup2\n        /* \"contracts/FundMe.sol\":2077:2102  pricefeed.latestRoundData */\n      0xffffffffffffffffffffffffffffffffffffffff\n      and\n      0xfeaf968c\n        /* \"contracts/FundMe.sol\":2077:2104  pricefeed.latestRoundData() */\n      mload(0x40)\n      dup2\n      0xffffffff\n      and\n      0xe0\n      shl\n      dup2\n      mstore\n      0x04\n      add\n      0xa0\n      mload(0x40)\n      dup1\n      dup4\n      sub\n      dup2\n      dup7\n      dup1\n      extcodesize\n      iszero\n      dup1\n      iszero\n      tag_31\n      jumpi\n      0x00\n      dup1\n      revert\n    tag_31:\n      pop\n      gas\n      staticcall\n      iszero\n      dup1\n      iszero\n      tag_33\n      jumpi\n      returndatasize\n      0x00\n      dup1\n      returndatacopy\n      revert(0x00, returndatasize)\n    tag_33:\n      pop\n      pop\n      pop\n      pop\n      mload(0x40)\n      returndatasize\n      not(0x1f)\n      0x1f\n      dup3\n      add\n      and\n      dup3\n      add\n      dup1\n      0x40\n      mstore\n      pop\n      dup2\n      add\n      swap1\n      tag_34\n      swap2\n      swap1\n      tag_35\n      jump\t// in\n    tag_34:\n        /* \"contracts/FundMe.sol\":1900:2104  (\r... */\n      pop\n      pop\n      pop\n      swap2\n      pop\n      pop\n        /* \"contracts/FundMe.sol\":2118:2124  answer */\n      dup1\n        /* \"contracts/FundMe.sol\":2111:2124  return answer */\n      swap3\n      pop\n      pop\n      pop\n        /* \"contracts/FundMe.sol\":1726:2132  function getPrice() public view returns(int256)\r... */\n      swap1\n      jump\t// out\n        /* \"contracts/FundMe.sol\":1159:1308  function fund() public payable\r... */\n    tag_23:\n        /* \"contracts/FundMe.sol\":1243:1252  msg.value */\n      callvalue\n        /* \"contracts/FundMe.sol\":1206:1227  addressToAmountFunded */\n      0x00\n        /* \"contracts/FundMe.sol\":1206:1239  addressToAmountFunded[msg.sender] */\n      dup1\n        /* \"contracts/FundMe.sol\":1228:1238  msg.sender */\n      caller\n        /* \"contracts/FundMe.sol\":1206:1239  addressToAmountFunded[msg.sender] */\n      0xffffffffffffffffffffffffffffffffffffffff\n      and\n      0xffffffffffffffffffffffffffffffffffffffff\n      and\n      dup2\n      mstore\n      0x20\n      add\n      swap1\n      dup2\n      mstore\n      0x20\n      add\n      0x00\n      keccak256\n      0x00\n        /* \"contracts/FundMe.sol\":1206:1252  addressToAmountFunded[msg.sender] += msg.value */\n      dup3\n      dup3\n      sload\n      tag_37\n      swap2\n      swap1\n      tag_38\n      jump\t// in\n    tag_37:\n      swap3\n      pop\n      pop\n      dup2\n      swap1\n      sstore\n      pop\n        /* \"contracts/FundMe.sol\":1159:1308  function fund() public payable\r... */\n      jump\t// out\n        /* \"#utility.yul\":7:146   */\n    tag_40:\n        /* \"#utility.yul\":53:58   */\n      0x00\n        /* \"#utility.yul\":91:97   */\n      dup2\n        /* \"#utility.yul\":78:98   */\n      calldataload\n        /* \"#utility.yul\":69:98   */\n      swap1\n      pop\n        /* \"#utility.yul\":107:140   */\n      tag_42\n        /* \"#utility.yul\":134:139   */\n      dup2\n        /* \"#utility.yul\":107:140   */\n      tag_43\n      jump\t// in\n    tag_42:\n        /* \"#utility.yul\":7:146   */\n      swap3\n      swap2\n      pop\n      pop\n      jump\t// out\n        /* \"#utility.yul\":152:293   */\n    tag_44:\n        /* \"#utility.yul\":208:213   */\n      0x00\n        /* \"#utility.yul\":239:245   */\n      dup2\n        /* \"#utility.yul\":233:246   */\n      mload\n        /* \"#utility.yul\":224:246   */\n      swap1\n      pop\n        /* \"#utility.yul\":255:287   */\n      tag_46\n        /* \"#utility.yul\":281:286   */\n      dup2\n        /* \"#utility.yul\":255:287   */\n      tag_47\n      jump\t// in\n    tag_46:\n        /* \"#utility.yul\":152:293   */\n      swap3\n      swap2\n      pop\n      pop\n      jump\t// out\n        /* \"#utility.yul\":299:442   */\n    tag_48:\n        /* \"#utility.yul\":356:361   */\n      0x00\n        /* \"#utility.yul\":387:393   */\n      dup2\n        /* \"#utility.yul\":381:394   */\n      mload\n        /* \"#utility.yul\":372:394   */\n      swap1\n      pop\n        /* \"#utility.yul\":403:436   */\n      tag_50\n        /* \"#utility.yul\":430:435   */\n      dup2\n        /* \"#utility.yul\":403:436   */\n      tag_51\n      jump\t// in\n    tag_50:\n        /* \"#utility.yul\":299:442   */\n      swap3\n      swap2\n      pop\n      pop\n      jump\t// out\n        /* \"#utility.yul\":448:589   */\n    tag_52:\n        /* \"#utility.yul\":504:509   */\n      0x00\n        /* \"#utility.yul\":535:541   */\n      dup2\n        /* \"#utility.yul\":529:542   */\n      mload\n        /* \"#utility.yul\":520:542   */\n      swap1\n      pop\n        /* \"#utility.yul\":551:583   */\n      tag_54\n        /* \"#utility.yul\":577:582   */\n      dup2\n        /* \"#utility.yul\":551:583   */\n      tag_55\n      jump\t// in\n    tag_54:\n        /* \"#utility.yul\":448:589   */\n      swap3\n      swap2\n      pop\n      pop\n      jump\t// out\n        /* \"#utility.yul\":595:924   */\n    tag_14:\n        /* \"#utility.yul\":654:660   */\n      0x00\n        /* \"#utility.yul\":703:705   */\n      0x20\n        /* \"#utility.yul\":691:700   */\n      dup3\n        /* \"#utility.yul\":682:689   */\n      dup5\n        /* \"#utility.yul\":678:701   */\n      sub\n        /* \"#utility.yul\":674:706   */\n      slt\n        /* \"#utility.yul\":671:790   */\n      iszero\n      tag_57\n      jumpi\n        /* \"#utility.yul\":709:788   */\n      tag_58\n      tag_59\n      jump\t// in\n    tag_58:\n        /* \"#utility.yul\":671:790   */\n    tag_57:\n        /* \"#utility.yul\":829:830   */\n      0x00\n        /* \"#utility.yul\":854:907   */\n      tag_60\n        /* \"#utility.yul\":899:906   */\n      dup5\n        /* \"#utility.yul\":890:896   */\n      dup3\n        /* \"#utility.yul\":879:888   */\n      dup6\n        /* \"#utility.yul\":875:897   */\n      add\n        /* \"#utility.yul\":854:907   */\n      tag_40\n      jump\t// in\n    tag_60:\n        /* \"#utility.yul\":844:907   */\n      swap2\n      pop\n        /* \"#utility.yul\":800:917   */\n      pop\n        /* \"#utility.yul\":595:924   */\n      swap3\n      swap2\n      pop\n      pop\n      jump\t// out\n        /* \"#utility.yul\":930:1281   */\n    tag_29:\n        /* \"#utility.yul\":1000:1006   */\n      0x00\n        /* \"#utility.yul\":1049:1051   */\n      0x20\n        /* \"#utility.yul\":1037:1046   */\n      dup3\n        /* \"#utility.yul\":1028:1035   */\n      dup5\n        /* \"#utility.yul\":1024:1047   */\n      sub\n        /* \"#utility.yul\":1020:1052   */\n      slt\n        /* \"#utility.yul\":1017:1136   */\n      iszero\n      tag_62\n      jumpi\n        /* \"#utility.yul\":1055:1134   */\n      tag_63\n      tag_59\n      jump\t// in\n    tag_63:\n        /* \"#utility.yul\":1017:1136   */\n    tag_62:\n        /* \"#utility.yul\":1175:1176   */\n      0x00\n        /* \"#utility.yul\":1200:1264   */\n      tag_64\n        /* \"#utility.yul\":1256:1263   */\n      dup5\n        /* \"#utility.yul\":1247:1253   */\n      dup3\n        /* \"#utility.yul\":1236:1245   */\n      dup6\n        /* \"#utility.yul\":1232:1254   */\n      add\n        /* \"#utility.yul\":1200:1264   */\n      tag_48\n      jump\t// in\n    tag_64:\n        /* \"#utility.yul\":1190:1264   */\n      swap2\n      pop\n        /* \"#utility.yul\":1146:1274   */\n      pop\n        /* \"#utility.yul\":930:1281   */\n      swap3\n      swap2\n      pop\n      pop\n      jump\t// out\n        /* \"#utility.yul\":1287:2258   */\n    tag_35:\n        /* \"#utility.yul\":1390:1396   */\n      0x00\n        /* \"#utility.yul\":1398:1404   */\n      dup1\n        /* \"#utility.yul\":1406:1412   */\n      0x00\n        /* \"#utility.yul\":1414:1420   */\n      dup1\n        /* \"#utility.yul\":1422:1428   */\n      0x00\n        /* \"#utility.yul\":1471:1474   */\n      0xa0\n        /* \"#utility.yul\":1459:1468   */\n      dup7\n        /* \"#utility.yul\":1450:1457   */\n      dup9\n        /* \"#utility.yul\":1446:1469   */\n      sub\n        /* \"#utility.yul\":1442:1475   */\n      slt\n        /* \"#utility.yul\":1439:1559   */\n      iszero\n      tag_66\n      jumpi\n        /* \"#utility.yul\":1478:1557   */\n      tag_67\n      tag_59\n      jump\t// in\n    tag_67:\n        /* \"#utility.yul\":1439:1559   */\n    tag_66:\n        /* \"#utility.yul\":1598:1599   */\n      0x00\n        /* \"#utility.yul\":1623:1686   */\n      tag_68\n        /* \"#utility.yul\":1678:1685   */\n      dup9\n        /* \"#utility.yul\":1669:1675   */\n      dup3\n        /* \"#utility.yul\":1658:1667   */\n      dup10\n        /* \"#utility.yul\":1654:1676   */\n      add\n        /* \"#utility.yul\":1623:1686   */\n      tag_52\n      jump\t// in\n    tag_68:\n        /* \"#utility.yul\":1613:1686   */\n      swap6\n      pop\n        /* \"#utility.yul\":1569:1696   */\n      pop\n        /* \"#utility.yul\":1735:1737   */\n      0x20\n        /* \"#utility.yul\":1761:1824   */\n      tag_69\n        /* \"#utility.yul\":1816:1823   */\n      dup9\n        /* \"#utility.yul\":1807:1813   */\n      dup3\n        /* \"#utility.yul\":1796:1805   */\n      dup10\n        /* \"#utility.yul\":1792:1814   */\n      add\n        /* \"#utility.yul\":1761:1824   */\n      tag_44\n      jump\t// in\n    tag_69:\n        /* \"#utility.yul\":1751:1824   */\n      swap5\n      pop\n        /* \"#utility.yul\":1706:1834   */\n      pop\n        /* \"#utility.yul\":1873:1875   */\n      0x40\n        /* \"#utility.yul\":1899:1963   */\n      tag_70\n        /* \"#utility.yul\":1955:1962   */\n      dup9\n        /* \"#utility.yul\":1946:1952   */\n      dup3\n        /* \"#utility.yul\":1935:1944   */\n      dup10\n        /* \"#utility.yul\":1931:1953   */\n      add\n        /* \"#utility.yul\":1899:1963   */\n      tag_48\n      jump\t// in\n    tag_70:\n        /* \"#utility.yul\":1889:1963   */\n      swap4\n      pop\n        /* \"#utility.yul\":1844:1973   */\n      pop\n        /* \"#utility.yul\":2012:2014   */\n      0x60\n        /* \"#utility.yul\":2038:2102   */\n      tag_71\n        /* \"#utility.yul\":2094:2101   */\n      dup9\n        /* \"#utility.yul\":2085:2091   */\n      dup3\n        /* \"#utility.yul\":2074:2083   */\n      dup10\n        /* \"#utility.yul\":2070:2092   */\n      add\n        /* \"#utility.yul\":2038:2102   */\n      tag_48\n      jump\t// in\n    tag_71:\n        /* \"#utility.yul\":2028:2102   */\n      swap3\n      pop\n        /* \"#utility.yul\":1983:2112   */\n      pop\n        /* \"#utility.yul\":2151:2154   */\n      0x80\n        /* \"#utility.yul\":2178:2241   */\n      tag_72\n        /* \"#utility.yul\":2233:2240   */\n      dup9\n        /* \"#utility.yul\":2224:2230   */\n      dup3\n        /* \"#utility.yul\":2213:2222   */\n      dup10\n        /* \"#utility.yul\":2209:2231   */\n      add\n        /* \"#utility.yul\":2178:2241   */\n      tag_52\n      jump\t// in\n    tag_72:\n        /* \"#utility.yul\":2168:2241   */\n      swap2\n      pop\n        /* \"#utility.yul\":2122:2251   */\n      pop\n        /* \"#utility.yul\":1287:2258   */\n      swap3\n      swap6\n      pop\n      swap3\n      swap6\n      swap1\n      swap4\n      pop\n      jump\t// out\n        /* \"#utility.yul\":2264:2379   */\n    tag_73:\n        /* \"#utility.yul\":2349:2372   */\n      tag_75\n        /* \"#utility.yul\":2366:2371   */\n      dup2\n        /* \"#utility.yul\":2349:2372   */\n      tag_76\n      jump\t// in\n    tag_75:\n        /* \"#utility.yul\":2344:2347   */\n      dup3\n        /* \"#utility.yul\":2337:2373   */\n      mstore\n        /* \"#utility.yul\":2264:2379   */\n      pop\n      pop\n      jump\t// out\n        /* \"#utility.yul\":2385:2503   */\n    tag_77:\n        /* \"#utility.yul\":2472:2496   */\n      tag_79\n        /* \"#utility.yul\":2490:2495   */\n      dup2\n        /* \"#utility.yul\":2472:2496   */\n      tag_80\n      jump\t// in\n    tag_79:\n        /* \"#utility.yul\":2467:2470   */\n      dup3\n        /* \"#utility.yul\":2460:2497   */\n      mstore\n        /* \"#utility.yul\":2385:2503   */\n      pop\n      pop\n      jump\t// out\n        /* \"#utility.yul\":2509:2727   */\n    tag_21:\n        /* \"#utility.yul\":2600:2604   */\n      0x00\n        /* \"#utility.yul\":2638:2640   */\n      0x20\n        /* \"#utility.yul\":2627:2636   */\n      dup3\n        /* \"#utility.yul\":2623:2641   */\n      add\n        /* \"#utility.yul\":2615:2641   */\n      swap1\n      pop\n        /* \"#utility.yul\":2651:2720   */\n      tag_82\n        /* \"#utility.yul\":2717:2718   */\n      0x00\n        /* \"#utility.yul\":2706:2715   */\n      dup4\n        /* \"#utility.yul\":2702:2719   */\n      add\n        /* \"#utility.yul\":2693:2699   */\n      dup5\n        /* \"#utility.yul\":2651:2720   */\n      tag_73\n      jump\t// in\n    tag_82:\n        /* \"#utility.yul\":2509:2727   */\n      swap3\n      swap2\n      pop\n      pop\n      jump\t// out\n        /* \"#utility.yul\":2733:2955   */\n    tag_10:\n        /* \"#utility.yul\":2826:2830   */\n      0x00\n        /* \"#utility.yul\":2864:2866   */\n      0x20\n        /* \"#utility.yul\":2853:2862   */\n      dup3\n        /* \"#utility.yul\":2849:2867   */\n      add\n        /* \"#utility.yul\":2841:2867   */\n      swap1\n      pop\n        /* \"#utility.yul\":2877:2948   */\n      tag_84\n        /* \"#utility.yul\":2945:2946   */\n      0x00\n        /* \"#utility.yul\":2934:2943   */\n      dup4\n        /* \"#utility.yul\":2930:2947   */\n      add\n        /* \"#utility.yul\":2921:2927   */\n      dup5\n        /* \"#utility.yul\":2877:2948   */\n      tag_77\n      jump\t// in\n    tag_84:\n        /* \"#utility.yul\":2733:2955   */\n      swap3\n      swap2\n      pop\n      pop\n      jump\t// out\n        /* \"#utility.yul\":3042:3347   */\n    tag_38:\n        /* \"#utility.yul\":3082:3085   */\n      0x00\n        /* \"#utility.yul\":3101:3121   */\n      tag_88\n        /* \"#utility.yul\":3119:3120   */\n      dup3\n        /* \"#utility.yul\":3101:3121   */\n      tag_80\n      jump\t// in\n    tag_88:\n        /* \"#utility.yul\":3096:3121   */\n      swap2\n      pop\n        /* \"#utility.yul\":3135:3155   */\n      tag_89\n        /* \"#utility.yul\":3153:3154   */\n      dup4\n        /* \"#utility.yul\":3135:3155   */\n      tag_80\n      jump\t// in\n    tag_89:\n        /* \"#utility.yul\":3130:3155   */\n      swap3\n      pop\n        /* \"#utility.yul\":3289:3290   */\n      dup3\n        /* \"#utility.yul\":3221:3287   */\n      0xffffffffffffffffffffffffffffffffffffffffffffffffffffffffffffffff\n        /* \"#utility.yul\":3217:3291   */\n      sub\n        /* \"#utility.yul\":3214:3215   */\n      dup3\n        /* \"#utility.yul\":3211:3292   */\n      gt\n        /* \"#utility.yul\":3208:3315   */\n      iszero\n      tag_90\n      jumpi\n        /* \"#utility.yul\":3295:3313   */\n      tag_91\n      tag_92\n      jump\t// in\n    tag_91:\n        /* \"#utility.yul\":3208:3315   */\n    tag_90:\n        /* \"#utility.yul\":3339:3340   */\n      dup3\n        /* \"#utility.yul\":3336:3337   */\n      dup3\n        /* \"#utility.yul\":3332:3341   */\n      add\n        /* \"#utility.yul\":3325:3341   */\n      swap1\n      pop\n        /* \"#utility.yul\":3042:3347   */\n      swap3\n      swap2\n      pop\n      pop\n      jump\t// out\n        /* \"#utility.yul\":3353:3449   */\n    tag_93:\n        /* \"#utility.yul\":3390:3397   */\n      0x00\n        /* \"#utility.yul\":3419:3443   */\n      tag_95\n        /* \"#utility.yul\":3437:3442   */\n      dup3\n        /* \"#utility.yul\":3419:3443   */\n      tag_96\n      jump\t// in\n    tag_95:\n        /* \"#utility.yul\":3408:3443   */\n      swap1\n      pop\n        /* \"#utility.yul\":3353:3449   */\n      swap2\n      swap1\n      pop\n      jump\t// out\n        /* \"#utility.yul\":3455:3531   */\n    tag_76:\n        /* \"#utility.yul\":3491:3498   */\n      0x00\n        /* \"#utility.yul\":3520:3525   */\n      dup2\n        /* \"#utility.yul\":3509:3525   */\n      swap1\n      pop\n        /* \"#utility.yul\":3455:3531   */\n      swap2\n      swap1\n      pop\n      jump\t// out\n        /* \"#utility.yul\":3537:3663   */\n    tag_96:\n        /* \"#utility.yul\":3574:3581   */\n      0x00\n        /* \"#utility.yul\":3614:3656   */\n      0xffffffffffffffffffffffffffffffffffffffff\n        /* \"#utility.yul\":3607:3612   */\n      dup3\n        /* \"#utility.yul\":3603:3657   */\n      and\n        /* \"#utility.yul\":3592:3657   */\n      swap1\n      pop\n        /* \"#utility.yul\":3537:3663   */\n      swap2\n      swap1\n      pop\n      jump\t// out\n        /* \"#utility.yul\":3669:3746   */\n    tag_80:\n        /* \"#utility.yul\":3706:3713   */\n      0x00\n        /* \"#utility.yul\":3735:3740   */\n      dup2\n        /* \"#utility.yul\":3724:3740   */\n      swap1\n      pop\n        /* \"#utility.yul\":3669:3746   */\n      swap2\n      swap1\n      pop\n      jump\t// out\n        /* \"#utility.yul\":3752:3857   */\n    tag_100:\n        /* \"#utility.yul\":3788:3795   */\n      0x00\n        /* \"#utility.yul\":3828:3850   */\n      0xffffffffffffffffffff\n        /* \"#utility.yul\":3821:3826   */\n      dup3\n        /* \"#utility.yul\":3817:3851   */\n      and\n        /* \"#utility.yul\":3806:3851   */\n      swap1\n      pop\n        /* \"#utility.yul\":3752:3857   */\n      swap2\n      swap1\n      pop\n      jump\t// out\n        /* \"#utility.yul\":3863:4043   */\n    tag_92:\n        /* \"#utility.yul\":3911:3988   */\n      0x4e487b7100000000000000000000000000000000000000000000000000000000\n        /* \"#utility.yul\":3908:3909   */\n      0x00\n        /* \"#utility.yul\":3901:3989   */\n      mstore\n        /* \"#utility.yul\":4008:4012   */\n      0x11\n        /* \"#utility.yul\":4005:4006   */\n      0x04\n        /* \"#utility.yul\":3998:4013   */\n      mstore\n        /* \"#utility.yul\":4032:4036   */\n      0x24\n        /* \"#utility.yul\":4029:4030   */\n      0x00\n        /* \"#utility.yul\":4022:4037   */\n      revert\n        /* \"#utility.yul\":4172:4289   */\n    tag_59:\n        /* \"#utility.yul\":4281:4282   */\n      0x00\n        /* \"#utility.yul\":4278:4279   */\n      dup1\n        /* \"#utility.yul\":4271:4283   */\n      revert\n        /* \"#utility.yul\":4295:4417   */\n    tag_43:\n        /* \"#utility.yul\":4368:4392   */\n      tag_107\n        /* \"#utility.yul\":4386:4391   */\n      dup2\n        /* \"#utility.yul\":4368:4392   */\n      tag_93\n      jump\t// in\n    tag_107:\n        /* \"#utility.yul\":4361:4366   */\n      dup2\n        /* \"#utility.yul\":4358:4393   */\n      eq\n        /* \"#utility.yul\":4348:4411   */\n      tag_108\n      jumpi\n        /* \"#utility.yul\":4407:4408   */\n      0x00\n        /* \"#utility.yul\":4404:4405   */\n      dup1\n        /* \"#utility.yul\":4397:4409   */\n      revert\n        /* \"#utility.yul\":4348:4411   */\n    tag_108:\n        /* \"#utility.yul\":4295:4417   */\n      pop\n      jump\t// out\n        /* \"#utility.yul\":4423:4543   */\n    tag_47:\n        /* \"#utility.yul\":4495:4518   */\n      tag_110\n        /* \"#utility.yul\":4512:4517   */\n      dup2\n        /* \"#utility.yul\":4495:4518   */\n      tag_76\n      jump\t// in\n    tag_110:\n        /* \"#utility.yul\":4488:4493   */\n      dup2\n        /* \"#utility.yul\":4485:4519   */\n      eq\n        /* \"#utility.yul\":4475:4537   */\n      tag_111\n      jumpi\n        /* \"#utility.yul\":4533:4534   */\n      0x00\n        /* \"#utility.yul\":4530:4531   */\n      dup1\n        /* \"#utility.yul\":4523:4535   */\n      revert\n        /* \"#utility.yul\":4475:4537   */\n    tag_111:\n        /* \"#utility.yul\":4423:4543   */\n      pop\n      jump\t// out\n        /* \"#utility.yul\":4549:4671   */\n    tag_51:\n        /* \"#utility.yul\":4622:4646   */\n      tag_113\n        /* \"#utility.yul\":4640:4645   */\n      dup2\n        /* \"#utility.yul\":4622:4646   */\n      tag_80\n      jump\t// in\n    tag_113:\n        /* \"#utility.yul\":4615:4620   */\n      dup2\n        /* \"#utility.yul\":4612:4647   */\n      eq\n        /* \"#utility.yul\":4602:4665   */\n      tag_114\n      jumpi\n        /* \"#utility.yul\":4661:4662   */\n      0x00\n        /* \"#utility.yul\":4658:4659   */\n      dup1\n        /* \"#utility.yul\":4651:4663   */\n      revert\n        /* \"#utility.yul\":4602:4665   */\n    tag_114:\n        /* \"#utility.yul\":4549:4671   */\n      pop\n      jump\t// out\n        /* \"#utility.yul\":4677:4797   */\n    tag_55:\n        /* \"#utility.yul\":4749:4772   */\n      tag_116\n        /* \"#utility.yul\":4766:4771   */\n      dup2\n        /* \"#utility.yul\":4749:4772   */\n      tag_100\n      jump\t// in\n    tag_116:\n        /* \"#utility.yul\":4742:4747   */\n      dup2\n        /* \"#utility.yul\":4739:4773   */\n      eq\n        /* \"#utility.yul\":4729:4791   */\n      tag_117\n      jumpi\n        /* \"#utility.yul\":4787:4788   */\n      0x00\n        /* \"#utility.yul\":4784:4785   */\n      dup1\n        /* \"#utility.yul\":4777:4789   */\n      revert\n        /* \"#utility.yul\":4729:4791   */\n    tag_117:\n        /* \"#utility.yul\":4677:4797   */\n      pop\n      jump\t// out\n\n    auxdata: 0xa26469706673582212204544fcf24a1d33cbfdbadcd75936017b24c187064f859ef58cd05b216fbf282964736f6c63430008070033\n}\n",
				"bytecode": {
					"linkReferences": {},
					"object": "608060405234801561001057600080fd5b5061058b806100206000396000f3fe60806040526004361061003f5760003560e01c80630d8e6e2c146100445780633e47d6f31461006f57806398d5fdca146100ac578063b60d4288146100d7575b600080fd5b34801561005057600080fd5b506100596100e1565b60405161006691906103f8565b60405180910390f35b34801561007b57600080fd5b50610096600480360381019061009191906102ea565b61017f565b6040516100a391906103f8565b60405180910390f35b3480156100b857600080fd5b506100c1610197565b6040516100ce91906103dd565b60405180910390f35b6100df61023f565b005b60008073d4a33860578de61dbabdc8bfdb98fd742fa7028e90508073ffffffffffffffffffffffffffffffffffffffff166354fd4d506040518163ffffffff1660e01b815260040160206040518083038186803b15801561014157600080fd5b505afa158015610155573d6000803e3d6000fd5b505050506040513d601f19601f820116820180604052508101906101799190610317565b91505090565b60006020528060005260406000206000915090505481565b60008073d4a33860578de61dbabdc8bfdb98fd742fa7028e905060008173ffffffffffffffffffffffffffffffffffffffff1663feaf968c6040518163ffffffff1660e01b815260040160a06040518083038186803b1580156101f957600080fd5b505afa15801561020d573d6000803e3d6000fd5b505050506040513d601f19601f820116820180604052508101906102319190610344565b505050915050809250505090565b346000803373ffffffffffffffffffffffffffffffffffffffff1673ffffffffffffffffffffffffffffffffffffffff168152602001908152602001600020600082825461028d9190610413565b92505081905550565b6000813590506102a5816104f9565b92915050565b6000815190506102ba81610510565b92915050565b6000815190506102cf81610527565b92915050565b6000815190506102e48161053e565b92915050565b600060208284031215610300576102ff6104f4565b5b600061030e84828501610296565b91505092915050565b60006020828403121561032d5761032c6104f4565b5b600061033b848285016102c0565b91505092915050565b600080600080600060a086880312156103605761035f6104f4565b5b600061036e888289016102d5565b955050602061037f888289016102ab565b9450506040610390888289016102c0565b93505060606103a1888289016102c0565b92505060806103b2888289016102d5565b9150509295509295909350565b6103c88161047b565b82525050565b6103d7816104a5565b82525050565b60006020820190506103f260008301846103bf565b92915050565b600060208201905061040d60008301846103ce565b92915050565b600061041e826104a5565b9150610429836104a5565b9250827fffffffffffffffffffffffffffffffffffffffffffffffffffffffffffffffff0382111561045e5761045d6104c5565b5b828201905092915050565b600061047482610485565b9050919050565b6000819050919050565b600073ffffffffffffffffffffffffffffffffffffffff82169050919050565b6000819050919050565b600069ffffffffffffffffffff82169050919050565b7f4e487b7100000000000000000000000000000000000000000000000000000000600052601160045260246000fd5b600080fd5b61050281610469565b811461050d57600080fd5b50565b6105198161047b565b811461052457600080fd5b50565b610530816104a5565b811461053b57600080fd5b50565b610547816104af565b811461055257600080fd5b5056fea26469706673582212204544fcf24a1d33cbfdbadcd75936017b24c187064f859ef58cd05b216fbf282964736f6c63430008070033",
					"opcodes": "PUSH1 0x80 PUSH1 0x40 MSTORE CALLVALUE DUP1 ISZERO PUSH2 0x10 JUMPI PUSH1 0x0 DUP1 REVERT JUMPDEST POP PUSH2 0x58B DUP1 PUSH2 0x20 PUSH1 0x0 CODECOPY PUSH1 0x0 RETURN INVALID PUSH1 0x80 PUSH1 0x40 MSTORE PUSH1 0x4 CALLDATASIZE LT PUSH2 0x3F JUMPI PUSH1 0x0 CALLDATALOAD PUSH1 0xE0 SHR DUP1 PUSH4 0xD8E6E2C EQ PUSH2 0x44 JUMPI DUP1 PUSH4 0x3E47D6F3 EQ PUSH2 0x6F JUMPI DUP1 PUSH4 0x98D5FDCA EQ PUSH2 0xAC JUMPI DUP1 PUSH4 0xB60D4288 EQ PUSH2 0xD7 JUMPI JUMPDEST PUSH1 0x0 DUP1 REVERT JUMPDEST CALLVALUE DUP1 ISZERO PUSH2 0x50 JUMPI PUSH1 0x0 DUP1 REVERT JUMPDEST POP PUSH2 0x59 PUSH2 0xE1 JUMP JUMPDEST PUSH1 0x40 MLOAD PUSH2 0x66 SWAP2 SWAP1 PUSH2 0x3F8 JUMP JUMPDEST PUSH1 0x40 MLOAD DUP1 SWAP2 SUB SWAP1 RETURN JUMPDEST CALLVALUE DUP1 ISZERO PUSH2 0x7B JUMPI PUSH1 0x0 DUP1 REVERT JUMPDEST POP PUSH2 0x96 PUSH1 0x4 DUP1 CALLDATASIZE SUB DUP2 ADD SWAP1 PUSH2 0x91 SWAP2 SWAP1 PUSH2 0x2EA JUMP JUMPDEST PUSH2 0x17F JUMP JUMPDEST PUSH1 0x40 MLOAD PUSH2 0xA3 SWAP2 SWAP1 PUSH2 0x3F8 JUMP JUMPDEST PUSH1 0x40 MLOAD DUP1 SWAP2 SUB SWAP1 RETURN JUMPDEST CALLVALUE DUP1 ISZERO PUSH2 0xB8 JUMPI PUSH1 0x0 DUP1 REVERT JUMPDEST POP PUSH2 0xC1 PUSH2 0x197 JUMP JUMPDEST PUSH1 0x40 MLOAD PUSH2 0xCE SWAP2 SWAP1 PUSH2 0x3DD JUMP JUMPDEST PUSH1 0x40 MLOAD DUP1 SWAP2 SUB SWAP1 RETURN JUMPDEST PUSH2 0xDF PUSH2 0x23F JUMP JUMPDEST STOP JUMPDEST PUSH1 0x0 DUP1 PUSH20 0xD4A33860578DE61DBABDC8BFDB98FD742FA7028E SWAP1 POP DUP1 PUSH20 0xFFFFFFFFFFFFFFFFFFFFFFFFFFFFFFFFFFFFFFFF AND PUSH4 0x54FD4D50 PUSH1 0x40 MLOAD DUP2 PUSH4 0xFFFFFFFF AND PUSH1 0xE0 SHL DUP2 MSTORE PUSH1 0x4 ADD PUSH1 0x20 PUSH1 0x40 MLOAD DUP1 DUP4 SUB DUP2 DUP7 DUP1 EXTCODESIZE ISZERO DUP1 ISZERO PUSH2 0x141 JUMPI PUSH1 0x0 DUP1 REVERT JUMPDEST POP GAS STATICCALL ISZERO DUP1 ISZERO PUSH2 0x155 JUMPI RETURNDATASIZE PUSH1 0x0 DUP1 RETURNDATACOPY RETURNDATASIZE PUSH1 0x0 REVERT JUMPDEST POP POP POP POP PUSH1 0x40 MLOAD RETURNDATASIZE PUSH1 0x1F NOT PUSH1 0x1F DUP3 ADD AND DUP3 ADD DUP1 PUSH1 0x40 MSTORE POP DUP2 ADD SWAP1 PUSH2 0x179 SWAP2 SWAP1 PUSH2 0x317 JUMP JUMPDEST SWAP2 POP POP SWAP1 JUMP JUMPDEST PUSH1 0x0 PUSH1 0x20 MSTORE DUP1 PUSH1 0x0 MSTORE PUSH1 0x40 PUSH1 0x0 KECCAK256 PUSH1 0x0 SWAP2 POP SWAP1 POP SLOAD DUP2 JUMP JUMPDEST PUSH1 0x0 DUP1 PUSH20 0xD4A33860578DE61DBABDC8BFDB98FD742FA7028E SWAP1 POP PUSH1 0x0 DUP2 PUSH20 0xFFFFFFFFFFFFFFFFFFFFFFFFFFFFFFFFFFFFFFFF AND PUSH4 0xFEAF968C PUSH1 0x40 MLOAD DUP2 PUSH4 0xFFFFFFFF AND PUSH1 0xE0 SHL DUP2 MSTORE PUSH1 0x4 ADD PUSH1 0xA0 PUSH1 0x40 MLOAD DUP1 DUP4 SUB DUP2 DUP7 DUP1 EXTCODESIZE ISZERO DUP1 ISZERO PUSH2 0x1F9 JUMPI PUSH1 0x0 DUP1 REVERT JUMPDEST POP GAS STATICCALL ISZERO DUP1 ISZERO PUSH2 0x20D JUMPI RETURNDATASIZE PUSH1 0x0 DUP1 RETURNDATACOPY RETURNDATASIZE PUSH1 0x0 REVERT JUMPDEST POP POP POP POP PUSH1 0x40 MLOAD RETURNDATASIZE PUSH1 0x1F NOT PUSH1 0x1F DUP3 ADD AND DUP3 ADD DUP1 PUSH1 0x40 MSTORE POP DUP2 ADD SWAP1 PUSH2 0x231 SWAP2 SWAP1 PUSH2 0x344 JUMP JUMPDEST POP POP POP SWAP2 POP POP DUP1 SWAP3 POP POP POP SWAP1 JUMP JUMPDEST CALLVALUE PUSH1 0x0 DUP1 CALLER PUSH20 0xFFFFFFFFFFFFFFFFFFFFFFFFFFFFFFFFFFFFFFFF AND PUSH20 0xFFFFFFFFFFFFFFFFFFFFFFFFFFFFFFFFFFFFFFFF AND DUP2 MSTORE PUSH1 0x20 ADD SWAP1 DUP2 MSTORE PUSH1 0x20 ADD PUSH1 0x0 KECCAK256 PUSH1 0x0 DUP3 DUP3 SLOAD PUSH2 0x28D SWAP2 SWAP1 PUSH2 0x413 JUMP JUMPDEST SWAP3 POP POP DUP2 SWAP1 SSTORE POP JUMP JUMPDEST PUSH1 0x0 DUP2 CALLDATALOAD SWAP1 POP PUSH2 0x2A5 DUP2 PUSH2 0x4F9 JUMP JUMPDEST SWAP3 SWAP2 POP POP JUMP JUMPDEST PUSH1 0x0 DUP2 MLOAD SWAP1 POP PUSH2 0x2BA DUP2 PUSH2 0x510 JUMP JUMPDEST SWAP3 SWAP2 POP POP JUMP JUMPDEST PUSH1 0x0 DUP2 MLOAD SWAP1 POP PUSH2 0x2CF DUP2 PUSH2 0x527 JUMP JUMPDEST SWAP3 SWAP2 POP POP JUMP JUMPDEST PUSH1 0x0 DUP2 MLOAD SWAP1 POP PUSH2 0x2E4 DUP2 PUSH2 0x53E JUMP JUMPDEST SWAP3 SWAP2 POP POP JUMP JUMPDEST PUSH1 0x0 PUSH1 0x20 DUP3 DUP5 SUB SLT ISZERO PUSH2 0x300 JUMPI PUSH2 0x2FF PUSH2 0x4F4 JUMP JUMPDEST JUMPDEST PUSH1 0x0 PUSH2 0x30E DUP5 DUP3 DUP6 ADD PUSH2 0x296 JUMP JUMPDEST SWAP2 POP POP SWAP3 SWAP2 POP POP JUMP JUMPDEST PUSH1 0x0 PUSH1 0x20 DUP3 DUP5 SUB SLT ISZERO PUSH2 0x32D JUMPI PUSH2 0x32C PUSH2 0x4F4 JUMP JUMPDEST JUMPDEST PUSH1 0x0 PUSH2 0x33B DUP5 DUP3 DUP6 ADD PUSH2 0x2C0 JUMP JUMPDEST SWAP2 POP POP SWAP3 SWAP2 POP POP JUMP JUMPDEST PUSH1 0x0 DUP1 PUSH1 0x0 DUP1 PUSH1 0x0 PUSH1 0xA0 DUP7 DUP9 SUB SLT ISZERO PUSH2 0x360 JUMPI PUSH2 0x35F PUSH2 0x4F4 JUMP JUMPDEST JUMPDEST PUSH1 0x0 PUSH2 0x36E DUP9 DUP3 DUP10 ADD PUSH2 0x2D5 JUMP JUMPDEST SWAP6 POP POP PUSH1 0x20 PUSH2 0x37F DUP9 DUP3 DUP10 ADD PUSH2 0x2AB JUMP JUMPDEST SWAP5 POP POP PUSH1 0x40 PUSH2 0x390 DUP9 DUP3 DUP10 ADD PUSH2 0x2C0 JUMP JUMPDEST SWAP4 POP POP PUSH1 0x60 PUSH2 0x3A1 DUP9 DUP3 DUP10 ADD PUSH2 0x2C0 JUMP JUMPDEST SWAP3 POP POP PUSH1 0x80 PUSH2 0x3B2 DUP9 DUP3 DUP10 ADD PUSH2 0x2D5 JUMP JUMPDEST SWAP2 POP POP SWAP3 SWAP6 POP SWAP3 SWAP6 SWAP1 SWAP4 POP JUMP JUMPDEST PUSH2 0x3C8 DUP2 PUSH2 0x47B JUMP JUMPDEST DUP3 MSTORE POP POP JUMP JUMPDEST PUSH2 0x3D7 DUP2 PUSH2 0x4A5 JUMP JUMPDEST DUP3 MSTORE POP POP JUMP JUMPDEST PUSH1 0x0 PUSH1 0x20 DUP3 ADD SWAP1 POP PUSH2 0x3F2 PUSH1 0x0 DUP4 ADD DUP5 PUSH2 0x3BF JUMP JUMPDEST SWAP3 SWAP2 POP POP JUMP JUMPDEST PUSH1 0x0 PUSH1 0x20 DUP3 ADD SWAP1 POP PUSH2 0x40D PUSH1 0x0 DUP4 ADD DUP5 PUSH2 0x3CE JUMP JUMPDEST SWAP3 SWAP2 POP POP JUMP JUMPDEST PUSH1 0x0 PUSH2 0x41E DUP3 PUSH2 0x4A5 JUMP JUMPDEST SWAP2 POP PUSH2 0x429 DUP4 PUSH2 0x4A5 JUMP JUMPDEST SWAP3 POP DUP3 PUSH32 0xFFFFFFFFFFFFFFFFFFFFFFFFFFFFFFFFFFFFFFFFFFFFFFFFFFFFFFFFFFFFFFFF SUB DUP3 GT ISZERO PUSH2 0x45E JUMPI PUSH2 0x45D PUSH2 0x4C5 JUMP JUMPDEST JUMPDEST DUP3 DUP3 ADD SWAP1 POP SWAP3 SWAP2 POP POP JUMP JUMPDEST PUSH1 0x0 PUSH2 0x474 DUP3 PUSH2 0x485 JUMP JUMPDEST SWAP1 POP SWAP2 SWAP1 POP JUMP JUMPDEST PUSH1 0x0 DUP2 SWAP1 POP SWAP2 SWAP1 POP JUMP JUMPDEST PUSH1 0x0 PUSH20 0xFFFFFFFFFFFFFFFFFFFFFFFFFFFFFFFFFFFFFFFF DUP3 AND SWAP1 POP SWAP2 SWAP1 POP JUMP JUMPDEST PUSH1 0x0 DUP2 SWAP1 POP SWAP2 SWAP1 POP JUMP JUMPDEST PUSH1 0x0 PUSH10 0xFFFFFFFFFFFFFFFFFFFF DUP3 AND SWAP1 POP SWAP2 SWAP1 POP JUMP JUMPDEST PUSH32 0x4E487B7100000000000000000000000000000000000000000000000000000000 PUSH1 0x0 MSTORE PUSH1 0x11 PUSH1 0x4 MSTORE PUSH1 0x24 PUSH1 0x0 REVERT JUMPDEST PUSH1 0x0 DUP1 REVERT JUMPDEST PUSH2 0x502 DUP2 PUSH2 0x469 JUMP JUMPDEST DUP2 EQ PUSH2 0x50D JUMPI PUSH1 0x0 DUP1 REVERT JUMPDEST POP JUMP JUMPDEST PUSH2 0x519 DUP2 PUSH2 0x47B JUMP JUMPDEST DUP2 EQ PUSH2 0x524 JUMPI PUSH1 0x0 DUP1 REVERT JUMPDEST POP JUMP JUMPDEST PUSH2 0x530 DUP2 PUSH2 0x4A5 JUMP JUMPDEST DUP2 EQ PUSH2 0x53B JUMPI PUSH1 0x0 DUP1 REVERT JUMPDEST POP JUMP JUMPDEST PUSH2 0x547 DUP2 PUSH2 0x4AF JUMP JUMPDEST DUP2 EQ PUSH2 0x552 JUMPI PUSH1 0x0 DUP1 REVERT JUMPDEST POP JUMP INVALID LOG2 PUSH5 0x6970667358 0x22 SLT KECCAK256 GASLIMIT DIFFICULTY 0xFC CALLCODE 0x4A SAR CALLER 0xCB REVERT 0xBA 0xDC 0xD7 MSIZE CALLDATASIZE ADD PUSH28 0x24C187064F859EF58CD05B216FBF282964736F6C6343000807003300 "
				},
				"gasEstimates": {
					"creation": {
						"codeDepositCost": "283800",
						"executionCost": "324",
						"totalCost": "284124"
					},
					"external": {
						"addressToAmountFunded(address)": "2814",
						"fund()": "infinite",
						"getPrice()": "infinite",
						"getVersion()": "infinite"
					}
				},
				"methodIdentifiers": {
					"addressToAmountFunded(address)": "3e47d6f3",
					"fund()": "b60d4288",
					"getPrice()": "98d5fdca",
					"getVersion()": "0d8e6e2c"
				}
			},
			"storageLayout": {
				"storage": [
					{
						"astId": 49,
						"contract": "contracts/FundMe.sol:FundMe",
						"label": "addressToAmountFunded",
						"offset": 0,
						"slot": "0",
						"type": "t_mapping(t_address,t_uint256)"
					}
				],
				"types": {
					"t_address": {
						"encoding": "inplace",
						"label": "address",
						"numberOfBytes": "20"
					},
					"t_mapping(t_address,t_uint256)": {
						"encoding": "mapping",
						"key": "t_address",
						"label": "mapping(address => uint256)",
						"numberOfBytes": "32",
						"value": "t_uint256"
					},
					"t_uint256": {
						"encoding": "inplace",
						"label": "uint256",
						"numberOfBytes": "32"
					}
				}
			},
			"userdoc": {
				"kind": "user",
				"methods": {},
				"version": 1
			}
		}
	}
}