{
	"contracts/FundMe.sol": {
		"FundMe": {
			"abi": [
				{
					"inputs": [
						{
							"internalType": "address",
							"name": "",
							"type": "address"
						}
					],
					"name": "addressToAmountFunded",
					"outputs": [
						{
							"internalType": "uint256",
							"name": "",
							"type": "uint256"
						}
					],
					"stateMutability": "view",
					"type": "function"
				},
				{
					"inputs": [],
					"name": "fund",
					"outputs": [],
					"stateMutability": "payable",
					"type": "function"
				},
				{
					"inputs": [],
					"name": "getConversionRate",
					"outputs": [
						{
							"internalType": "uint256",
							"name": "",
							"type": "uint256"
						}
					],
					"stateMutability": "payable",
					"type": "function"
				},
				{
					"inputs": [],
					"name": "getPrice",
					"outputs": [
						{
							"internalType": "uint256",
							"name": "",
							"type": "uint256"
						}
					],
					"stateMutability": "view",
					"type": "function"
				},
				{
					"inputs": [],
					"name": "getVersion",
					"outputs": [
						{
							"internalType": "uint256",
							"name": "",
							"type": "uint256"
						}
					],
					"stateMutability": "view",
					"type": "function"
				}
			],
			"devdoc": {
				"kind": "dev",
				"methods": {},
				"version": 1
			},
			"evm": {
				"assembly": "    /* \"contracts/FundMe.sol\":986:2345  contract FundMe\r... */\n  mstore(0x40, 0x80)\n  callvalue\n  dup1\n  iszero\n  tag_1\n  jumpi\n  0x00\n  dup1\n  revert\ntag_1:\n  pop\n  dataSize(sub_0)\n  dup1\n  dataOffset(sub_0)\n  0x00\n  codecopy\n  0x00\n  return\nstop\n\nsub_0: assembly {\n        /* \"contracts/FundMe.sol\":986:2345  contract FundMe\r... */\n      mstore(0x40, 0x80)\n      jumpi(tag_1, lt(calldatasize, 0x04))\n      shr(0xe0, calldataload(0x00))\n      dup1\n      0x0d8e6e2c\n      eq\n      tag_2\n      jumpi\n      dup1\n      0x3e47d6f3\n      eq\n      tag_3\n      jumpi\n      dup1\n      0x98d5fdca\n      eq\n      tag_4\n      jumpi\n      dup1\n      0xb60d4288\n      eq\n      tag_5\n      jumpi\n      dup1\n      0xf36089ec\n      eq\n      tag_6\n      jumpi\n    tag_1:\n      0x00\n      dup1\n      revert\n        /* \"contracts/FundMe.sol\":1383:1776  function getVersion() public view returns(uint256)\r... */\n    tag_2:\n      callvalue\n      dup1\n      iszero\n      tag_7\n      jumpi\n      0x00\n      dup1\n      revert\n    tag_7:\n      pop\n      tag_8\n      tag_9\n      jump\t// in\n    tag_8:\n      mload(0x40)\n      tag_10\n      swap2\n      swap1\n      tag_11\n      jump\t// in\n    tag_10:\n      mload(0x40)\n      dup1\n      swap2\n      sub\n      swap1\n      return\n        /* \"contracts/FundMe.sol\":1016:1072  mapping(address => uint256) public addressToAmountFunded */\n    tag_3:\n      callvalue\n      dup1\n      iszero\n      tag_12\n      jumpi\n      0x00\n      dup1\n      revert\n    tag_12:\n      pop\n      tag_13\n      0x04\n      dup1\n      calldatasize\n      sub\n      dup2\n      add\n      swap1\n      tag_14\n      swap2\n      swap1\n      tag_15\n      jump\t// in\n    tag_14:\n      tag_16\n      jump\t// in\n    tag_13:\n      mload(0x40)\n      tag_17\n      swap2\n      swap1\n      tag_11\n      jump\t// in\n    tag_17:\n      mload(0x40)\n      dup1\n      swap2\n      sub\n      swap1\n      return\n        /* \"contracts/FundMe.sol\":1784:2222  function getPrice() public view returns(uint256)\r... */\n    tag_4:\n      callvalue\n      dup1\n      iszero\n      tag_18\n      jumpi\n      0x00\n      dup1\n      revert\n    tag_18:\n      pop\n      tag_19\n      tag_20\n      jump\t// in\n    tag_19:\n      mload(0x40)\n      tag_21\n      swap2\n      swap1\n      tag_11\n      jump\t// in\n    tag_21:\n      mload(0x40)\n      dup1\n      swap2\n      sub\n      swap1\n      return\n        /* \"contracts/FundMe.sol\":1226:1375  function fund() public payable\r... */\n    tag_5:\n      tag_22\n      tag_23\n      jump\t// in\n    tag_22:\n      stop\n        /* \"contracts/FundMe.sol\":2230:2342  function getConversionRate() public payable returns(uint256)\r... */\n    tag_6:\n      tag_24\n      tag_25\n      jump\t// in\n    tag_24:\n      mload(0x40)\n      tag_26\n      swap2\n      swap1\n      tag_11\n      jump\t// in\n    tag_26:\n      mload(0x40)\n      dup1\n      swap2\n      sub\n      swap1\n      return\n        /* \"contracts/FundMe.sol\":1383:1776  function getVersion() public view returns(uint256)\r... */\n    tag_9:\n        /* \"contracts/FundMe.sol\":1425:1432  uint256 */\n      0x00\n        /* \"contracts/FundMe.sol\":1630:1661  AggregatorV3Interface pricefeed */\n      dup1\n        /* \"contracts/FundMe.sol\":1686:1728  0xD4a33860578De61DBAbDc8BFdb98FD742fA7028e */\n      0xd4a33860578de61dbabdc8bfdb98fd742fa7028e\n        /* \"contracts/FundMe.sol\":1630:1729  AggregatorV3Interface pricefeed = AggregatorV3Interface(0xD4a33860578De61DBAbDc8BFdb98FD742fA7028e) */\n      swap1\n      pop\n        /* \"contracts/FundMe.sol\":1747:1756  pricefeed */\n      dup1\n        /* \"contracts/FundMe.sol\":1747:1764  pricefeed.version */\n      0xffffffffffffffffffffffffffffffffffffffff\n      and\n      0x54fd4d50\n        /* \"contracts/FundMe.sol\":1747:1766  pricefeed.version() */\n      mload(0x40)\n      dup2\n      0xffffffff\n      and\n      0xe0\n      shl\n      dup2\n      mstore\n      0x04\n      add\n      0x20\n      mload(0x40)\n      dup1\n      dup4\n      sub\n      dup2\n      dup7\n      dup1\n      extcodesize\n      iszero\n      dup1\n      iszero\n      tag_28\n      jumpi\n      0x00\n      dup1\n      revert\n    tag_28:\n      pop\n      gas\n      staticcall\n      iszero\n      dup1\n      iszero\n      tag_30\n      jumpi\n      returndatasize\n      0x00\n      dup1\n      returndatacopy\n      revert(0x00, returndatasize)\n    tag_30:\n      pop\n      pop\n      pop\n      pop\n      mload(0x40)\n      returndatasize\n      not(0x1f)\n      0x1f\n      dup3\n      add\n      and\n      dup3\n      add\n      dup1\n      0x40\n      mstore\n      pop\n      dup2\n      add\n      swap1\n      tag_31\n      swap2\n      swap1\n      tag_32\n      jump\t// in\n    tag_31:\n        /* \"contracts/FundMe.sol\":1740:1766  return pricefeed.version() */\n      swap2\n      pop\n      pop\n        /* \"contracts/FundMe.sol\":1383:1776  function getVersion() public view returns(uint256)\r... */\n      swap1\n      jump\t// out\n        /* \"contracts/FundMe.sol\":1016:1072  mapping(address => uint256) public addressToAmountFunded */\n    tag_16:\n      mstore(0x20, 0x00)\n      dup1\n      0x00\n      mstore\n      keccak256(0x00, 0x40)\n      0x00\n      swap2\n      pop\n      swap1\n      pop\n      sload\n      dup2\n      jump\t// out\n        /* \"contracts/FundMe.sol\":1784:2222  function getPrice() public view returns(uint256)\r... */\n    tag_20:\n        /* \"contracts/FundMe.sol\":1824:1831  uint256 */\n      0x00\n        /* \"contracts/FundMe.sol\":1849:1880  AggregatorV3Interface pricefeed */\n      dup1\n        /* \"contracts/FundMe.sol\":1905:1947  0xD4a33860578De61DBAbDc8BFdb98FD742fA7028e */\n      0xd4a33860578de61dbabdc8bfdb98fd742fa7028e\n        /* \"contracts/FundMe.sol\":1849:1948  AggregatorV3Interface pricefeed = AggregatorV3Interface(0xD4a33860578De61DBAbDc8BFdb98FD742fA7028e) */\n      swap1\n      pop\n        /* \"contracts/FundMe.sol\":2007:2020  int256 answer */\n      0x00\n        /* \"contracts/FundMe.sol\":2141:2150  pricefeed */\n      dup2\n        /* \"contracts/FundMe.sol\":2141:2166  pricefeed.latestRoundData */\n      0xffffffffffffffffffffffffffffffffffffffff\n      and\n      0xfeaf968c\n        /* \"contracts/FundMe.sol\":2141:2168  pricefeed.latestRoundData() */\n      mload(0x40)\n      dup2\n      0xffffffff\n      and\n      0xe0\n      shl\n      dup2\n      mstore\n      0x04\n      add\n      0xa0\n      mload(0x40)\n      dup1\n      dup4\n      sub\n      dup2\n      dup7\n      dup1\n      extcodesize\n      iszero\n      dup1\n      iszero\n      tag_34\n      jumpi\n      0x00\n      dup1\n      revert\n    tag_34:\n      pop\n      gas\n      staticcall\n      iszero\n      dup1\n      iszero\n      tag_36\n      jumpi\n      returndatasize\n      0x00\n      dup1\n      returndatacopy\n      revert(0x00, returndatasize)\n    tag_36:\n      pop\n      pop\n      pop\n      pop\n      mload(0x40)\n      returndatasize\n      not(0x1f)\n      0x1f\n      dup3\n      add\n      and\n      dup3\n      add\n      dup1\n      0x40\n      mstore\n      pop\n      dup2\n      add\n      swap1\n      tag_37\n      swap2\n      swap1\n      tag_38\n      jump\t// in\n    tag_37:\n        /* \"contracts/FundMe.sol\":1959:2168  (\r... */\n      pop\n      pop\n      pop\n      swap2\n      pop\n      pop\n        /* \"contracts/FundMe.sol\":2201:2212  10000000000 */\n      0x02540be400\n        /* \"contracts/FundMe.sol\":2194:2200  answer */\n      dup2\n        /* \"contracts/FundMe.sol\":2194:2212  answer*10000000000 */\n      tag_39\n      swap2\n      swap1\n      tag_40\n      jump\t// in\n    tag_39:\n        /* \"contracts/FundMe.sol\":2179:2213  return uint256(answer*10000000000) */\n      swap3\n      pop\n      pop\n      pop\n        /* \"contracts/FundMe.sol\":1784:2222  function getPrice() public view returns(uint256)\r... */\n      swap1\n      jump\t// out\n        /* \"contracts/FundMe.sol\":1226:1375  function fund() public payable\r... */\n    tag_23:\n        /* \"contracts/FundMe.sol\":1310:1319  msg.value */\n      callvalue\n        /* \"contracts/FundMe.sol\":1273:1294  addressToAmountFunded */\n      0x00\n        /* \"contracts/FundMe.sol\":1273:1306  addressToAmountFunded[msg.sender] */\n      dup1\n        /* \"contracts/FundMe.sol\":1295:1305  msg.sender */\n      caller\n        /* \"contracts/FundMe.sol\":1273:1306  addressToAmountFunded[msg.sender] */\n      0xffffffffffffffffffffffffffffffffffffffff\n      and\n      0xffffffffffffffffffffffffffffffffffffffff\n      and\n      dup2\n      mstore\n      0x20\n      add\n      swap1\n      dup2\n      mstore\n      0x20\n      add\n      0x00\n      keccak256\n      0x00\n        /* \"contracts/FundMe.sol\":1273:1319  addressToAmountFunded[msg.sender] += msg.value */\n      dup3\n      dup3\n      sload\n      tag_42\n      swap2\n      swap1\n      tag_43\n      jump\t// in\n    tag_42:\n      swap3\n      pop\n      pop\n      dup2\n      swap1\n      sstore\n      pop\n        /* \"contracts/FundMe.sol\":1226:1375  function fund() public payable\r... */\n      jump\t// out\n        /* \"contracts/FundMe.sol\":2230:2342  function getConversionRate() public payable returns(uint256)\r... */\n    tag_25:\n        /* \"contracts/FundMe.sol\":2282:2289  uint256 */\n      0x00\n        /* \"contracts/FundMe.sol\":2324:2334  getPrice() */\n      tag_45\n        /* \"contracts/FundMe.sol\":2324:2332  getPrice */\n      tag_20\n        /* \"contracts/FundMe.sol\":2324:2334  getPrice() */\n      jump\t// in\n    tag_45:\n        /* \"contracts/FundMe.sol\":2314:2323  msg.value */\n      callvalue\n        /* \"contracts/FundMe.sol\":2314:2334  msg.value/getPrice() */\n      tag_46\n      swap2\n      swap1\n      tag_47\n      jump\t// in\n    tag_46:\n        /* \"contracts/FundMe.sol\":2307:2334  return msg.value/getPrice() */\n      swap1\n      pop\n        /* \"contracts/FundMe.sol\":2230:2342  function getConversionRate() public payable returns(uint256)\r... */\n      swap1\n      jump\t// out\n        /* \"#utility.yul\":7:146   */\n    tag_49:\n        /* \"#utility.yul\":53:58   */\n      0x00\n        /* \"#utility.yul\":91:97   */\n      dup2\n        /* \"#utility.yul\":78:98   */\n      calldataload\n        /* \"#utility.yul\":69:98   */\n      swap1\n      pop\n        /* \"#utility.yul\":107:140   */\n      tag_51\n        /* \"#utility.yul\":134:139   */\n      dup2\n        /* \"#utility.yul\":107:140   */\n      tag_52\n      jump\t// in\n    tag_51:\n        /* \"#utility.yul\":7:146   */\n      swap3\n      swap2\n      pop\n      pop\n      jump\t// out\n        /* \"#utility.yul\":152:293   */\n    tag_53:\n        /* \"#utility.yul\":208:213   */\n      0x00\n        /* \"#utility.yul\":239:245   */\n      dup2\n        /* \"#utility.yul\":233:246   */\n      mload\n        /* \"#utility.yul\":224:246   */\n      swap1\n      pop\n        /* \"#utility.yul\":255:287   */\n      tag_55\n        /* \"#utility.yul\":281:286   */\n      dup2\n        /* \"#utility.yul\":255:287   */\n      tag_56\n      jump\t// in\n    tag_55:\n        /* \"#utility.yul\":152:293   */\n      swap3\n      swap2\n      pop\n      pop\n      jump\t// out\n        /* \"#utility.yul\":299:442   */\n    tag_57:\n        /* \"#utility.yul\":356:361   */\n      0x00\n        /* \"#utility.yul\":387:393   */\n      dup2\n        /* \"#utility.yul\":381:394   */\n      mload\n        /* \"#utility.yul\":372:394   */\n      swap1\n      pop\n        /* \"#utility.yul\":403:436   */\n      tag_59\n        /* \"#utility.yul\":430:435   */\n      dup2\n        /* \"#utility.yul\":403:436   */\n      tag_60\n      jump\t// in\n    tag_59:\n        /* \"#utility.yul\":299:442   */\n      swap3\n      swap2\n      pop\n      pop\n      jump\t// out\n        /* \"#utility.yul\":448:589   */\n    tag_61:\n        /* \"#utility.yul\":504:509   */\n      0x00\n        /* \"#utility.yul\":535:541   */\n      dup2\n        /* \"#utility.yul\":529:542   */\n      mload\n        /* \"#utility.yul\":520:542   */\n      swap1\n      pop\n        /* \"#utility.yul\":551:583   */\n      tag_63\n        /* \"#utility.yul\":577:582   */\n      dup2\n        /* \"#utility.yul\":551:583   */\n      tag_64\n      jump\t// in\n    tag_63:\n        /* \"#utility.yul\":448:589   */\n      swap3\n      swap2\n      pop\n      pop\n      jump\t// out\n        /* \"#utility.yul\":595:924   */\n    tag_15:\n        /* \"#utility.yul\":654:660   */\n      0x00\n        /* \"#utility.yul\":703:705   */\n      0x20\n        /* \"#utility.yul\":691:700   */\n      dup3\n        /* \"#utility.yul\":682:689   */\n      dup5\n        /* \"#utility.yul\":678:701   */\n      sub\n        /* \"#utility.yul\":674:706   */\n      slt\n        /* \"#utility.yul\":671:790   */\n      iszero\n      tag_66\n      jumpi\n        /* \"#utility.yul\":709:788   */\n      tag_67\n      tag_68\n      jump\t// in\n    tag_67:\n        /* \"#utility.yul\":671:790   */\n    tag_66:\n        /* \"#utility.yul\":829:830   */\n      0x00\n        /* \"#utility.yul\":854:907   */\n      tag_69\n        /* \"#utility.yul\":899:906   */\n      dup5\n        /* \"#utility.yul\":890:896   */\n      dup3\n        /* \"#utility.yul\":879:888   */\n      dup6\n        /* \"#utility.yul\":875:897   */\n      add\n        /* \"#utility.yul\":854:907   */\n      tag_49\n      jump\t// in\n    tag_69:\n        /* \"#utility.yul\":844:907   */\n      swap2\n      pop\n        /* \"#utility.yul\":800:917   */\n      pop\n        /* \"#utility.yul\":595:924   */\n      swap3\n      swap2\n      pop\n      pop\n      jump\t// out\n        /* \"#utility.yul\":930:1281   */\n    tag_32:\n        /* \"#utility.yul\":1000:1006   */\n      0x00\n        /* \"#utility.yul\":1049:1051   */\n      0x20\n        /* \"#utility.yul\":1037:1046   */\n      dup3\n        /* \"#utility.yul\":1028:1035   */\n      dup5\n        /* \"#utility.yul\":1024:1047   */\n      sub\n        /* \"#utility.yul\":1020:1052   */\n      slt\n        /* \"#utility.yul\":1017:1136   */\n      iszero\n      tag_71\n      jumpi\n        /* \"#utility.yul\":1055:1134   */\n      tag_72\n      tag_68\n      jump\t// in\n    tag_72:\n        /* \"#utility.yul\":1017:1136   */\n    tag_71:\n        /* \"#utility.yul\":1175:1176   */\n      0x00\n        /* \"#utility.yul\":1200:1264   */\n      tag_73\n        /* \"#utility.yul\":1256:1263   */\n      dup5\n        /* \"#utility.yul\":1247:1253   */\n      dup3\n        /* \"#utility.yul\":1236:1245   */\n      dup6\n        /* \"#utility.yul\":1232:1254   */\n      add\n        /* \"#utility.yul\":1200:1264   */\n      tag_57\n      jump\t// in\n    tag_73:\n        /* \"#utility.yul\":1190:1264   */\n      swap2\n      pop\n        /* \"#utility.yul\":1146:1274   */\n      pop\n        /* \"#utility.yul\":930:1281   */\n      swap3\n      swap2\n      pop\n      pop\n      jump\t// out\n        /* \"#utility.yul\":1287:2258   */\n    tag_38:\n        /* \"#utility.yul\":1390:1396   */\n      0x00\n        /* \"#utility.yul\":1398:1404   */\n      dup1\n        /* \"#utility.yul\":1406:1412   */\n      0x00\n        /* \"#utility.yul\":1414:1420   */\n      dup1\n        /* \"#utility.yul\":1422:1428   */\n      0x00\n        /* \"#utility.yul\":1471:1474   */\n      0xa0\n        /* \"#utility.yul\":1459:1468   */\n      dup7\n        /* \"#utility.yul\":1450:1457   */\n      dup9\n        /* \"#utility.yul\":1446:1469   */\n      sub\n        /* \"#utility.yul\":1442:1475   */\n      slt\n        /* \"#utility.yul\":1439:1559   */\n      iszero\n      tag_75\n      jumpi\n        /* \"#utility.yul\":1478:1557   */\n      tag_76\n      tag_68\n      jump\t// in\n    tag_76:\n        /* \"#utility.yul\":1439:1559   */\n    tag_75:\n        /* \"#utility.yul\":1598:1599   */\n      0x00\n        /* \"#utility.yul\":1623:1686   */\n      tag_77\n        /* \"#utility.yul\":1678:1685   */\n      dup9\n        /* \"#utility.yul\":1669:1675   */\n      dup3\n        /* \"#utility.yul\":1658:1667   */\n      dup10\n        /* \"#utility.yul\":1654:1676   */\n      add\n        /* \"#utility.yul\":1623:1686   */\n      tag_61\n      jump\t// in\n    tag_77:\n        /* \"#utility.yul\":1613:1686   */\n      swap6\n      pop\n        /* \"#utility.yul\":1569:1696   */\n      pop\n        /* \"#utility.yul\":1735:1737   */\n      0x20\n        /* \"#utility.yul\":1761:1824   */\n      tag_78\n        /* \"#utility.yul\":1816:1823   */\n      dup9\n        /* \"#utility.yul\":1807:1813   */\n      dup3\n        /* \"#utility.yul\":1796:1805   */\n      dup10\n        /* \"#utility.yul\":1792:1814   */\n      add\n        /* \"#utility.yul\":1761:1824   */\n      tag_53\n      jump\t// in\n    tag_78:\n        /* \"#utility.yul\":1751:1824   */\n      swap5\n      pop\n        /* \"#utility.yul\":1706:1834   */\n      pop\n        /* \"#utility.yul\":1873:1875   */\n      0x40\n        /* \"#utility.yul\":1899:1963   */\n      tag_79\n        /* \"#utility.yul\":1955:1962   */\n      dup9\n        /* \"#utility.yul\":1946:1952   */\n      dup3\n        /* \"#utility.yul\":1935:1944   */\n      dup10\n        /* \"#utility.yul\":1931:1953   */\n      add\n        /* \"#utility.yul\":1899:1963   */\n      tag_57\n      jump\t// in\n    tag_79:\n        /* \"#utility.yul\":1889:1963   */\n      swap4\n      pop\n        /* \"#utility.yul\":1844:1973   */\n      pop\n        /* \"#utility.yul\":2012:2014   */\n      0x60\n        /* \"#utility.yul\":2038:2102   */\n      tag_80\n        /* \"#utility.yul\":2094:2101   */\n      dup9\n        /* \"#utility.yul\":2085:2091   */\n      dup3\n        /* \"#utility.yul\":2074:2083   */\n      dup10\n        /* \"#utility.yul\":2070:2092   */\n      add\n        /* \"#utility.yul\":2038:2102   */\n      tag_57\n      jump\t// in\n    tag_80:\n        /* \"#utility.yul\":2028:2102   */\n      swap3\n      pop\n        /* \"#utility.yul\":1983:2112   */\n      pop\n        /* \"#utility.yul\":2151:2154   */\n      0x80\n        /* \"#utility.yul\":2178:2241   */\n      tag_81\n        /* \"#utility.yul\":2233:2240   */\n      dup9\n        /* \"#utility.yul\":2224:2230   */\n      dup3\n        /* \"#utility.yul\":2213:2222   */\n      dup10\n        /* \"#utility.yul\":2209:2231   */\n      add\n        /* \"#utility.yul\":2178:2241   */\n      tag_61\n      jump\t// in\n    tag_81:\n        /* \"#utility.yul\":2168:2241   */\n      swap2\n      pop\n        /* \"#utility.yul\":2122:2251   */\n      pop\n        /* \"#utility.yul\":1287:2258   */\n      swap3\n      swap6\n      pop\n      swap3\n      swap6\n      swap1\n      swap4\n      pop\n      jump\t// out\n        /* \"#utility.yul\":2264:2382   */\n    tag_82:\n        /* \"#utility.yul\":2351:2375   */\n      tag_84\n        /* \"#utility.yul\":2369:2374   */\n      dup2\n        /* \"#utility.yul\":2351:2375   */\n      tag_85\n      jump\t// in\n    tag_84:\n        /* \"#utility.yul\":2346:2349   */\n      dup3\n        /* \"#utility.yul\":2339:2376   */\n      mstore\n        /* \"#utility.yul\":2264:2382   */\n      pop\n      pop\n      jump\t// out\n        /* \"#utility.yul\":2388:2610   */\n    tag_11:\n        /* \"#utility.yul\":2481:2485   */\n      0x00\n        /* \"#utility.yul\":2519:2521   */\n      0x20\n        /* \"#utility.yul\":2508:2517   */\n      dup3\n        /* \"#utility.yul\":2504:2522   */\n      add\n        /* \"#utility.yul\":2496:2522   */\n      swap1\n      pop\n        /* \"#utility.yul\":2532:2603   */\n      tag_87\n        /* \"#utility.yul\":2600:2601   */\n      0x00\n        /* \"#utility.yul\":2589:2598   */\n      dup4\n        /* \"#utility.yul\":2585:2602   */\n      add\n        /* \"#utility.yul\":2576:2582   */\n      dup5\n        /* \"#utility.yul\":2532:2603   */\n      tag_82\n      jump\t// in\n    tag_87:\n        /* \"#utility.yul\":2388:2610   */\n      swap3\n      swap2\n      pop\n      pop\n      jump\t// out\n        /* \"#utility.yul\":2697:3002   */\n    tag_43:\n        /* \"#utility.yul\":2737:2740   */\n      0x00\n        /* \"#utility.yul\":2756:2776   */\n      tag_91\n        /* \"#utility.yul\":2774:2775   */\n      dup3\n        /* \"#utility.yul\":2756:2776   */\n      tag_85\n      jump\t// in\n    tag_91:\n        /* \"#utility.yul\":2751:2776   */\n      swap2\n      pop\n        /* \"#utility.yul\":2790:2810   */\n      tag_92\n        /* \"#utility.yul\":2808:2809   */\n      dup4\n        /* \"#utility.yul\":2790:2810   */\n      tag_85\n      jump\t// in\n    tag_92:\n        /* \"#utility.yul\":2785:2810   */\n      swap3\n      pop\n        /* \"#utility.yul\":2944:2945   */\n      dup3\n        /* \"#utility.yul\":2876:2942   */\n      0xffffffffffffffffffffffffffffffffffffffffffffffffffffffffffffffff\n        /* \"#utility.yul\":2872:2946   */\n      sub\n        /* \"#utility.yul\":2869:2870   */\n      dup3\n        /* \"#utility.yul\":2866:2947   */\n      gt\n        /* \"#utility.yul\":2863:2970   */\n      iszero\n      tag_93\n      jumpi\n        /* \"#utility.yul\":2950:2968   */\n      tag_94\n      tag_95\n      jump\t// in\n    tag_94:\n        /* \"#utility.yul\":2863:2970   */\n    tag_93:\n        /* \"#utility.yul\":2994:2995   */\n      dup3\n        /* \"#utility.yul\":2991:2992   */\n      dup3\n        /* \"#utility.yul\":2987:2996   */\n      add\n        /* \"#utility.yul\":2980:2996   */\n      swap1\n      pop\n        /* \"#utility.yul\":2697:3002   */\n      swap3\n      swap2\n      pop\n      pop\n      jump\t// out\n        /* \"#utility.yul\":3008:3193   */\n    tag_47:\n        /* \"#utility.yul\":3048:3049   */\n      0x00\n        /* \"#utility.yul\":3065:3085   */\n      tag_97\n        /* \"#utility.yul\":3083:3084   */\n      dup3\n        /* \"#utility.yul\":3065:3085   */\n      tag_85\n      jump\t// in\n    tag_97:\n        /* \"#utility.yul\":3060:3085   */\n      swap2\n      pop\n        /* \"#utility.yul\":3099:3119   */\n      tag_98\n        /* \"#utility.yul\":3117:3118   */\n      dup4\n        /* \"#utility.yul\":3099:3119   */\n      tag_85\n      jump\t// in\n    tag_98:\n        /* \"#utility.yul\":3094:3119   */\n      swap3\n      pop\n        /* \"#utility.yul\":3138:3139   */\n      dup3\n        /* \"#utility.yul\":3128:3163   */\n      tag_99\n      jumpi\n        /* \"#utility.yul\":3143:3161   */\n      tag_100\n      tag_101\n      jump\t// in\n    tag_100:\n        /* \"#utility.yul\":3128:3163   */\n    tag_99:\n        /* \"#utility.yul\":3185:3186   */\n      dup3\n        /* \"#utility.yul\":3182:3183   */\n      dup3\n        /* \"#utility.yul\":3178:3187   */\n      div\n        /* \"#utility.yul\":3173:3187   */\n      swap1\n      pop\n        /* \"#utility.yul\":3008:3193   */\n      swap3\n      swap2\n      pop\n      pop\n      jump\t// out\n        /* \"#utility.yul\":3199:4190   */\n    tag_40:\n        /* \"#utility.yul\":3238:3245   */\n      0x00\n        /* \"#utility.yul\":3261:3280   */\n      tag_103\n        /* \"#utility.yul\":3278:3279   */\n      dup3\n        /* \"#utility.yul\":3261:3280   */\n      tag_104\n      jump\t// in\n    tag_103:\n        /* \"#utility.yul\":3256:3280   */\n      swap2\n      pop\n        /* \"#utility.yul\":3294:3313   */\n      tag_105\n        /* \"#utility.yul\":3311:3312   */\n      dup4\n        /* \"#utility.yul\":3294:3313   */\n      tag_104\n      jump\t// in\n    tag_105:\n        /* \"#utility.yul\":3289:3313   */\n      swap3\n      pop\n        /* \"#utility.yul\":3495:3496   */\n      dup3\n        /* \"#utility.yul\":3427:3493   */\n      0x7fffffffffffffffffffffffffffffffffffffffffffffffffffffffffffffff\n        /* \"#utility.yul\":3423:3497   */\n      div\n        /* \"#utility.yul\":3420:3421   */\n      dup3\n        /* \"#utility.yul\":3417:3498   */\n      gt\n        /* \"#utility.yul\":3412:3413   */\n      0x00\n        /* \"#utility.yul\":3409:3410   */\n      dup5\n        /* \"#utility.yul\":3405:3414   */\n      sgt\n        /* \"#utility.yul\":3401:3402   */\n      0x00\n        /* \"#utility.yul\":3398:3399   */\n      dup5\n        /* \"#utility.yul\":3394:3403   */\n      sgt\n        /* \"#utility.yul\":3390:3415   */\n      and\n        /* \"#utility.yul\":3386:3499   */\n      and\n        /* \"#utility.yul\":3383:3522   */\n      iszero\n      tag_106\n      jumpi\n        /* \"#utility.yul\":3502:3520   */\n      tag_107\n      tag_95\n      jump\t// in\n    tag_107:\n        /* \"#utility.yul\":3383:3522   */\n    tag_106:\n        /* \"#utility.yul\":3706:3707   */\n      dup2\n        /* \"#utility.yul\":3638:3704   */\n      0x8000000000000000000000000000000000000000000000000000000000000000\n        /* \"#utility.yul\":3633:3708   */\n      sdiv\n        /* \"#utility.yul\":3630:3631   */\n      dup4\n        /* \"#utility.yul\":3626:3709   */\n      slt\n        /* \"#utility.yul\":3621:3622   */\n      0x00\n        /* \"#utility.yul\":3618:3619   */\n      dup5\n        /* \"#utility.yul\":3614:3623   */\n      slt\n        /* \"#utility.yul\":3610:3611   */\n      0x00\n        /* \"#utility.yul\":3607:3608   */\n      dup5\n        /* \"#utility.yul\":3603:3612   */\n      sgt\n        /* \"#utility.yul\":3599:3624   */\n      and\n        /* \"#utility.yul\":3595:3710   */\n      and\n        /* \"#utility.yul\":3592:3733   */\n      iszero\n      tag_108\n      jumpi\n        /* \"#utility.yul\":3713:3731   */\n      tag_109\n      tag_95\n      jump\t// in\n    tag_109:\n        /* \"#utility.yul\":3592:3733   */\n    tag_108:\n        /* \"#utility.yul\":3917:3918   */\n      dup3\n        /* \"#utility.yul\":3849:3915   */\n      0x8000000000000000000000000000000000000000000000000000000000000000\n        /* \"#utility.yul\":3844:3919   */\n      sdiv\n        /* \"#utility.yul\":3841:3842   */\n      dup3\n        /* \"#utility.yul\":3837:3920   */\n      slt\n        /* \"#utility.yul\":3832:3833   */\n      0x00\n        /* \"#utility.yul\":3829:3830   */\n      dup5\n        /* \"#utility.yul\":3825:3834   */\n      sgt\n        /* \"#utility.yul\":3821:3822   */\n      0x00\n        /* \"#utility.yul\":3818:3819   */\n      dup5\n        /* \"#utility.yul\":3814:3823   */\n      slt\n        /* \"#utility.yul\":3810:3835   */\n      and\n        /* \"#utility.yul\":3806:3921   */\n      and\n        /* \"#utility.yul\":3803:3944   */\n      iszero\n      tag_110\n      jumpi\n        /* \"#utility.yul\":3924:3942   */\n      tag_111\n      tag_95\n      jump\t// in\n    tag_111:\n        /* \"#utility.yul\":3803:3944   */\n    tag_110:\n        /* \"#utility.yul\":4127:4128   */\n      dup3\n        /* \"#utility.yul\":4059:4125   */\n      0x7fffffffffffffffffffffffffffffffffffffffffffffffffffffffffffffff\n        /* \"#utility.yul\":4054:4129   */\n      sdiv\n        /* \"#utility.yul\":4051:4052   */\n      dup3\n        /* \"#utility.yul\":4047:4130   */\n      slt\n        /* \"#utility.yul\":4042:4043   */\n      0x00\n        /* \"#utility.yul\":4039:4040   */\n      dup5\n        /* \"#utility.yul\":4035:4044   */\n      slt\n        /* \"#utility.yul\":4031:4032   */\n      0x00\n        /* \"#utility.yul\":4028:4029   */\n      dup5\n        /* \"#utility.yul\":4024:4033   */\n      slt\n        /* \"#utility.yul\":4020:4045   */\n      and\n        /* \"#utility.yul\":4016:4131   */\n      and\n        /* \"#utility.yul\":4013:4154   */\n      iszero\n      tag_112\n      jumpi\n        /* \"#utility.yul\":4134:4152   */\n      tag_113\n      tag_95\n      jump\t// in\n    tag_113:\n        /* \"#utility.yul\":4013:4154   */\n    tag_112:\n        /* \"#utility.yul\":4182:4183   */\n      dup3\n        /* \"#utility.yul\":4179:4180   */\n      dup3\n        /* \"#utility.yul\":4175:4184   */\n      mul\n        /* \"#utility.yul\":4164:4184   */\n      swap1\n      pop\n        /* \"#utility.yul\":3199:4190   */\n      swap3\n      swap2\n      pop\n      pop\n      jump\t// out\n        /* \"#utility.yul\":4196:4292   */\n    tag_114:\n        /* \"#utility.yul\":4233:4240   */\n      0x00\n        /* \"#utility.yul\":4262:4286   */\n      tag_116\n        /* \"#utility.yul\":4280:4285   */\n      dup3\n        /* \"#utility.yul\":4262:4286   */\n      tag_117\n      jump\t// in\n    tag_116:\n        /* \"#utility.yul\":4251:4286   */\n      swap1\n      pop\n        /* \"#utility.yul\":4196:4292   */\n      swap2\n      swap1\n      pop\n      jump\t// out\n        /* \"#utility.yul\":4298:4374   */\n    tag_104:\n        /* \"#utility.yul\":4334:4341   */\n      0x00\n        /* \"#utility.yul\":4363:4368   */\n      dup2\n        /* \"#utility.yul\":4352:4368   */\n      swap1\n      pop\n        /* \"#utility.yul\":4298:4374   */\n      swap2\n      swap1\n      pop\n      jump\t// out\n        /* \"#utility.yul\":4380:4506   */\n    tag_117:\n        /* \"#utility.yul\":4417:4424   */\n      0x00\n        /* \"#utility.yul\":4457:4499   */\n      0xffffffffffffffffffffffffffffffffffffffff\n        /* \"#utility.yul\":4450:4455   */\n      dup3\n        /* \"#utility.yul\":4446:4500   */\n      and\n        /* \"#utility.yul\":4435:4500   */\n      swap1\n      pop\n        /* \"#utility.yul\":4380:4506   */\n      swap2\n      swap1\n      pop\n      jump\t// out\n        /* \"#utility.yul\":4512:4589   */\n    tag_85:\n        /* \"#utility.yul\":4549:4556   */\n      0x00\n        /* \"#utility.yul\":4578:4583   */\n      dup2\n        /* \"#utility.yul\":4567:4583   */\n      swap1\n      pop\n        /* \"#utility.yul\":4512:4589   */\n      swap2\n      swap1\n      pop\n      jump\t// out\n        /* \"#utility.yul\":4595:4700   */\n    tag_121:\n        /* \"#utility.yul\":4631:4638   */\n      0x00\n        /* \"#utility.yul\":4671:4693   */\n      0xffffffffffffffffffff\n        /* \"#utility.yul\":4664:4669   */\n      dup3\n        /* \"#utility.yul\":4660:4694   */\n      and\n        /* \"#utility.yul\":4649:4694   */\n      swap1\n      pop\n        /* \"#utility.yul\":4595:4700   */\n      swap2\n      swap1\n      pop\n      jump\t// out\n        /* \"#utility.yul\":4706:4886   */\n    tag_95:\n        /* \"#utility.yul\":4754:4831   */\n      0x4e487b7100000000000000000000000000000000000000000000000000000000\n        /* \"#utility.yul\":4751:4752   */\n      0x00\n        /* \"#utility.yul\":4744:4832   */\n      mstore\n        /* \"#utility.yul\":4851:4855   */\n      0x11\n        /* \"#utility.yul\":4848:4849   */\n      0x04\n        /* \"#utility.yul\":4841:4856   */\n      mstore\n        /* \"#utility.yul\":4875:4879   */\n      0x24\n        /* \"#utility.yul\":4872:4873   */\n      0x00\n        /* \"#utility.yul\":4865:4880   */\n      revert\n        /* \"#utility.yul\":4892:5072   */\n    tag_101:\n        /* \"#utility.yul\":4940:5017   */\n      0x4e487b7100000000000000000000000000000000000000000000000000000000\n        /* \"#utility.yul\":4937:4938   */\n      0x00\n        /* \"#utility.yul\":4930:5018   */\n      mstore\n        /* \"#utility.yul\":5037:5041   */\n      0x12\n        /* \"#utility.yul\":5034:5035   */\n      0x04\n        /* \"#utility.yul\":5027:5042   */\n      mstore\n        /* \"#utility.yul\":5061:5065   */\n      0x24\n        /* \"#utility.yul\":5058:5059   */\n      0x00\n        /* \"#utility.yul\":5051:5066   */\n      revert\n        /* \"#utility.yul\":5201:5318   */\n    tag_68:\n        /* \"#utility.yul\":5310:5311   */\n      0x00\n        /* \"#utility.yul\":5307:5308   */\n      dup1\n        /* \"#utility.yul\":5300:5312   */\n      revert\n        /* \"#utility.yul\":5324:5446   */\n    tag_52:\n        /* \"#utility.yul\":5397:5421   */\n      tag_129\n        /* \"#utility.yul\":5415:5420   */\n      dup2\n        /* \"#utility.yul\":5397:5421   */\n      tag_114\n      jump\t// in\n    tag_129:\n        /* \"#utility.yul\":5390:5395   */\n      dup2\n        /* \"#utility.yul\":5387:5422   */\n      eq\n        /* \"#utility.yul\":5377:5440   */\n      tag_130\n      jumpi\n        /* \"#utility.yul\":5436:5437   */\n      0x00\n        /* \"#utility.yul\":5433:5434   */\n      dup1\n        /* \"#utility.yul\":5426:5438   */\n      revert\n        /* \"#utility.yul\":5377:5440   */\n    tag_130:\n        /* \"#utility.yul\":5324:5446   */\n      pop\n      jump\t// out\n        /* \"#utility.yul\":5452:5572   */\n    tag_56:\n        /* \"#utility.yul\":5524:5547   */\n      tag_132\n        /* \"#utility.yul\":5541:5546   */\n      dup2\n        /* \"#utility.yul\":5524:5547   */\n      tag_104\n      jump\t// in\n    tag_132:\n        /* \"#utility.yul\":5517:5522   */\n      dup2\n        /* \"#utility.yul\":5514:5548   */\n      eq\n        /* \"#utility.yul\":5504:5566   */\n      tag_133\n      jumpi\n        /* \"#utility.yul\":5562:5563   */\n      0x00\n        /* \"#utility.yul\":5559:5560   */\n      dup1\n        /* \"#utility.yul\":5552:5564   */\n      revert\n        /* \"#utility.yul\":5504:5566   */\n    tag_133:\n        /* \"#utility.yul\":5452:5572   */\n      pop\n      jump\t// out\n        /* \"#utility.yul\":5578:5700   */\n    tag_60:\n        /* \"#utility.yul\":5651:5675   */\n      tag_135\n        /* \"#utility.yul\":5669:5674   */\n      dup2\n        /* \"#utility.yul\":5651:5675   */\n      tag_85\n      jump\t// in\n    tag_135:\n        /* \"#utility.yul\":5644:5649   */\n      dup2\n        /* \"#utility.yul\":5641:5676   */\n      eq\n        /* \"#utility.yul\":5631:5694   */\n      tag_136\n      jumpi\n        /* \"#utility.yul\":5690:5691   */\n      0x00\n        /* \"#utility.yul\":5687:5688   */\n      dup1\n        /* \"#utility.yul\":5680:5692   */\n      revert\n        /* \"#utility.yul\":5631:5694   */\n    tag_136:\n        /* \"#utility.yul\":5578:5700   */\n      pop\n      jump\t// out\n        /* \"#utility.yul\":5706:5826   */\n    tag_64:\n        /* \"#utility.yul\":5778:5801   */\n      tag_138\n        /* \"#utility.yul\":5795:5800   */\n      dup2\n        /* \"#utility.yul\":5778:5801   */\n      tag_121\n      jump\t// in\n    tag_138:\n        /* \"#utility.yul\":5771:5776   */\n      dup2\n        /* \"#utility.yul\":5768:5802   */\n      eq\n        /* \"#utility.yul\":5758:5820   */\n      tag_139\n      jumpi\n        /* \"#utility.yul\":5816:5817   */\n      0x00\n        /* \"#utility.yul\":5813:5814   */\n      dup1\n        /* \"#utility.yul\":5806:5818   */\n      revert\n        /* \"#utility.yul\":5758:5820   */\n    tag_139:\n        /* \"#utility.yul\":5706:5826   */\n      pop\n      jump\t// out\n\n    auxdata: 0xa26469706673582212200c376c66f4a994686c1041dc1da5eefd37a02ea93a9b15c62ab8d200cecb12e164736f6c63430008070033\n}\n",
				"bytecode": {
					"linkReferences": {},
					"object": "608060405234801561001057600080fd5b5061072b806100206000396000f3fe60806040526004361061004a5760003560e01c80630d8e6e2c1461004f5780633e47d6f31461007a57806398d5fdca146100b7578063b60d4288146100e2578063f36089ec146100ec575b600080fd5b34801561005b57600080fd5b5061006461010a565b6040516100719190610421565b60405180910390f35b34801561008657600080fd5b506100a1600480360381019061009c919061033d565b6101a8565b6040516100ae9190610421565b60405180910390f35b3480156100c357600080fd5b506100cc6101c0565b6040516100d99190610421565b60405180910390f35b6100ea610278565b005b6100f46102cf565b6040516101019190610421565b60405180910390f35b60008073d4a33860578de61dbabdc8bfdb98fd742fa7028e90508073ffffffffffffffffffffffffffffffffffffffff166354fd4d506040518163ffffffff1660e01b815260040160206040518083038186803b15801561016a57600080fd5b505afa15801561017e573d6000803e3d6000fd5b505050506040513d601f19601f820116820180604052508101906101a2919061036a565b91505090565b60006020528060005260406000206000915090505481565b60008073d4a33860578de61dbabdc8bfdb98fd742fa7028e905060008173ffffffffffffffffffffffffffffffffffffffff1663feaf968c6040518163ffffffff1660e01b815260040160a06040518083038186803b15801561022257600080fd5b505afa158015610236573d6000803e3d6000fd5b505050506040513d601f19601f8201168201806040525081019061025a9190610397565b5050509150506402540be4008161027191906104c3565b9250505090565b346000803373ffffffffffffffffffffffffffffffffffffffff1673ffffffffffffffffffffffffffffffffffffffff16815260200190815260200160002060008282546102c6919061043c565b92505081905550565b60006102d96101c0565b346102e49190610492565b905090565b6000813590506102f881610699565b92915050565b60008151905061030d816106b0565b92915050565b600081519050610322816106c7565b92915050565b600081519050610337816106de565b92915050565b60006020828403121561035357610352610694565b5b6000610361848285016102e9565b91505092915050565b6000602082840312156103805761037f610694565b5b600061038e84828501610313565b91505092915050565b600080600080600060a086880312156103b3576103b2610694565b5b60006103c188828901610328565b95505060206103d2888289016102fe565b94505060406103e388828901610313565b93505060606103f488828901610313565b925050608061040588828901610328565b9150509295509295909350565b61041b81610616565b82525050565b60006020820190506104366000830184610412565b92915050565b600061044782610616565b915061045283610616565b9250827fffffffffffffffffffffffffffffffffffffffffffffffffffffffffffffffff0382111561048757610486610636565b5b828201905092915050565b600061049d82610616565b91506104a883610616565b9250826104b8576104b7610665565b5b828204905092915050565b60006104ce826105ec565b91506104d9836105ec565b9250827f7fffffffffffffffffffffffffffffffffffffffffffffffffffffffffffffff048211600084136000841316161561051857610517610636565b5b817f8000000000000000000000000000000000000000000000000000000000000000058312600084126000841316161561055557610554610636565b5b827f8000000000000000000000000000000000000000000000000000000000000000058212600084136000841216161561059257610591610636565b5b827f7fffffffffffffffffffffffffffffffffffffffffffffffffffffffffffffff05821260008412600084121616156105cf576105ce610636565b5b828202905092915050565b60006105e5826105f6565b9050919050565b6000819050919050565b600073ffffffffffffffffffffffffffffffffffffffff82169050919050565b6000819050919050565b600069ffffffffffffffffffff82169050919050565b7f4e487b7100000000000000000000000000000000000000000000000000000000600052601160045260246000fd5b7f4e487b7100000000000000000000000000000000000000000000000000000000600052601260045260246000fd5b600080fd5b6106a2816105da565b81146106ad57600080fd5b50565b6106b9816105ec565b81146106c457600080fd5b50565b6106d081610616565b81146106db57600080fd5b50565b6106e781610620565b81146106f257600080fd5b5056fea26469706673582212200c376c66f4a994686c1041dc1da5eefd37a02ea93a9b15c62ab8d200cecb12e164736f6c63430008070033",
					"opcodes": "PUSH1 0x80 PUSH1 0x40 MSTORE CALLVALUE DUP1 ISZERO PUSH2 0x10 JUMPI PUSH1 0x0 DUP1 REVERT JUMPDEST POP PUSH2 0x72B DUP1 PUSH2 0x20 PUSH1 0x0 CODECOPY PUSH1 0x0 RETURN INVALID PUSH1 0x80 PUSH1 0x40 MSTORE PUSH1 0x4 CALLDATASIZE LT PUSH2 0x4A JUMPI PUSH1 0x0 CALLDATALOAD PUSH1 0xE0 SHR DUP1 PUSH4 0xD8E6E2C EQ PUSH2 0x4F JUMPI DUP1 PUSH4 0x3E47D6F3 EQ PUSH2 0x7A JUMPI DUP1 PUSH4 0x98D5FDCA EQ PUSH2 0xB7 JUMPI DUP1 PUSH4 0xB60D4288 EQ PUSH2 0xE2 JUMPI DUP1 PUSH4 0xF36089EC EQ PUSH2 0xEC JUMPI JUMPDEST PUSH1 0x0 DUP1 REVERT JUMPDEST CALLVALUE DUP1 ISZERO PUSH2 0x5B JUMPI PUSH1 0x0 DUP1 REVERT JUMPDEST POP PUSH2 0x64 PUSH2 0x10A JUMP JUMPDEST PUSH1 0x40 MLOAD PUSH2 0x71 SWAP2 SWAP1 PUSH2 0x421 JUMP JUMPDEST PUSH1 0x40 MLOAD DUP1 SWAP2 SUB SWAP1 RETURN JUMPDEST CALLVALUE DUP1 ISZERO PUSH2 0x86 JUMPI PUSH1 0x0 DUP1 REVERT JUMPDEST POP PUSH2 0xA1 PUSH1 0x4 DUP1 CALLDATASIZE SUB DUP2 ADD SWAP1 PUSH2 0x9C SWAP2 SWAP1 PUSH2 0x33D JUMP JUMPDEST PUSH2 0x1A8 JUMP JUMPDEST PUSH1 0x40 MLOAD PUSH2 0xAE SWAP2 SWAP1 PUSH2 0x421 JUMP JUMPDEST PUSH1 0x40 MLOAD DUP1 SWAP2 SUB SWAP1 RETURN JUMPDEST CALLVALUE DUP1 ISZERO PUSH2 0xC3 JUMPI PUSH1 0x0 DUP1 REVERT JUMPDEST POP PUSH2 0xCC PUSH2 0x1C0 JUMP JUMPDEST PUSH1 0x40 MLOAD PUSH2 0xD9 SWAP2 SWAP1 PUSH2 0x421 JUMP JUMPDEST PUSH1 0x40 MLOAD DUP1 SWAP2 SUB SWAP1 RETURN JUMPDEST PUSH2 0xEA PUSH2 0x278 JUMP JUMPDEST STOP JUMPDEST PUSH2 0xF4 PUSH2 0x2CF JUMP JUMPDEST PUSH1 0x40 MLOAD PUSH2 0x101 SWAP2 SWAP1 PUSH2 0x421 JUMP JUMPDEST PUSH1 0x40 MLOAD DUP1 SWAP2 SUB SWAP1 RETURN JUMPDEST PUSH1 0x0 DUP1 PUSH20 0xD4A33860578DE61DBABDC8BFDB98FD742FA7028E SWAP1 POP DUP1 PUSH20 0xFFFFFFFFFFFFFFFFFFFFFFFFFFFFFFFFFFFFFFFF AND PUSH4 0x54FD4D50 PUSH1 0x40 MLOAD DUP2 PUSH4 0xFFFFFFFF AND PUSH1 0xE0 SHL DUP2 MSTORE PUSH1 0x4 ADD PUSH1 0x20 PUSH1 0x40 MLOAD DUP1 DUP4 SUB DUP2 DUP7 DUP1 EXTCODESIZE ISZERO DUP1 ISZERO PUSH2 0x16A JUMPI PUSH1 0x0 DUP1 REVERT JUMPDEST POP GAS STATICCALL ISZERO DUP1 ISZERO PUSH2 0x17E JUMPI RETURNDATASIZE PUSH1 0x0 DUP1 RETURNDATACOPY RETURNDATASIZE PUSH1 0x0 REVERT JUMPDEST POP POP POP POP PUSH1 0x40 MLOAD RETURNDATASIZE PUSH1 0x1F NOT PUSH1 0x1F DUP3 ADD AND DUP3 ADD DUP1 PUSH1 0x40 MSTORE POP DUP2 ADD SWAP1 PUSH2 0x1A2 SWAP2 SWAP1 PUSH2 0x36A JUMP JUMPDEST SWAP2 POP POP SWAP1 JUMP JUMPDEST PUSH1 0x0 PUSH1 0x20 MSTORE DUP1 PUSH1 0x0 MSTORE PUSH1 0x40 PUSH1 0x0 KECCAK256 PUSH1 0x0 SWAP2 POP SWAP1 POP SLOAD DUP2 JUMP JUMPDEST PUSH1 0x0 DUP1 PUSH20 0xD4A33860578DE61DBABDC8BFDB98FD742FA7028E SWAP1 POP PUSH1 0x0 DUP2 PUSH20 0xFFFFFFFFFFFFFFFFFFFFFFFFFFFFFFFFFFFFFFFF AND PUSH4 0xFEAF968C PUSH1 0x40 MLOAD DUP2 PUSH4 0xFFFFFFFF AND PUSH1 0xE0 SHL DUP2 MSTORE PUSH1 0x4 ADD PUSH1 0xA0 PUSH1 0x40 MLOAD DUP1 DUP4 SUB DUP2 DUP7 DUP1 EXTCODESIZE ISZERO DUP1 ISZERO PUSH2 0x222 JUMPI PUSH1 0x0 DUP1 REVERT JUMPDEST POP GAS STATICCALL ISZERO DUP1 ISZERO PUSH2 0x236 JUMPI RETURNDATASIZE PUSH1 0x0 DUP1 RETURNDATACOPY RETURNDATASIZE PUSH1 0x0 REVERT JUMPDEST POP POP POP POP PUSH1 0x40 MLOAD RETURNDATASIZE PUSH1 0x1F NOT PUSH1 0x1F DUP3 ADD AND DUP3 ADD DUP1 PUSH1 0x40 MSTORE POP DUP2 ADD SWAP1 PUSH2 0x25A SWAP2 SWAP1 PUSH2 0x397 JUMP JUMPDEST POP POP POP SWAP2 POP POP PUSH5 0x2540BE400 DUP2 PUSH2 0x271 SWAP2 SWAP1 PUSH2 0x4C3 JUMP JUMPDEST SWAP3 POP POP POP SWAP1 JUMP JUMPDEST CALLVALUE PUSH1 0x0 DUP1 CALLER PUSH20 0xFFFFFFFFFFFFFFFFFFFFFFFFFFFFFFFFFFFFFFFF AND PUSH20 0xFFFFFFFFFFFFFFFFFFFFFFFFFFFFFFFFFFFFFFFF AND DUP2 MSTORE PUSH1 0x20 ADD SWAP1 DUP2 MSTORE PUSH1 0x20 ADD PUSH1 0x0 KECCAK256 PUSH1 0x0 DUP3 DUP3 SLOAD PUSH2 0x2C6 SWAP2 SWAP1 PUSH2 0x43C JUMP JUMPDEST SWAP3 POP POP DUP2 SWAP1 SSTORE POP JUMP JUMPDEST PUSH1 0x0 PUSH2 0x2D9 PUSH2 0x1C0 JUMP JUMPDEST CALLVALUE PUSH2 0x2E4 SWAP2 SWAP1 PUSH2 0x492 JUMP JUMPDEST SWAP1 POP SWAP1 JUMP JUMPDEST PUSH1 0x0 DUP2 CALLDATALOAD SWAP1 POP PUSH2 0x2F8 DUP2 PUSH2 0x699 JUMP JUMPDEST SWAP3 SWAP2 POP POP JUMP JUMPDEST PUSH1 0x0 DUP2 MLOAD SWAP1 POP PUSH2 0x30D DUP2 PUSH2 0x6B0 JUMP JUMPDEST SWAP3 SWAP2 POP POP JUMP JUMPDEST PUSH1 0x0 DUP2 MLOAD SWAP1 POP PUSH2 0x322 DUP2 PUSH2 0x6C7 JUMP JUMPDEST SWAP3 SWAP2 POP POP JUMP JUMPDEST PUSH1 0x0 DUP2 MLOAD SWAP1 POP PUSH2 0x337 DUP2 PUSH2 0x6DE JUMP JUMPDEST SWAP3 SWAP2 POP POP JUMP JUMPDEST PUSH1 0x0 PUSH1 0x20 DUP3 DUP5 SUB SLT ISZERO PUSH2 0x353 JUMPI PUSH2 0x352 PUSH2 0x694 JUMP JUMPDEST JUMPDEST PUSH1 0x0 PUSH2 0x361 DUP5 DUP3 DUP6 ADD PUSH2 0x2E9 JUMP JUMPDEST SWAP2 POP POP SWAP3 SWAP2 POP POP JUMP JUMPDEST PUSH1 0x0 PUSH1 0x20 DUP3 DUP5 SUB SLT ISZERO PUSH2 0x380 JUMPI PUSH2 0x37F PUSH2 0x694 JUMP JUMPDEST JUMPDEST PUSH1 0x0 PUSH2 0x38E DUP5 DUP3 DUP6 ADD PUSH2 0x313 JUMP JUMPDEST SWAP2 POP POP SWAP3 SWAP2 POP POP JUMP JUMPDEST PUSH1 0x0 DUP1 PUSH1 0x0 DUP1 PUSH1 0x0 PUSH1 0xA0 DUP7 DUP9 SUB SLT ISZERO PUSH2 0x3B3 JUMPI PUSH2 0x3B2 PUSH2 0x694 JUMP JUMPDEST JUMPDEST PUSH1 0x0 PUSH2 0x3C1 DUP9 DUP3 DUP10 ADD PUSH2 0x328 JUMP JUMPDEST SWAP6 POP POP PUSH1 0x20 PUSH2 0x3D2 DUP9 DUP3 DUP10 ADD PUSH2 0x2FE JUMP JUMPDEST SWAP5 POP POP PUSH1 0x40 PUSH2 0x3E3 DUP9 DUP3 DUP10 ADD PUSH2 0x313 JUMP JUMPDEST SWAP4 POP POP PUSH1 0x60 PUSH2 0x3F4 DUP9 DUP3 DUP10 ADD PUSH2 0x313 JUMP JUMPDEST SWAP3 POP POP PUSH1 0x80 PUSH2 0x405 DUP9 DUP3 DUP10 ADD PUSH2 0x328 JUMP JUMPDEST SWAP2 POP POP SWAP3 SWAP6 POP SWAP3 SWAP6 SWAP1 SWAP4 POP JUMP JUMPDEST PUSH2 0x41B DUP2 PUSH2 0x616 JUMP JUMPDEST DUP3 MSTORE POP POP JUMP JUMPDEST PUSH1 0x0 PUSH1 0x20 DUP3 ADD SWAP1 POP PUSH2 0x436 PUSH1 0x0 DUP4 ADD DUP5 PUSH2 0x412 JUMP JUMPDEST SWAP3 SWAP2 POP POP JUMP JUMPDEST PUSH1 0x0 PUSH2 0x447 DUP3 PUSH2 0x616 JUMP JUMPDEST SWAP2 POP PUSH2 0x452 DUP4 PUSH2 0x616 JUMP JUMPDEST SWAP3 POP DUP3 PUSH32 0xFFFFFFFFFFFFFFFFFFFFFFFFFFFFFFFFFFFFFFFFFFFFFFFFFFFFFFFFFFFFFFFF SUB DUP3 GT ISZERO PUSH2 0x487 JUMPI PUSH2 0x486 PUSH2 0x636 JUMP JUMPDEST JUMPDEST DUP3 DUP3 ADD SWAP1 POP SWAP3 SWAP2 POP POP JUMP JUMPDEST PUSH1 0x0 PUSH2 0x49D DUP3 PUSH2 0x616 JUMP JUMPDEST SWAP2 POP PUSH2 0x4A8 DUP4 PUSH2 0x616 JUMP JUMPDEST SWAP3 POP DUP3 PUSH2 0x4B8 JUMPI PUSH2 0x4B7 PUSH2 0x665 JUMP JUMPDEST JUMPDEST DUP3 DUP3 DIV SWAP1 POP SWAP3 SWAP2 POP POP JUMP JUMPDEST PUSH1 0x0 PUSH2 0x4CE DUP3 PUSH2 0x5EC JUMP JUMPDEST SWAP2 POP PUSH2 0x4D9 DUP4 PUSH2 0x5EC JUMP JUMPDEST SWAP3 POP DUP3 PUSH32 0x7FFFFFFFFFFFFFFFFFFFFFFFFFFFFFFFFFFFFFFFFFFFFFFFFFFFFFFFFFFFFFFF DIV DUP3 GT PUSH1 0x0 DUP5 SGT PUSH1 0x0 DUP5 SGT AND AND ISZERO PUSH2 0x518 JUMPI PUSH2 0x517 PUSH2 0x636 JUMP JUMPDEST JUMPDEST DUP2 PUSH32 0x8000000000000000000000000000000000000000000000000000000000000000 SDIV DUP4 SLT PUSH1 0x0 DUP5 SLT PUSH1 0x0 DUP5 SGT AND AND ISZERO PUSH2 0x555 JUMPI PUSH2 0x554 PUSH2 0x636 JUMP JUMPDEST JUMPDEST DUP3 PUSH32 0x8000000000000000000000000000000000000000000000000000000000000000 SDIV DUP3 SLT PUSH1 0x0 DUP5 SGT PUSH1 0x0 DUP5 SLT AND AND ISZERO PUSH2 0x592 JUMPI PUSH2 0x591 PUSH2 0x636 JUMP JUMPDEST JUMPDEST DUP3 PUSH32 0x7FFFFFFFFFFFFFFFFFFFFFFFFFFFFFFFFFFFFFFFFFFFFFFFFFFFFFFFFFFFFFFF SDIV DUP3 SLT PUSH1 0x0 DUP5 SLT PUSH1 0x0 DUP5 SLT AND AND ISZERO PUSH2 0x5CF JUMPI PUSH2 0x5CE PUSH2 0x636 JUMP JUMPDEST JUMPDEST DUP3 DUP3 MUL SWAP1 POP SWAP3 SWAP2 POP POP JUMP JUMPDEST PUSH1 0x0 PUSH2 0x5E5 DUP3 PUSH2 0x5F6 JUMP JUMPDEST SWAP1 POP SWAP2 SWAP1 POP JUMP JUMPDEST PUSH1 0x0 DUP2 SWAP1 POP SWAP2 SWAP1 POP JUMP JUMPDEST PUSH1 0x0 PUSH20 0xFFFFFFFFFFFFFFFFFFFFFFFFFFFFFFFFFFFFFFFF DUP3 AND SWAP1 POP SWAP2 SWAP1 POP JUMP JUMPDEST PUSH1 0x0 DUP2 SWAP1 POP SWAP2 SWAP1 POP JUMP JUMPDEST PUSH1 0x0 PUSH10 0xFFFFFFFFFFFFFFFFFFFF DUP3 AND SWAP1 POP SWAP2 SWAP1 POP JUMP JUMPDEST PUSH32 0x4E487B7100000000000000000000000000000000000000000000000000000000 PUSH1 0x0 MSTORE PUSH1 0x11 PUSH1 0x4 MSTORE PUSH1 0x24 PUSH1 0x0 REVERT JUMPDEST PUSH32 0x4E487B7100000000000000000000000000000000000000000000000000000000 PUSH1 0x0 MSTORE PUSH1 0x12 PUSH1 0x4 MSTORE PUSH1 0x24 PUSH1 0x0 REVERT JUMPDEST PUSH1 0x0 DUP1 REVERT JUMPDEST PUSH2 0x6A2 DUP2 PUSH2 0x5DA JUMP JUMPDEST DUP2 EQ PUSH2 0x6AD JUMPI PUSH1 0x0 DUP1 REVERT JUMPDEST POP JUMP JUMPDEST PUSH2 0x6B9 DUP2 PUSH2 0x5EC JUMP JUMPDEST DUP2 EQ PUSH2 0x6C4 JUMPI PUSH1 0x0 DUP1 REVERT JUMPDEST POP JUMP JUMPDEST PUSH2 0x6D0 DUP2 PUSH2 0x616 JUMP JUMPDEST DUP2 EQ PUSH2 0x6DB JUMPI PUSH1 0x0 DUP1 REVERT JUMPDEST POP JUMP JUMPDEST PUSH2 0x6E7 DUP2 PUSH2 0x620 JUMP JUMPDEST DUP2 EQ PUSH2 0x6F2 JUMPI PUSH1 0x0 DUP1 REVERT JUMPDEST POP JUMP INVALID LOG2 PUSH5 0x6970667358 0x22 SLT KECCAK256 0xC CALLDATACOPY PUSH13 0x66F4A994686C1041DC1DA5EEFD CALLDATACOPY LOG0 0x2E 0xA9 GASPRICE SWAP12 ISZERO 0xC6 0x2A 0xB8 0xD2 STOP 0xCE 0xCB SLT 0xE1 PUSH5 0x736F6C6343 STOP ADDMOD SMOD STOP CALLER "
				},
				"gasEstimates": {
					"creation": {
						"codeDepositCost": "367000",
						"executionCost": "405",
						"totalCost": "367405"
					},
					"external": {
						"addressToAmountFunded(address)": "2814",
						"fund()": "infinite",
						"getConversionRate()": "infinite",
						"getPrice()": "infinite",
						"getVersion()": "infinite"
					}
				},
				"methodIdentifiers": {
					"addressToAmountFunded(address)": "3e47d6f3",
					"fund()": "b60d4288",
					"getConversionRate()": "f36089ec",
					"getPrice()": "98d5fdca",
					"getVersion()": "0d8e6e2c"
				}
			},
			"storageLayout": {
				"storage": [
					{
						"astId": 52,
						"contract": "contracts/FundMe.sol:FundMe",
						"label": "addressToAmountFunded",
						"offset": 0,
						"slot": "0",
						"type": "t_mapping(t_address,t_uint256)"
					}
				],
				"types": {
					"t_address": {
						"encoding": "inplace",
						"label": "address",
						"numberOfBytes": "20"
					},
					"t_mapping(t_address,t_uint256)": {
						"encoding": "mapping",
						"key": "t_address",
						"label": "mapping(address => uint256)",
						"numberOfBytes": "32",
						"value": "t_uint256"
					},
					"t_uint256": {
						"encoding": "inplace",
						"label": "uint256",
						"numberOfBytes": "32"
					}
				}
			},
			"userdoc": {
				"kind": "user",
				"methods": {},
				"version": 1
			}
		}
	}
}