{
	"contracts/FundMe.sol": {
		"FundMe": {
			"abi": [
				{
					"inputs": [
						{
							"internalType": "address",
							"name": "",
							"type": "address"
						}
					],
					"name": "addressToAmountFunded",
					"outputs": [
						{
							"internalType": "uint256",
							"name": "",
							"type": "uint256"
						}
					],
					"stateMutability": "view",
					"type": "function"
				},
				{
					"inputs": [],
					"name": "fund",
					"outputs": [],
					"stateMutability": "payable",
					"type": "function"
				},
				{
					"inputs": [
						{
							"internalType": "uint256",
							"name": "_amount",
							"type": "uint256"
						}
					],
					"name": "getConversionRate",
					"outputs": [
						{
							"internalType": "uint256",
							"name": "",
							"type": "uint256"
						}
					],
					"stateMutability": "view",
					"type": "function"
				},
				{
					"inputs": [],
					"name": "getPrice",
					"outputs": [
						{
							"internalType": "uint256",
							"name": "",
							"type": "uint256"
						}
					],
					"stateMutability": "view",
					"type": "function"
				},
				{
					"inputs": [],
					"name": "getVersion",
					"outputs": [
						{
							"internalType": "uint256",
							"name": "",
							"type": "uint256"
						}
					],
					"stateMutability": "view",
					"type": "function"
				}
			],
			"devdoc": {
				"kind": "dev",
				"methods": {},
				"version": 1
			},
			"evm": {
				"assembly": "    /* \"contracts/FundMe.sol\":986:2355  contract FundMe\r... */\n  mstore(0x40, 0x80)\n  callvalue\n  dup1\n  iszero\n  tag_1\n  jumpi\n  0x00\n  dup1\n  revert\ntag_1:\n  pop\n  dataSize(sub_0)\n  dup1\n  dataOffset(sub_0)\n  0x00\n  codecopy\n  0x00\n  return\nstop\n\nsub_0: assembly {\n        /* \"contracts/FundMe.sol\":986:2355  contract FundMe\r... */\n      mstore(0x40, 0x80)\n      jumpi(tag_1, lt(calldatasize, 0x04))\n      shr(0xe0, calldataload(0x00))\n      dup1\n      0x0d8e6e2c\n      eq\n      tag_2\n      jumpi\n      dup1\n      0x3e47d6f3\n      eq\n      tag_3\n      jumpi\n      dup1\n      0x6e5b6b28\n      eq\n      tag_4\n      jumpi\n      dup1\n      0x98d5fdca\n      eq\n      tag_5\n      jumpi\n      dup1\n      0xb60d4288\n      eq\n      tag_6\n      jumpi\n    tag_1:\n      0x00\n      dup1\n      revert\n        /* \"contracts/FundMe.sol\":1383:1776  function getVersion() public view returns(uint256)\r... */\n    tag_2:\n      callvalue\n      dup1\n      iszero\n      tag_7\n      jumpi\n      0x00\n      dup1\n      revert\n    tag_7:\n      pop\n      tag_8\n      tag_9\n      jump\t// in\n    tag_8:\n      mload(0x40)\n      tag_10\n      swap2\n      swap1\n      tag_11\n      jump\t// in\n    tag_10:\n      mload(0x40)\n      dup1\n      swap2\n      sub\n      swap1\n      return\n        /* \"contracts/FundMe.sol\":1016:1072  mapping(address => uint256) public addressToAmountFunded */\n    tag_3:\n      callvalue\n      dup1\n      iszero\n      tag_12\n      jumpi\n      0x00\n      dup1\n      revert\n    tag_12:\n      pop\n      tag_13\n      0x04\n      dup1\n      calldatasize\n      sub\n      dup2\n      add\n      swap1\n      tag_14\n      swap2\n      swap1\n      tag_15\n      jump\t// in\n    tag_14:\n      tag_16\n      jump\t// in\n    tag_13:\n      mload(0x40)\n      tag_17\n      swap2\n      swap1\n      tag_11\n      jump\t// in\n    tag_17:\n      mload(0x40)\n      dup1\n      swap2\n      sub\n      swap1\n      return\n        /* \"contracts/FundMe.sol\":2230:2352  function getConversionRate(uint256 _amount) public view returns(uint256)\r... */\n    tag_4:\n      callvalue\n      dup1\n      iszero\n      tag_18\n      jumpi\n      0x00\n      dup1\n      revert\n    tag_18:\n      pop\n      tag_19\n      0x04\n      dup1\n      calldatasize\n      sub\n      dup2\n      add\n      swap1\n      tag_20\n      swap2\n      swap1\n      tag_21\n      jump\t// in\n    tag_20:\n      tag_22\n      jump\t// in\n    tag_19:\n      mload(0x40)\n      tag_23\n      swap2\n      swap1\n      tag_11\n      jump\t// in\n    tag_23:\n      mload(0x40)\n      dup1\n      swap2\n      sub\n      swap1\n      return\n        /* \"contracts/FundMe.sol\":1784:2222  function getPrice() public view returns(uint256)\r... */\n    tag_5:\n      callvalue\n      dup1\n      iszero\n      tag_24\n      jumpi\n      0x00\n      dup1\n      revert\n    tag_24:\n      pop\n      tag_25\n      tag_26\n      jump\t// in\n    tag_25:\n      mload(0x40)\n      tag_27\n      swap2\n      swap1\n      tag_11\n      jump\t// in\n    tag_27:\n      mload(0x40)\n      dup1\n      swap2\n      sub\n      swap1\n      return\n        /* \"contracts/FundMe.sol\":1226:1375  function fund() public payable\r... */\n    tag_6:\n      tag_28\n      tag_29\n      jump\t// in\n    tag_28:\n      stop\n        /* \"contracts/FundMe.sol\":1383:1776  function getVersion() public view returns(uint256)\r... */\n    tag_9:\n        /* \"contracts/FundMe.sol\":1425:1432  uint256 */\n      0x00\n        /* \"contracts/FundMe.sol\":1630:1661  AggregatorV3Interface pricefeed */\n      dup1\n        /* \"contracts/FundMe.sol\":1686:1728  0xD4a33860578De61DBAbDc8BFdb98FD742fA7028e */\n      0xd4a33860578de61dbabdc8bfdb98fd742fa7028e\n        /* \"contracts/FundMe.sol\":1630:1729  AggregatorV3Interface pricefeed = AggregatorV3Interface(0xD4a33860578De61DBAbDc8BFdb98FD742fA7028e) */\n      swap1\n      pop\n        /* \"contracts/FundMe.sol\":1747:1756  pricefeed */\n      dup1\n        /* \"contracts/FundMe.sol\":1747:1764  pricefeed.version */\n      0xffffffffffffffffffffffffffffffffffffffff\n      and\n      0x54fd4d50\n        /* \"contracts/FundMe.sol\":1747:1766  pricefeed.version() */\n      mload(0x40)\n      dup2\n      0xffffffff\n      and\n      0xe0\n      shl\n      dup2\n      mstore\n      0x04\n      add\n      0x20\n      mload(0x40)\n      dup1\n      dup4\n      sub\n      dup2\n      dup7\n      dup1\n      extcodesize\n      iszero\n      dup1\n      iszero\n      tag_31\n      jumpi\n      0x00\n      dup1\n      revert\n    tag_31:\n      pop\n      gas\n      staticcall\n      iszero\n      dup1\n      iszero\n      tag_33\n      jumpi\n      returndatasize\n      0x00\n      dup1\n      returndatacopy\n      revert(0x00, returndatasize)\n    tag_33:\n      pop\n      pop\n      pop\n      pop\n      mload(0x40)\n      returndatasize\n      not(0x1f)\n      0x1f\n      dup3\n      add\n      and\n      dup3\n      add\n      dup1\n      0x40\n      mstore\n      pop\n      dup2\n      add\n      swap1\n      tag_34\n      swap2\n      swap1\n      tag_35\n      jump\t// in\n    tag_34:\n        /* \"contracts/FundMe.sol\":1740:1766  return pricefeed.version() */\n      swap2\n      pop\n      pop\n        /* \"contracts/FundMe.sol\":1383:1776  function getVersion() public view returns(uint256)\r... */\n      swap1\n      jump\t// out\n        /* \"contracts/FundMe.sol\":1016:1072  mapping(address => uint256) public addressToAmountFunded */\n    tag_16:\n      mstore(0x20, 0x00)\n      dup1\n      0x00\n      mstore\n      keccak256(0x00, 0x40)\n      0x00\n      swap2\n      pop\n      swap1\n      pop\n      sload\n      dup2\n      jump\t// out\n        /* \"contracts/FundMe.sol\":2230:2352  function getConversionRate(uint256 _amount) public view returns(uint256)\r... */\n    tag_22:\n        /* \"contracts/FundMe.sol\":2294:2301  uint256 */\n      0x00\n        /* \"contracts/FundMe.sol\":2334:2344  getPrice() */\n      tag_37\n        /* \"contracts/FundMe.sol\":2334:2342  getPrice */\n      tag_26\n        /* \"contracts/FundMe.sol\":2334:2344  getPrice() */\n      jump\t// in\n    tag_37:\n        /* \"contracts/FundMe.sol\":2326:2333  _amount */\n      dup3\n        /* \"contracts/FundMe.sol\":2326:2344  _amount/getPrice() */\n      tag_38\n      swap2\n      swap1\n      tag_39\n      jump\t// in\n    tag_38:\n        /* \"contracts/FundMe.sol\":2319:2344  return _amount/getPrice() */\n      swap1\n      pop\n        /* \"contracts/FundMe.sol\":2230:2352  function getConversionRate(uint256 _amount) public view returns(uint256)\r... */\n      swap2\n      swap1\n      pop\n      jump\t// out\n        /* \"contracts/FundMe.sol\":1784:2222  function getPrice() public view returns(uint256)\r... */\n    tag_26:\n        /* \"contracts/FundMe.sol\":1824:1831  uint256 */\n      0x00\n        /* \"contracts/FundMe.sol\":1849:1880  AggregatorV3Interface pricefeed */\n      dup1\n        /* \"contracts/FundMe.sol\":1905:1947  0xD4a33860578De61DBAbDc8BFdb98FD742fA7028e */\n      0xd4a33860578de61dbabdc8bfdb98fd742fa7028e\n        /* \"contracts/FundMe.sol\":1849:1948  AggregatorV3Interface pricefeed = AggregatorV3Interface(0xD4a33860578De61DBAbDc8BFdb98FD742fA7028e) */\n      swap1\n      pop\n        /* \"contracts/FundMe.sol\":2007:2020  int256 answer */\n      0x00\n        /* \"contracts/FundMe.sol\":2141:2150  pricefeed */\n      dup2\n        /* \"contracts/FundMe.sol\":2141:2166  pricefeed.latestRoundData */\n      0xffffffffffffffffffffffffffffffffffffffff\n      and\n      0xfeaf968c\n        /* \"contracts/FundMe.sol\":2141:2168  pricefeed.latestRoundData() */\n      mload(0x40)\n      dup2\n      0xffffffff\n      and\n      0xe0\n      shl\n      dup2\n      mstore\n      0x04\n      add\n      0xa0\n      mload(0x40)\n      dup1\n      dup4\n      sub\n      dup2\n      dup7\n      dup1\n      extcodesize\n      iszero\n      dup1\n      iszero\n      tag_41\n      jumpi\n      0x00\n      dup1\n      revert\n    tag_41:\n      pop\n      gas\n      staticcall\n      iszero\n      dup1\n      iszero\n      tag_43\n      jumpi\n      returndatasize\n      0x00\n      dup1\n      returndatacopy\n      revert(0x00, returndatasize)\n    tag_43:\n      pop\n      pop\n      pop\n      pop\n      mload(0x40)\n      returndatasize\n      not(0x1f)\n      0x1f\n      dup3\n      add\n      and\n      dup3\n      add\n      dup1\n      0x40\n      mstore\n      pop\n      dup2\n      add\n      swap1\n      tag_44\n      swap2\n      swap1\n      tag_45\n      jump\t// in\n    tag_44:\n        /* \"contracts/FundMe.sol\":1959:2168  (\r... */\n      pop\n      pop\n      pop\n      swap2\n      pop\n      pop\n        /* \"contracts/FundMe.sol\":2201:2212  10000000000 */\n      0x02540be400\n        /* \"contracts/FundMe.sol\":2194:2200  answer */\n      dup2\n        /* \"contracts/FundMe.sol\":2194:2212  answer*10000000000 */\n      tag_46\n      swap2\n      swap1\n      tag_47\n      jump\t// in\n    tag_46:\n        /* \"contracts/FundMe.sol\":2179:2213  return uint256(answer*10000000000) */\n      swap3\n      pop\n      pop\n      pop\n        /* \"contracts/FundMe.sol\":1784:2222  function getPrice() public view returns(uint256)\r... */\n      swap1\n      jump\t// out\n        /* \"contracts/FundMe.sol\":1226:1375  function fund() public payable\r... */\n    tag_29:\n        /* \"contracts/FundMe.sol\":1310:1319  msg.value */\n      callvalue\n        /* \"contracts/FundMe.sol\":1273:1294  addressToAmountFunded */\n      0x00\n        /* \"contracts/FundMe.sol\":1273:1306  addressToAmountFunded[msg.sender] */\n      dup1\n        /* \"contracts/FundMe.sol\":1295:1305  msg.sender */\n      caller\n        /* \"contracts/FundMe.sol\":1273:1306  addressToAmountFunded[msg.sender] */\n      0xffffffffffffffffffffffffffffffffffffffff\n      and\n      0xffffffffffffffffffffffffffffffffffffffff\n      and\n      dup2\n      mstore\n      0x20\n      add\n      swap1\n      dup2\n      mstore\n      0x20\n      add\n      0x00\n      keccak256\n      0x00\n        /* \"contracts/FundMe.sol\":1273:1319  addressToAmountFunded[msg.sender] += msg.value */\n      dup3\n      dup3\n      sload\n      tag_49\n      swap2\n      swap1\n      tag_50\n      jump\t// in\n    tag_49:\n      swap3\n      pop\n      pop\n      dup2\n      swap1\n      sstore\n      pop\n        /* \"contracts/FundMe.sol\":1226:1375  function fund() public payable\r... */\n      jump\t// out\n        /* \"#utility.yul\":7:146   */\n    tag_52:\n        /* \"#utility.yul\":53:58   */\n      0x00\n        /* \"#utility.yul\":91:97   */\n      dup2\n        /* \"#utility.yul\":78:98   */\n      calldataload\n        /* \"#utility.yul\":69:98   */\n      swap1\n      pop\n        /* \"#utility.yul\":107:140   */\n      tag_54\n        /* \"#utility.yul\":134:139   */\n      dup2\n        /* \"#utility.yul\":107:140   */\n      tag_55\n      jump\t// in\n    tag_54:\n        /* \"#utility.yul\":7:146   */\n      swap3\n      swap2\n      pop\n      pop\n      jump\t// out\n        /* \"#utility.yul\":152:293   */\n    tag_56:\n        /* \"#utility.yul\":208:213   */\n      0x00\n        /* \"#utility.yul\":239:245   */\n      dup2\n        /* \"#utility.yul\":233:246   */\n      mload\n        /* \"#utility.yul\":224:246   */\n      swap1\n      pop\n        /* \"#utility.yul\":255:287   */\n      tag_58\n        /* \"#utility.yul\":281:286   */\n      dup2\n        /* \"#utility.yul\":255:287   */\n      tag_59\n      jump\t// in\n    tag_58:\n        /* \"#utility.yul\":152:293   */\n      swap3\n      swap2\n      pop\n      pop\n      jump\t// out\n        /* \"#utility.yul\":299:438   */\n    tag_60:\n        /* \"#utility.yul\":345:350   */\n      0x00\n        /* \"#utility.yul\":383:389   */\n      dup2\n        /* \"#utility.yul\":370:390   */\n      calldataload\n        /* \"#utility.yul\":361:390   */\n      swap1\n      pop\n        /* \"#utility.yul\":399:432   */\n      tag_62\n        /* \"#utility.yul\":426:431   */\n      dup2\n        /* \"#utility.yul\":399:432   */\n      tag_63\n      jump\t// in\n    tag_62:\n        /* \"#utility.yul\":299:438   */\n      swap3\n      swap2\n      pop\n      pop\n      jump\t// out\n        /* \"#utility.yul\":444:587   */\n    tag_64:\n        /* \"#utility.yul\":501:506   */\n      0x00\n        /* \"#utility.yul\":532:538   */\n      dup2\n        /* \"#utility.yul\":526:539   */\n      mload\n        /* \"#utility.yul\":517:539   */\n      swap1\n      pop\n        /* \"#utility.yul\":548:581   */\n      tag_66\n        /* \"#utility.yul\":575:580   */\n      dup2\n        /* \"#utility.yul\":548:581   */\n      tag_63\n      jump\t// in\n    tag_66:\n        /* \"#utility.yul\":444:587   */\n      swap3\n      swap2\n      pop\n      pop\n      jump\t// out\n        /* \"#utility.yul\":593:734   */\n    tag_67:\n        /* \"#utility.yul\":649:654   */\n      0x00\n        /* \"#utility.yul\":680:686   */\n      dup2\n        /* \"#utility.yul\":674:687   */\n      mload\n        /* \"#utility.yul\":665:687   */\n      swap1\n      pop\n        /* \"#utility.yul\":696:728   */\n      tag_69\n        /* \"#utility.yul\":722:727   */\n      dup2\n        /* \"#utility.yul\":696:728   */\n      tag_70\n      jump\t// in\n    tag_69:\n        /* \"#utility.yul\":593:734   */\n      swap3\n      swap2\n      pop\n      pop\n      jump\t// out\n        /* \"#utility.yul\":740:1069   */\n    tag_15:\n        /* \"#utility.yul\":799:805   */\n      0x00\n        /* \"#utility.yul\":848:850   */\n      0x20\n        /* \"#utility.yul\":836:845   */\n      dup3\n        /* \"#utility.yul\":827:834   */\n      dup5\n        /* \"#utility.yul\":823:846   */\n      sub\n        /* \"#utility.yul\":819:851   */\n      slt\n        /* \"#utility.yul\":816:935   */\n      iszero\n      tag_72\n      jumpi\n        /* \"#utility.yul\":854:933   */\n      tag_73\n      tag_74\n      jump\t// in\n    tag_73:\n        /* \"#utility.yul\":816:935   */\n    tag_72:\n        /* \"#utility.yul\":974:975   */\n      0x00\n        /* \"#utility.yul\":999:1052   */\n      tag_75\n        /* \"#utility.yul\":1044:1051   */\n      dup5\n        /* \"#utility.yul\":1035:1041   */\n      dup3\n        /* \"#utility.yul\":1024:1033   */\n      dup6\n        /* \"#utility.yul\":1020:1042   */\n      add\n        /* \"#utility.yul\":999:1052   */\n      tag_52\n      jump\t// in\n    tag_75:\n        /* \"#utility.yul\":989:1052   */\n      swap2\n      pop\n        /* \"#utility.yul\":945:1062   */\n      pop\n        /* \"#utility.yul\":740:1069   */\n      swap3\n      swap2\n      pop\n      pop\n      jump\t// out\n        /* \"#utility.yul\":1075:1404   */\n    tag_21:\n        /* \"#utility.yul\":1134:1140   */\n      0x00\n        /* \"#utility.yul\":1183:1185   */\n      0x20\n        /* \"#utility.yul\":1171:1180   */\n      dup3\n        /* \"#utility.yul\":1162:1169   */\n      dup5\n        /* \"#utility.yul\":1158:1181   */\n      sub\n        /* \"#utility.yul\":1154:1186   */\n      slt\n        /* \"#utility.yul\":1151:1270   */\n      iszero\n      tag_77\n      jumpi\n        /* \"#utility.yul\":1189:1268   */\n      tag_78\n      tag_74\n      jump\t// in\n    tag_78:\n        /* \"#utility.yul\":1151:1270   */\n    tag_77:\n        /* \"#utility.yul\":1309:1310   */\n      0x00\n        /* \"#utility.yul\":1334:1387   */\n      tag_79\n        /* \"#utility.yul\":1379:1386   */\n      dup5\n        /* \"#utility.yul\":1370:1376   */\n      dup3\n        /* \"#utility.yul\":1359:1368   */\n      dup6\n        /* \"#utility.yul\":1355:1377   */\n      add\n        /* \"#utility.yul\":1334:1387   */\n      tag_60\n      jump\t// in\n    tag_79:\n        /* \"#utility.yul\":1324:1387   */\n      swap2\n      pop\n        /* \"#utility.yul\":1280:1397   */\n      pop\n        /* \"#utility.yul\":1075:1404   */\n      swap3\n      swap2\n      pop\n      pop\n      jump\t// out\n        /* \"#utility.yul\":1410:1761   */\n    tag_35:\n        /* \"#utility.yul\":1480:1486   */\n      0x00\n        /* \"#utility.yul\":1529:1531   */\n      0x20\n        /* \"#utility.yul\":1517:1526   */\n      dup3\n        /* \"#utility.yul\":1508:1515   */\n      dup5\n        /* \"#utility.yul\":1504:1527   */\n      sub\n        /* \"#utility.yul\":1500:1532   */\n      slt\n        /* \"#utility.yul\":1497:1616   */\n      iszero\n      tag_81\n      jumpi\n        /* \"#utility.yul\":1535:1614   */\n      tag_82\n      tag_74\n      jump\t// in\n    tag_82:\n        /* \"#utility.yul\":1497:1616   */\n    tag_81:\n        /* \"#utility.yul\":1655:1656   */\n      0x00\n        /* \"#utility.yul\":1680:1744   */\n      tag_83\n        /* \"#utility.yul\":1736:1743   */\n      dup5\n        /* \"#utility.yul\":1727:1733   */\n      dup3\n        /* \"#utility.yul\":1716:1725   */\n      dup6\n        /* \"#utility.yul\":1712:1734   */\n      add\n        /* \"#utility.yul\":1680:1744   */\n      tag_64\n      jump\t// in\n    tag_83:\n        /* \"#utility.yul\":1670:1744   */\n      swap2\n      pop\n        /* \"#utility.yul\":1626:1754   */\n      pop\n        /* \"#utility.yul\":1410:1761   */\n      swap3\n      swap2\n      pop\n      pop\n      jump\t// out\n        /* \"#utility.yul\":1767:2738   */\n    tag_45:\n        /* \"#utility.yul\":1870:1876   */\n      0x00\n        /* \"#utility.yul\":1878:1884   */\n      dup1\n        /* \"#utility.yul\":1886:1892   */\n      0x00\n        /* \"#utility.yul\":1894:1900   */\n      dup1\n        /* \"#utility.yul\":1902:1908   */\n      0x00\n        /* \"#utility.yul\":1951:1954   */\n      0xa0\n        /* \"#utility.yul\":1939:1948   */\n      dup7\n        /* \"#utility.yul\":1930:1937   */\n      dup9\n        /* \"#utility.yul\":1926:1949   */\n      sub\n        /* \"#utility.yul\":1922:1955   */\n      slt\n        /* \"#utility.yul\":1919:2039   */\n      iszero\n      tag_85\n      jumpi\n        /* \"#utility.yul\":1958:2037   */\n      tag_86\n      tag_74\n      jump\t// in\n    tag_86:\n        /* \"#utility.yul\":1919:2039   */\n    tag_85:\n        /* \"#utility.yul\":2078:2079   */\n      0x00\n        /* \"#utility.yul\":2103:2166   */\n      tag_87\n        /* \"#utility.yul\":2158:2165   */\n      dup9\n        /* \"#utility.yul\":2149:2155   */\n      dup3\n        /* \"#utility.yul\":2138:2147   */\n      dup10\n        /* \"#utility.yul\":2134:2156   */\n      add\n        /* \"#utility.yul\":2103:2166   */\n      tag_67\n      jump\t// in\n    tag_87:\n        /* \"#utility.yul\":2093:2166   */\n      swap6\n      pop\n        /* \"#utility.yul\":2049:2176   */\n      pop\n        /* \"#utility.yul\":2215:2217   */\n      0x20\n        /* \"#utility.yul\":2241:2304   */\n      tag_88\n        /* \"#utility.yul\":2296:2303   */\n      dup9\n        /* \"#utility.yul\":2287:2293   */\n      dup3\n        /* \"#utility.yul\":2276:2285   */\n      dup10\n        /* \"#utility.yul\":2272:2294   */\n      add\n        /* \"#utility.yul\":2241:2304   */\n      tag_56\n      jump\t// in\n    tag_88:\n        /* \"#utility.yul\":2231:2304   */\n      swap5\n      pop\n        /* \"#utility.yul\":2186:2314   */\n      pop\n        /* \"#utility.yul\":2353:2355   */\n      0x40\n        /* \"#utility.yul\":2379:2443   */\n      tag_89\n        /* \"#utility.yul\":2435:2442   */\n      dup9\n        /* \"#utility.yul\":2426:2432   */\n      dup3\n        /* \"#utility.yul\":2415:2424   */\n      dup10\n        /* \"#utility.yul\":2411:2433   */\n      add\n        /* \"#utility.yul\":2379:2443   */\n      tag_64\n      jump\t// in\n    tag_89:\n        /* \"#utility.yul\":2369:2443   */\n      swap4\n      pop\n        /* \"#utility.yul\":2324:2453   */\n      pop\n        /* \"#utility.yul\":2492:2494   */\n      0x60\n        /* \"#utility.yul\":2518:2582   */\n      tag_90\n        /* \"#utility.yul\":2574:2581   */\n      dup9\n        /* \"#utility.yul\":2565:2571   */\n      dup3\n        /* \"#utility.yul\":2554:2563   */\n      dup10\n        /* \"#utility.yul\":2550:2572   */\n      add\n        /* \"#utility.yul\":2518:2582   */\n      tag_64\n      jump\t// in\n    tag_90:\n        /* \"#utility.yul\":2508:2582   */\n      swap3\n      pop\n        /* \"#utility.yul\":2463:2592   */\n      pop\n        /* \"#utility.yul\":2631:2634   */\n      0x80\n        /* \"#utility.yul\":2658:2721   */\n      tag_91\n        /* \"#utility.yul\":2713:2720   */\n      dup9\n        /* \"#utility.yul\":2704:2710   */\n      dup3\n        /* \"#utility.yul\":2693:2702   */\n      dup10\n        /* \"#utility.yul\":2689:2711   */\n      add\n        /* \"#utility.yul\":2658:2721   */\n      tag_67\n      jump\t// in\n    tag_91:\n        /* \"#utility.yul\":2648:2721   */\n      swap2\n      pop\n        /* \"#utility.yul\":2602:2731   */\n      pop\n        /* \"#utility.yul\":1767:2738   */\n      swap3\n      swap6\n      pop\n      swap3\n      swap6\n      swap1\n      swap4\n      pop\n      jump\t// out\n        /* \"#utility.yul\":2744:2862   */\n    tag_92:\n        /* \"#utility.yul\":2831:2855   */\n      tag_94\n        /* \"#utility.yul\":2849:2854   */\n      dup2\n        /* \"#utility.yul\":2831:2855   */\n      tag_95\n      jump\t// in\n    tag_94:\n        /* \"#utility.yul\":2826:2829   */\n      dup3\n        /* \"#utility.yul\":2819:2856   */\n      mstore\n        /* \"#utility.yul\":2744:2862   */\n      pop\n      pop\n      jump\t// out\n        /* \"#utility.yul\":2868:3090   */\n    tag_11:\n        /* \"#utility.yul\":2961:2965   */\n      0x00\n        /* \"#utility.yul\":2999:3001   */\n      0x20\n        /* \"#utility.yul\":2988:2997   */\n      dup3\n        /* \"#utility.yul\":2984:3002   */\n      add\n        /* \"#utility.yul\":2976:3002   */\n      swap1\n      pop\n        /* \"#utility.yul\":3012:3083   */\n      tag_97\n        /* \"#utility.yul\":3080:3081   */\n      0x00\n        /* \"#utility.yul\":3069:3078   */\n      dup4\n        /* \"#utility.yul\":3065:3082   */\n      add\n        /* \"#utility.yul\":3056:3062   */\n      dup5\n        /* \"#utility.yul\":3012:3083   */\n      tag_92\n      jump\t// in\n    tag_97:\n        /* \"#utility.yul\":2868:3090   */\n      swap3\n      swap2\n      pop\n      pop\n      jump\t// out\n        /* \"#utility.yul\":3177:3482   */\n    tag_50:\n        /* \"#utility.yul\":3217:3220   */\n      0x00\n        /* \"#utility.yul\":3236:3256   */\n      tag_101\n        /* \"#utility.yul\":3254:3255   */\n      dup3\n        /* \"#utility.yul\":3236:3256   */\n      tag_95\n      jump\t// in\n    tag_101:\n        /* \"#utility.yul\":3231:3256   */\n      swap2\n      pop\n        /* \"#utility.yul\":3270:3290   */\n      tag_102\n        /* \"#utility.yul\":3288:3289   */\n      dup4\n        /* \"#utility.yul\":3270:3290   */\n      tag_95\n      jump\t// in\n    tag_102:\n        /* \"#utility.yul\":3265:3290   */\n      swap3\n      pop\n        /* \"#utility.yul\":3424:3425   */\n      dup3\n        /* \"#utility.yul\":3356:3422   */\n      0xffffffffffffffffffffffffffffffffffffffffffffffffffffffffffffffff\n        /* \"#utility.yul\":3352:3426   */\n      sub\n        /* \"#utility.yul\":3349:3350   */\n      dup3\n        /* \"#utility.yul\":3346:3427   */\n      gt\n        /* \"#utility.yul\":3343:3450   */\n      iszero\n      tag_103\n      jumpi\n        /* \"#utility.yul\":3430:3448   */\n      tag_104\n      tag_105\n      jump\t// in\n    tag_104:\n        /* \"#utility.yul\":3343:3450   */\n    tag_103:\n        /* \"#utility.yul\":3474:3475   */\n      dup3\n        /* \"#utility.yul\":3471:3472   */\n      dup3\n        /* \"#utility.yul\":3467:3476   */\n      add\n        /* \"#utility.yul\":3460:3476   */\n      swap1\n      pop\n        /* \"#utility.yul\":3177:3482   */\n      swap3\n      swap2\n      pop\n      pop\n      jump\t// out\n        /* \"#utility.yul\":3488:3673   */\n    tag_39:\n        /* \"#utility.yul\":3528:3529   */\n      0x00\n        /* \"#utility.yul\":3545:3565   */\n      tag_107\n        /* \"#utility.yul\":3563:3564   */\n      dup3\n        /* \"#utility.yul\":3545:3565   */\n      tag_95\n      jump\t// in\n    tag_107:\n        /* \"#utility.yul\":3540:3565   */\n      swap2\n      pop\n        /* \"#utility.yul\":3579:3599   */\n      tag_108\n        /* \"#utility.yul\":3597:3598   */\n      dup4\n        /* \"#utility.yul\":3579:3599   */\n      tag_95\n      jump\t// in\n    tag_108:\n        /* \"#utility.yul\":3574:3599   */\n      swap3\n      pop\n        /* \"#utility.yul\":3618:3619   */\n      dup3\n        /* \"#utility.yul\":3608:3643   */\n      tag_109\n      jumpi\n        /* \"#utility.yul\":3623:3641   */\n      tag_110\n      tag_111\n      jump\t// in\n    tag_110:\n        /* \"#utility.yul\":3608:3643   */\n    tag_109:\n        /* \"#utility.yul\":3665:3666   */\n      dup3\n        /* \"#utility.yul\":3662:3663   */\n      dup3\n        /* \"#utility.yul\":3658:3667   */\n      div\n        /* \"#utility.yul\":3653:3667   */\n      swap1\n      pop\n        /* \"#utility.yul\":3488:3673   */\n      swap3\n      swap2\n      pop\n      pop\n      jump\t// out\n        /* \"#utility.yul\":3679:4670   */\n    tag_47:\n        /* \"#utility.yul\":3718:3725   */\n      0x00\n        /* \"#utility.yul\":3741:3760   */\n      tag_113\n        /* \"#utility.yul\":3758:3759   */\n      dup3\n        /* \"#utility.yul\":3741:3760   */\n      tag_114\n      jump\t// in\n    tag_113:\n        /* \"#utility.yul\":3736:3760   */\n      swap2\n      pop\n        /* \"#utility.yul\":3774:3793   */\n      tag_115\n        /* \"#utility.yul\":3791:3792   */\n      dup4\n        /* \"#utility.yul\":3774:3793   */\n      tag_114\n      jump\t// in\n    tag_115:\n        /* \"#utility.yul\":3769:3793   */\n      swap3\n      pop\n        /* \"#utility.yul\":3975:3976   */\n      dup3\n        /* \"#utility.yul\":3907:3973   */\n      0x7fffffffffffffffffffffffffffffffffffffffffffffffffffffffffffffff\n        /* \"#utility.yul\":3903:3977   */\n      div\n        /* \"#utility.yul\":3900:3901   */\n      dup3\n        /* \"#utility.yul\":3897:3978   */\n      gt\n        /* \"#utility.yul\":3892:3893   */\n      0x00\n        /* \"#utility.yul\":3889:3890   */\n      dup5\n        /* \"#utility.yul\":3885:3894   */\n      sgt\n        /* \"#utility.yul\":3881:3882   */\n      0x00\n        /* \"#utility.yul\":3878:3879   */\n      dup5\n        /* \"#utility.yul\":3874:3883   */\n      sgt\n        /* \"#utility.yul\":3870:3895   */\n      and\n        /* \"#utility.yul\":3866:3979   */\n      and\n        /* \"#utility.yul\":3863:4002   */\n      iszero\n      tag_116\n      jumpi\n        /* \"#utility.yul\":3982:4000   */\n      tag_117\n      tag_105\n      jump\t// in\n    tag_117:\n        /* \"#utility.yul\":3863:4002   */\n    tag_116:\n        /* \"#utility.yul\":4186:4187   */\n      dup2\n        /* \"#utility.yul\":4118:4184   */\n      0x8000000000000000000000000000000000000000000000000000000000000000\n        /* \"#utility.yul\":4113:4188   */\n      sdiv\n        /* \"#utility.yul\":4110:4111   */\n      dup4\n        /* \"#utility.yul\":4106:4189   */\n      slt\n        /* \"#utility.yul\":4101:4102   */\n      0x00\n        /* \"#utility.yul\":4098:4099   */\n      dup5\n        /* \"#utility.yul\":4094:4103   */\n      slt\n        /* \"#utility.yul\":4090:4091   */\n      0x00\n        /* \"#utility.yul\":4087:4088   */\n      dup5\n        /* \"#utility.yul\":4083:4092   */\n      sgt\n        /* \"#utility.yul\":4079:4104   */\n      and\n        /* \"#utility.yul\":4075:4190   */\n      and\n        /* \"#utility.yul\":4072:4213   */\n      iszero\n      tag_118\n      jumpi\n        /* \"#utility.yul\":4193:4211   */\n      tag_119\n      tag_105\n      jump\t// in\n    tag_119:\n        /* \"#utility.yul\":4072:4213   */\n    tag_118:\n        /* \"#utility.yul\":4397:4398   */\n      dup3\n        /* \"#utility.yul\":4329:4395   */\n      0x8000000000000000000000000000000000000000000000000000000000000000\n        /* \"#utility.yul\":4324:4399   */\n      sdiv\n        /* \"#utility.yul\":4321:4322   */\n      dup3\n        /* \"#utility.yul\":4317:4400   */\n      slt\n        /* \"#utility.yul\":4312:4313   */\n      0x00\n        /* \"#utility.yul\":4309:4310   */\n      dup5\n        /* \"#utility.yul\":4305:4314   */\n      sgt\n        /* \"#utility.yul\":4301:4302   */\n      0x00\n        /* \"#utility.yul\":4298:4299   */\n      dup5\n        /* \"#utility.yul\":4294:4303   */\n      slt\n        /* \"#utility.yul\":4290:4315   */\n      and\n        /* \"#utility.yul\":4286:4401   */\n      and\n        /* \"#utility.yul\":4283:4424   */\n      iszero\n      tag_120\n      jumpi\n        /* \"#utility.yul\":4404:4422   */\n      tag_121\n      tag_105\n      jump\t// in\n    tag_121:\n        /* \"#utility.yul\":4283:4424   */\n    tag_120:\n        /* \"#utility.yul\":4607:4608   */\n      dup3\n        /* \"#utility.yul\":4539:4605   */\n      0x7fffffffffffffffffffffffffffffffffffffffffffffffffffffffffffffff\n        /* \"#utility.yul\":4534:4609   */\n      sdiv\n        /* \"#utility.yul\":4531:4532   */\n      dup3\n        /* \"#utility.yul\":4527:4610   */\n      slt\n        /* \"#utility.yul\":4522:4523   */\n      0x00\n        /* \"#utility.yul\":4519:4520   */\n      dup5\n        /* \"#utility.yul\":4515:4524   */\n      slt\n        /* \"#utility.yul\":4511:4512   */\n      0x00\n        /* \"#utility.yul\":4508:4509   */\n      dup5\n        /* \"#utility.yul\":4504:4513   */\n      slt\n        /* \"#utility.yul\":4500:4525   */\n      and\n        /* \"#utility.yul\":4496:4611   */\n      and\n        /* \"#utility.yul\":4493:4634   */\n      iszero\n      tag_122\n      jumpi\n        /* \"#utility.yul\":4614:4632   */\n      tag_123\n      tag_105\n      jump\t// in\n    tag_123:\n        /* \"#utility.yul\":4493:4634   */\n    tag_122:\n        /* \"#utility.yul\":4662:4663   */\n      dup3\n        /* \"#utility.yul\":4659:4660   */\n      dup3\n        /* \"#utility.yul\":4655:4664   */\n      mul\n        /* \"#utility.yul\":4644:4664   */\n      swap1\n      pop\n        /* \"#utility.yul\":3679:4670   */\n      swap3\n      swap2\n      pop\n      pop\n      jump\t// out\n        /* \"#utility.yul\":4676:4772   */\n    tag_124:\n        /* \"#utility.yul\":4713:4720   */\n      0x00\n        /* \"#utility.yul\":4742:4766   */\n      tag_126\n        /* \"#utility.yul\":4760:4765   */\n      dup3\n        /* \"#utility.yul\":4742:4766   */\n      tag_127\n      jump\t// in\n    tag_126:\n        /* \"#utility.yul\":4731:4766   */\n      swap1\n      pop\n        /* \"#utility.yul\":4676:4772   */\n      swap2\n      swap1\n      pop\n      jump\t// out\n        /* \"#utility.yul\":4778:4854   */\n    tag_114:\n        /* \"#utility.yul\":4814:4821   */\n      0x00\n        /* \"#utility.yul\":4843:4848   */\n      dup2\n        /* \"#utility.yul\":4832:4848   */\n      swap1\n      pop\n        /* \"#utility.yul\":4778:4854   */\n      swap2\n      swap1\n      pop\n      jump\t// out\n        /* \"#utility.yul\":4860:4986   */\n    tag_127:\n        /* \"#utility.yul\":4897:4904   */\n      0x00\n        /* \"#utility.yul\":4937:4979   */\n      0xffffffffffffffffffffffffffffffffffffffff\n        /* \"#utility.yul\":4930:4935   */\n      dup3\n        /* \"#utility.yul\":4926:4980   */\n      and\n        /* \"#utility.yul\":4915:4980   */\n      swap1\n      pop\n        /* \"#utility.yul\":4860:4986   */\n      swap2\n      swap1\n      pop\n      jump\t// out\n        /* \"#utility.yul\":4992:5069   */\n    tag_95:\n        /* \"#utility.yul\":5029:5036   */\n      0x00\n        /* \"#utility.yul\":5058:5063   */\n      dup2\n        /* \"#utility.yul\":5047:5063   */\n      swap1\n      pop\n        /* \"#utility.yul\":4992:5069   */\n      swap2\n      swap1\n      pop\n      jump\t// out\n        /* \"#utility.yul\":5075:5180   */\n    tag_131:\n        /* \"#utility.yul\":5111:5118   */\n      0x00\n        /* \"#utility.yul\":5151:5173   */\n      0xffffffffffffffffffff\n        /* \"#utility.yul\":5144:5149   */\n      dup3\n        /* \"#utility.yul\":5140:5174   */\n      and\n        /* \"#utility.yul\":5129:5174   */\n      swap1\n      pop\n        /* \"#utility.yul\":5075:5180   */\n      swap2\n      swap1\n      pop\n      jump\t// out\n        /* \"#utility.yul\":5186:5366   */\n    tag_105:\n        /* \"#utility.yul\":5234:5311   */\n      0x4e487b7100000000000000000000000000000000000000000000000000000000\n        /* \"#utility.yul\":5231:5232   */\n      0x00\n        /* \"#utility.yul\":5224:5312   */\n      mstore\n        /* \"#utility.yul\":5331:5335   */\n      0x11\n        /* \"#utility.yul\":5328:5329   */\n      0x04\n        /* \"#utility.yul\":5321:5336   */\n      mstore\n        /* \"#utility.yul\":5355:5359   */\n      0x24\n        /* \"#utility.yul\":5352:5353   */\n      0x00\n        /* \"#utility.yul\":5345:5360   */\n      revert\n        /* \"#utility.yul\":5372:5552   */\n    tag_111:\n        /* \"#utility.yul\":5420:5497   */\n      0x4e487b7100000000000000000000000000000000000000000000000000000000\n        /* \"#utility.yul\":5417:5418   */\n      0x00\n        /* \"#utility.yul\":5410:5498   */\n      mstore\n        /* \"#utility.yul\":5517:5521   */\n      0x12\n        /* \"#utility.yul\":5514:5515   */\n      0x04\n        /* \"#utility.yul\":5507:5522   */\n      mstore\n        /* \"#utility.yul\":5541:5545   */\n      0x24\n        /* \"#utility.yul\":5538:5539   */\n      0x00\n        /* \"#utility.yul\":5531:5546   */\n      revert\n        /* \"#utility.yul\":5681:5798   */\n    tag_74:\n        /* \"#utility.yul\":5790:5791   */\n      0x00\n        /* \"#utility.yul\":5787:5788   */\n      dup1\n        /* \"#utility.yul\":5780:5792   */\n      revert\n        /* \"#utility.yul\":5804:5926   */\n    tag_55:\n        /* \"#utility.yul\":5877:5901   */\n      tag_139\n        /* \"#utility.yul\":5895:5900   */\n      dup2\n        /* \"#utility.yul\":5877:5901   */\n      tag_124\n      jump\t// in\n    tag_139:\n        /* \"#utility.yul\":5870:5875   */\n      dup2\n        /* \"#utility.yul\":5867:5902   */\n      eq\n        /* \"#utility.yul\":5857:5920   */\n      tag_140\n      jumpi\n        /* \"#utility.yul\":5916:5917   */\n      0x00\n        /* \"#utility.yul\":5913:5914   */\n      dup1\n        /* \"#utility.yul\":5906:5918   */\n      revert\n        /* \"#utility.yul\":5857:5920   */\n    tag_140:\n        /* \"#utility.yul\":5804:5926   */\n      pop\n      jump\t// out\n        /* \"#utility.yul\":5932:6052   */\n    tag_59:\n        /* \"#utility.yul\":6004:6027   */\n      tag_142\n        /* \"#utility.yul\":6021:6026   */\n      dup2\n        /* \"#utility.yul\":6004:6027   */\n      tag_114\n      jump\t// in\n    tag_142:\n        /* \"#utility.yul\":5997:6002   */\n      dup2\n        /* \"#utility.yul\":5994:6028   */\n      eq\n        /* \"#utility.yul\":5984:6046   */\n      tag_143\n      jumpi\n        /* \"#utility.yul\":6042:6043   */\n      0x00\n        /* \"#utility.yul\":6039:6040   */\n      dup1\n        /* \"#utility.yul\":6032:6044   */\n      revert\n        /* \"#utility.yul\":5984:6046   */\n    tag_143:\n        /* \"#utility.yul\":5932:6052   */\n      pop\n      jump\t// out\n        /* \"#utility.yul\":6058:6180   */\n    tag_63:\n        /* \"#utility.yul\":6131:6155   */\n      tag_145\n        /* \"#utility.yul\":6149:6154   */\n      dup2\n        /* \"#utility.yul\":6131:6155   */\n      tag_95\n      jump\t// in\n    tag_145:\n        /* \"#utility.yul\":6124:6129   */\n      dup2\n        /* \"#utility.yul\":6121:6156   */\n      eq\n        /* \"#utility.yul\":6111:6174   */\n      tag_146\n      jumpi\n        /* \"#utility.yul\":6170:6171   */\n      0x00\n        /* \"#utility.yul\":6167:6168   */\n      dup1\n        /* \"#utility.yul\":6160:6172   */\n      revert\n        /* \"#utility.yul\":6111:6174   */\n    tag_146:\n        /* \"#utility.yul\":6058:6180   */\n      pop\n      jump\t// out\n        /* \"#utility.yul\":6186:6306   */\n    tag_70:\n        /* \"#utility.yul\":6258:6281   */\n      tag_148\n        /* \"#utility.yul\":6275:6280   */\n      dup2\n        /* \"#utility.yul\":6258:6281   */\n      tag_131\n      jump\t// in\n    tag_148:\n        /* \"#utility.yul\":6251:6256   */\n      dup2\n        /* \"#utility.yul\":6248:6282   */\n      eq\n        /* \"#utility.yul\":6238:6300   */\n      tag_149\n      jumpi\n        /* \"#utility.yul\":6296:6297   */\n      0x00\n        /* \"#utility.yul\":6293:6294   */\n      dup1\n        /* \"#utility.yul\":6286:6298   */\n      revert\n        /* \"#utility.yul\":6238:6300   */\n    tag_149:\n        /* \"#utility.yul\":6186:6306   */\n      pop\n      jump\t// out\n\n    auxdata: 0xa26469706673582212207317edfc39eea47a629e4077e0d8fb6580e0cea4046c20041a157234e58e4f5164736f6c63430008070033\n}\n",
				"bytecode": {
					"linkReferences": {},
					"object": "608060405234801561001057600080fd5b5061078e806100206000396000f3fe60806040526004361061004a5760003560e01c80630d8e6e2c1461004f5780633e47d6f31461007a5780636e5b6b28146100b757806398d5fdca146100f4578063b60d42881461011f575b600080fd5b34801561005b57600080fd5b50610064610129565b6040516100719190610484565b60405180910390f35b34801561008657600080fd5b506100a1600480360381019061009c9190610373565b6101c7565b6040516100ae9190610484565b60405180910390f35b3480156100c357600080fd5b506100de60048036038101906100d991906103a0565b6101df565b6040516100eb9190610484565b60405180910390f35b34801561010057600080fd5b506101096101fb565b6040516101169190610484565b60405180910390f35b6101276102b3565b005b60008073d4a33860578de61dbabdc8bfdb98fd742fa7028e90508073ffffffffffffffffffffffffffffffffffffffff166354fd4d506040518163ffffffff1660e01b815260040160206040518083038186803b15801561018957600080fd5b505afa15801561019d573d6000803e3d6000fd5b505050506040513d601f19601f820116820180604052508101906101c191906103cd565b91505090565b60006020528060005260406000206000915090505481565b60006101e96101fb565b826101f491906104f5565b9050919050565b60008073d4a33860578de61dbabdc8bfdb98fd742fa7028e905060008173ffffffffffffffffffffffffffffffffffffffff1663feaf968c6040518163ffffffff1660e01b815260040160a06040518083038186803b15801561025d57600080fd5b505afa158015610271573d6000803e3d6000fd5b505050506040513d601f19601f8201168201806040525081019061029591906103fa565b5050509150506402540be400816102ac9190610526565b9250505090565b346000803373ffffffffffffffffffffffffffffffffffffffff1673ffffffffffffffffffffffffffffffffffffffff1681526020019081526020016000206000828254610301919061049f565b92505081905550565b600081359050610319816106fc565b92915050565b60008151905061032e81610713565b92915050565b6000813590506103438161072a565b92915050565b6000815190506103588161072a565b92915050565b60008151905061036d81610741565b92915050565b600060208284031215610389576103886106f7565b5b60006103978482850161030a565b91505092915050565b6000602082840312156103b6576103b56106f7565b5b60006103c484828501610334565b91505092915050565b6000602082840312156103e3576103e26106f7565b5b60006103f184828501610349565b91505092915050565b600080600080600060a08688031215610416576104156106f7565b5b60006104248882890161035e565b95505060206104358882890161031f565b945050604061044688828901610349565b935050606061045788828901610349565b92505060806104688882890161035e565b9150509295509295909350565b61047e81610679565b82525050565b60006020820190506104996000830184610475565b92915050565b60006104aa82610679565b91506104b583610679565b9250827fffffffffffffffffffffffffffffffffffffffffffffffffffffffffffffffff038211156104ea576104e9610699565b5b828201905092915050565b600061050082610679565b915061050b83610679565b92508261051b5761051a6106c8565b5b828204905092915050565b60006105318261064f565b915061053c8361064f565b9250827f7fffffffffffffffffffffffffffffffffffffffffffffffffffffffffffffff048211600084136000841316161561057b5761057a610699565b5b817f800000000000000000000000000000000000000000000000000000000000000005831260008412600084131616156105b8576105b7610699565b5b827f800000000000000000000000000000000000000000000000000000000000000005821260008413600084121616156105f5576105f4610699565b5b827f7fffffffffffffffffffffffffffffffffffffffffffffffffffffffffffffff058212600084126000841216161561063257610631610699565b5b828202905092915050565b600061064882610659565b9050919050565b6000819050919050565b600073ffffffffffffffffffffffffffffffffffffffff82169050919050565b6000819050919050565b600069ffffffffffffffffffff82169050919050565b7f4e487b7100000000000000000000000000000000000000000000000000000000600052601160045260246000fd5b7f4e487b7100000000000000000000000000000000000000000000000000000000600052601260045260246000fd5b600080fd5b6107058161063d565b811461071057600080fd5b50565b61071c8161064f565b811461072757600080fd5b50565b61073381610679565b811461073e57600080fd5b50565b61074a81610683565b811461075557600080fd5b5056fea26469706673582212207317edfc39eea47a629e4077e0d8fb6580e0cea4046c20041a157234e58e4f5164736f6c63430008070033",
					"opcodes": "PUSH1 0x80 PUSH1 0x40 MSTORE CALLVALUE DUP1 ISZERO PUSH2 0x10 JUMPI PUSH1 0x0 DUP1 REVERT JUMPDEST POP PUSH2 0x78E DUP1 PUSH2 0x20 PUSH1 0x0 CODECOPY PUSH1 0x0 RETURN INVALID PUSH1 0x80 PUSH1 0x40 MSTORE PUSH1 0x4 CALLDATASIZE LT PUSH2 0x4A JUMPI PUSH1 0x0 CALLDATALOAD PUSH1 0xE0 SHR DUP1 PUSH4 0xD8E6E2C EQ PUSH2 0x4F JUMPI DUP1 PUSH4 0x3E47D6F3 EQ PUSH2 0x7A JUMPI DUP1 PUSH4 0x6E5B6B28 EQ PUSH2 0xB7 JUMPI DUP1 PUSH4 0x98D5FDCA EQ PUSH2 0xF4 JUMPI DUP1 PUSH4 0xB60D4288 EQ PUSH2 0x11F JUMPI JUMPDEST PUSH1 0x0 DUP1 REVERT JUMPDEST CALLVALUE DUP1 ISZERO PUSH2 0x5B JUMPI PUSH1 0x0 DUP1 REVERT JUMPDEST POP PUSH2 0x64 PUSH2 0x129 JUMP JUMPDEST PUSH1 0x40 MLOAD PUSH2 0x71 SWAP2 SWAP1 PUSH2 0x484 JUMP JUMPDEST PUSH1 0x40 MLOAD DUP1 SWAP2 SUB SWAP1 RETURN JUMPDEST CALLVALUE DUP1 ISZERO PUSH2 0x86 JUMPI PUSH1 0x0 DUP1 REVERT JUMPDEST POP PUSH2 0xA1 PUSH1 0x4 DUP1 CALLDATASIZE SUB DUP2 ADD SWAP1 PUSH2 0x9C SWAP2 SWAP1 PUSH2 0x373 JUMP JUMPDEST PUSH2 0x1C7 JUMP JUMPDEST PUSH1 0x40 MLOAD PUSH2 0xAE SWAP2 SWAP1 PUSH2 0x484 JUMP JUMPDEST PUSH1 0x40 MLOAD DUP1 SWAP2 SUB SWAP1 RETURN JUMPDEST CALLVALUE DUP1 ISZERO PUSH2 0xC3 JUMPI PUSH1 0x0 DUP1 REVERT JUMPDEST POP PUSH2 0xDE PUSH1 0x4 DUP1 CALLDATASIZE SUB DUP2 ADD SWAP1 PUSH2 0xD9 SWAP2 SWAP1 PUSH2 0x3A0 JUMP JUMPDEST PUSH2 0x1DF JUMP JUMPDEST PUSH1 0x40 MLOAD PUSH2 0xEB SWAP2 SWAP1 PUSH2 0x484 JUMP JUMPDEST PUSH1 0x40 MLOAD DUP1 SWAP2 SUB SWAP1 RETURN JUMPDEST CALLVALUE DUP1 ISZERO PUSH2 0x100 JUMPI PUSH1 0x0 DUP1 REVERT JUMPDEST POP PUSH2 0x109 PUSH2 0x1FB JUMP JUMPDEST PUSH1 0x40 MLOAD PUSH2 0x116 SWAP2 SWAP1 PUSH2 0x484 JUMP JUMPDEST PUSH1 0x40 MLOAD DUP1 SWAP2 SUB SWAP1 RETURN JUMPDEST PUSH2 0x127 PUSH2 0x2B3 JUMP JUMPDEST STOP JUMPDEST PUSH1 0x0 DUP1 PUSH20 0xD4A33860578DE61DBABDC8BFDB98FD742FA7028E SWAP1 POP DUP1 PUSH20 0xFFFFFFFFFFFFFFFFFFFFFFFFFFFFFFFFFFFFFFFF AND PUSH4 0x54FD4D50 PUSH1 0x40 MLOAD DUP2 PUSH4 0xFFFFFFFF AND PUSH1 0xE0 SHL DUP2 MSTORE PUSH1 0x4 ADD PUSH1 0x20 PUSH1 0x40 MLOAD DUP1 DUP4 SUB DUP2 DUP7 DUP1 EXTCODESIZE ISZERO DUP1 ISZERO PUSH2 0x189 JUMPI PUSH1 0x0 DUP1 REVERT JUMPDEST POP GAS STATICCALL ISZERO DUP1 ISZERO PUSH2 0x19D JUMPI RETURNDATASIZE PUSH1 0x0 DUP1 RETURNDATACOPY RETURNDATASIZE PUSH1 0x0 REVERT JUMPDEST POP POP POP POP PUSH1 0x40 MLOAD RETURNDATASIZE PUSH1 0x1F NOT PUSH1 0x1F DUP3 ADD AND DUP3 ADD DUP1 PUSH1 0x40 MSTORE POP DUP2 ADD SWAP1 PUSH2 0x1C1 SWAP2 SWAP1 PUSH2 0x3CD JUMP JUMPDEST SWAP2 POP POP SWAP1 JUMP JUMPDEST PUSH1 0x0 PUSH1 0x20 MSTORE DUP1 PUSH1 0x0 MSTORE PUSH1 0x40 PUSH1 0x0 KECCAK256 PUSH1 0x0 SWAP2 POP SWAP1 POP SLOAD DUP2 JUMP JUMPDEST PUSH1 0x0 PUSH2 0x1E9 PUSH2 0x1FB JUMP JUMPDEST DUP3 PUSH2 0x1F4 SWAP2 SWAP1 PUSH2 0x4F5 JUMP JUMPDEST SWAP1 POP SWAP2 SWAP1 POP JUMP JUMPDEST PUSH1 0x0 DUP1 PUSH20 0xD4A33860578DE61DBABDC8BFDB98FD742FA7028E SWAP1 POP PUSH1 0x0 DUP2 PUSH20 0xFFFFFFFFFFFFFFFFFFFFFFFFFFFFFFFFFFFFFFFF AND PUSH4 0xFEAF968C PUSH1 0x40 MLOAD DUP2 PUSH4 0xFFFFFFFF AND PUSH1 0xE0 SHL DUP2 MSTORE PUSH1 0x4 ADD PUSH1 0xA0 PUSH1 0x40 MLOAD DUP1 DUP4 SUB DUP2 DUP7 DUP1 EXTCODESIZE ISZERO DUP1 ISZERO PUSH2 0x25D JUMPI PUSH1 0x0 DUP1 REVERT JUMPDEST POP GAS STATICCALL ISZERO DUP1 ISZERO PUSH2 0x271 JUMPI RETURNDATASIZE PUSH1 0x0 DUP1 RETURNDATACOPY RETURNDATASIZE PUSH1 0x0 REVERT JUMPDEST POP POP POP POP PUSH1 0x40 MLOAD RETURNDATASIZE PUSH1 0x1F NOT PUSH1 0x1F DUP3 ADD AND DUP3 ADD DUP1 PUSH1 0x40 MSTORE POP DUP2 ADD SWAP1 PUSH2 0x295 SWAP2 SWAP1 PUSH2 0x3FA JUMP JUMPDEST POP POP POP SWAP2 POP POP PUSH5 0x2540BE400 DUP2 PUSH2 0x2AC SWAP2 SWAP1 PUSH2 0x526 JUMP JUMPDEST SWAP3 POP POP POP SWAP1 JUMP JUMPDEST CALLVALUE PUSH1 0x0 DUP1 CALLER PUSH20 0xFFFFFFFFFFFFFFFFFFFFFFFFFFFFFFFFFFFFFFFF AND PUSH20 0xFFFFFFFFFFFFFFFFFFFFFFFFFFFFFFFFFFFFFFFF AND DUP2 MSTORE PUSH1 0x20 ADD SWAP1 DUP2 MSTORE PUSH1 0x20 ADD PUSH1 0x0 KECCAK256 PUSH1 0x0 DUP3 DUP3 SLOAD PUSH2 0x301 SWAP2 SWAP1 PUSH2 0x49F JUMP JUMPDEST SWAP3 POP POP DUP2 SWAP1 SSTORE POP JUMP JUMPDEST PUSH1 0x0 DUP2 CALLDATALOAD SWAP1 POP PUSH2 0x319 DUP2 PUSH2 0x6FC JUMP JUMPDEST SWAP3 SWAP2 POP POP JUMP JUMPDEST PUSH1 0x0 DUP2 MLOAD SWAP1 POP PUSH2 0x32E DUP2 PUSH2 0x713 JUMP JUMPDEST SWAP3 SWAP2 POP POP JUMP JUMPDEST PUSH1 0x0 DUP2 CALLDATALOAD SWAP1 POP PUSH2 0x343 DUP2 PUSH2 0x72A JUMP JUMPDEST SWAP3 SWAP2 POP POP JUMP JUMPDEST PUSH1 0x0 DUP2 MLOAD SWAP1 POP PUSH2 0x358 DUP2 PUSH2 0x72A JUMP JUMPDEST SWAP3 SWAP2 POP POP JUMP JUMPDEST PUSH1 0x0 DUP2 MLOAD SWAP1 POP PUSH2 0x36D DUP2 PUSH2 0x741 JUMP JUMPDEST SWAP3 SWAP2 POP POP JUMP JUMPDEST PUSH1 0x0 PUSH1 0x20 DUP3 DUP5 SUB SLT ISZERO PUSH2 0x389 JUMPI PUSH2 0x388 PUSH2 0x6F7 JUMP JUMPDEST JUMPDEST PUSH1 0x0 PUSH2 0x397 DUP5 DUP3 DUP6 ADD PUSH2 0x30A JUMP JUMPDEST SWAP2 POP POP SWAP3 SWAP2 POP POP JUMP JUMPDEST PUSH1 0x0 PUSH1 0x20 DUP3 DUP5 SUB SLT ISZERO PUSH2 0x3B6 JUMPI PUSH2 0x3B5 PUSH2 0x6F7 JUMP JUMPDEST JUMPDEST PUSH1 0x0 PUSH2 0x3C4 DUP5 DUP3 DUP6 ADD PUSH2 0x334 JUMP JUMPDEST SWAP2 POP POP SWAP3 SWAP2 POP POP JUMP JUMPDEST PUSH1 0x0 PUSH1 0x20 DUP3 DUP5 SUB SLT ISZERO PUSH2 0x3E3 JUMPI PUSH2 0x3E2 PUSH2 0x6F7 JUMP JUMPDEST JUMPDEST PUSH1 0x0 PUSH2 0x3F1 DUP5 DUP3 DUP6 ADD PUSH2 0x349 JUMP JUMPDEST SWAP2 POP POP SWAP3 SWAP2 POP POP JUMP JUMPDEST PUSH1 0x0 DUP1 PUSH1 0x0 DUP1 PUSH1 0x0 PUSH1 0xA0 DUP7 DUP9 SUB SLT ISZERO PUSH2 0x416 JUMPI PUSH2 0x415 PUSH2 0x6F7 JUMP JUMPDEST JUMPDEST PUSH1 0x0 PUSH2 0x424 DUP9 DUP3 DUP10 ADD PUSH2 0x35E JUMP JUMPDEST SWAP6 POP POP PUSH1 0x20 PUSH2 0x435 DUP9 DUP3 DUP10 ADD PUSH2 0x31F JUMP JUMPDEST SWAP5 POP POP PUSH1 0x40 PUSH2 0x446 DUP9 DUP3 DUP10 ADD PUSH2 0x349 JUMP JUMPDEST SWAP4 POP POP PUSH1 0x60 PUSH2 0x457 DUP9 DUP3 DUP10 ADD PUSH2 0x349 JUMP JUMPDEST SWAP3 POP POP PUSH1 0x80 PUSH2 0x468 DUP9 DUP3 DUP10 ADD PUSH2 0x35E JUMP JUMPDEST SWAP2 POP POP SWAP3 SWAP6 POP SWAP3 SWAP6 SWAP1 SWAP4 POP JUMP JUMPDEST PUSH2 0x47E DUP2 PUSH2 0x679 JUMP JUMPDEST DUP3 MSTORE POP POP JUMP JUMPDEST PUSH1 0x0 PUSH1 0x20 DUP3 ADD SWAP1 POP PUSH2 0x499 PUSH1 0x0 DUP4 ADD DUP5 PUSH2 0x475 JUMP JUMPDEST SWAP3 SWAP2 POP POP JUMP JUMPDEST PUSH1 0x0 PUSH2 0x4AA DUP3 PUSH2 0x679 JUMP JUMPDEST SWAP2 POP PUSH2 0x4B5 DUP4 PUSH2 0x679 JUMP JUMPDEST SWAP3 POP DUP3 PUSH32 0xFFFFFFFFFFFFFFFFFFFFFFFFFFFFFFFFFFFFFFFFFFFFFFFFFFFFFFFFFFFFFFFF SUB DUP3 GT ISZERO PUSH2 0x4EA JUMPI PUSH2 0x4E9 PUSH2 0x699 JUMP JUMPDEST JUMPDEST DUP3 DUP3 ADD SWAP1 POP SWAP3 SWAP2 POP POP JUMP JUMPDEST PUSH1 0x0 PUSH2 0x500 DUP3 PUSH2 0x679 JUMP JUMPDEST SWAP2 POP PUSH2 0x50B DUP4 PUSH2 0x679 JUMP JUMPDEST SWAP3 POP DUP3 PUSH2 0x51B JUMPI PUSH2 0x51A PUSH2 0x6C8 JUMP JUMPDEST JUMPDEST DUP3 DUP3 DIV SWAP1 POP SWAP3 SWAP2 POP POP JUMP JUMPDEST PUSH1 0x0 PUSH2 0x531 DUP3 PUSH2 0x64F JUMP JUMPDEST SWAP2 POP PUSH2 0x53C DUP4 PUSH2 0x64F JUMP JUMPDEST SWAP3 POP DUP3 PUSH32 0x7FFFFFFFFFFFFFFFFFFFFFFFFFFFFFFFFFFFFFFFFFFFFFFFFFFFFFFFFFFFFFFF DIV DUP3 GT PUSH1 0x0 DUP5 SGT PUSH1 0x0 DUP5 SGT AND AND ISZERO PUSH2 0x57B JUMPI PUSH2 0x57A PUSH2 0x699 JUMP JUMPDEST JUMPDEST DUP2 PUSH32 0x8000000000000000000000000000000000000000000000000000000000000000 SDIV DUP4 SLT PUSH1 0x0 DUP5 SLT PUSH1 0x0 DUP5 SGT AND AND ISZERO PUSH2 0x5B8 JUMPI PUSH2 0x5B7 PUSH2 0x699 JUMP JUMPDEST JUMPDEST DUP3 PUSH32 0x8000000000000000000000000000000000000000000000000000000000000000 SDIV DUP3 SLT PUSH1 0x0 DUP5 SGT PUSH1 0x0 DUP5 SLT AND AND ISZERO PUSH2 0x5F5 JUMPI PUSH2 0x5F4 PUSH2 0x699 JUMP JUMPDEST JUMPDEST DUP3 PUSH32 0x7FFFFFFFFFFFFFFFFFFFFFFFFFFFFFFFFFFFFFFFFFFFFFFFFFFFFFFFFFFFFFFF SDIV DUP3 SLT PUSH1 0x0 DUP5 SLT PUSH1 0x0 DUP5 SLT AND AND ISZERO PUSH2 0x632 JUMPI PUSH2 0x631 PUSH2 0x699 JUMP JUMPDEST JUMPDEST DUP3 DUP3 MUL SWAP1 POP SWAP3 SWAP2 POP POP JUMP JUMPDEST PUSH1 0x0 PUSH2 0x648 DUP3 PUSH2 0x659 JUMP JUMPDEST SWAP1 POP SWAP2 SWAP1 POP JUMP JUMPDEST PUSH1 0x0 DUP2 SWAP1 POP SWAP2 SWAP1 POP JUMP JUMPDEST PUSH1 0x0 PUSH20 0xFFFFFFFFFFFFFFFFFFFFFFFFFFFFFFFFFFFFFFFF DUP3 AND SWAP1 POP SWAP2 SWAP1 POP JUMP JUMPDEST PUSH1 0x0 DUP2 SWAP1 POP SWAP2 SWAP1 POP JUMP JUMPDEST PUSH1 0x0 PUSH10 0xFFFFFFFFFFFFFFFFFFFF DUP3 AND SWAP1 POP SWAP2 SWAP1 POP JUMP JUMPDEST PUSH32 0x4E487B7100000000000000000000000000000000000000000000000000000000 PUSH1 0x0 MSTORE PUSH1 0x11 PUSH1 0x4 MSTORE PUSH1 0x24 PUSH1 0x0 REVERT JUMPDEST PUSH32 0x4E487B7100000000000000000000000000000000000000000000000000000000 PUSH1 0x0 MSTORE PUSH1 0x12 PUSH1 0x4 MSTORE PUSH1 0x24 PUSH1 0x0 REVERT JUMPDEST PUSH1 0x0 DUP1 REVERT JUMPDEST PUSH2 0x705 DUP2 PUSH2 0x63D JUMP JUMPDEST DUP2 EQ PUSH2 0x710 JUMPI PUSH1 0x0 DUP1 REVERT JUMPDEST POP JUMP JUMPDEST PUSH2 0x71C DUP2 PUSH2 0x64F JUMP JUMPDEST DUP2 EQ PUSH2 0x727 JUMPI PUSH1 0x0 DUP1 REVERT JUMPDEST POP JUMP JUMPDEST PUSH2 0x733 DUP2 PUSH2 0x679 JUMP JUMPDEST DUP2 EQ PUSH2 0x73E JUMPI PUSH1 0x0 DUP1 REVERT JUMPDEST POP JUMP JUMPDEST PUSH2 0x74A DUP2 PUSH2 0x683 JUMP JUMPDEST DUP2 EQ PUSH2 0x755 JUMPI PUSH1 0x0 DUP1 REVERT JUMPDEST POP JUMP INVALID LOG2 PUSH5 0x6970667358 0x22 SLT KECCAK256 PUSH20 0x17EDFC39EEA47A629E4077E0D8FB6580E0CEA404 PUSH13 0x20041A157234E58E4F5164736F PUSH13 0x63430008070033000000000000 "
				},
				"gasEstimates": {
					"creation": {
						"codeDepositCost": "386800",
						"executionCost": "424",
						"totalCost": "387224"
					},
					"external": {
						"addressToAmountFunded(address)": "2814",
						"fund()": "infinite",
						"getConversionRate(uint256)": "infinite",
						"getPrice()": "infinite",
						"getVersion()": "infinite"
					}
				},
				"methodIdentifiers": {
					"addressToAmountFunded(address)": "3e47d6f3",
					"fund()": "b60d4288",
					"getConversionRate(uint256)": "6e5b6b28",
					"getPrice()": "98d5fdca",
					"getVersion()": "0d8e6e2c"
				}
			},
			"storageLayout": {
				"storage": [
					{
						"astId": 52,
						"contract": "contracts/FundMe.sol:FundMe",
						"label": "addressToAmountFunded",
						"offset": 0,
						"slot": "0",
						"type": "t_mapping(t_address,t_uint256)"
					}
				],
				"types": {
					"t_address": {
						"encoding": "inplace",
						"label": "address",
						"numberOfBytes": "20"
					},
					"t_mapping(t_address,t_uint256)": {
						"encoding": "mapping",
						"key": "t_address",
						"label": "mapping(address => uint256)",
						"numberOfBytes": "32",
						"value": "t_uint256"
					},
					"t_uint256": {
						"encoding": "inplace",
						"label": "uint256",
						"numberOfBytes": "32"
					}
				}
			},
			"userdoc": {
				"kind": "user",
				"methods": {},
				"version": 1
			}
		}
	}
}